:100000000C942E010C9456010C9456010C9456013C
:100010000C9456010C9456010C9456010C94560104
:100020000C9456010C9456010C942D0A0C94F80A69
:100030000C9456010C9456010C9456010C945601E4
:100040000C9456010C9456010C9456010C945601D4
:100050000C9456010C9456010C9456010C94AE0469
:100060000C9456010C9456010C9456010C945601B4
:100070000C9456010C9456010C9456010C945601A4
:100080000C9456010C9456010C9456010C94560194
:100090000C9456010C9456010C9456010C94560184
:1000A0000C9456010C9456010C9456017001730186
:1000B000620166016C0194019401940177017B0156
:1000C0007F018501890194018F0107634236B79B47
:1000D000D8A71A39685618AEBAAB558C1D3CB7CCA8
:1000E0005763BD6DEDFD753EF6177231BF00000020
:1000F000803F08000000BE922449123EABAAAA2A03
:10010000BECDCCCC4C3E00000080BEABAAAAAA3E1D
:1001100000000000BF000000803F00000000000859
:100120004178D3BB4387D1133D190E3CC3BD4282F6
:10013000AD2B3E68EC8276BED98FE1A93E4C80EFB4
:10014000FFBE01C4FF7F3F00000000000000000070
:10015000240027002A002D003000000000002500A8
:1001600028002B002E003100000000002300260094
:1001700029002C002F0004040404040304050202D7
:100180000202040302020202060606060606040430
:1001900002020204040408020110408040102040C2
:1001A000804080080204018040201002011080106D
:1001B000204040200000000200090F00000304015D
:1001C000000C000000000000000000000000000023
:1001D000000000070605040100080A0B0C0D0908C1
:1001E0000B000202020100090400000102020000EB
:1001F0000524001001052401010104240206052440
:100200000600010705810310004009040100020AED
:1002100000000007050202400000070583024000BD
:10022000000403090412010002EF020140412336D9
:100230008000010102030141726475696E6F204CF8
:100240004C430048617276657374655220436F6E4B
:1002500074726F6C204465636B00581611241FBEC6
:10026000CFEFDAE0DEBFCDBF11E0A0E0B1E0E6E025
:10027000FEE302C005900D92A834B107D9F722E041
:10028000A8E4B1E001C01D92A33AB207E1F711E082
:10029000CEE2D1E004C02197FE010E94B51DCD320F
:1002A000D107C9F70E94C20D0C94011F0C940000E5
:1002B00090E0FC013197EF30F105B0F5EA5AFF4FBD
:1002C0000C94B51D809180008F7703C080918000D1
:1002D0008F7D80938000089580918000877FF9CF83
:1002E00084B58F7702C084B58F7D84BD08958091D9
:1002F00090008F7707C0809190008F7D03C0809120
:100300009000877F8093900008958091C0008F7740
:1003100003C08091C0008F7D8093C00008958091BC
:10032000C200877F8093C20008953FB7F894809100
:10033000660190916701A0916801B091690126B5AD
:10034000A89B05C02F3F19F00196A11DB11D3FBF0D
:10035000BA2FA92F982F8827820F911DA11DB11D9B
:10036000BC01CD0142E0660F771F881F991F4A9597
:10037000D1F708952FB7F8946091620170916301ED
:1003800080916401909165012FBF0895DC01FB010C
:1003900012968C91129790E02481358182179307F1
:1003A000D1F491818081813A31F481E0913091F0F2
:1003B000933089F411C0813271F49B3021F4828131
:1003C0001F968C9305C09A3031F4828150968C939D
:1003D00081E00895089580E00895DC01FB0188E440
:1003E000808389E4818384E482831D969C911D9798
:1003F0009F709F5B93831D968D919C911E9724E027
:10040000969587952A95E1F78F708F5B848385E0B9
:100410000895FC0182818F5BFB01808381E0089558
:100420004F925F926F927F928F929F92AF92BF9204
:10043000CF92DF92EF92FF920F931F93CF93DF93B0
:10044000CDB7DEB728970FB6F894DEBF0FBECDBF8D
:1004500049835A836B837C83280139018D829E8274
:10046000AF82B886BC01990F880B990B0E94FA1ACB
:100470004B015C01A70196010E944B1A882309F4E5
:10048000BBC0A7019601C501B4010E944B1A87FFAA
:100490001CC0A3019201C501B4010E94DE194B01E9
:1004A0005C01A3019201C701B6010E94DE199B0104
:1004B000AC01C501B4010E94501A20E030E040E8D0
:1004C0005FE30E94DE194B015C01A7019601C501A3
:1004D000B4010E94AA1B1816ECF4A7019601C501ED
:1004E000B4010E94DE194B015C01A70196016D81E8
:1004F0007E818F8198850E94DE199B01AC01C50128
:10050000B4010E94501A20E030E0A9010E94DF19D6
:100510004B015C0120E030E0A901C501B4010E945B
:10052000AA1B181624F0C501B401905802C0C501D9
:10053000B40129813A814B815C810E941C1C6B01B2
:100540007C0120E030E0A901C501B4010E94AA1B92
:1005500018166CF020E030E0A901C501B4010E943A
:100560004B1A87FD09C020E030E0A90109C020E056
:1005700030E040E85FE304C020E030E040E85FEBBB
:10058000C701B6010E94AF1B6B017C0120E030E087
:1005900040E85FEB0E944B1A87FD14C020E030E07A
:1005A00040E85FE3C701B6010E94AA1B1816A4F039
:1005B00020E030E0A901C701B6010E94AA1B18166D
:1005C0008CF006C0C12CD12C90E8E92E9FEBF92EBF
:1005D000C701B601905808C0C12CD12C80E8E82E84
:1005E0008FE3F82EC701B6012B8D3C8D4D8D5E8DAE
:1005F0000E944B1A87FF05C050E040E030E020E049
:1006000004C05C2D4D2D3E2D2F2D652F742F832F73
:10061000922F28960FB6F894DEBF0FBECDBFDF91A4
:10062000CF911F910F91FF90EF90DF90CF90BF90EF
:10063000AF909F908F907F906F905F904F900895B4
:100640000E94FC1EEF92FF920F931F93CF93DF93B4
:10065000FB012081213869F52381223251F5DC012B
:1006600012962C9130E0448155814217530709F5C9
:100670008C01FC01C385D485E12CF12C209799F0E5
:100680004C815D816A817B818E81811180E80E942D
:100690009F0A8F3FFFEF9F0779F0E80EF91E099040
:1006A000D881C02DEBCF81E0D8011F968C93C70174
:1006B00005C080E090E002C08FEF9FEFDF91CF9107
:1006C0001F910F91FF90EF900895CF93DF93CDB7D7
:1006D000DEB769970FB6F894DEBF0FBECDBFFC0141
:1006E000DB018C918F5F8C93BE016F5F7F4F89E13F
:1006F000DB011D928A95E9F729E0298384E08A834A
:1007000091E09D8383E08E832A8721E22B879C875B
:100710009D879F8722E2288B27E02B8B25E02C8B5F
:100720008E8B20E430E0388F2F8B998F82818B83E2
:1007300095858685998B8A8B838180688D8B49E12D
:1007400050E080E00E949F0A69960FB6F894DEBFE1
:100750000FBECDBFDF91CF9108952FB7F89487706A
:100760008093E9009091E800892F807295FF04C082
:100770009091F20080E4891B2FBF0895615030F002
:100780002091F100FC0120830196F8CF289884E69F
:100790008093AF0108958091A70181110DC082E07F
:1007A0008093A30184E08093A4011092A60110928B
:1007B000A50181E08093A70183EA91E00895CF939A
:1007C000DF93282F30E0F901EC54FE4F8491F901BA
:1007D000EB56FE4FD491F901EA58FE4FC491CC2359
:1007E00091F081110E945801EC2FF0E0EE0FFF1FF5
:1007F000E859FE4FA591B491EC91ED2381E090E092
:1008000021F480E002C080E090E0DF91CF91089574
:100810001F93CF93DF93282F30E0F901EC54FE4F64
:100820008491F901EB56FE4FD491F901EA58FE4F3D
:10083000C491CC23C9F0162F81110E945801EC2FCE
:10084000F0E0EE0FFF1FE65AFE4FA591B4918FB76F
:10085000F894111105C09C91ED2FE095E92302C099
:10086000EC91ED2BEC938FBFDF91CF911F91089509
:10087000CF93DF9390E0FC01EB56FE4F2491FC01F7
:10088000EA58FE4F8491882361F190E0880F991F08
:10089000FC01E45BFE4FC591D491FC01E65AFE4F8A
:1008A000A591B491611109C09FB7F89488812095F2
:1008B00082238883EC912E230BC0623061F49FB7B2
:1008C000F8943881822F809583238883EC912E2B96
:1008D0002C939FBF06C08FB7F894E8812E2B2883F6
:1008E0008FBFDF91CF9108958F929F92AF92BF9269
:1008F000CF92DF92EF92FF926B017C010E949501F3
:100900004B015C01C114D104E104F104F1F00E9437
:100910009501DC01CB0188199909AA09BB09883E18
:100920009340A105B10570F321E0C21AD108E10896
:10093000F10888EE880E83E0981EA11CB11CC1143A
:10094000D104E104F10419F7DDCFFF90EF90DF90BF
:10095000CF90BF90AF909F908F9008951F920F926D
:100960000FB60F9211242F933F938F939F93AF93C2
:10097000BF938091620190916301A0916401B09155
:1009800065013091610123E0230F2D3720F401969A
:10099000A11DB11D05C026E8230F0296A11DB11DA2
:1009A000209361018093620190936301A09364019D
:1009B000B09365018091660190916701A0916801F3
:1009C000B09169010196A11DB11D809366019093BC
:1009D0006701A0936801B0936901BF91AF919F91A6
:1009E0008F913F912F910F900FBE0F901F901895F0
:1009F0008091590181116BC081E080934C018093FB
:100A00004D0122E531E030934F0120934E011092C9
:100A10005101109250012DE131E0309349012093B2
:100A200048011092540110925301109256011092F5
:100A30005501809357018093580181EC80935201B6
:100A40000E94CB03FC01218180914C0190E0820F38
:100A5000911D089724F081E08093590138C0A2814C
:100A6000B381109729F488E491E0938382830EC0C8
:100A700018968D919C911997009711F0DC01F8CF91
:100A800088E491E019969C938E93189780818093C7
:100A90004A01818180934B01908180914D01890FA2
:100AA000808380E090914C018917A8F6A0914E01B7
:100AB000B0914F01A80FB11D9C91A181B0E0A85F3A
:100AC000BE4F9C9391819F5F91838F5FEBCF88E4B2
:100AD00091E00895CF92DF92EF92FF920F931F93D0
:100AE000CF93DF93D901E801421753071CF0FA01B5
:100AF000690102C06A01F901882309F43FC09C2DF5
:100B00008D2DC616D70614F4962F872F292F382F30
:100B1000E217F3070CF49F01A417B50734F4CF01D3
:100B2000821B930B9C012C0D3D1D0D2C000CEE081F
:100B3000FF08C901330FAA0BBB0B9C01AD012C1997
:100B40003D094E095F09AEEFBFEF0E94A2198F0168
:100B5000FF0F220B330BA90198012C193D094E09F7
:100B60005F090E948319DA01C9018F5F9F47A109BC
:100B7000B1098883998382E090E002C080E090E030
:100B8000DF91CF911F910F91FF90EF90DF90CF9069
:100B90000895CF92DF92EF92FF920F931F93CF931E
:100BA000DF93D901E801421753071CF0FA016901EC
:100BB00002C06A01F901882309F43FC09C2D8D2DE4
:100BC000C616D70614F4962F872F292F382FE21731
:100BD000F3070CF49F01A417B50734F4CF01821B6F
:100BE000930B9C012C0D3D1D0D2C000CEE08FF08F5
:100BF000C901330FAA0BBB0B9C01AD012C193D0998
:100C00004E095F09AEEFBFEF0E94A2198F01FF0FDF
:100C1000220B330BA90198012C193D094E095F09DC
:100C20000E948319DA01C9018F5F9F47A109B109A9
:100C30008883998382E090E002C080E090E0DF91B9
:100C4000CF911F910F91FF90EF90DF90CF9008957B
:100C5000CF92DF92EF92FF920F931F93CF93DF9388
:100C60006C017A018B01C0E0D0E0CE15DF0589F080
:100C7000D8016D918D01D601ED91FC910190F0812B
:100C8000E02DC6010995892B11F47E0102C0219641
:100C9000ECCFC701DF91CF911F910F91FF90EF90A3
:100CA000DF90CF900895CF93DF93EC0180910701FF
:100CB000882331F083E00E94280D1816190634F0BD
:100CC00081E090E09B838A8380E090E0DF91CF9188
:100CD00008950F931F93CF938C01C62F60E08091EE
:100CE0002D020E9408040230110531F10330110574
:100CF00009F440C00130110509F05EC06C2F61702D
:100D0000809125020E940804C1FB662760F980914A
:100D100027020E940804C2FB662760F9809129021D
:100D20000E940804C3FB662760F980912B020E9491
:100D30000804809135023BC06C2F617080912502C0
:100D40000E940804C1FB662760F9809127020E9477
:100D50000804C2FB662760F9809129020E940804FA
:100D6000C3FB662760F980912B020E9408048091E2
:100D700037021DC06C2F6170809125020E9408040B
:100D8000C1FB662760F9809127020E940804C2FB1C
:100D9000662760F9809129020E940804C3FB662738
:100DA00060F980912B020E94080480913902CF9152
:100DB0001F910F910C94DF0380E090E0CF911F9181
:100DC0000F910895AF92BF92CF92DF92EF92FF9270
:100DD0000F931F93CF93DF931F92CDB7DEB7ADB6BE
:100DE000BEB6809124022DB73EB7281B31090FB63D
:100DF000F8943EBF0FBE2DBF8DB79EB701966C0114
:100E0000E090F301F12C8091EF019091F001D60177
:100E1000FC019F01281B390B2E153F051CF4219165
:100E20002D93F7CF8091F401882371F18091EB012C
:100E30009091EC0197FD0AC068E671E00E94A11D47
:100E40006DE270E00E94A11D262F01C028E0809174
:100E5000ED019091EE0197FD0AC068E671E00E94F5
:100E6000A11D6DE270E00E94A11D962F01C098E0C7
:100E7000F601EE0DFF1D30E1939FC0011124822B7E
:100E80008083C70101967C0186010E0D1F1D2091F4
:100E9000F9013091FA014091F7015091F801609108
:100EA000D5017091D6018091F50181700E94C9052C
:100EB000E80EF91E86010E0D1F1D2091FD013091D7
:100EC000FE014091FB015091FC016091D7017091AE
:100ED000D8018091F501869581700E94C905E80EC0
:100EE000F91E86010E0D1F1D209101023091020294
:100EF0004091FF01509100026091D9017091DA0197
:100F00008091F50182FB882780F90E94C905E80ECF
:100F1000F91E86010E0D1F1D20910502309106025B
:100F200040910302509104026091DB017091DC0159
:100F30008091F50183FB882780F90E94C905E80E9E
:100F4000F91E86010E0D1F1D2091090230910A0223
:100F500040910702509108026091DD017091DE011D
:100F60008091F501829581700E94C905E80EF91EF5
:100F700086010E0D1F1D20910D0230910E02409131
:100F80000B0250910C026091DF017091E0018091A1
:100F9000F50185FB882780F90E94C905E80EF91E36
:100FA00086010E0D1F1D20911102309112024091F9
:100FB0000F02509110026091E3017091E401809161
:100FC000F60181700E946A05E80EF91E86010E0D79
:100FD0001F1D20911502309116024091130250916D
:100FE00014026091E1017091E2018091F601869511
:100FF00081700E946A05E80EF91E86010E0D1F1D04
:101000002091190230911A02409117025091180252
:101010006091E5017091E6018091F60182FB8827DD
:1010200080F90E946A05E80EF91E86010E0D1F1D4B
:1010300020911D0230911E0240911B0250911C0212
:101040006091E7017091E8018091F60183FB8827A8
:1010500080F90E946A058E0D9F1D8601080F191FD9
:10106000209121023091220240911F0250912002D2
:101070006091E9017091EA018091F6018295817099
:101080000E946A0510912402009123020E94F80434
:101090007C01098341E050E0BE016F5F7F4FFC019E
:1010A00083810E94280D97FD08C0412F50E0F70171
:1010B0008381B60180640E94280D0FB6F894BEBEED
:1010C0000FBEADBE0F90DF91CF911F910F91FF909A
:1010D000EF90DF90CF90BF90AF9008959091F20184
:1010E000891700F5982F969596959695E091EF01C2
:1010F000F091F001E90FF11D282F277081E090E0B9
:10110000A0E0B0E004C0880F991FAA1FBB1F2A955A
:10111000D2F780959081892380838091F10181119C
:101120000C94E20608959091F2018917F8F4982F33
:10113000969596959695E091EF01F091F001E90F63
:10114000F11D282F277081E090E0A0E0B0E004C0FE
:10115000880F991FAA1FBB1F2A95D2F72081822BC7
:1011600080838091F10181110C94E2060895611150
:1011700002C00C946E080C9493081F93CF93DF93D6
:10118000182F60E080912D020E940804612F617089
:10119000809125020E94080411FB662760F9809166
:1011A00027020E94080412FB662760F98091290239
:1011B0000E94080413FB662760F980912B020E94AD
:1011C0000804E0913902E23108F0E251F0E0ED521A
:1011D000FE4FE49180917B00E3FB992790F9C92FA2
:1011E00090E0D92F95E0CC0FDD1F9A95E1F78F7D28
:1011F000C82BC0937B00E770E064E0937C00809193
:101200007A00806480937A0080917A0086FDFCCF1A
:10121000809178002091790090E0922BDF91CF911E
:101220001F910895FC018091B001811103C08FEFDF
:101230009FEF08959FB7F89482E08093E900209192
:10124000F20030E01216130614F421E030E021150C
:10125000310559F0289884E68093AF018091F10020
:1012600080838091F200882319F09FBFC9010895FF
:101270008BE68093E800F9CFCF93DF931F92CDB731
:10128000DEB76983DC01ED91FC910280F381E02DF2
:1012900041E050E0BE016F5F7F4F09950F90DF91F5
:1012A000CF91089583E08093E9008091F200882334
:1012B00019F08AE38093E8000895FC018485958500
:1012C00097FD0BC09FB7F89482E08093E90080916E
:1012D000F2009FBF90E0019608959FB7F89482E0D6
:1012E0008093E9008091F2009FBF90E008950895F7
:1012F00080E090E0089540919C0250919D022091E1
:101300009A0230919B0242175307B4F49091E8007F
:101310009570E1F39091E80092FD19C08093F1007F
:1013200080919C0290919D0201968F739927892B41
:1013300019F48EEF8093E80080919C0290919D02B9
:10134000019690939D0280939C0281E0089580E035
:101350000895CF92DF92EF92FF920F931F93CF9356
:10136000DF931F92CDB7DEB7182F062FE42E862FFE
:10137000880F8E5F99830E947B0983E00E947B091E
:10138000F12EC12E9981D92E8C2D8F19801798F4AA
:10139000F601E7FE02C0849101C080810E947B09B2
:1013A000182F80E00E947B098123FFEFCF1ADF0A0C
:1013B0008111EACF01C081E00F90DF91CF911F91A1
:1013C0000F91FF90EF90DF90CF90089583E00E94FF
:1013D000AD0390E00895CF93DF931F92CDB7DEB7B2
:1013E000FC018485958597FD05C02FEF3FEF35877C
:1013F00024870BC0CE0101960E941209019719F4AF
:10140000898190E002C08FEF9FEF0F90DF91CF9125
:1014100008950F931F93CF93DF931F92CDB7DEB73D
:101420008C01FC018485958597FF0EC0CE01019645
:101430000E941209019719F4298130E002C02FEFB0
:101440003FEFF80135872487F801848595850F9053
:10145000DF91CF911F910F9108951F920F920FB6B8
:101460000F9211248F939F938091E1009091E1005E
:10147000937F9093E10083FF0FC01092E90091E009
:101480009093EB001092EC0092E39093ED00109299
:10149000B00198E09093F00082FF20C093E0909319
:1014A000E9009091F200992319F09AE39093E800F3
:1014B00090919E02992339F090919E0291509093C1
:1014C0009E02992389F19091AF01992339F090916F
:1014D000AF0191509093AF01992341F184FF10C067
:1014E0008091E2008E7E81608093E2008091E10035
:1014F0008F7E8093E100809199028E7E806111C081
:1015000080FF16C08091E2008E7E80618093E200B1
:101510008091E1008E7E8093E100809199028E7E21
:1015200081608093990204C05D9ACDCF289AD6CF6E
:101530009F918F910F900FBE0F901F901895DF9283
:10154000EF92FF920F931F93CF93DF93D82E8A01D0
:101550007B01E40EF51EEB01CE15DF0571F0D7FE21
:1015600003C0FE01849101C088810E947B092196FD
:101570008111F2CF8FEF9FEF01C0C801DF91CF91B2
:101580001F910F91FF90EF90DF9008950F931F939D
:10159000CF93DF931F92CDB7DEB782E0898342E419
:1015A00050E06FED71E080E80E949F0A0E94CB033B
:1015B000DC0112960D911C9113970115110569F02C
:1015C000D801ED91FC910280F381E02DBE016F5FA7
:1015D0007F4FC801099597FF07C089810F90DF9160
:1015E000CF911F910F910895F80100851185E5CFE6
:1015F0001F920F920FB60F921124CF92DF92EF92AB
:10160000FF920F931F932F933F934F935F936F938B
:101610007F938F939F93AF93BF93EF93FF93CF935A
:10162000DF93CDB7DEB76C97DEBFCDBF1092E90078
:101630008091E80083FFEDC168E0CE0145960E94ED
:10164000BE0382EF8093E8008D8987FF05C09091EB
:10165000E80090FFFCCF03C09EEF9093E800982F26
:10166000907609F0C6C09E892F89188D91110CC003
:10167000803829F4809198028093F10002C0109282
:10168000F1001092F10048C1422F50E0512B9130EF
:1016900051F4811141C14130510509F03DC18091A2
:1016A00098028D7F0BC0933061F4811135C14130B8
:1016B000510509F031C180919802826080939802AF
:1016C0002BC1953041F48091E80080FFFCCF206869
:1016D0002093E30021C1963009F05FC0EB8CFC8CB5
:1016E0001092E90010929D0210929C02123091F526
:1016F00010929B0210929A020E94C60A99E0BE01C3
:101700006F5F7F4FDB01E92F1D92EA95E9F799831F
:101710001A8391E09E8390EA98879AEF99872091A7
:101720009C0230919D02275F3F4F3C832B838D832A
:101730001092E90010929D0210929C02F0929B027E
:10174000E0929A0249E050E080E00E949F0A0E94E5
:10175000C60AE2C0F0929B02E0929A020E94CB037A
:10176000DC011296ED90FC901397E114F10409F45A
:10177000C0C0D701ED91FC910480F581E02DBE0140
:101780006B5E7F4FC7010995009719F00CF0C4C03C
:10179000C7C0F701E084F184E8CF973009F4C0C0F6
:1017A000983021F481E08093F100B6C0993009F0BF
:1017B000B3C0837009F0B4C0E9E0F1E081E021E05A
:1017C00036E39081992361F08093E9002093EB0048
:1017D00091919093EC003093ED008F5F873089F703
:1017E0008EE78093EA001092EA008F898093B0011F
:1017F00093C08B8D9C8D1092E90010929D021092E7
:101800009C0290939B0280939A02898D811156C00D
:101810008E899D89913A59F4813209F081C047E05F
:1018200050E060E071E080E00E949F0A75C0913254
:1018300009F076C0833289F4888D90E0982F88274C
:101840002F89822BA0E0B0E080930F0190931001CC
:10185000A0931101B09312015FC0803269F48091AE
:10186000E80082FFFCCF67E080E091E00E94BE03C9
:101870008BEF8093E80006C0823209F04DC08F895B
:101880008093070180919702882319F0EEEFFAE028
:1018900002C0E0E0F8E08091000190910101A09188
:1018A0000201B0910301803B9440A105B10509F00C
:1018B0007BC08091070180FF93C076C00E94CB035C
:1018C000DC0112960D911C9113970115110541F140
:1018D000D801ED91FC910190F081E02DBE016B5E8D
:1018E0007F4FC8010995811117C0F8010085118546
:1018F000ECCF113009F44EC0133091F48F89882356
:1019000009F445C0823081F440E866E183E492E066
:101910000E94A909882321F08EEF8093E80079C006
:1019200081E28093EB0075C0813029F440E86BE0E0
:1019300087E392E0EDCF833099F70E94CB03DC017F
:101940001296ED90FC9013978E010F5F1F4F680168
:10195000E114F10479F0D701ED91FC910680F78153
:10196000E02DB801C7010995080F111DF701E084AA
:10197000F184EECFD8011C92F60101900020E9F726
:101980003197BF016C197D0940E0C601C1CF61E20A
:1019900072E002C065E272E06115710509F2FB01B7
:1019A000449150E080E840CF0FB6F894A89580911C
:1019B0006000886180936000109260000FBEA8955F
:1019C000EE3F2AE0F20739F08091FE0A9091FF0A7B
:1019D00091838083A1CF1092FF0A1092FE0A9CCFC0
:1019E000EE3F8AE0F80731F0808191819093FF0A01
:1019F0008093FE0A87E797E7918380839BE088E1E5
:101A00000FB6F894A895809360000FBE9093600085
:101A100083CF6C960FB6F894DEBF0FBECDBFDF91BB
:101A2000CF91FF91EF91BF91AF919F918F917F9156
:101A30006F915F914F913F912F911F910F91FF9067
:101A4000EF90DF90CF900F900FBE0F901F901895E2
:101A50007F928F929F92AF92BF92CF92DF92EF923E
:101A6000FF920F931F93CF93DF93C82E8B017A01C0
:101A70008091B001811103C08FEF9FEF75C08091FD
:101A8000990280FF05C08091E00082608093E000B1
:101A9000CE2DDF2DD12C8AEF882E8C2D8770B82E7D
:101AA0008C2D8072A82E8C2D8074982E9AE3792E1E
:101AB000209709F452C08C2D0E94AD03282F81116C
:101AC0000AC08A948820C1F261E070E080E090E072
:101AD0000E947404EDCF90E0C817D9070CF42C2FA6
:101AE0003FB7F894B092E9008091E80085FF33C0D9
:101AF000822F90E0C81BD90BAA2029F02150A8F012
:101B00001092F100FBCFF801C7FE07C0215058F03A
:101B100044914093F1003196F9CF215020F041914A
:101B20004093F100FACF080F191FDD2019F07092D1
:101B3000E8000AC08091E80085FD08C07092E800C6
:101B4000DD24D394209739F0D12C05C0209719F4C7
:101B500091107092E8003FBFABCFD110ACCF5D9831
:101B600084E680939E02C701DF91CF911F910F9170
:101B7000FF90EF90DF90CF90BF90AF909F908F90AD
:101B80007F900895CF93DF93CDB7DEB7AF970FB6B1
:101B9000F894DEBF0FBECDBF789484B5826084BD5B
:101BA00084B5816084BD85B5826085BD85B5816061
:101BB00085BD80916E00816080936E0010928100DF
:101BC000809181008260809381008091810081609A
:101BD000809381008091800081608093800080915B
:101BE0009100826080939100809191008160809348
:101BF0009100809190008160809390008091C1005D
:101C000084608093C1008091C10082608093C10094
:101C10008091C10081608093C1008091C300816088
:101C20008093C3008091C00082608093C000809147
:101C3000C20081608093C20080917A0084608093AA
:101C40007A0080917A00826080937A0080917A0095
:101C5000816080937A0080917A00806880937A0016
:101C60001092B00110929802109299028091D700C0
:101C700081608093D70080EA8093D80089B5806125
:101C800089BD89B5826089BD09B400FEFDCF61E0E0
:101C900070E080E090E00E9474048091D8008F7C16
:101CA00080618093D8008091E000807F8093E00085
:101CB0008091E1008E7E8093E1008DE08093E200D0
:101CC000559A209AEEEFFFE7859194918B3F9C4DBA
:101CD00019F481E08093970262E0809135020E94BE
:101CE000380460E080912F020E94080410926C0179
:101CF00062E0809137020E94380460E080913102F6
:101D00000E94080410926B0162E0809139020E94E7
:101D1000380460E0809133020E94080410926A0146
:101D200081E08093F1010E94E20620E030EC3093E4
:101D3000F8012093F70180E090E49093FA018093FA
:101D4000F9013093FC012093FB019093FE018093F5
:101D5000FD01309300022093FF01909302028093D3
:101D60000102309314022093130290931602809381
:101D7000150263E070E081E090E00E94690661E096
:101D8000892B09F060E080E00E94B70867E070E00E
:101D900081E090E00E94690661E0892B09F060E033
:101DA00081E00E94B7086AE070E081E090E00E9464
:101DB000690661E0892B09F060E082E00E94B708C3
:101DC0006BE070E081E090E00E94690661E0892BA1
:101DD00009F060E083E00E94B7086DE070E081E008
:101DE00090E00E94690661E0892B09F060E084E0E0
:101DF0000E94B70862E070E081E090E00E9469060E
:101E000061E0892B09F060E085E00E94B70866E098
:101E100070E081E090E00E94690661E0892B09F0A2
:101E200060E086E00E94B70869E070E081E090E041
:101E30000E94690661E0892B09F060E087E00E945A
:101E4000B7086CE070E081E090E00E94690661E014
:101E5000892B09F060E088E00E94B7086EE070E02E
:101E600081E090E00E94690661E0892B09F060E062
:101E700089E00E94B70861E070E081E090E00E9494
:101E8000690661E0892B09F060E08AE00E94B708EA
:101E900060E070E081E090E00E94690661E0892BDB
:101EA00009F060E08BE00E94B70865E070E081E037
:101EB00090E00E94690661E0892B09F060E08CE007
:101EC0000E94B70864E070E081E090E00E9469063B
:101ED00061E0892B09F060E08DE00E94B70866E0C0
:101EE00070E082E090E00E94690661E0892B09F0D1
:101EF00060E08EE00E94B70868E070E081E090E06A
:101F00000E94690661E0892B09F060E08FE00E9481
:101F1000B7086FE070E081E090E00E94690661E040
:101F2000892B09F060E080E10E94B70860E070E072
:101F300082E090E00E94690661E0892B09F060E090
:101F400081E10E94B70862E070E082E090E00E94C8
:101F5000690661E0892B09F060E082E10E94B70820
:101F600061E070E082E090E00E94690661E0892B08
:101F700009F060E083E10E94B7086CE070E082E065
:101F800090E00E94690661E0892B09F060E084E13D
:101F90000E94B70863E070E082E090E00E9469066A
:101FA00061E0892B09F060E085E10E94B70864E0F8
:101FB00070E082E090E00E94690661E0892B09F000
:101FC00060E086E10E94B70865E070E082E090E0A2
:101FD0000E94690661E0892B09F060E087E10E94B8
:101FE000B7086AE070E082E090E00E94690661E074
:101FF000892B09F060E088E10E94B7086BE070E08F
:1020000082E090E00E94690661E0892B09F060E0BF
:1020100089E10E94B70867E070E082E090E00E94EA
:10202000690661E0892B09F060E08AE10E94B70847
:1020300069E070E082E090E00E946906182F68E095
:1020400070E082E090E00E946906880F991FE82FF7
:10205000E12BE37090916D01990F990FE92BE093BB
:102060006D01EF70F0E0EB5DFE4F10818BE111161A
:102070001CF40E94930808C00E946E08112321F0EE
:102080008CE10E94930803C08CE10E946E0880E0FE
:1020900090E00E94BD089D8F8C8FBC01990F880B2A
:1020A000990B0E94FA1A2B013C01CB01D3018093BA
:1020B0009F019093A001A093A101B093A20181E0A0
:1020C00090E00E94BD089F8F8E8FBC01990F880BF6
:1020D000990B0E94FA1A4B015C01CB01D501809348
:1020E0009B0190939C01A0939D01B0939E0183E07E
:1020F00090E00E94BD0899A388A3BC01990F880BAA
:10210000990B0E94FA1A6B017C01CB01D7018093D5
:10211000970190939801A0939901B0939A0187E059
:1021200090E00E94BD08BC01990F880B990B0E949A
:10213000FA1A6AA37BA38CA39DA360939301709367
:10214000940180939501909396010E94BA010091A9
:102150008F01109190012091910130919201DC0149
:10216000CB01801B910BA20BB30B883E9340A105C2
:10217000B10508F0B3C02DEC3CEC4CE45FE360919A
:10218000D1017091D2018091D3019091D4010E942C
:10219000AF1B69837A838B839C832DEC3CEC4CE4EE
:1021A0005EE3B201C3010E94AF1B9B01AC016981D8
:1021B0007A818B819C810E94DF192B013C01609305
:1021C000D1017093D2018093D3019093D4012DEC6F
:1021D0003CEC4CE45FE36091C5017091C6018091D5
:1021E000C7019091C8010E94AF1B69837A838B83DA
:1021F0009C832DEC3CEC4CE45EE3B401C5010E94F1
:10220000AF1B9B01AC0169817A818B819C810E940B
:10221000DF194B015C016093C5017093C601809387
:10222000C7019093C8012DEC3CEC4CE45FE3609156
:10223000B9017091BA018091BB019091BC010E94DB
:10224000AF1B69837A838B839C832DEC3CEC4CE43D
:102250005EE3B601C7010E94AF1B9B01AC0169811F
:102260007A818B819C810E94DF196093B901709300
:10227000BA018093BB019093BC014092C901509276
:10228000CA016092CB017092CC014092CD01509274
:10229000CE016092CF017092D0018092C1019092E4
:1022A000C201A092C301B092C4018092BD0190927C
:1022B000BE01A092BF01B092C0016093B5017093BE
:1022C000B6018093B7019093B8016093B101709308
:1022D000B2018093B3019093B401A9C48091C90164
:1022E0008D839091CA019987A091CB01AA87B09163
:1022F000CC01BB879201A301BC01CD010E94AA1BA6
:10230000181624F04D8259866A867B868D819985C0
:10231000AA85BB858093C9019093CA01A093CB0184
:10232000B093CC01E091CD01EC87F091CE01FD8717
:102330002091CF012E873091D0013F879201A301D8
:10234000BF018E859F850E944B1A87FD04C04C8675
:102350005D866E867F868C859D85AE85BF858093E4
:10236000CD019093CE01A093CF01B093D001809185
:10237000BD01888B9091BE01998BA091BF01AA8B62
:10238000B091C001BB8B9401A501BC01CD010E949D
:10239000AA1B181624F0888A998AAA8ABB8A888977
:1023A0009989AA89BB898093BD019093BE01A093AE
:1023B000BF01B093C0013090C1012090C201E091F3
:1023C000C301EEA7F091C401FFA79401A501632DFD
:1023D000722DCF010E944B1A87FD04C0382C292C86
:1023E000AEA6BFA6832D922DAEA5BFA58093C10139
:1023F0009093C201A093C301B093C4012091B50191
:102400002C8B3091B6013D8B8091B7018E8B9091D2
:10241000B8019F8B9601A7016C897D890E944B1A98
:1024200087FD04C0CC8ADD8AEE8AFF8A8C899D896B
:10243000AE89BF898093B5019093B601A093B7018F
:10244000B093B801A091B101A88FB091B201B98F3A
:10245000E091B301EA8FF091B401FB8F9601A701DF
:10246000BD01CF010E94AA1B181624F0C88ED98E78
:10247000EA8EFB8E888D998DAA8DBB8D8093B101DC
:102480009093B201A093B301B093B4018091D101B4
:102490009091D201A091D301B091D4018EA39FA3BA
:1024A000A8A7B9A71F921F921F921F928D8099848F
:1024B000AA84BB84CEA0DFA0E8A4F9A40C851D8566
:1024C0002E853F8540E050E060E87FE38C8D9D8D58
:1024D0000E9410020F900F900F900F902B013C0163
:1024E00060938B0170938C0180938D0190938E018A
:1024F0008091C5019091C601A091C701B091C8011A
:102500008AA79BA7ACA7BDA71F921F921F921F92DD
:1025100088889988AA88BB88CAA4DBA4ECA4FDA4F7
:10252000032D122D2EA53FA540E050E060E87FE38B
:102530008E8D9F8D0E9410020F900F900F900F9024
:1025400069837A838B839C8360938701709388016E
:102550008093890190938A011F921F921F921F926C
:102560008D809984AA84BB84CEA0DFA0E8A4F9A4BE
:102570000C851D852E853F8540E050E060EC70E4C1
:102580008C8D9D8D0E9410020F900F900F900F90D8
:102590006D837E838F83988760938301709384011A
:1025A00080938501909386011F921F921F921F9224
:1025B00088889988AA88BB88CAA4DBA4ECA4FDA457
:1025C000032D122D2EA53FA540E050E060EC70E4F5
:1025D0008E8D9F8D0E9410020F900F900F900F9084
:1025E0004B015C0160937F017093800180938101B6
:1025F0009093820120E030E0A901C301B2010E9462
:10260000AA1B18165CF420E030E040E85FE3C30149
:10261000B2010E944B1A87FF1BC00AC020E030E0C5
:1026200040E85FEBC301B2010E94AA1B181684F4B4
:1026300020E030E0A901C301B2010E94AA1B73018E
:10264000620118165CF0F7FAF094F7F8F09406C0FF
:10265000C12CD12C30E8E32E3FE3F32EA7019601E5
:1026600060E070E080E89FE30E94DE192D813E81EA
:102670004F8158850E94AF1B6D837E838F8398871F
:10268000A3019201C701B6010E94AF1B9B01AC01DF
:102690006D817E818F8198850E94DF196D837E8395
:1026A0008F83988720E030E0A90169817A818B814E
:1026B0009C810E94AA1B18168CF420E030E040E8B0
:1026C0005FE369817A818B819C810E944B1A87FF2D
:1026D000C7C2C980DA80EB80FC801BC020E030E0FC
:1026E00040E85FEB69817A818B819C810E94AA1B03
:1026F00018164CF4C980DA80EB80FC80F7FAF0946D
:10270000F7F8F09406C0C12CD12C20E8E22E2FE37C
:10271000F22EA701960160E070E080E89FE30E943E
:10272000DE19A50194010E94AF1B4B015C012981B8
:102730003A814B815C81C701B6010E94AF1B9B01AE
:10274000AC01C501B4010E94DF194B015C0120E01E
:1027500030E040E05FE3C301B2010E94AF1B6B01B8
:102760007C0120E030E0A90169817A818B819C8124
:102770000E94AA1B29813A814B815C8118160CF0BA
:102780005058C701B6010E94AF1B9B01AC016D817F
:102790007E818F8198850E94DF196D837E838F8370
:1027A000988760939F017093A0018093A1019093FB
:1027B000A20120E030E040E05FE369817A818B8113
:1027C0009C810E94AF1B6B017C0120E030E0A901DD
:1027D000C301B2010E94AA1B181624F077FA709464
:1027E00077F87094A3019201C701B6010E94AF1B54
:1027F0009B01AC01C501B4010E94DF192B013C0112
:1028000060939B0170939C0180939D0190939E0126
:10281000C090B901D090BA01E090BB01F090BC012A
:102820009DE39F93ACE4AF93BCECBF93EDECEF93CF
:10283000888C998CAA8CBB8C0C891D892E893F8928
:1028400040E050E060E870E488A199A10E94100285
:102850000F900F900F900F9069837A838B839C83E6
:1028600060939701709398018093990190939A01D6
:1028700020E030E04AE853E46AA17BA18CA19DA14D
:102880000E94DE199B01AC010E94DF1920E030ECB0
:1028900043E054E40E94501A20E030E040E85FE357
:1028A0000E94DE196B017C0120E030E0A9010E944A
:1028B000AA1B181624F0C701B601905802C0C70120
:1028C000B60120E030E040EC5FE30E941C1C4B01AD
:1028D0005C0120E030E0A901C701B6010E94AA1BFB
:1028E00018166CF020E030E0A901C701B6010E9483
:1028F0004B1A87FD09C020E030E0A90109C020E0A3
:1029000030E040E85FE304C020E030E040E85FEB07
:10291000C501B4010E94AF1B6B017C0120E030E0D7
:1029200040E85FEB0E944B1A87FD14C020E030E0C6
:1029300040E85FE3C701B6010E94AA1B18160CF11C
:1029400020E030E0A901C701B6010E94AA1B1816B9
:102950005CF006C0C12CD12C90E8E92E9FEBF92E3B
:10296000C701B601905802C0C701B60120E030E0AF
:10297000A9010E944B1A87FF0AC0C12CD12C7601F5
:1029800006C0C12CD12C80E8E82E8FE3F82EC0922F
:102990009301D0929401E0929501F092960120E08B
:1029A00030E040E05FE360917B0170917C018091B9
:1029B0007D0190917E010E94AF1B4B015C0120E0E4
:1029C00030E040E05FE36D817E818F8198850E94D9
:1029D000AF1B9B01AC01C501B4010E94DF196D83DF
:1029E0007E838F83988760937B0170937C018093B3
:1029F0007D0190937E0120E030E040E05FE3609154
:102A00007701709178018091790190917A010E940B
:102A1000AF1B4B015C0120E030E040E05FE3C3010D
:102A2000B2010E94AF1B9B01AC01C501B4010E9421
:102A3000DF192B013C01609377017093780180933B
:102A4000790190937A0120E030E040E05FE360910B
:102A500073017091740180917501909176010E94CB
:102A6000AF1B4B015C0120E030E040E05FE3698197
:102A70007A818B819C810E94AF1B9B01AC01C501B7
:102A8000B4010E94DF194B015C01609373017093E4
:102A90007401809375019093760120E030E040E866
:102AA00056E46D817E818F8198850E94AF1B0E94C4
:102AB000C21A7093D6016093D5018091F101811102
:102AC0000E94E20620E030E040E856E4C301B20193
:102AD0000E94AF1B0E94C21A7093D8016093D70165
:102AE0008091F10181110E94E20620E030E040E88F
:102AF00056E4C501B4010E94AF1B0E94C21A709334
:102B0000DA016093D9018091F10181110E94E206FE
:102B100020E030E040E856E4C701B6010E94AF1B58
:102B20000E94C21A7093E2016093E1018091F10169
:102B300081110E94E20620E030E0A901C701B60140
:102B40000E94AA1B1816BCF4809172018111A6C0C4
:102B5000F1E0F09372010E94BA01DC01CB018C59C3
:102B60009F4FAF4FBF4F80936E0190936F01A09323
:102B70007001B093710120E030E0A901C701B601F6
:102B80000E944B1A87FF16C080917201882391F032
:102B9000109272010E94BA01DC01CB018C599F4F47
:102BA000AF4FBF4F80936E0190936F01A093700160
:102BB000B0937101C0906E01D0906F01E0907001F0
:102BC000F09071010E94BA0121E06C157D058E051F
:102BD0009F0508F020E0622F8DE10E94B7086BE0AE
:102BE00070E081E090E00E946906892B01F56DE0BC
:102BF00070E081E090E00E946906892BC1F46CE0EE
:102C000070E081E090E00E946906892B81F46EE01B
:102C100070E081E090E00E946906892B41F467E052
:102C200070E082E090E00E946906892B71F061E11A
:102C300070E080E090E00E94740420E030E0232BFC
:102C400009F497C80E94000094C80E94BA016093DA
:102C50008F01709390018093910190939201E7CF3F
:102C600020E030E0A901C501B4010E94AF1B298119
:102C70003A814B815C810E94DF194B015C0120E0AD
:102C800030E040E05FE3C301B2010E94AF1B6B0183
:102C90007C0129813A814B815C8173CD20E030E059
:102CA000A901C701B6010E944B1A87FF83CF70CFDD
:102CB000BF92CF92DF92EF92FF920F931F93CF9329
:102CC000DF93CDB7DEB7C659D1090FB6F894DEBF92
:102CD0000FBECDBF10924A021092490288EE93E0D7
:102CE000A0E0B0E080934B0290934C02A0934D0281
:102CF000B0934E0289E391E090934802809347029B
:102D00008FEF9FEF909354028093530282E090E004
:102D1000909326028093250284E090E0909328020D
:102D20008093270286E090E090932A028093290204
:102D300087E090E090932C0280932B0288E090E053
:102D400090932E0280932D028AE090E090933002BF
:102D500080932F028BE090E09093320280933102B7
:102D60008CE090E0909334028093330282E190E013
:102D7000909336028093350283E190E0909338027D
:102D80008093370284E190E090933A028093390275
:102D900061E082E00E94380461E0809127020E9495
:102DA000380461E0809129020E94380461E080913A
:102DB0002B020E94380461E080912D020E943804A9
:102DC00060E080912D020E94080461E080912F0252
:102DD0000E94380461E0809131020E94380461E071
:102DE000809133020E9438041092F0011092EF019A
:102DF0001092F3011092F8011092F7018FEF93E017
:102E00009093FA018093F9011092FC011092FB015A
:102E10009093FE018093FD01109200021092FF0139
:102E20009093020280930102109204021092030216
:102E300090930602809305021092080210920702F6
:102E400090930A028093090210920C0210920B02D6
:102E500090930E0280930D021092100210920F02B6
:102E60009093120280931102109214021092130296
:102E70009093160280931502109218021092170276
:102E800090931A028093190210921C0210921B0256
:102E900090931E0280931D021092200210921F0236
:102EA000909322028093210273E07093230230E218
:102EB0003093F20122E02093F401B7E0B093F501E2
:102EC0002093F60165E0698381E08A8399E09B8322
:102ED000F4E0FC83E1EAED838E8345E84F83788755
:102EE00069879A8749E14B878C8749E24D873E87FE
:102EF00005E10F87188A15E2198B8A8B55E75B8BE2
:102F00008C8B45E94D8B3E8B35E53F8B188EA5E6C6
:102F1000A98F1A8E31E83B8F2C8F6D8F8E8F9F8FEC
:102F20000F2EF9E3BF2EF02DB8A209A31AA21BA3FE
:102F3000BCA30F2EF5E3CF2EF02DCDA21EA20F2E97
:102F4000F6E4DF2EF02DDFA20F2EFBE3EF2EF02DA7
:102F5000E8A689A7AAA70F2EF4E1FF2EF02DFBA665
:102F60005CA7FDA74EA78FA738AB29AB9AABBBAA2E
:102F70000CAB1DAA1EABBFABC8AE19AEDAAEEBAE42
:102F80008CAFADAFFEAE5FAF2196FFAF219722961B
:102F90004FAF229723968FAF239724963FAF249766
:102FA00025962FAF259726969FAF269727968FAF0A
:102FB0002797F6E1FF2E2896FFAE289729968FAF28
:102FC000299700E82A960FAF2A9716E22B961FAF93
:102FD0002B97BFEF2C96BFAF2C97AFE72D96AFAFD7
:102FE0002D972E965FAF2E97F0E12F96FFAF2F977C
:102FF00060964FAF609761967FAF61976296EFAF33
:10300000629763961FAE639764969FAF649770E371
:1030100065967FAF659766969FAF669771E36796F3
:103020007FAF679768969FAF689772E369967FAFA7
:1030300069976A963FAF6A976B962FAF6B9770EC64
:103040006C967FAF6C976D966FAF6D976E962FAF46
:103050006E976F96FFAE6F97A0968FAFA097A196D1
:103060000FAFA197A2961FAFA297A396BFAFA3974A
:10307000A496AFAFA497A5965FAFA597A696FFAF0E
:10308000A697A7964FAFA797A8968FAFA897A99690
:10309000EFAFA997AA961FAEAA97AB969FAFAB9733
:1030A0008BEBAC968FAFAC97AD963FAFAD97AE962E
:1030B0002FAFAE97AF967FAFAF97E0967FAFE09719
:1030C0008FE690E00E94CF1D7C018FE6FE013196D5
:1030D000D70101900D928A95E1F787E090E00E9478
:1030E000CF1D8C01DC0111961C921E921396FC924E
:1030F000EE9212978FE690E015969C938E9314971C
:1031000016961C920E94F804FC01A385B4851097C2
:1031100019F41487038709C08D919C91119700972A
:1031200011F0DC01F9CF0D931C9325853685D8016C
:1031300014968D919C911597820F931F9687858782
:103140009091F201892F869586958695977009F062
:103150008F5F8093F3011091F301812F90E00E9423
:10316000CF1D9093F0018093EF01185F81E0909163
:10317000F401911101C080E0810F8093240210922C
:10318000D6011092D5011092D8011092D701109259
:10319000DA011092D9011092DC011092DB01109239
:1031A000DE011092DD011092E0011092DF01109219
:1031B000E2011092E1011092E4011092E3011092F9
:1031C000E6011092E5011092E8011092E7011092D9
:1031D000EA011092E9018FEF9FEF9093EC01809349
:1031E000EB019093EE018093ED0180E090E020915F
:1031F000F30130E0821793074CF4E091EF01F09176
:10320000F001E80FF91F10820196F1CF80E090ECF9
:10321000A3E4B4E48093C9019093CA01A093CB01C5
:10322000B093CC0180E090E0A7EDB3E48093CD01B2
:103230009093CE01A093CF01B093D00180E090EAAB
:10324000A7E1B4E48093D1019093D201A093D3017C
:10325000B093D40180E090E8A7E4B4E48093BD018A
:103260009093BE01A093BF01B093C00180E090ECA9
:10327000A0E0B4E48093C1019093C201A093C30184
:10328000B093C40180E090E2A4E2B4E48093C5016D
:103290009093C601A093C701B093C80180E090E06D
:1032A000A0EFB2E48093B1019093B201A093B30177
:1032B000B093B40180E090E0A0E4B3E48093B50162
:1032C0009093B601A093B701B093B80180E090E06D
:1032D000ACE1B3E48093B9019093BA01A093BB0130
:1032E000B093BC01CA56DF4F0FB6F894DEBF0FBED5
:1032F000CDBFDF91CF911F910F91FF90EF90DF90A5
:10330000CF90BF900895052E97FB1EF400940E9465
:103310009A1957FD07D00E94AD1907FC03D04EF44F
:103320000C949A1950954095309521953F4F4F4FE9
:103330005F4F089590958095709561957F4F8F4F61
:103340009F4F08950E94CF19A59F900DB49F900D97
:10335000A49F800D911D11240895A1E21A2EAA1B8D
:10336000BB1BFD010DC0AA1FBB1FEE1FFF1FA21735
:10337000B307E407F50720F0A21BB30BE40BF50B32
:10338000661F771F881F991F1A9469F760957095BB
:10339000809590959B01AC01BD01CF010895A29F3E
:1033A000B001B39FC001A39F700D811D1124911D19
:1033B000B29F700D811D1124911D08955058BB2797
:1033C000AA270E94F6190C94701B0E94621B38F009
:1033D0000E94691B20F039F49F3F19F426F40C94E5
:1033E0005F1B0EF4E095E7FB0C94591BE92F0E943C
:1033F000811B58F3BA17620773078407950720F0FB
:1034000079F4A6F50C94A31B0EF4E0950B2EBA2FBD
:10341000A02D0B01B90190010C01CA01A0011124DA
:10342000FF27591B99F0593F50F4503E68F11A1686
:10343000F040A22F232F342F4427585FF3CF469517
:1034400037952795A795F0405395C9F77EF41F1639
:10345000BA0B620B730B840BBAF09150A1F0FF0F03
:10346000BB1F661F771F881FC2F70EC0BA0F621FEF
:10347000731F841F48F4879577956795B795F795DF
:103480009E3F08F0B0CF9395880F08F09927EE0F74
:103490009795879508950E94351B08F481E008955B
:1034A0000E94641A0C94701B0E94691B58F00E94C1
:1034B000621B40F029F45F3F29F00C94591B511115
:1034C0000C94A41B0C945F1B0E94811B68F399232E
:1034D000B1F3552391F3951B550BBB27AA27621710
:1034E0007307840738F09F5F5F4F220F331F441F1D
:1034F000AA1FA9F335D00E2E3AF0E0E832D0915051
:103500005040E695001CCAF72BD0FE2F29D0660F3D
:10351000771F881FBB1F261737074807AB07B0E880
:1035200009F0BB0B802DBF01FF2793585F4F3AF086
:103530009E3F510578F00C94591B0C94A41B5F3FDF
:10354000E4F3983ED4F3869577956795B795F7950C
:103550009F5FC9F7880F911D9695879597F90895F4
:10356000E1E0660F771F881FBB1F62177307840790
:10357000BA0720F0621B730B840BBA0BEE1F88F79F
:10358000E09508950E94C91A6894B1110C94A41B87
:1035900008950E94891B88F09F5798F0B92F9927AA
:1035A000B751B0F0E1F0660F771F881F991F1AF02E
:1035B000BA95C9F714C0B13091F00E94A31BB1E0D5
:1035C00008950C94A31B672F782F8827B85F39F0D4
:1035D000B93FCCF3869577956795B395D9F73EF4C7
:1035E00090958095709561957F4F8F4F9F4F08956F
:1035F000E89409C097FB3EF490958095709561958D
:103600007F4F8F4F9F4F9923A9F0F92F96E9BB2742
:103610009395F695879577956795B795F111F8CFBE
:10362000FAF4BB0F11F460FF1BC06F5F7F4F8F4F29
:103630009F4F16C0882311F096E911C0772321F01F
:103640009EE8872F762F05C0662371F096E8862FB7
:1036500070E060E02AF09A95660F771F881FDAF70E
:10366000880F9695879597F90895990F0008550F3B
:10367000AA0BE0E8FEEF16161706E807F907C0F0F8
:1036800012161306E407F50798F0621B730B840B00
:10369000950B39F40A2661F0232B242B252B21F4DA
:1036A00008950A2609F4A140A6958FEF811D811D7A
:1036B000089597F99F6780E870E060E008959FEFB4
:1036C00080EC089500240A941616170618060906B9
:1036D000089500240A941216130614060506089588
:1036E000092E0394000C11F4882352F0BB0F40F410
:1036F000BF2B11F460FF04C06F5F7F4F8F4F9F4F50
:10370000089557FD9058440F551F59F05F3F71F0D1
:103710004795880F97FB991F61F09F3F79F0879538
:103720000895121613061406551FF2CF4695F1DFC1
:1037300008C0161617061806991FF1CF8695710551
:10374000610508940895E894BB2766277727CB0185
:1037500097F908950E94351B08F48FEF08950E9491
:10376000C21B0C94701B0E94621B38F00E94691BE4
:1037700020F0952311F00C94591B0C945F1B11241D
:103780000C94A41B0E94811B70F3959FC1F3950FAD
:1037900050E0551F629FF001729FBB27F00DB11DD5
:1037A000639FAA27F00DB11DAA1F649F6627B00D65
:1037B000A11D661F829F2227B00DA11D621F739F4E
:1037C000B00DA11D621F839FA00D611D221F749F5C
:1037D0003327A00D611D231F849F600D211D822FA3
:1037E000762F6A2F11249F5750409AF0F1F08823CA
:1037F0004AF0EE0FFF1FBB1F661F771F881F9150F7
:103800005040A9F79E3F510580F00C94591B0C9431
:10381000A41B5F3FE4F3983ED4F3869577956795B4
:10382000B795F795E7959F5FC1F7FE2B880F911D20
:103830009695879597F90895FA01EE0FFF1F309638
:1038400021053105A1F16115710561F48038BFE3EF
:103850009B0749F168949038810561F08038BFEF8B
:103860009B0741F099234AF5FF3FE105310521050A
:1038700019F1E8940894E795D901AA2329F4AB2F0C
:10388000BE2FF85FD0F310C0FF5F70F4A695E0F78D
:10389000F73950F019F0FF3A38F49F779F930DD025
:1038A0000F9007FC9058089546F00C945F1B60E061
:1038B00070E080E89FE308954FE79F775F934F9311
:1038C0003F932F930E94171D2F913F914F915F912E
:1038D0000E94AF1B0C94741C29F416F00C94591B15
:1038E0000C94A31B0C945F1B0E94891BA8F39638B1
:1038F000A0F707F80F92E8942BE33AEA48EB5FE76A
:103900000E94C51B0F920F920F924DB75EB70F9298
:103910000E945F1DEAECF0E00E94A61C4F915F91AF
:10392000EF91FF91E595EE1FFF1F49F0FE57E0680C
:103930004427EE0F441FFA95E1F74195550B0E947D
:10394000D91C0F9007FE0C94CD1C0895DF93CF93E4
:103950001F930F93FF92EF92DF927B018C0168948B
:1039600006C0DA2EEF010E94C21BFE01E894A59169
:103970002591359145915591A6F3EF010E94F619D5
:10398000FE019701A801DA9469F7DF90EF90FF90AC
:103990000F911F91CF91DF9108959B01AC0160E0E1
:1039A00070E080E89FE30C94501A0C94591B0C941F
:1039B000931D0E94891BD8F39923C9F3940F511DBD
:1039C000A3F39150504094F059F0882332F0660FE1
:1039D000771F881F91505040C1F79E3F51052CF72B
:1039E000880F911D9695879597F908955F3FACF0E4
:1039F000983E9CF0BB27869577956795B79508F418
:103A0000B1609395C1F7BB0F58F711F460FFE8CF91
:103A10006F5F7F4F8F4F9F4FE3CF0C94A41B16F027
:103A20000C94931D0C945F1B68940C94591B0E947A
:103A3000891BA8F39923C1F3AEF3DF93CF931F93B0
:103A40000F93FF92C92FDD2788232AF02197660F55
:103A5000771F881FDAF720E030E040E85FEB9FE354
:103A6000883920F0803E38F021968F770E94DF1948
:103A7000E2EFF0E004C00E94DF19EFE1F1E00E9404
:103A8000A61C8B01BE01EC01FB2E6F5771097595C9
:103A9000771F880B990B0E94FA1A28E132E741E35D
:103AA0005FE30E94C21BAF2D9801AE01FF900F9102
:103AB0001F91CF91DF910E94F6190C94701BFA01AF
:103AC000DC01AA0FBB1F9B01AC01BF5728F42227C2
:103AD00033274427507820C0B75190F4AB2F0024EF
:103AE000469537952795011CA395D2F3002071F0D8
:103AF000220F331F441FB395DAF30ED00C94DE1956
:103B000061307105A0E88A07B94630F49B01AC0129
:103B10006627772788279078309621F02083318395
:103B20004283538308959F3F31F0915020F487954D
:103B300077956795B795880F911D9695879597F915
:103B4000089597FB072E16F4009407D077FD09D04F
:103B50000E94BB1D07FC05D03EF4909581959F4FB8
:103B60000895709561957F4F0895EE0FFF1F0590A2
:103B7000F491E02D0994AA1BBB1B51E107C0AA1FB9
:103B8000BB1FA617B70710F0A61BB70B881F991FFE
:103B90005A95A9F780959095BC01CD010895CF93D2
:103BA000DF938230910510F482E090E0E091A10271
:103BB000F091A20220E030E0C0E0D0E0309711F1B7
:103BC0004081518148175907C0F04817590761F4DF
:103BD00082819381209719F09B838A832BC09093D5
:103BE000A2028093A10226C02115310519F04217C7
:103BF000530718F49A01BE01DF01EF010280F3813F
:103C0000E02DDCCF2115310509F1281B390B2430BB
:103C1000310590F412968D919C9113976115710561
:103C200021F0FB019383828304C09093A2028093CE
:103C3000A102FD01329644C0FD01E20FF31F819302
:103C40009193225031092D933C933AC020919F02C9
:103C50003091A002232B41F42091150130911601DF
:103C60003093A00220939F02209113013091140100
:103C70002115310541F42DB73EB740911701509100
:103C80001801241B350BE0919F02F091A002E2176E
:103C9000F307A0F42E1B3F0B2817390778F0AC016F
:103CA0004E5F5F4F2417350748F04E0F5F1F50934C
:103CB000A00240939F028193919302C0E0E0F0E064
:103CC000CF01DF91CF9108950F931F93CF93DF938F
:103CD000009709F48CC0FC01329713821282009184
:103CE000A1021091A2020115110581F420813181F8
:103CF000820F931F20919F023091A002281739074D
:103D000079F5F093A002E0939F0271C0D80140E0E2
:103D100050E0AE17BF0750F412962D913C911397C7
:103D2000AD012115310509F1D901F3CF9D01DA016A
:103D30003383228360817181860F971F82179307D7
:103D400069F4EC0128813981260F371F2E5F3F4F20
:103D5000318320838A819B8193838283452B29F43D
:103D6000F093A202E093A10242C01396FC93EE935B
:103D70001297ED01499159919E01240F351FE217C9
:103D8000F30771F480819181840F951F029611963B
:103D90009C938E938281938113969C938E9312971A
:103DA000E0E0F0E0D80112968D919C911397009776
:103DB00019F0F8018C01F6CF8D919C9198012E5F3E
:103DC0003F4F820F931F20919F023091A00228172E
:103DD000390769F4309729F41092A2021092A102D7
:103DE00002C0138212821093A00200939F02DF91FF
:103DF000CF911F910F91089581E090E0F8940C9479
:063E0000011FF894FFCF42
:103E060000E100000000000000C18081000000FF0A
:103E1600FFFFFF0000A302800000000000C601654E
:103E2600032203ED0100FF0100010000FFFF000077
:103E3600010001FF00000000003C095306E609529C
:083E4600095D09EB09090A00FE
:00000001FF
