:100000000C942E010C9456010C9456010C9456013C
:100010000C9456010C9456010C9456010C94560104
:100020000C9456010C9456010C94C6090C94460A83
:100030000C9456010C9456010C9456010C945601E4
:100040000C9456010C9456010C9456010C945601D4
:100050000C9456010C9456010C9456010C94F30325
:100060000C9456010C9456010C9456010C945601B4
:100070000C9456010C9456010C9456010C945601A4
:100080000C9456010C9456010C9456010C94560194
:100090000C9456010C9456010C9456010C94560184
:1000A0000C9456010C9456010C945601A401A7011E
:1000B00096019A01A001C801C801C801AB01AF01B6
:1000C000B301B901BD01C801C30107634236B79B43
:1000D000D8A71A39685618AEBAAB558C1D3CB7CCA8
:1000E0005763BD6DEDFD753EF6177231BF00000020
:1000F000803F08000000BE922449123EABAAAA2A03
:10010000BECDCCCC4C3E00000080BEABAAAAAA3E1D
:1001100000000000BF000000803F00000000000859
:100120004178D3BB4387D1133D190E3CC3BD4282F6
:10013000AD2B3E68EC8276BED98FE1A93E4C80EFB4
:10014000FFBE01C4FF7F3F00000000000000000070
:10015000240027002A002D003000000000002500A8
:1001600028002B002E003100000000002300260094
:1001700029002C002F0004040404040304050202D7
:100180000202040302020202060606060606040430
:1001900002020204040408020110408040102040C2
:1001A000804080080204018040201002011080106D
:1001B000204040200000000200090F00000304015D
:1001C000000C000000000000000000000000000023
:1001D000000000080B0002020201000904000001F7
:1001E000020200000524001001052401010104247D
:1001F00002060524060001070581031000400904DA
:100200000100020A00000007050202400000070585
:1002100083024000000403090412010002EF0201FE
:100220004041233680000101020301417264756977
:100230006E6F204C4C430048617276657374655252
:1002400020436F6E74726F6C204465636B00070609
:1002500005040100080A0B0C0D09741411241FBEBB
:10026000CFEFDAE0DEBFCDBF11E0A0E0B1E0E0E724
:10027000F9E302C005900D92A637B107D9F722E045
:10028000A6E7B1E001C01D92A839B207E1F711E07D
:10029000CEE2D1E004C02197FE010E946A1BCD325C
:1002A000D107C9F70E94BD0E0C94B61C0C94000037
:1002B000CF93DF931F92CDB7DEB76983DC01ED9159
:1002C000FC910280F381E02D41E050E0BE016F5FC0
:1002D0007F4F09950F90DF91CF910895FC018485A0
:1002E000958597FD0BC09FB7F89482E08093E90055
:1002F0008091F2009FBF90E0019608959FB7F89417
:1003000082E08093E9008091F2009FBF90E0089521
:10031000089580E090E0089590E0FC013197EF307F
:10032000F105B0F5EA5AFF4F0C946A1B80918000EA
:100330008F7703C0809180008F7D80938000089527
:1003400080918000877FF9CF84B58F7702C084B514
:100350008F7D84BD0895809190008F7707C0809134
:1003600090008F7D03C080919000877F80939000E4
:1003700008958091C0008F7703C08091C0008F7D69
:100380008093C00008958091C200877F8093C2004F
:1003900008953FB7F8948091940190919501A091B0
:1003A0009601B091970126B5A89B05C02F3F19F083
:1003B0000196A11DB11D3FBFBA2FA92F982F8827E5
:1003C000820F911DA11DB11DBC01CD0142E0660F40
:1003D000771F881F991F4A95D1F70895DC01FB010B
:1003E00012968C91129790E02481358182179307A1
:1003F000D1F491818081813A31F481E0913091F0A2
:10040000933089F411C0813271F49B3021F48281E0
:100410001F968C9305C09A3031F4828150968C934C
:1004200081E00895089580E00895DC01FB0188E4EF
:10043000808389E4818384E482831D969C911D9747
:100440009F709F5B93831D968D919C911E9724E0D6
:10045000969587952A95E1F78F708F5B848385E069
:100460000895FC0182818F5BFB01808381E0089508
:100470000C94F707CF93DF93EC018091120188234E
:1004800031F083E00E94020E1816190634F081E064
:1004900090E09B838A8380E090E0DF91CF91089584
:1004A00083E00E94F10D90E008950F931F93CF9386
:1004B000DF931F92CDB7DEB78C01FC018485958553
:1004C00097FF0EC0CE0101960E949C09019719F476
:1004D000298130E002C02FEF3FEFF80135872487F4
:1004E000F801848595850F90DF91CF911F910F9131
:1004F0000895CF93DF931F92CDB7DEB7FC018485BB
:10050000958597FD05C02FEF3FEF358724870BC0FA
:10051000CE0101960E949C09019719F4898190E00F
:1005200002C08FEF9FEF0F90DF91CF9108950E944F
:10053000B11CEF92FF920F931F93CF93DF93FB01B8
:100540002081213869F52381223251F5DC01129690
:100550002C9130E0448155814217530709F58C01F5
:10056000FC01C385D485E12CF12C209799F04C81B6
:100570005D816A817B818E81811180E80E94CA0D34
:100580008F3FFFEF9F0779F0E80EF91E0990D881A1
:10059000C02DEBCF81E0D8011F968C93C70105C019
:1005A00080E090E002C08FEF9FEFDF91CF911F912D
:1005B0000F91FF90EF900895CF93DF93CDB7DEB703
:1005C00069970FB6F894DEBF0FBECDBFFC01DB010B
:1005D0008C918F5F8C93BE016F5F7F4F89E1DB0150
:1005E0001D928A95E9F729E0298384E08A8391E0C6
:1005F0009D8383E08E832A8721E22B879C879D87BA
:100600009F8722E2288B27E02B8B25E02C8B8E8B7B
:1006100020E430E0388F2F8B998F82818B839585F2
:100620008685998B8A8B838180688D8B49E150E028
:1006300080E00E94CA0D69960FB6F894DEBF0FBE27
:10064000CDBFDF91CF910895CF93DF93282F30E076
:10065000F901EC54FE4F8491F901EB56FE4FD49111
:10066000F901EA58FE4FC491CC2391F081110E9408
:100670008C01EC2FF0E0EE0FFF1FE859FE4FA59123
:10068000B491EC91ED2381E090E021F480E002C090
:1006900080E090E0DF91CF9108951F93CF93DF9397
:1006A000282F30E0F901EC54FE4F8491F901EB560C
:1006B000FE4FD491F901EA58FE4FC491CC23C9F002
:1006C000162F81110E948C01EC2FF0E0EE0FFF1F1E
:1006D000E65AFE4FA591B4918FB7F894111105C059
:1006E0009C91ED2FE095E92302C0EC91ED2BEC936A
:1006F0008FBFDF91CF911F910895CF93DF9390E04B
:10070000FC01EB56FE4F2491FC01EA58FE4F849108
:10071000882361F190E0880F991FFC01E45BFE4F94
:10072000C591D491FC01E65AFE4FA591B491611197
:1007300009C09FB7F8948881209582238883EC9123
:100740002E230BC0623061F49FB7F8943881822F5A
:10075000809583238883EC912E2B2C939FBF06C01A
:100760008FB7F894E8812E2B28838FBFDF91CF912C
:1007700008958F929F92AF92BF92CF92DF92EF92A5
:10078000FF926B017C010E94C9014B015C01C11405
:10079000D104E104F104F1F00E94C901DC01CB01B4
:1007A00088199909AA09BB09883E9340A105B1059A
:1007B00070F321E0C21AD108E108F10888EE880E32
:1007C00083E0981EA11CB11CC114D104E104F10402
:1007D00019F7DDCFFF90EF90DF90CF90BF90AF90F3
:1007E0009F908F9008951F920F920FB60F92112431
:1007F0002F933F938F939F93AF93BF9380919001DB
:1008000090919101A0919201B091930130918F014B
:1008100023E0230F2D3720F40196A11DB11D05C043
:1008200026E8230F0296A11DB11D20938F0180930E
:10083000900190939101A0939201B09393018091C4
:10084000940190919501A0919601B0919701019624
:10085000A11DB11D8093940190939501A0939601E1
:10086000B0939701BF91AF919F918F913F912F913D
:100870000F900FBE0F901F901895809187018111E6
:100880006BC081E080937A0180937B0120E831E0A6
:1008900030937D0120937C0110927F0110927E01A4
:1008A0002DE131E03093770120937601109282019F
:1008B000109281011092840110928301809385012E
:1008C0008093860181EC809380010E94A90EFC0137
:1008D000218180917A0190E0820F911D089724F088
:1008E00081E08093870138C0A281B381109729F4F9
:1008F00086E791E0938382830EC018968D919C9138
:100900001997009711F0DC01F8CF86E791E019966E
:100910009C938E9318978081809378018181809336
:100920007901908180917B01890F808380E0909193
:100930007A018917A8F6A0917C01B0917D01A80FDA
:10094000B11D9C91A181B0E0A050BF4F9C939181BB
:100950009F5F91838F5FEBCF86E791E008950F93C0
:100960001F93CF93DF931F92CDB7DEB782E08983C9
:1009700042E450E063ED71E080E80E94CA0D0E94FD
:10098000A90EDC0112960D911C911397011511050A
:1009900069F0D801ED91FC910280F381E02DBE0158
:1009A0006F5F7F4FC801099597FF07C089810F903E
:1009B000DF91CF911F910F910895F8010085118566
:1009C000E5CFAF92BF92CF92DF92EF92FF920F935B
:1009D0001F93CF93DF931F92CDB7DEB7ADB6BEB6F0
:1009E000809165022DB73EB7281B31090FB6F894E8
:1009F0003EBF0FBE2DBF8DB79EB701966C01E09034
:100A00003402F12C8091300290913102D601FC0128
:100A10009F01281B390B2E153F051CF421912D93A6
:100A2000F7CF80913502882371F180912C0290914B
:100A30002D0297FD0AC068E671E00E94561B6DE228
:100A400070E00E94561B262F01C028E080912E02E4
:100A500090912F0297FD0AC068E671E00E94561B34
:100A60006DE270E00E94561B962F01C098E0F601DF
:100A7000EE0DFF1D30E1939FC0011124822B808376
:100A8000C70101967C0186010E0D1F1D20913A02BF
:100A900030913B0240913802509139026091160228
:100AA000709117028091360281700E94D50CE80E79
:100AB000F91E86010E0D1F1D20913E0230913F024E
:100AC00040913C0250913D026091180270911902D0
:100AD00080913602869581700E94D50CE80EF91E31
:100AE00086010E0D1F1D209142023091430240915C
:100AF00040025091410260911A0270911B02809154
:100B0000360282FB882780F90E94D50CE80EF91E78
:100B100086010E0D1F1D2091460230914702409123
:100B200044025091450260911C0270911D02809117
:100B3000360283FB882780F90E94D50CE80EF91E47
:100B400086010E0D1F1D20914A0230914B024091EB
:100B500048025091490260911E0270911F028091DB
:100B60003602829581700E94D50CE80EF91E86012E
:100B70000E0D1F1D20914E0230914F0240914C02EC
:100B800050914D02609120027091210280913602B5
:100B900085FB882780F90E94D50CE80EF91E860196
:100BA0000E0D1F1D209152023091530240915002B0
:100BB0005091510260912402709125028091370278
:100BC00081700E94760CE80EF91E86010E0D1F1D25
:100BD0002091560230915702409154025091550293
:100BE0006091220270912302809137028695817074
:100BF0000E94760CE80EF91E86010E0D1F1D209135
:100C00005A0230915B024091580250915902609112
:100C10002602709127028091370282FB882780F993
:100C20000E94760CE80EF91E86010E0D1F1D209104
:100C30005E0230915F0240915C0250915D026091D2
:100C40002802709129028091370283FB882780F95E
:100C50000E94760C8E0D9F1D8601080F191F209192
:100C60006202309163024091600250916102609192
:100C70002A0270912B0280913702829581700E9426
:100C8000760C10916502009164020E943D047C0183
:100C9000098341E050E0BE016F5F7F4FFC0183811B
:100CA0000E94020E97FD08C0412F50E0F70183819A
:100CB000B60180640E94020E0FB6F894BEBE0FBE4D
:100CC000ADBE0F90DF91CF911F910F91FF90EF90EC
:100CD000DF90CF90BF90AF90089590913302891725
:100CE00000F5982F969596959695E0913002F091A3
:100CF0003102E90FF11D282F277081E090E0A0E07C
:100D0000B0E004C0880F991FAA1FBB1F2A95D2F715
:100D100080959081892380838091320281110C9487
:100D2000E1040895909133028917F8F4982F96956D
:100D300096959695E0913002F0913102E90FF11D00
:100D4000282F277081E090E0A0E0B0E004C0880F79
:100D5000991FAA1FBB1F2A95D2F72081822B80835F
:100D60008091320281110C94E10408950F931F9336
:100D7000CF938C01C62F60E080916E020E944D03DC
:100D80000230110531F10330110509F440C0013082
:100D9000110509F05EC06C2F6170809166020E949F
:100DA0004D03C1FB662760F9809168020E944D03E4
:100DB000C2FB662760F980916A020E944D03C3FB63
:100DC000662760F980916C020E944D038091760243
:100DD0003BC06C2F6170809166020E944D03C1FB85
:100DE000662760F9809168020E944D03C2FB662766
:100DF00060F980916A020E944D03C3FB662760F987
:100E000080916C020E944D03809178021DC06C2F6E
:100E10006170809166020E944D03C1FB662760F9F4
:100E2000809168020E944D03C2FB662760F98091A1
:100E30006A020E944D03C3FB662760F980916C0231
:100E40000E944D0380917A02CF911F910F910C94D3
:100E5000240380E090E0CF911F910F9108954F926D
:100E60005F926F927F928F929F92AF92BF92CF923A
:100E7000DF92EF92FF920F931F93CF93DF9300D0F7
:100E800000D0CDB7DEB749835A836B837C8348019A
:100E90005901BC01990F880B990B0E94AA18A50152
:100EA00094010E948E179B01AC010E948F172B01A9
:100EB0003C01A5019401C701B6010E948E179B0158
:100EC000AC01C301B2010E94001820E030E040E80C
:100ED0005FE30E948E176B017C0120E030E0A901E6
:100EE0000E945A19181624F0C701B601905802C082
:100EF000C701B60129813A814B815C810E94CC19DE
:100F00004B015C0120E030E0A901C701B6010E945D
:100F10005A1918166CF020E030E0A901C701B6019B
:100F20000E94FB1787FD09C020E030E0A90109C03D
:100F300020E030E040E85FE304C020E030E040E83B
:100F40005FEBC501B4010E945F196B017C0120E0D9
:100F500030E040E85FEB0E94FB1787FD14C020E003
:100F600030E040E85FE3C701B6010E945A19181645
:100F70000CF120E030E0A901C701B6010E945A1926
:100F800018165CF006C0C12CD12C90E8E92E9FEB1E
:100F9000F92EC701B601905802C0C701B60120E082
:100FA00030E0A9010E94FB1787FF0AC0C12CD12C99
:100FB000760106C0C12CD12C80E8E82E8FE3F82EF4
:100FC000C701B6010F900F900F900F90DF91CF9156
:100FD0001F910F91FF90EF90DF90CF90BF90AF9057
:100FE0009F908F907F906F905F904F90089583E0D7
:100FF0008093E9008091F200882319F08AE38093BE
:10100000E8000895BC01009791F0FC0101900020D8
:10101000E9F73197AF01481B590BE091C601F091F8
:10102000C7010280F381E02D86EC91E0099480E015
:1010300090E008958F929F92AF92BF920F931F936B
:10104000CF93DF93CDB7DEB7A1970FB6F894DEBF8D
:101050000FBECDBF19A2423008F44AE08E010F5DE9
:101060001F4F842E912CA12CB12CA50194010E941C
:101070005D17E62FB901CA0101501109EA3014F4D5
:10108000E05D01C0E95CD801EC93232B242B252BD8
:1010900061F7C8010E940208A1960FB6F894DEBF5E
:1010A0000FBECDBFDF91CF911F910F91BF90AF9039
:1010B0009F908F9008954F925F926F927F928F9240
:1010C0009F92AF92BF92CF92DF92EF92FF926B010D
:1010D0007C01B42E9B01AC010E941C1A882319F0DC
:1010E0008AE691E027C026013701E89477F82FEFD0
:1010F0003FEF4FE75FE7C301B2010E941C1A811165
:101100000DC02FEF3FEF4FE75FE7C301B2010E9431
:10111000FB1718161CF48EE691E00CC02FEF3FEF82
:101120004FE75FE4C701B6010E945A19181684F40C
:1011300082E791E0FF90EF90DF90CF90BF90AF906B
:101140009F908F907F906F905F904F900C940208CB
:101150002FEF3FEF4FE75FECC701B6010E94FB178F
:1011600087FDE6CF20E030E0A901C701B6010E946B
:10117000FB1787FF11C0E091C601F091C7010190F4
:10118000F081E02D6DE286EC91E009954C01F7FAD3
:10119000F094F7F8F09402C0812C912CA12C60E01F
:1011A00070E080E09FE3AB1441F020E030E040E2EB
:1011B00051E40E940018A394F6CF9B01AC01C70133
:1011C000B6010E948F172B013C010E9479186B0118
:1011D0007C010E94A8189B01AC01C301B2010E94CE
:1011E0008E172B013C014AE0C701B6010E941A0884
:1011F0007C01E80CF91CBB2069F0E091C601F0917C
:10120000C7010190F081E02D6EE286EC91E0099536
:10121000E80EF91EDB2CDD2021F120E030E040E279
:1012200051E4C301B2010E945F192B013C010E94ED
:1012300079184B01A12CB12C4AE0C501B4010E94E0
:101240001A08E80EF91EC501B4010E94A8189B01F6
:10125000AC01C301B2010E948E172B013C01DA944C
:10126000DACFC701FF90EF90DF90CF90BF90AF90A3
:101270009F908F907F906F905F904F9008950C9407
:1012800002081F93CF93DF93182F60E080916E02C6
:101290000E944D03612F6170809166020E944D0390
:1012A00011FB662760F9809168020E944D0312FBD2
:1012B000662760F980916A020E944D0313FB66273E
:1012C00060F980916C020E944D03E0917A02E23154
:1012D00008F0E251F0E0E25BFD4FE49180917B0089
:1012E000E3FB992790F9C92F90E0D92F95E0CC0F17
:1012F000DD1F9A95E1F78F7DC82BC0937B00E770C7
:10130000E064E0937C0080917A00806480937A00AE
:1013100080917A0086FDFCCF809178002091790041
:1013200090E0922BDF91CF911F910895611102C03F
:101330000C946D060C949206FC018091C5018111FC
:1013400003C08FEF9FEF08959FB7F89482E08093DA
:10135000E9002091F20030E01216130614F421E0A7
:1013600030E02115310559F0289884E68093C401B6
:101370008091F10080838091F200882319F09FBF53
:10138000C90108958BE68093E800F9CF1F920F9270
:101390000FB60F9211242F933F934F935F936F9348
:1013A0007F938F939F93AF93BF93CF93EF93FF93CD
:1013B000C091E1008091E100837F8093E100C3FF51
:1013C0000FC01092E90081E08093EB001092EC00D6
:1013D00082E38093ED001092C50188E08093F000D5
:1013E000C2FF18C00E94F7078091C301882339F01B
:1013F0008091C30181508093C301882389F180913A
:10140000C401882339F08091C40181508093C401C4
:10141000882341F1C4FF10C08091E2008E7E81607C
:101420008093E2008091E1008F7E8093E1008091C3
:10143000C2018E7E806111C0C0FF16C08091E200A3
:101440008E7E80618093E2008091E1008E7E8093A9
:10145000E1008091C2018E7E81608093C20104C050
:101460005D9ACDCF289AD6CFFF91EF91CF91BF91C2
:10147000AF919F918F917F916F915F914F913F912C
:101480002F910F900FBE0F901F9018951F920F92E3
:101490000FB60F921124CF92DF92EF92FF920F932B
:1014A0001F932F933F934F935F936F937F938F93EC
:1014B0009F93AF93BF93EF93FF93CF93DF93CDB7FA
:1014C000DEB76C97DEBFCDBF1092E9008091E800D7
:1014D00083FFEDC168E0CE0145960E949C0E82EF2D
:1014E0008093E8008D8987FF05C09091E80090FF08
:1014F000FCCF03C09EEF9093E800982F907609F000
:10150000C6C09E892F89188D91110CC0803829F48E
:101510008091C1018093F10002C01092F1001092FD
:10152000F10048C1422F50E0512B913051F481110C
:1015300041C14130510509F03DC18091C1018D7F0C
:101540000BC0933061F4811135C14130510509F070
:1015500031C18091C10182608093C1012BC195305E
:1015600041F48091E80080FFFCCF20682093E300E5
:1015700021C1963009F05FC0EB8CFC8C1092E90021
:101580001092BF011092BE01123091F51092BD0170
:101590001092BC010E94AF0499E0BE016F5F7F4FC3
:1015A000DB01E92F1D92EA95E9F799831A8391E00F
:1015B0009E8390EA98879AEF99872091BE01309197
:1015C000BF01275F3F4F3C832B838D831092E9003F
:1015D0001092BF011092BE01F092BD01E092BC01D9
:1015E00049E050E080E00E94CA0D0E94AF04E2C0D2
:1015F000F092BD01E092BC010E94A90EDC0112969E
:10160000ED90FC901397E114F10409F4C0C0D701E8
:10161000ED91FC910480F581E02DBE016B5E7F4F62
:10162000C7010995009719F00CF0C4C0C7C0F701B5
:10163000E084F184E8CF973009F4C0C0983021F4F9
:1016400081E08093F100B6C0993009F0B3C0837097
:1016500009F0B4C0E1E0F1E081E021E036E39081FF
:10166000992361F08093E9002093EB00919190938E
:10167000EC003093ED008F5F873089F78EE7809321
:10168000EA001092EA008F898093C50193C08B8D88
:101690009C8D1092E9001092BF011092BE019093B0
:1016A000BD018093BC01898D811156C08E899D89B1
:1016B000913A59F4813209F081C047E050E06BE083
:1016C00071E080E00E94CA0D75C0913209F076C0C9
:1016D000833289F4888D90E0982F88272F89822B78
:1016E000A0E0B0E08093070190930801A093090166
:1016F000B0930A015FC0803269F48091E80082FFF4
:10170000FCCF67E08BE091E00E949C0E8BEF809312
:10171000E80006C0823209F04DC08F898093120123
:101720008091C001882319F0EEEFFAE002C0E0E0FA
:10173000F8E080910B0190910C01A0910D01B09106
:101740000E01803B9440A105B10509F07BC080915A
:10175000120180FF93C076C00E94A90EDC01129690
:101760000D911C9113970115110541F1D801ED91CF
:10177000FC910190F081E02DBE016B5E7F4FC801AE
:101780000995811117C0F80100851185ECCF113042
:1017900009F44EC0133091F48F89882309F445C0B1
:1017A000823081F440E866E187E392E00E948D0D8B
:1017B000882321F08EEF8093E80079C081E2809346
:1017C000EB0075C0813029F440E86BE08BE292E0D9
:1017D000EDCF833099F70E94A90EDC011296ED90AF
:1017E000FC9013978E010F5F1F4F6801E114F10405
:1017F00079F0D701ED91FC910680F781E02DB801D9
:10180000C7010995080F111DF701E084F184EECF9F
:10181000D8011C92F60101900020E9F73197BF0131
:101820006C197D0940E0C601C1CF65E172E002C0DC
:1018300069E172E06115710509F2FB01449150E024
:1018400080E840CF0FB6F894A89580916000886139
:1018500080936000109260000FBEA895EE3F2AE0D2
:10186000F20739F08091FE0A9091FF0A91838083FC
:10187000A1CF1092FF0A1092FE0A9CCFEE3F8AE0A1
:10188000F80731F0808191819093FF0A8093FE0ADE
:1018900087E797E7918380839BE088E10FB6F89410
:1018A000A895809360000FBE9093600083CF6C96E4
:1018B0000FB6F894DEBF0FBECDBFDF91CF91FF9181
:1018C000EF91BF91AF919F918F917F916F915F91B8
:1018D0004F913F912F911F910F91FF90EF90DF90CB
:1018E000CF900F900FBE0F901F901895CF92DF9260
:1018F000EF92FF920F931F93CF93DF93D901E801EB
:10190000421753071CF0FA01690102C06A01F9018C
:10191000882309F43FC09C2D8D2DC616D70614F4DC
:10192000962F872F292F382FE217F3070CF49F01EA
:10193000A417B50734F4CF01821B930B9C012C0D27
:101940003D1D0D2C000CEE08FF08C901330FAA0B3A
:10195000BB0B9C01AD012C193D094E095F09AEEF8F
:10196000BFEF0E9452178F01FF0F220B330BA9010B
:1019700098012C193D094E095F090E943317DA01BD
:10198000C9018F5F9F47A109B1098883998382E0CC
:1019900090E002C080E090E0DF91CF911F910F9125
:1019A000FF90EF90DF90CF900895CF92DF92EF926B
:1019B000FF920F931F93CF93DF93D901E801421752
:1019C00053071CF0FA01690102C06A01F90188237A
:1019D00009F43FC09C2D8D2DC616D70614F4962F02
:1019E000872F292F382FE217F3070CF49F01A41734
:1019F000B50734F4CF01821B930B9C012C0D3D1DC8
:101A00000D2C000CEE08FF08C901330FAA0BBB0B0D
:101A10009C01AD012C193D094E095F09AEEFBFEFE6
:101A20000E9452178F01FF0F220B330BA90198015F
:101A30002C193D094E095F090E943317DA01C901CB
:101A40008F5F9F47A109B1098883998382E090E065
:101A500002C080E090E0DF91CF911F910F91FF9045
:101A6000EF90DF90CF9008954091BE015091BF015B
:101A70002091BC013091BD0142175307B4F49091FD
:101A8000E8009570E1F39091E80092FD19C0809311
:101A9000F1008091BE019091BF0101968F7399274B
:101AA000892B19F48EEF8093E8008091BE0190910C
:101AB000BF0101969093BF018093BE0181E008951C
:101AC00080E00895CF92DF92EF92FF920F931F93E1
:101AD000CF93DF936C017A018B01C0E0D0E0CE158B
:101AE000DF0589F0D8016D918D01D601ED91FC9152
:101AF0000190F081E02DC6010995892B11F47E013A
:101B000002C02196ECCFC701DF91CF911F910F91B9
:101B1000FF90EF90DF90CF900895CF92DF92EF92F9
:101B2000FF920F931F93CF93DF931F92CDB7DEB732
:101B3000182F062FE42E862F880F8E5F99830E9420
:101B4000340D83E00E94340DF12EC12E9981D92EDF
:101B50008C2D8F19801798F4F601E7FE02C084914E
:101B600001C080810E94340D182F80E00E94340D46
:101B70008123FFEFCF1ADF0A8111EACF01C081E094
:101B80000F90DF91CF911F910F91FF90EF90DF9019
:101B9000CF900895DF92EF92FF920F931F93CF9310
:101BA000DF93D82E8A017B01E40EF51EEB01CE15E2
:101BB000DF0571F0D7FE03C0FE01849101C088816A
:101BC0000E94340D21968111F2CF8FEF9FEF01C05B
:101BD000C801DF91CF911F910F91FF90EF90DF909F
:101BE00008952FB7F89487708093E9009091E800EA
:101BF000892F807295FF04C09091F20080E4891BC8
:101C00002FBF08957F928F929F92AF92BF92CF92F3
:101C1000DF92EF92FF920F931F93CF93DF93C82E23
:101C20008B017A018091C501811103C08FEF9FEF75
:101C300075C08091C20180FF05C08091E000826084
:101C40008093E000CE2DDF2DD12C8AEF882E8C2DB5
:101C50008770B82E8C2D8072A82E8C2D8074982EB3
:101C60009AE3792E209709F452C08C2D0E94F10D31
:101C7000282F81110AC08A948820C1F261E070E0A7
:101C800080E090E00E94B903EDCF90E0C817D9073B
:101C90000CF42C2F3FB7F894B092E9008091E80043
:101CA00085FF33C0822F90E0C81BD90BAA2029F0F2
:101CB0002150A8F01092F100FBCFF801C7FE07C039
:101CC000215058F044914093F1003196F9CF2150C2
:101CD00020F041914093F100FACF080F191FDD2049
:101CE00019F07092E8000AC08091E80085FD08C0F4
:101CF0007092E800DD24D394209739F0D12C05C0F0
:101D0000209719F491107092E8003FBFABCFD1102B
:101D1000ACCF5D9884E68093C301C701DF91CF917A
:101D20001F910F91FF90EF90DF90CF90BF90AF90F9
:101D30009F908F907F900895615030F02091F10036
:101D4000FC0120830196F8CF289884E68093C40193
:101D5000089580918C0281110DC082E080938802E9
:101D600084E08093890210928B0210928A0281E0B3
:101D700080938C0288E892E00895CF93DF93CDB7EB
:101D8000DEB729970FB6F894DEBF0FBECDBF7894AB
:101D900084B5826084BD84B5816084BD85B5826070
:101DA00085BD85B5816085BD80916E008160809321
:101DB0006E0010928100809181008260809381008A
:101DC000809181008160809381008091800081609A
:101DD0008093800080919100826080939100809137
:101DE0009100816080939100809190008160809348
:101DF00090008091C10084608093C1008091C100F7
:101E000082608093C1008091C10081608093C10095
:101E10008091C30081608093C3008091C000826084
:101E20008093C0008091C20081608093C200809145
:101E30007A00846080937A0080917A008260809337
:101E40007A0080917A00816080937A0080917A0094
:101E5000806880937A001092C5011092C10110929F
:101E6000C2018091D70081608093D70080EA80937F
:101E7000D80089B5806189BD89B5826089BD09B402
:101E800000FEFDCF61E070E080E090E00E94B903C9
:101E90008091D8008F7C80618093D8008091E00091
:101EA000807F8093E0008091E1008E7E8093E1004E
:101EB0008DE08093E200559A209AEEEFFFE785913E
:101EC00094918B3F9C4D19F481E08093C0018FEF7A
:101ED0009FEF9093D3018093D20162E080917602CC
:101EE0000E947D0360E0809170020E944D03109279
:101EF0009A0162E0809178020E947D0360E0809107
:101F000072020E944D031092990162E080917A0260
:101F10000E947D0360E0809174020E944D03109244
:101F2000980181E0809332020E94E10420E030ECCD
:101F3000309339022093380280E090E490933B0282
:101F400080933A0230933D0220933C0290933F02EB
:101F500080933E02309341022093400290934302CB
:101F6000809342023093550220935402909357027B
:101F700080935602F0E02F2EF0E03F2E63E070E0F9
:101F800081E090E00E94B60661E0892B09F060E0F4
:101F900080E00E94960967E070E081E090E00E9496
:101FA000B60661E0892B09F060E081E00E949609A5
:101FB0006AE070E081E090E00E94B60661E0892B63
:101FC00009F060E082E00E9496096BE070E081E039
:101FD00090E00E94B60661E0892B09F060E083E0A2
:101FE0000E9496096DE070E081E090E00E94B606E4
:101FF00061E0892B09F060E084E00E94960962E0CC
:1020000070E081E090E00E94B60661E0892B09F063
:1020100060E085E00E94960966E070E081E090E073
:102020000E94B60661E0892B09F060E086E00E941C
:10203000960969E070E081E090E00E94B60661E0F8
:10204000892B09F060E087E00E9496096CE070E05F
:1020500081E090E00E94B60661E0892B09F060E023
:1020600088E00E9496096EE070E081E090E00E94B6
:10207000B60661E0892B09F060E089E00E949609CC
:1020800061E070E081E090E00E94B60661E0892B9B
:1020900009F060E08AE00E94960960E070E081E06B
:1020A00090E00E94B60661E0892B09F060E08BE0C9
:1020B0000E94960965E070E081E090E00E94B6061B
:1020C00061E0892B09F060E08CE00E94960964E0F1
:1020D00070E081E090E00E94B60661E0892B09F093
:1020E00060E08DE00E94960966E070E082E090E09A
:1020F0000E94B60661E0892B09F060E08EE00E9444
:10210000960968E070E081E090E00E94B60661E028
:10211000892B09F060E08FE00E9496096FE070E083
:1021200081E090E00E94B60661E0892B09F060E052
:1021300080E10E94960960E070E082E090E00E94F9
:10214000B60661E0892B09F060E081E10E94960902
:1021500062E070E082E090E00E94B60661E0892BC8
:1021600009F060E082E10E94960961E070E082E09F
:1021700090E00E94B60661E0892B09F060E083E1FF
:102180000E9496096CE070E082E090E00E94B60642
:1021900061E0892B09F060E084E10E94960963E028
:1021A00070E082E090E00E94B60661E0892B09F0C1
:1021B00060E085E10E94960964E070E082E090E0D2
:1021C0000E94B60661E0892B09F060E086E10E947A
:1021D000960965E070E082E090E00E94B60661E05A
:1021E000892B09F060E087E10E9496096AE070E0BF
:1021F00082E090E00E94B60661E0892B09F060E081
:1022000088E10E9496096BE070E082E090E00E9415
:10221000B60661E0892B09F060E089E10E94960929
:1022200067E070E082E090E00E94B60661E0892BF2
:1022300009F060E08AE10E94960969E070E082E0BE
:1022400090E00E94B606182F68E070E082E090E00F
:102250000E94B606880F991FE82FE12BE37090913A
:102260009B01990F990FE92BE0939B01EF70F0E030
:10227000EB5DFE4F10818EE111161CF40E94920658
:1022800008C00E946D06112321F08FE10E94920682
:1022900003C08FE10E946D0680E090E00E9441093A
:1022A000BC01990F880B990B0E94AA186093B80182
:1022B0007093B9018093BA019093BB0181E090E0E3
:1022C0000E944109BC01990F880B990B0E94AA1822
:1022D0006093B4017093B5018093B6019093B701F8
:1022E00083E090E00E944109BC01990F880B990B93
:1022F0000E94AA186093B0017093B1018093B2015B
:102300009093B30187E090E00E944109BC01990FCE
:10231000880B990B0E94AA186093AC017093AD01D1
:102320008093AE019093AF0187E491E00E943F0952
:102330006091B8017091B9018091BA019091BB018F
:1023400042E00E945B088BE491E00E943F096091AB
:10235000B4017091B5018091B6019091B70142E04E
:102360000E945B0885E591E00E943F096091B00101
:102370007091B1018091B2019091B30142E00E944D
:102380005B088DE591E00E943F096091AC0170917E
:10239000AD018091AE019091AF0142E00E945B08D7
:1023A00087E691E00E9402086091B8017091B9013E
:1023B0008091BA019091BB010E94721869837A835F
:1023C0008B839C83C12C40ECD42E43E4E42E44E464
:1023D000F42E00E010E027ED33E440E050E060E848
:1023E0007FE389819A810E942F074B015C016093F2
:1023F000A8017093A9018093AA019093AB01609109
:10240000B4017091B5018091B6019091B7010E941D
:1024100072186D837E838F839887C12C50E8D52EE8
:1024200057E4E52E54E4F52E00E010EC20E034E40F
:1024300040E050E060E87FE38D819E810E942F079D
:102440002B013C016093A4017093A5018093A60128
:102450009093A701C12C60ECD62E63E4E62E64E4D1
:10246000F62E00E010E027ED33E440E050E060E8B5
:1024700070E489819A810E942F0769837A838B8314
:102480009C836093A0017093A1018093A20190931B
:10249000A301C12C70E8D72E77E4E72E74E4F72E61
:1024A00000E010EC20E034E440E050E060E870E44C
:1024B0008D819E810E942F076B017C0160939C019E
:1024C00070939D0180939E0190939F0120E030E0E6
:1024D000A901C501B4010E945A191816BCF4A5013E
:1024E0009401C501B4010E948F17162F79878D833F
:1024F000092F20E030E040E85FE30E94FB1787FDF2
:102500001DC010E0198680E88D8317C0C501B40195
:1025100090589B01AC010E948F17162F79878D83ED
:10252000092F20E030E040E85FE30E94FB1787FDC1
:1025300005C010E0198690E89D830FE3212F3985AF
:102540004D81502F60E070E080E89FE30E948E177D
:1025500029813A814B815C810E945F1969837A836A
:102560008B839C83A5019401612F79858D81902FA8
:102570000E945F199B01AC0169817A818B819C81EA
:102580000E948F1769837A838B839C8320E030E0DD
:10259000A901C301B2010E945A191816BCF4A30183
:1025A0009201C301B2010E948F17162F79878D8384
:1025B000092F20E030E040E85FE30E94FB1787FD31
:1025C0001DC010E01986A0E8AD8317C0C301B20199
:1025D00090589B01AC010E948F17162F79878D832D
:1025E000092F20E030E040E85FE30E94FB1787FD01
:1025F00005C010E01986B0E8BD830FE3212F3985AF
:102600004D81502F60E070E080E89FE30E948E17BC
:10261000A70196010E945F196B017C01A301920141
:10262000612F79858D81902F0E945F199B01AC01EC
:10263000C701B6010E948F176D837E838F839887B1
:1026400021ED32E24BE95EE3C501B4010E945F195E
:102650006B017C0120E030E0A901C301B2010E94BE
:102660005A19A301920118160CF05058C701B6016F
:102670000E945F199B01AC0169817A818B819C81E9
:102680000E948F176093B8017093B9018093BA01CB
:102690009093BB0121ED32E24BE95EE3C301B2014D
:1026A0000E945F196B017C0120E030E0A901C501A7
:1026B000B4010E945A19181624F0B7FAB094B7F86A
:1026C000B094A5019401C701B6010E945F199B0156
:1026D000AC016D817E818F8198850E948F176093F8
:1026E000B4017093B5018093B6019093B7016091E6
:1026F000B0017091B1018091B2019091B3010E943B
:102700007218DC01CB01C12C20E8D22E23ECE22E82
:1027100023E4F22E00E010E02EE334E440E050E049
:1027200060E870E40E942F076093B0017093B101DC
:102730008093B2019093B3016091AC017091AD01AF
:102740008091AE019091AF010E947218DC01CB0123
:10275000C12C30ECD32E38E4E32E34E4F32E00E029
:1027600010E02AE833E440E050E060EC7FE30E94B0
:102770002F076093AC017093AD018093AE019093ED
:10278000AF0187E491E00E943F096091B801709128
:10279000B9018091BA019091BB0142E00E945B08AF
:1027A0008BE491E00E943F096091B4017091B50102
:1027B0008091B6019091B70142E00E945B0885E5E7
:1027C00091E00E943F096091B0017091B101809148
:1027D000B2019091B30142E00E945B088DE591E067
:1027E0000E943F096091AC017091AD018091AE01F2
:1027F0009091AF0142E00E945B0887E691E00E9461
:10280000020820E030E040E856E46091B8017091A1
:10281000B9018091BA019091BB010E945F190E9499
:102820007218709317026093160280913202811120
:102830000E94E10420E030E040E856E46091B401F9
:102840007091B5018091B6019091B7010E945F1916
:102850000E947218709319026093180280913202DC
:1028600081110E94E10420E030E040E856E46091EC
:10287000B0017091B1018091B2019091B3010E94B9
:102880005F190E94721870931B0260931A02809164
:10289000320281110E94E10420E030E040E856E479
:1028A0006091AC017091AD018091AE019091AF014A
:1028B0000E945F190E947218709323026093220293
:1028C0008091320281110E94E1040E94F7076AE0C0
:1028D00070E080E090E00E94B9032114310409F413
:1028E0004DCB0E9400004ACBBF92CF92DF92EF9275
:1028F000FF920F931F93CF93DF93CDB7DEB7C659E7
:10290000D1090FB6F894DEBF0FBECDBF1092C9013A
:102910001092C80188EE93E0A0E0B0E08093CA0175
:102920009093CB01A093CC01B093CD0189E391E0CA
:102930009093C7018093C6018FEF9FEF9093D301CF
:102940008093D20182E090E09093670280936602C8
:1029500084E090E0909369028093680286E090E0C2
:1029600090936B0280936A0287E090E090936D02EF
:1029700080936C0288E090E090936F0280936E02E7
:102980008AE090E090937102809370028BE090E077
:1029900090937302809372028CE090E090937502A2
:1029A0008093740282E190E09093770280937602A4
:1029B00083E190E0909379028093780284E190E043
:1029C00090937B0280937A0261E082E00E947D0313
:1029D00061E0809168020E947D0361E080916A025B
:1029E0000E947D0361E080916C020E947D0361E0A2
:1029F00080916E020E947D0360E080916E020E94D1
:102A00004D0361E0809170020E947D0361E080913E
:102A100072020E947D0361E0809174020E947D0336
:102A20001092310210923002109234021092390248
:102A3000109238028FEF93E090933B0280933A021A
:102A400010923D0210923C0290933F0280933E020E
:102A500010924102109240029093430280934202EE
:102A600010924502109244029093470280934602CE
:102A7000109249021092480290934B0280934A02AE
:102A800010924D0210924C0290934F0280934E028E
:102A9000109251021092500290935302809352026E
:102AA000109255021092540290935702809356024E
:102AB000109259021092580290935B0280935A022E
:102AC00010925D0210925C0290935F0280935E020E
:102AD00010926102109260029093630280936202EE
:102AE00073E07093640230E23093330222E020936B
:102AF0003502B7E0B09336022093370265E0698370
:102B000081E08A8399E09B83F4E0FC83E1EAED8332
:102B10008E8345E84F83788769879A8749E14B8799
:102B20008C8749E24D873E8705E10F87188A15E2B9
:102B3000198B8A8B55E75B8B8C8B45E94D8B3E8BD4
:102B400035E53F8B188EA5E6A98F1A8E31E83B8FAD
:102B50002C8F6D8F8E8F9F8F0F2EF9E3BF2EF02D50
:102B6000B8A209A31AA21BA3BCA30F2EF5E3CF2E74
:102B7000F02DCDA21EA20F2EF6E4DF2EF02DDFA247
:102B80000F2EFBE3EF2EF02DE8A689A7AAA70F2EA4
:102B9000F4E1FF2EF02DFBA65CA7FDA74EA78FA7A3
:102BA00038AB29AB9AABBBAA0CAB1DAA1EABBFAB13
:102BB000C8AE19AEDAAEEBAE8CAFADAFFEAE5FAF66
:102BC0002196FFAF219722964FAF229723968FAF82
:102BD000239724963FAF249725962FAF25972696C7
:102BE0009FAF269727968FAF2797F6E1FF2E28965F
:102BF000FFAE289729968FAF299700E82A960FAF46
:102C00002A9716E22B961FAF2B97BFEF2C96BFAFDC
:102C10002C97AFE72D96AFAF2D972E965FAF2E97DF
:102C2000F0E12F96FFAF2F9760964FAF60976196B8
:102C30007FAF61976296EFAF629763961FAE63971F
:102C400064969FAF649770E365967FAF65976696CD
:102C50009FAF669771E367967FAF679768969FAF60
:102C6000689772E369967FAF69976A963FAF6A97F4
:102C70006B962FAF6B9770EC6C967FAF6C976D96E1
:102C80006FAF6D976E962FAF6E976F96FFAE6F9783
:102C9000A0968FAFA097A1960FAFA197A2961FAF56
:102CA000A297A396BFAFA397A496AFAFA497A596FC
:102CB0005FAFA597A696FFAFA697A7964FAFA7972A
:102CC000A8968FAFA897A996EFAFA997AA961FAE1F
:102CD000AA97AB969FAFAB978BEBAC968FAFAC97A9
:102CE000AD963FAFAD97AE962FAFAE97AF967FAF95
:102CF000AF97E0967FAFE0978FE690E00E94841B4D
:102D00007C018FE6FE013196D70101900D928A95E4
:102D1000E1F787E090E00E94841B8C01DC011196B2
:102D20001C921E921396FC92EE9212978FE690E000
:102D300015969C938E93149716961C920E943D04B0
:102D4000FC01A385B485109719F41487038709C083
:102D50008D919C911197009711F0DC01F9CF0D93A3
:102D60001C9325853685D80114968D919C911597D5
:102D7000820F931F9687858790913302892F8695BE
:102D800086958695977009F08F5F80933402109135
:102D90003402812F90E00E94841B90933102809333
:102DA0003002185F81E090913502911101C080E0FE
:102DB000810F8093650210921702109216021092F2
:102DC00019021092180210921B0210921A0210920D
:102DD0001D0210921C0210921F0210921E021092ED
:102DE00021021092200210922302109222021092CD
:102DF00025021092240210922702109226021092AD
:102E000029021092280210922B0210922A028FEFB0
:102E10009FEF90932D0280932C0290932F0280932A
:102E20002E0280E090E02091340230E08217930778
:102E30004CF4E0913002F0913102E80FF91F10825A
:102E40000196F1CFCA56DF4F0FB6F894DEBF0FBE22
:102E5000CDBFDF91CF911F910F91FF90EF90DF9049
:102E6000CF90BF900895052E97FB1EF400940E940A
:102E70004A1757FD07D00E945D1707FC03D04EF498
:102E80000C944A1750954095309521953F4F4F4FE0
:102E90005F4F089590958095709561957F4F8F4F06
:102EA0009F4F08950E947F17A59F900DB49F900D8E
:102EB000A49F800D911D11240895A1E21A2EAA1B32
:102EC000BB1BFD010DC0AA1FBB1FEE1FFF1FA217DA
:102ED000B307E407F50720F0A21BB30BE40BF50BD7
:102EE000661F771F881F991F1A9469F76095709560
:102EF000809590959B01AC01BD01CF010895A29FE3
:102F0000B001B39FC001A39F700D811D1124911DBD
:102F1000B29F700D811D1124911D08955058BB273B
:102F2000AA270E94A6170C9420190E94121938F0A3
:102F30000E94191920F039F49F3F19F426F40C94DB
:102F40000F190EF4E095E7FB0C940919E92F0E9484
:102F5000311958F3BA17620773078407950720F0F1
:102F600079F4A6F50C9453190EF4E0950B2EBA2FB4
:102F7000A02D0B01B90190010C01CA01A00111247F
:102F8000FF27591B99F0593F50F4503E68F11A162B
:102F9000F040A22F232F342F4427585FF3CF4695BC
:102FA00037952795A795F0405395C9F77EF41F16DE
:102FB000BA0B620B730B840BBAF09150A1F0FF0FA8
:102FC000BB1F661F771F881FC2F70EC0BA0F621F94
:102FD000731F841F48F4879577956795B795F79584
:102FE0009E3F08F0B0CF9395880F08F09927EE0F19
:102FF0009795879508950E94E51808F481E0089553
:103000000E9414180C9420190E94191958F00E945B
:10301000121940F029F45F3F29F00C94091951115D
:103020000C9454190C940F190E94311968F39923C8
:10303000B1F3552391F3951B550BBB27AA276217B4
:103040007307840738F09F5F5F4F220F331F441FC1
:10305000AA1FA9F335D00E2E3AF0E0E832D09150F5
:103060005040E695001CCAF72BD0FE2F29D0660FE2
:10307000771F881FBB1F261737074807AB07B0E825
:1030800009F0BB0B802DBF01FF2793585F4F3AF02B
:103090009E3F510578F00C9409190C9454195F3F28
:1030A000E4F3983ED4F3869577956795B795F795B1
:1030B0009F5FC9F7880F911D9695879597F9089599
:1030C000E1E0660F771F881FBB1F62177307840735
:1030D000BA0720F0621B730B840BBA0BEE1F88F744
:1030E000E09508950E9479186894B1110C945419D0
:1030F00008950E94391988F09F5798F0B92F9927A1
:10310000B751B0F0E1F0660F771F881F991F1AF0D2
:10311000BA95C9F714C0B13091F00E945319B1E0CB
:1031200008950C945319672F782F8827B85F39F0CA
:10313000B93FCCF3869577956795B395D9F73EF46B
:1031400090958095709561957F4F8F4F9F4F089513
:10315000E89409C097FB3EF4909580957095619531
:103160007F4F8F4F9F4F9923A9F0F92F96E9BB27E7
:103170009395F695879577956795B795F111F8CF63
:10318000FAF4BB0F11F460FF1BC06F5F7F4F8F4FCE
:103190009F4F16C0882311F096E911C0772321F0C4
:1031A0009EE8872F762F05C0662371F096E8862F5C
:1031B00070E060E02AF09A95660F771F881FDAF7B3
:1031C000880F9695879597F90895990F0008550FE0
:1031D000AA0BE0E8FEEF16161706E807F907C0F09D
:1031E00012161306E407F50798F0621B730B840BA5
:1031F000950B39F40A2661F0232B242B252B21F47F
:1032000008950A2609F4A140A6958FEF811D811D1E
:10321000089597F99F6780E870E060E008959FEF58
:1032200080EC089500240A9416161706180609065D
:10323000089500240A94121613061406050608952C
:10324000092E0394000C11F4882352F0BB0F40F4B4
:10325000BF2B11F460FF04C06F5F7F4F8F4F9F4FF4
:10326000089557FD9058440F551F59F05F3F71F076
:103270004795880F97FB991F61F09F3F79F08795DD
:103280000895121613061406551FF2CF4695F1DF66
:1032900008C0161617061806991FF1CF86957105F6
:1032A000610508940895E894BB2766277727CB012A
:1032B00097F908950E94E51808F48FEF08950E9489
:1032C00072190C9420190E94121938F00E941919D1
:1032D00020F0952311F00C9409190C940F19112466
:1032E0000C9454190E94311970F3959FC1F3950FF6
:1032F00050E0551F629FF001729FBB27F00DB11D7A
:10330000639FAA27F00DB11DAA1F649F6627B00D09
:10331000A11D661F829F2227B00DA11D621F739FF2
:10332000B00DA11D621F839FA00D611D221F749F00
:103330003327A00D611D231F849F600D211D822F47
:10334000762F6A2F11249F5750409AF0F1F088236E
:103350004AF0EE0FFF1FBB1F661F771F881F91509B
:103360005040A9F79E3F510580F00C9409190C9428
:1033700054195F3FE4F3983ED4F3869577956795AB
:10338000B795F795E7959F5FC1F7FE2B880F911DC5
:103390009695879597F90895FA01EE0FFF1F3096DD
:1033A00021053105A1F16115710561F48038BFE394
:1033B0009B0749F168949038810561F08038BFEF30
:1033C0009B0741F099234AF5FF3FE10531052105AF
:1033D00019F1E8940894E795D901AA2329F4AB2FB1
:1033E000BE2FF85FD0F310C0FF5F70F4A695E0F732
:1033F000F73950F019F0FF3A38F49F779F930DD0CA
:103400000F9007FC9058089546F00C940F1960E057
:1034100070E080E89FE308954FE79F775F934F93B5
:103420003F932F930E94CC1A2F913F914F915F9120
:103430000E945F190C94291A0E94E518880B990BB9
:10344000089529F416F00C9409190C9453190C944E
:103450000F190E943919A8F39638A0F707F80F92B0
:10346000E8942BE33AEA48EB5FE70E9475190F9264
:103470000F920F924DB75EB70F920E94141BEAECA9
:10348000F0E00E945B1A4F915F91EF91FF91E595FB
:10349000EE1FFF1F49F0FE57E0684427EE0F441F60
:1034A000FA95E1F74195550B0E948E1A0F9007FE91
:1034B0000C94821A0895DF93CF931F930F93FF927A
:1034C000EF92DF927B018C01689406C0DA2EEF0147
:1034D0000E947219FE01E894A591259135914591BC
:1034E0005591A6F3EF010E94A617FE019701A801CE
:1034F000DA9469F7DF90EF90FF900F911F91CF91D1
:10350000DF9108959B01AC0160E070E080E89FE3EB
:103510000C9400180C9409190C94481B0E9439193A
:10352000D8F39923C9F3940F511DA3F39150504040
:1035300094F059F0882332F0660F771F881F91505E
:103540005040C1F79E3F51052CF7880F911D96956D
:10355000879597F908955F3FACF0983E9CF0BB27A4
:10356000869577956795B79508F4B1609395C1F7FF
:10357000BB0F58F711F460FFE8CF6F5F7F4F8F4F9D
:103580009F4FE3CF0C94541916F00C94481B0C94E5
:103590000F1968940C9409190E943919A8F39923FA
:1035A000C1F3AEF3DF93CF931F930F93FF92C92F15
:1035B000DD2788232AF02197660F771F881FDAF707
:1035C00020E030E040E85FEB9FE3883920F0803E68
:1035D00038F021968F770E948F17E2EFF0E004C059
:1035E0000E948F17EFE1F1E00E945B1A8B01BE0190
:1035F000EC01FB2E6F5771097595771F880B990B9E
:103600000E94AA1828E132E741E35FE30E947219A1
:10361000AF2D9801AE01FF900F911F91CF91DF91D7
:103620000E94A6170C942019FA01DC01AA0FBB1FF7
:103630009B01AC01BF5728F4222733274427507839
:1036400020C0B75190F4AB2F0024469537952795AD
:10365000011CA395D2F3002071F0220F331F441FE9
:10366000B395DAF30ED00C948E1761307105A0E893
:103670008A07B94630F49B01AC0166277727882773
:103680009078309621F020833183428353830895CC
:103690009F3F31F0915020F4879577956795B795C6
:1036A000880F911D9695879597F9089597FB072E9A
:1036B00016F4009407D077FD09D00E94701B07FC18
:1036C00005D03EF4909581959F4F08957095619532
:1036D0007F4F0895EE0FFF1F0590F491E02D0994A0
:1036E000AA1BBB1B51E107C0AA1FBB1FA617B70728
:1036F00010F0A61BB70B881F991F5A95A9F7809544
:103700009095BC01CD010895CF93DF938230910550
:1037100010F482E090E0E0919602F091970220E0B0
:1037200030E0C0E0D0E0309711F14081518148177E
:103730005907C0F04817590761F482819381209797
:1037400019F09B838A832BC09093970280939602F3
:1037500026C02115310519F04217530718F49A01B4
:10376000BE01DF01EF010280F381E02DDCCF2115E6
:10377000310509F1281B390B2430310590F41296DC
:103780008D919C9113976115710521F0FB01938335
:10379000828304C09093970280939602FD01329633
:1037A00044C0FD01E20FF31F819391932250310930
:1037B0002D933C933AC02091940230919502232B93
:1037C00041F4209115013091160130939502209318
:1037D000940220911301309114012115310541F417
:1037E0002DB73EB74091170150911801241B350B9E
:1037F000E0919402F0919502E217F307A0F42E1BDA
:103800003F0B2817390778F0AC014E5F5F4F241744
:10381000350748F04E0F5F1F509395024093940276
:103820008193919302C0E0E0F0E0CF01DF91CF916E
:1038300008950F931F93CF93DF93009709F48CC0E3
:10384000FC01329713821282009196021091970226
:103850000115110581F420813181820F931F209180
:103860009402309195022817390779F5F093950263
:10387000E093940271C0D80140E050E0AE17BF075A
:1038800050F412962D913C911397AD0121153105FD
:1038900009F1D901F3CF9D01DA01338322836081DD
:1038A0007181860F971F8217930769F4EC012881B5
:1038B0003981260F371F2E5F3F4F318320838A8146
:1038C0009B8193838283452B29F4F0939702E093A5
:1038D000960242C01396FC93EE931297ED01499124
:1038E00059919E01240F351FE217F30771F480816F
:1038F0009181840F951F029611969C938E938281DD
:10390000938113969C938E931297E0E0F0E0D80198
:1039100012968D919C911397009719F0F8018C01E4
:10392000F6CF8D919C9198012E5F3F4F820F931F90
:1039300020919402309195022817390769F4309745
:1039400029F4109297021092960202C013821282FA
:103950001093950200939402DF91CF911F910F91E4
:10396000089581E090E0F8940C94B61CF894FFCF91
:1039700000C18081000000FFFFFFFF00E1000000A8
:1039800000000000009802800000000000EE01DC52
:10399000029902150200FF0100010000FFFF000074
:1039A000010001FF000000000058013A02500238F7
:1039B000026E0179025502583A2000202020202072
:1039C00020593A2000202020205A3A200020202090
:1039D000205468723A20000D0A006E616E00696E14
:0639E00066006F76660030
:00000001FF
