:100000000C9445010C946D010C946D010C946D01E0
:100010000C946D010C946D010C946D010C946D01A8
:100020000C946D010C946D010C94440A0C940F0B0C
:100030000C946D010C946D010C946D010C946D0188
:100040000C946D010C946D010C946D010C946D0178
:100050000C946D010C946D010C946D010C94C5040D
:100060000C946D010C946D010C946D010C946D0158
:100070000C946D010C946D010C946D010C946D0148
:100080000C946D010C946D010C946D010C946D0138
:100090000C946D010C946D010C946D010C946D0128
:1000A0000C946D010C946D010C946D0187018A0113
:1000B00079017D018301AB01AB01AB018E0192019E
:1000C00096019C01A001AB01A601084AD73B3BCE9B
:1000D000016E84BCBFFDC12F3D6C74319ABD568347
:1000E0003DDA3D00C77F11BED9E4BB4C3E916BAAFF
:1000F000AABE000000803F07634236B79BD8A71A0C
:1001000039685618AEBAAB558C1D3CB7CC5763BD99
:100110006DEDFD753EF6177231BF000000803F089F
:10012000000000BE922449123EABAAAA2ABECDCC42
:10013000CC4C3E00000080BEABAAAAAA3E00000044
:1001400000BF000000803F0000000000084178D39D
:10015000BB4387D1133D190E3CC3BD4282AD2B3E3C
:1001600068EC8276BED98FE1A93E4C80EFFFBE01DC
:10017000C4FF7F3F000000000000000000002400DA
:1001800027002A002D003000000000002500280074
:100190002B002E0031000000000023002600290063
:1001A0002C002F00040404040403040502020202CC
:1001B0000403020202020606060606060404020200
:1001C00002040404080201104080401020408040D6
:1001D000800802040180402010020110801020409D
:1001E00040200000000200090F0000030401000C81
:1001F00000000000000000000000000000000000FF
:1002000000070605040100080A0B0C0D09080B0085
:10021000020202010009040000010202000005249C
:100220000010010524010101042402060524060032
:10023000010705810310004009040100020A0000C3
:100240000007050202400000070583024000000489
:1002500003090412010002EF02014041233680002D
:10026000010102030141726475696E6F204C4C43B9
:100270000048617276657374655220436F6E7472C4
:100280006F6C204465636B003A1711241FBECFEFDB
:10029000DAE0DEBFCDBF11E0A0E0B1E0E6EBF0E4D4
:1002A00002C005900D92A834B107D9F722E0A8E466
:1002B000B1E001C01D92A73AB207E1F711E0C5E431
:1002C000D1E004C02197FE010E940D1FC434D10764
:1002D000C9F70E94D90D0C9459200C94000090E0AD
:1002E000FC013197EF30F105B0F5EA5AFF4F0C945D
:1002F0000D1F809180008F7703C0809180008F7DDB
:1003000080938000089580918000877FF9CF84B525
:100310008F7702C084B58F7D84BD08958091900051
:100320008F7707C0809190008F7D03C080919000EF
:10033000877F8093900008958091C0008F7703C0DD
:100340008091C0008F7D8093C00008958091C2008D
:10035000877F8093C20008953FB7F894809166012B
:1003600090916701A0916801B091690126B5A89BA1
:1003700005C02F3F19F00196A11DB11D3FBFBA2F37
:10038000A92F982F8827820F911DA11DB11DBC0197
:10039000CD0142E0660F771F881F991F4A95D1F75C
:1003A00008952FB7F8946091620170916301809174
:1003B0006401909165012FBF0895DC01FB01129645
:1003C0008C91129790E02481358182179307D1F4A4
:1003D00091818081813A31F481E0913091F09330C4
:1003E00089F411C0813271F49B3021F482811F960F
:1003F0008C9305C09A3031F4828150968C9381E0C1
:100400000895089580E00895DC01FB0188E480836D
:1004100089E4818384E482831D969C911D979F705B
:100420009F5B93831D968D919C911E9724E09695DA
:1004300087952A95E1F78F708F5B848385E0089517
:10044000FC0182818F5BFB01808381E008954F92E4
:100450005F926F927F928F929F92AF92BF92CF9254
:10046000DF92EF92FF920F931F93CF93DF93CDB75D
:10047000DEB728970FB6F894DEBF0FBECDBF498315
:100480005A836B837C83280139018D829E82AF82DF
:10049000B886BC01990F880B990B0E944E1C4B012A
:1004A0005C01A70196010E949F1B882309F4BBC031
:1004B000A7019601C501B4010E949F1B87FF1CC0C4
:1004C000A3019201C501B4010E94C01A4B015C0155
:1004D000A3019201C701B6010E94C01A9B01AC01A1
:1004E000C501B4010E94A41B20E030E040E85FE3B6
:1004F0000E94C01A4B015C01A7019601C501B4011D
:100500000E94251D1816ECF4A7019601C501B4013F
:100510000E94C01A4B015C01A70196016D817E818A
:100520008F8198850E94C01A9B01AC01C501B4015E
:100530000E94A41B20E030E0A9010E94C11A4B01D7
:100540005C0120E030E0A901C501B4010E94251D35
:10055000181624F0C501B401905802C0C501B401B9
:1005600029813A814B815C810E949F1D6B017C0136
:1005700020E030E0A901C501B4010E94251D181634
:100580006CF020E030E0A901C501B4010E949F1B7E
:1005900087FD09C020E030E0A90109C020E030E07B
:1005A00040E85FE304C020E030E040E85FEBC701D3
:1005B000B6010E94321D6B017C0120E030E040E872
:1005C0005FEB0E949F1B87FD14C020E030E040E8F5
:1005D0005FE3C701B6010E94251D1816A4F020E0B4
:1005E00030E0A901C701B6010E94251D18168CF044
:1005F00006C0C12CD12C90E8E92E9FEBF92EC70143
:10060000B601905808C0C12CD12C80E8E82E8FE3A9
:10061000F82EC701B6012B8D3C8D4D8D5E8D0E944D
:100620009F1B87FF05C050E040E030E020E004C0A1
:100630005C2D4D2D3E2D2F2D652F742F832F922F46
:1006400028960FB6F894DEBF0FBECDBFDF91CF91D5
:100650001F910F91FF90EF90DF90CF90BF90AF90E0
:100660009F908F907F906F905F904F9008950E9421
:100670005420EF92FF920F931F93CF93DF93FB01D0
:100680002081213869F52381223251F5DC0112964F
:100690002C9130E0448155814217530709F58C01B4
:1006A000FC01C385D485E12CF12C209799F04C8175
:1006B0005D816A817B818E81811180E80E94B60A0A
:1006C0008F3FFFEF9F0779F0E80EF91E0990D88160
:1006D000C02DEBCF81E0D8011F968C93C70105C0D8
:1006E00080E090E002C08FEF9FEFDF91CF911F91EC
:1006F0000F91FF90EF900895CF93DF93CDB7DEB7C2
:1007000069970FB6F894DEBF0FBECDBFFC01DB01C9
:100710008C918F5F8C93BE016F5F7F4F89E1DB010E
:100720001D928A95E9F729E0298384E08A8391E084
:100730009D8383E08E832A8721E22B879C879D8778
:100740009F8722E2288B27E02B8B25E02C8B8E8B3A
:1007500020E430E0388F2F8B998F82818B839585B1
:100760008685998B8A8B838180688D8B49E150E0E7
:1007700080E00E94B60A69960FB6F894DEBF0FBEFD
:10078000CDBFDF91CF9108952FB7F89487708093F4
:10079000E9009091E800892F807295FF04C0909144
:1007A000F20080E4891B2FBF0895615030F0209142
:1007B000F100FC0120830196F8CF289884E680930D
:1007C000B30108958091AB0181110DC082E0809347
:1007D000A70184E08093A8011092AA011092A901B8
:1007E00081E08093AB0187EA91E00895CF93DF9396
:1007F000282F30E0F901EE51FE4F8491F901ED53BD
:10080000FE4FD491F901EC55FE4FC491CC2391F0E9
:1008100081110E946F01EC2FF0E0EE0FFF1FEA56EE
:10082000FE4FA591B491EC91ED2381E090E021F48D
:1008300080E002C080E090E0DF91CF9108951F93A7
:10084000CF93DF93282F30E0F901EE51FE4F8491D2
:10085000F901ED53FE4FD491F901EC55FE4FC491CF
:10086000CC23C9F0162F81110E946F01EC2FF0E00C
:10087000EE0FFF1FE857FE4FA591B4918FB7F89484
:10088000111105C09C91ED2FE095E92302C0EC9178
:10089000ED2BEC938FBFDF91CF911F910895CF93F4
:1008A000DF9390E0FC01ED53FE4F2491FC01EC55E9
:1008B000FE4F8491882361F190E0880F991FFC011D
:1008C000E658FE4FC591D491FC01E857FE4FA59123
:1008D000B491611109C09FB7F89488812095822353
:1008E0008883EC912E230BC0623061F49FB7F8949B
:1008F0003881822F809583238883EC912E2B2C9333
:100900009FBF06C08FB7F894E8812E2B28838FBF36
:10091000DF91CF9108958F929F92AF92BF92CF9225
:10092000DF92EF92FF926B017C010E94AC014B01C0
:100930005C01C114D104E104F104F1F00E94AC01A6
:10094000DC01CB0188199909AA09BB09883E9340AB
:10095000A105B10570F321E0C21AD108E108F10840
:1009600088EE880E83E0981EA11CB11CC114D1042E
:10097000E104F10419F7DDCFFF90EF90DF90CF9005
:10098000BF90AF909F908F9008951F920F920FB6D7
:100990000F9211242F933F938F939F93AF93BF9305
:1009A0008091620190916301A0916401B091650111
:1009B0003091610123E0230F2D3720F40196A11D12
:1009C000B11D05C026E8230F0296A11DB11D20937D
:1009D00061018093620190936301A0936401B093DD
:1009E00065018091660190916701A0916801B091C5
:1009F00069010196A11DB11D809366019093670165
:100A0000A0936801B0936901BF91AF919F918F91BD
:100A10003F912F910F900FBE0F901F9018958091CE
:100A2000590181116BC081E080934C0180934D018D
:100A300022E531E030934F0120934E011092510195
:100A4000109250012DE131E030934901209348018B
:100A500010925401109253011092560110925501B8
:100A6000809357018093580181EC809352010E943A
:100A7000E203FC01218180914C0190E0820F911DE5
:100A8000089724F081E08093590138C0A281B38196
:100A9000109729F488E491E0938382830EC018961E
:100AA0008D919C911997009711F0DC01F8CF88E4A3
:100AB00091E019969C938E931897808180934A01B8
:100AC000818180934B01908180914D01890F8083BA
:100AD00080E090914C018917A8F6A0914E01B09149
:100AE0004F01A80FB11D9C91A181B0E0A85FBE4F3E
:100AF0009C9391819F5F91838F5FEBCF88E491E01E
:100B00000895CF92DF92EF92FF920F931F93CF93AE
:100B1000DF93D901E801421753071CF0FA0169017C
:100B200002C06A01F901882309F43FC09C2D8D2D74
:100B3000C616D70614F4962F872F292F382FE217C1
:100B4000F3070CF49F01A417B50734F4CF01821BFF
:100B5000930B9C012C0D3D1D0D2C000CEE08FF0885
:100B6000C901330FAA0BBB0B9C01AD012C193D0928
:100B70004E095F09AEEFBFEF0E94841A8F01FF0F8D
:100B8000220B330BA90198012C193D094E095F096D
:100B90000E94651ADA01C9018F5F9F47A109B10957
:100BA0008883998382E090E002C080E090E0DF914A
:100BB000CF911F910F91FF90EF90DF90CF9008950C
:100BC000CF92DF92EF92FF920F931F93CF93DF9319
:100BD000D901E801421753071CF0FA01690102C06C
:100BE0006A01F901882309F43FC09C2D8D2DC6169A
:100BF000D70614F4962F872F292F382FE217F307E3
:100C00000CF49F01A417B50734F4CF01821B930B9A
:100C10009C012C0D3D1D0D2C000CEE08FF08C90198
:100C2000330FAA0BBB0B9C01AD012C193D094E09DA
:100C30005F09AEEFBFEF0E94841A8F01FF0F220BF6
:100C4000330BA90198012C193D094E095F090E9437
:100C5000651ADA01C9018F5F9F47A109B10988832D
:100C6000998382E090E002C080E090E0DF91CF9134
:100C70001F910F91FF90EF90DF90CF900895CF924A
:100C8000DF92EF92FF920F931F93CF93DF936C014C
:100C90007A018B01C0E0D0E0CE15DF0589F0D801E4
:100CA0006D918D01D601ED91FC910190F081E02DC7
:100CB000C6010995892B11F47E0102C02196ECCF63
:100CC000C701DF91CF911F910F91FF90EF90DF90BF
:100CD000CF900895CF93DF93EC0180910701882393
:100CE00031F083E00E943F0D1816190634F081E0C0
:100CF00090E09B838A8380E090E0DF91CF9108951C
:100D00000F931F93CF938C01C62F60E08091310227
:100D10000E941F040230110531F10330110509F45E
:100D200040C00130110509F05EC06C2F61708091E8
:100D300029020E941F04C1FB662760F980912B02E3
:100D40000E941F04C2FB662760F980912D020E9459
:100D50001F04C3FB662760F980912F020E941F04C5
:100D6000809139023BC06C2F6170809129020E94F2
:100D70001F04C1FB662760F980912B020E941F04AB
:100D8000C2FB662760F980912D020E941F04C3FBFD
:100D9000662760F980912F020E941F0480913B0218
:100DA0001DC06C2F6170809129020E941F04C1FB3D
:100DB000662760F980912B020E941F04C2FB662700
:100DC00060F980912D020E941F04C3FB662760F921
:100DD00080912F020E941F0480913D02CF911F91AC
:100DE0000F910C94F60380E090E0CF911F910F914A
:100DF0000895AF92BF92CF92DF92EF92FF920F933E
:100E00001F93CF93DF931F92CDB7DEB7ADB6BEB6BB
:100E1000809128022DB73EB7281B31090FB6F894F0
:100E20003EBF0FBE2DBF8DB79EB701966C01E090FF
:100E3000F701F12C8091F3019091F401D601FC01AE
:100E40009F01281B390B2E153F051CF421912D9372
:100E5000F7CF8091F801882371F18091EF01909193
:100E6000F00197FD0AC068E671E00E94F91E6DE28C
:100E700070E00E94F91E262F01C028E08091F10148
:100E80009091F20197FD0AC068E671E00E94F91E98
:100E90006DE270E00E94F91E962F01C098E0F60105
:100EA000EE0DFF1D30E1939FC0011124822B808342
:100EB000C70101967C0186010E0D1F1D2091FD01C9
:100EC0003091FE014091FB015091FC016091D901EC
:100ED0007091DA018091F90181700E94E005E80EBD
:100EE000F91E86010E0D1F1D209101023091020294
:100EF0004091FF01509100026091DB017091DC0193
:100F00008091F901869581700E94E005E80EF91E36
:100F100086010E0D1F1D20910502309106024091A1
:100F20000302509104026091DD017091DE01809115
:100F3000F90182FB882780F90E94E005E80EF91E7E
:100F400086010E0D1F1D2091090230910A02409169
:100F50000702509108026091DF017091E0018091D9
:100F6000F90183FB882780F90E94E005E80EF91E4D
:100F700086010E0D1F1D20910D0230910E02409131
:100F80000B0250910C026091E1017091E20180919D
:100F9000F901829581700E94E005E80EF91E860134
:100FA0000E0D1F1D209111023091120240910F026F
:100FB000509110026091E3017091E4018091F90178
:100FC00085FB882780F90E94E005E80EF91E86015E
:100FD0000E0D1F1D20911502309116024091130233
:100FE000509114026091E7017091E8018091FA013B
:100FF00081700E948105E80EF91E86010E0D1F1DED
:101000002091190230911A02409117025091180252
:101010006091E5017091E6018091FA0186958170F9
:101020000E948105E80EF91E86010E0D1F1D2091FC
:101030001D0230911E0240911B0250911C026091D2
:10104000E9017091EA018091FA0182FB882780F919
:101050000E948105E80EF91E86010E0D1F1D2091CC
:1010600021023091220240911F0250912002609192
:10107000EB017091EC018091FA0183FB882780F9E4
:101080000E9481058E0D9F1D8601080F191F20915A
:101090002502309126024091230250912402609152
:1010A000ED017091EE018091FA01829581700E94AC
:1010B000810510912802009127020E940F057C01F2
:1010C000098341E050E0BE016F5F7F4FFC018381E7
:1010D0000E943F0D97FD08C0412F50E0F70183812A
:1010E000B60180640E943F0D0FB6F894BEBE0FBEDD
:1010F000ADBE0F90DF91CF911F910F91FF90EF90B8
:10110000DF90CF90BF90AF9008959091F60189172E
:1011100000F5982F969596959695E091F301F091AC
:10112000F401E90FF11D282F277081E090E0A0E085
:10113000B0E004C0880F991FAA1FBB1F2A95D2F7E1
:1011400080959081892380838091F50181110C9491
:10115000F90608959091F6018917F8F4982F96955D
:1011600096959695E091F301F091F401E90FF11D48
:10117000282F277081E090E0A0E0B0E004C0880F45
:10118000991FAA1FBB1F2A95D2F72081822B80832B
:101190008091F50181110C94F9060895611102C046
:1011A0000C9485080C94AA081F93CF93DF93182FF3
:1011B00060E0809131020E941F04612F6170809174
:1011C00029020E941F0411FB662760F980912B02FF
:1011D0000E941F0412FB662760F980912D020E9475
:1011E0001F0413FB662760F980912F020E941F04E1
:1011F000E0913D02E23108F0E251F0E0EF5FFD4F97
:10120000E49180917B00E3FB992790F9C92F90E04E
:10121000D92F95E0CC0FDD1F9A95E1F78F7DC82B74
:10122000C0937B00E770E064E0937C0080917A00DB
:10123000806480937A0080917A0086FDFCCF809153
:1012400078002091790090E0922BDF91CF911F914F
:101250000895FC018091B401811103C08FEF9FEFCD
:1012600008959FB7F89482E08093E9002091F200FE
:1012700030E01216130614F421E030E02115310598
:1012800059F0289884E68093B3018091F10080831F
:101290008091F200882319F09FBFC90108958BE661
:1012A0008093E800F9CFCF93DF931F92CDB7DEB7DD
:1012B0006983DC01ED91FC910280F381E02D41E036
:1012C00050E0BE016F5F7F4F09950F90DF91CF9186
:1012D000089583E08093E9008091F200882319F05B
:1012E0008AE38093E8000895FC018485958597FD45
:1012F0000BC09FB7F89482E08093E9008091F200E0
:101300009FBF90E0019608959FB7F89482E0809384
:10131000E9008091F2009FBF90E00895089580E079
:1013200090E008954091A0025091A10220919E0268
:1013300030919F0242175307B4F49091E8009570E2
:10134000E1F39091E80092FD19C08093F100809143
:10135000A0029091A10201968F739927892B19F40D
:101360008EEF8093E8008091A0029091A1020196F7
:101370009093A1028093A00281E0089580E00895F7
:10138000CF92DF92EF92FF920F931F93CF93DF9351
:101390001F92CDB7DEB7182F062FE42E862F880FA9
:1013A0008E5F99830E94920983E00E949209F12E38
:1013B000C12E9981D92E8C2D8F19801798F4F601A2
:1013C000E7FE02C0849101C080810E949209182F1B
:1013D00080E00E9492098123FFEFCF1ADF0A81117A
:1013E000EACF01C081E00F90DF91CF911F910F9163
:1013F000FF90EF90DF90CF90089583E00E94C403A8
:1014000090E00895CF93DF931F92CDB7DEB7FC0134
:101410008485958597FD05C02FEF3FEF358724879D
:101420000BC0CE0101960E942909019719F4898108
:1014300090E002C08FEF9FEF0F90DF91CF91089562
:101440000F931F93CF93DF931F92CDB7DEB78C011D
:10145000FC018485958597FF0EC0CE0101960E9400
:101460002909019719F4298130E002C02FEF3FEFDD
:10147000F80135872487F801848595850F90DF91E1
:10148000CF911F910F9108951F920F920FB60F9257
:1014900011248F939F938091E1009091E100937FBD
:1014A0009093E10083FF0FC01092E90091E09093C8
:1014B000EB001092EC0092E39093ED001092B401D7
:1014C00098E09093F00082FF20C093E09093E900B1
:1014D0009091F200992319F09AE39093E80090918B
:1014E000A202992339F09091A20291509093A20206
:1014F000992389F19091B301992339F09091B30127
:1015000091509093B301992341F184FF10C08091D1
:10151000E2008E7E81608093E2008091E1008F7E08
:101520008093E10080919D028E7E806111C080FFDA
:1015300016C08091E2008E7E80618093E2008091EF
:10154000E1008E7E8093E10080919D028E7E81601D
:1015500080939D0204C05D9ACDCF289AD6CF9F91EB
:101560008F910F900FBE0F901F901895DF92EF9202
:10157000FF920F931F93CF93DF93D82E8A017B01A5
:10158000E40EF51EEB01CE15DF0571F0D7FE03C0AA
:10159000FE01849101C088810E94920921968111E7
:1015A000F2CF8FEF9FEF01C0C801DF91CF911F9164
:1015B0000F91FF90EF90DF9008950F931F93CF93BB
:1015C000DF931F92CDB7DEB782E0898342E450E01B
:1015D0006DE072E080E80E94B60A0E94E203DC013E
:1015E00012960D911C9113970115110569F0D80100
:1015F000ED91FC910280F381E02DBE016F5F7F4F82
:10160000C801099597FF07C089810F90DF91CF919D
:101610001F910F910895F80100851185E5CF1F9264
:101620000F920FB60F921124CF92DF92EF92FF929A
:101630000F931F932F933F934F935F936F937F93DA
:101640008F939F93AF93BF93EF93FF93CF93DF93CA
:10165000CDB7DEB76C97DEBFCDBF1092E9008091A9
:10166000E80083FFEDC168E0CE0145960E94D503F6
:1016700082EF8093E8008D8987FF05C09091E80094
:1016800090FFFCCF03C09EEF9093E800982F9076D8
:1016900009F0C6C09E892F89188D91110CC0803821
:1016A00029F480919C028093F10002C01092F10015
:1016B0001092F10048C1422F50E0512B913051F46B
:1016C000811141C14130510509F03DC180919C0219
:1016D0008D7F0BC0933061F4811135C141305105CC
:1016E00009F031C180919C02826080939C022BC1E1
:1016F000953041F48091E80080FFFCCF2068209372
:10170000E30021C1963009F05FC0EB8CFC8C109295
:10171000E9001092A1021092A002123091F51092ED
:101720009F0210929E020E94DD0A99E0BE016F5F47
:101730007F4FDB01E92F1D92EA95E9F799831A8320
:1017400091E09E8390EA98879AEF99872091A00272
:101750003091A102275F3F4F3C832B838D831092F2
:10176000E9001092A1021092A002F0929F02E09272
:101770009E0249E050E080E00E94B60A0E94DD0A25
:10178000E2C0F0929F02E0929E020E94E203DC011E
:101790001296ED90FC901397E114F10409F4C0C087
:1017A000D701ED91FC910480F581E02DBE016B5EC7
:1017B0007F4FC7010995009719F00CF0C4C0C7C04E
:1017C000F701E084F184E8CF973009F4C0C0983085
:1017D00021F481E08093F100B6C0993009F0B3C0E4
:1017E000837009F0B4C0E9E0F1E081E021E036E384
:1017F0009081992361F08093E9002093EB0091910F
:101800009093EC003093ED008F5F873089F78EE77F
:101810008093EA001092EA008F898093B40193C00C
:101820008B8D9C8D1092E9001092A1021092A00263
:1018300090939F0280939E02898D811156C08E895C
:101840009D89913A59F4813209F081C047E050E016
:1018500060E071E080E00E94B60A75C0913209F044
:1018600076C0833289F4888D90E0982F88272F895D
:10187000822BA0E0B0E080930F0190931001A09321
:101880001101B09312015FC0803269F48091E800C9
:1018900082FFFCCF67E080E091E00E94D5038BEFF0
:1018A0008093E80006C0823209F04DC08F89809392
:1018B000070180919B02882319F0EEEFFAE002C045
:1018C000E0E0F8E08091000190910101A091020117
:1018D000B0910301803B9440A105B10509F07BC0A4
:1018E0008091070180FF93C076C00E94E203DC0173
:1018F00012960D911C9113970115110541F1D80114
:10190000ED91FC910190F081E02DBE016B5E7F4F67
:10191000C8010995811117C0F80100851185ECCF28
:10192000113009F44EC0133091F48F89882309F4E3
:1019300045C0823081F440E866E181E792E00E9490
:10194000C009882321F08EEF8093E80079C081E2FE
:101950008093EB0075C0813029F440E86BE085E6A8
:1019600092E0EDCF833099F70E94E203DC011296FA
:10197000ED90FC9013978E010F5F1F4F6801E114EB
:10198000F10479F0D701ED91FC910680F781E02D0B
:10199000B801C7010995080F111DF701E084F18412
:1019A000EECFD8011C92F60101900020E9F73197A3
:1019B000BF016C197D0940E0C601C1CF6FE472E040
:1019C00002C063E572E06115710509F2FB01449103
:1019D00050E080E840CF0FB6F894A8958091600061
:1019E000886180936000109260000FBEA895EE3F62
:1019F0002AE0F20739F08091FE0A9091FF0A918364
:101A00008083A1CF1092FF0A1092FE0A9CCFEE3F76
:101A10008AE0F80731F0808191819093FF0A8093EA
:101A2000FE0A87E797E7918380839BE088E10FB602
:101A3000F894A895809360000FBE9093600083CFC8
:101A40006C960FB6F894DEBF0FBECDBFDF91CF917D
:101A5000FF91EF91BF91AF919F918F917F916F9186
:101A60005F914F913F912F911F910F91FF90EF90B8
:101A7000DF90CF900F900FBE0F901F9018957F9220
:101A80008F929F92AF92BF92CF92DF92EF92FF928E
:101A90000F931F93CF93DF93C82E8B017A01809110
:101AA000B401811103C08FEF9FEF75C080919D023B
:101AB00080FF05C08091E00082608093E000CE2D21
:101AC000DF2DD12C8AEF882E8C2D8770B82E8C2D8F
:101AD0008072A82E8C2D8074982E9AE3792E2097F0
:101AE00009F452C08C2D0E94C403282F81110AC012
:101AF0008A948820C1F261E070E080E090E00E946A
:101B00008B04EDCF90E0C817D9070CF42C2F3FB70A
:101B1000F894B092E9008091E80085FF33C0822FED
:101B200090E0C81BD90BAA2029F02150A8F01092F0
:101B3000F100FBCFF801C7FE07C0215058F04491D7
:101B40004093F1003196F9CF215020F0419140931C
:101B5000F100FACF080F191FDD2019F07092E8008C
:101B60000AC08091E80085FD08C07092E800DD247D
:101B7000D394209739F0D12C05C0209719F49110F7
:101B80007092E8003FBFABCFD110ACCF5D9884E638
:101B90008093A202C701DF91CF911F910F91FF9017
:101BA000EF90DF90CF90BF90AF909F908F907F90FD
:101BB0000895CF93DF93CDB7DEB7E5970FB6F894CE
:101BC000DEBF0FBECDBF789484B5826084BD84B57E
:101BD000816084BD85B5826085BD85B5816085BD28
:101BE00080916E00816080936E00109281008091E0
:101BF0008100826080938100809181008160809368
:101C000081008091800081608093800080919100AC
:101C10008260809391008091910081608093910017
:101C2000809190008160809390008091C1008460D9
:101C30008093C1008091C10082608093C100809137
:101C4000C10081608093C1008091C3008160809356
:101C5000C3008091C00082608093C0008091C20068
:101C600081608093C20080917A00846080937A00C2
:101C700080917A00826080937A0080917A008160FE
:101C800080937A0080917A00806880937A00109225
:101C9000B40110929C0210929D028091D700816045
:101CA0008093D70080EA8093D80089B5806189BD90
:101CB00089B5826089BD09B400FEFDCF61E070E0A6
:101CC00080E090E00E948B048091D8008F7C80613E
:101CD0008093D8008091E000807F8093E000809125
:101CE000E1008E7E8093E1008DE08093E200559AC2
:101CF000209AEEEFFFE7859194918B3F9C4D19F46C
:101D000081E080939B0262E0809139020E944F043F
:101D100060E0809133020E941F0410926C0162E027
:101D200080913B020E944F0460E0809135020E9446
:101D30001F0410926B0162E080913D020E944F04EB
:101D400060E0809137020E941F0410926A0181E0D6
:101D50008093F5010E94F90620E030EC3093FC01FD
:101D60002093FB0180E090E49093FE018093FD01BD
:101D7000309300022093FF019093020280930102AE
:101D8000309304022093030290930602809305028D
:101D9000309318022093170290931A02809319022D
:101DA00063E070E081E090E00E94800661E0892BB2
:101DB00009F060E080E00E94CE0867E070E081E01A
:101DC00090E00E94800661E0892B09F060E081E0EC
:101DD0000E94CE086AE070E081E090E00E948006F8
:101DE00061E0892B09F060E082E00E94CE086BE0A0
:101DF00070E081E090E00E94800661E0892B09F0AC
:101E000060E083E00E94CE086DE070E081E090E049
:101E10000E94800661E0892B09F060E084E00E9466
:101E2000CE0862E070E081E090E00E94800661E010
:101E3000892B09F060E085E00E94CE0866E070E042
:101E400081E090E00E94800661E0892B09F060E06B
:101E500086E00E94CE0869E070E081E090E00E9498
:101E6000800661E0892B09F060E087E00E94CE08DF
:101E70006CE070E081E090E00E94800661E0892BD8
:101E800009F060E088E00E94CE086EE070E081E03A
:101E900090E00E94800661E0892B09F060E089E013
:101EA0000E94CE0861E070E081E090E00E94800630
:101EB00061E0892B09F060E08AE00E94CE0860E0D2
:101EC00070E081E090E00E94800661E0892B09F0DB
:101ED00060E08BE00E94CE0865E070E081E090E079
:101EE0000E94800661E0892B09F060E08CE00E948E
:101EF000CE0864E070E081E090E00E94800661E03E
:101F0000892B09F060E08DE00E94CE0866E070E069
:101F100082E090E00E94800661E0892B09F060E099
:101F20008EE00E94CE0868E070E081E090E00E94C0
:101F3000800661E0892B09F060E08FE00E94CE0806
:101F40006FE070E081E090E00E94800661E0892B04
:101F500009F060E080E10E94CE0860E070E082E07D
:101F600090E00E94800661E0892B09F060E081E149
:101F70000E94CE0862E070E082E090E00E9480065D
:101F800061E0892B09F060E082E10E94CE0861E007
:101F900070E082E090E00E94800661E0892B09F009
:101FA00060E083E10E94CE086CE070E082E090E0A7
:101FB0000E94800661E0892B09F060E084E10E94C4
:101FC000CE0863E070E082E090E00E94800661E06D
:101FD000892B09F060E085E10E94CE0864E070E0A2
:101FE00082E090E00E94800661E0892B09F060E0C9
:101FF00086E10E94CE0865E070E082E090E00E94F9
:10200000800661E0892B09F060E087E10E94CE083C
:102010006AE070E082E090E00E94800661E0892B37
:1020200009F060E088E10E94CE086BE070E082E099
:1020300090E00E94800661E0892B09F060E089E170
:102040000E94CE0867E070E082E090E00E94800687
:1020500061E0892B09F060E08AE10E94CE0869E026
:1020600070E082E090E00E948006182F68E070E047
:1020700082E090E00E948006880F991FE82FE12BF4
:10208000E37090916D01990F990FE92BE0936D0129
:10209000EF70F0E0EB5DFE4F10818BE111161CF448
:1020A0000E94AA0808C00E948508112321F08CE133
:1020B0000E94AA0803C08CE10E94850880E090E09D
:1020C0000E94D4089BA38AA3BC01990F880B990B8B
:1020D0000E944E1C2B013C01CB01D3018093A30134
:1020E0009093A401A093A501B093A60181E090E094
:1020F0000E94D4089DA38CA3BC01990F880B990B57
:102100000E944E1C4B015C01CB01D50180939F01C5
:102110009093A001A093A101B093A20183E090E06D
:102120000E94D4089FA38EA3BC01990F880B990B22
:102130000E944E1C6B017C01CB01D70180939B0157
:1021400090939C01A0939D01B0939E0187E090E045
:102150000E94D408BC01990F880B990B0E944E1C59
:1021600068A779A78AA79BA76093970170939801A6
:102170008093990190939A010E94D101009193015B
:10218000109194012091950130919601DC01CB01D1
:10219000801B910BA20BB30B883E9340A105B105A8
:1021A00008F0B3C02DEC3CEC4CE45FE36091D5014A
:1021B0007091D6018091D7019091D8010E94321D73
:1021C00069837A838B839C832DEC3CEC4CE45EE347
:1021D000B201C3010E94321D9B01AC0169817A8169
:1021E0008B819C810E94C11A2B013C016093D50117
:1021F0007093D6018093D7019093D8012DEC3CECDD
:102200004CE45FE36091C9017091CA018091CB01F8
:102210009091CC010E94321D69837A838B839C83C9
:102220002DEC3CEC4CE45EE3B401C5010E94321D90
:102230009B01AC0169817A818B819C810E94C11ACA
:102240004B015C016093C9017093CA018093CB017B
:102250009093CC012DEC3CEC4CE45FE36091BD012C
:102260007091BE018091BF019091C0010E94321D0A
:1022700069837A838B839C832DEC3CEC4CE45EE396
:10228000B601C7010E94321D9B01AC0169817A81B0
:102290008B819C810E94C11A6093BD017093BE0125
:1022A0008093BF019093C0014092CD015092CE0126
:1022B0006092CF017092D0014092D1015092D20130
:1022C0006092D3017092D4018092C5019092C601B0
:1022D000A092C701B092C8018092C1019092C20140
:1022E000A092C301B092C4016093B9017093BA0186
:1022F0008093BB019093BC016093B5017093B601CC
:102300008093B7019093B80172C58091CD018D8300
:102310009091CE019987A091CF01AD87B091D00166
:10232000B98B9201A301BC01CD010E94251D181695
:1023300024F04D8259866D86798A8D819985AD8587
:10234000B9898093CD019093CE01A093CF01B09332
:10235000D001E091D101EA8BF091D201FB8B209169
:10236000D3012C8B3091D4013D8B9201A301BF018D
:102370008C899D890E949F1B87FD04C04A8A5B8AC5
:102380006C8A7D8A8A899B89AC89BD898093D101B9
:102390009093D201A093D301B093D4018091C10155
:1023A0008E8B9091C2019F8BA091C301A88FB09199
:1023B000C401B98F9401A501BC01CD010E94251D66
:1023C000181624F08E8A9F8AA88EB98E8E899F89CE
:1023D000A88DB98D8093C1019093C201A093C301D0
:1023E000B093C4013090C5012090C601E091C701AF
:1023F000ECABF091C801FDAB9401A501632D722DEA
:10240000CF010E949F1B87FD04C0382C292CACAA49
:10241000BDAA832D922DACA9BDA98093C50190932F
:10242000C601A093C701B093C8012091B9012A8FBA
:102430003091BA013B8F8091BB018C8F9091BC0190
:102440009D8F9601A7016A8D7B8D0E949F1B87FD42
:1024500004C0CA8EDB8EEC8EFD8E8A8D9B8DAC8D7A
:10246000BD8D8093B9019093BA01A093BB01B09345
:10247000BC01A091B501AE8FB091B601BF8FE091C4
:10248000B701E8A3F091B801F9A39601A701BD0136
:10249000CF010E94251D181624F0CE8EDF8EE8A2F3
:1024A000F9A28E8D9F8DA8A1B9A18093B5019093BB
:1024B000B601A093B701B093B8018091D501909176
:1024C000D601A091D701B091D8018CA79DA7AEA746
:1024D000BFA71F921F921F921F928D809984AD8477
:1024E000B988CCA4DDA4EEA4FFA40A891B892C8999
:1024F0003D8940E050E060E87FE38AA19BA10E9413
:1025000027020F900F900F900F902B013C016093CA
:102510008F0170939001809391019093920180912B
:10252000C9019091CA01A091CB01B091CC0188ABB7
:1025300099ABAAABBBAB1F921F921F921F928E88C2
:102540009F88A88CB98CC8A8D9A8EAA8FBA8032D95
:10255000122D2CA93DA940E050E060E87FE38CA15A
:102560009DA10E9427020F900F900F900F906983FA
:102570007A838B839C8360938B0170938C0180930F
:102580008D0190938E011F921F921F921F928D803A
:102590009984AD84B988CCA4DDA4EEA4FFA40A89F3
:1025A0001B892C893D8940E050E060EC70E48AA1F1
:1025B0009BA10E9427020F900F900F900F906D83A8
:1025C0007E838F83988760938701709388018093BF
:1025D000890190938A011F921F921F921F928E88E9
:1025E0009F88A88CB98CC8A8D9A8EAA8FBA8032DF5
:1025F000122D2CA93DA940E050E060EC70E48CA1C4
:102600009DA10E9427020F900F900F900F904B01F9
:102610005C016093830170938401809385019093A2
:10262000860120E030E0A901C301B2010E94251D0E
:1026300018165CF420E030E040E85FE3C301B2012B
:102640000E949F1B87FF1BC00AC020E030E040E8CB
:102650005FEBC301B2010E94251D181684F420E02F
:1026600030E0A901C301B2010E94251D730162017E
:1026700018165CF0F7FAF094F7F8F09406C0C12C45
:10268000D12C30E8E32E3FE3F32EA701960160E062
:1026900070E080E89FE30E94C01A2D813E814F8147
:1026A00058850E94321D6D837E838F839887A30196
:1026B0009201C701B6010E94321D9B01AC016D81E0
:1026C0007E818F8198850E94C11A6D837E838F835E
:1026D000988720E030E0A90169817A818B819C8113
:1026E0000E94251D18168CF420E030E040E85FE3DE
:1026F00069817A818B819C810E949F1B87FF92C395
:10270000C980DA80EB80FC801BC020E030E040E82C
:102710005FEB69817A818B819C810E94251D18164F
:102720004CF4C980DA80EB80FC80F7FAF094F7F87B
:10273000F09406C0C12CD12C20E8E22E2FE3F22E1B
:10274000A701960160E070E080E89FE30E94C01A54
:10275000A50194010E94321D4B015C0129813A813F
:102760004B815C81C701B6010E94321D9B01AC0107
:10277000C501B4010E94C11A4B015C0120E030E0A8
:1027800040E05FE3C301B2010E94321D6B017C0196
:1027900020E030E0A90169817A818B819C810E94CF
:1027A000251D29813A814B815C8118160CF0505807
:1027B000C701B6010E94321D9B01AC016D817E8173
:1027C0008F8198850E94C11A6D837E838F8398873D
:1027D0006093A3017093A4018093A5019093A60137
:1027E00020E030E040E05FE369817A818B819C8169
:1027F0000E94321D6B017C0120E030E0A901C30181
:10280000B2010E94251D181624F077FA709477F80B
:102810007094A3019201C701B6010E94321D9B0171
:10282000AC01C501B4010E94C11A69837A838B830C
:102830009C8360939F017093A0018093A10190936A
:10284000A201C090BD01D090BE01E090BF01F09008
:10285000C0019DE39F93ACE4AF93BCECBF93EDEC60
:10286000EF938E8C9F8CA8A0B9A00A8D1B8D2C8D08
:102870003D8D40E050E060E870E48EA19FA10E9491
:1028800027020F900F900F900F9069877A878B87A0
:102890009C8760939B0170939C0180939D01909312
:1028A0009E0120E030E04AE853E468A579A58AA5B6
:1028B0009BA50E94C01A9B01AC010E94C11A20E096
:1028C00030EC43E054E40E94A41B20E030E040E8F8
:1028D0005FE30E94C01A6B017C0120E030E0A90197
:1028E0000E94251D181624F0C701B601905802C099
:1028F000C701B60120E030E040EC5FE30E949F1D7D
:102900004B015C0120E030E0A901C701B6010E9443
:10291000251D18166CF020E030E0A901C701B601B2
:102920000E949F1B87FD09C020E030E0A90109C07B
:1029300020E030E040E85FE304C020E030E040E821
:102940005FEBC501B4010E94321D6B017C0120E0E8
:1029500030E040E85FEB0E949F1B87FD14C020E041
:1029600030E040E85FE3C701B6010E94251D18165C
:102970000CF120E030E0A901C701B6010E94251D3D
:1029800018165CF006C0C12CD12C90E8E92E9FEB04
:10299000F92EC701B601905802C0C701B60120E068
:1029A00030E0A9010E949F1B87FF0AC0C12CD12CD7
:1029B000760106C0C12CD12C80E8E82E8FE3F82EDA
:1029C000C0929701D0929801E0929901F0929A01F9
:1029D00020E030E040E05FE360917F017091800192
:1029E00080918101909182010E94321D4B015C0116
:1029F00020E030E040E05FE36D817E818F8198854B
:102A00000E94321D9B01AC01C501B4010E94C11A94
:102A10006D877E878F87988B60937F01709380018D
:102A2000809381019093820120E030E040E05FE3F9
:102A300060917B0170917C0180917D0190917E017C
:102A40000E94321D4B015C0120E030E040E05FE37A
:102A500069817A818B819C810E94321D9B01AC012E
:102A6000C501B4010E94C11A2B013C0160937B0196
:102A700070937C0180937D0190937E0120E030E093
:102A800040E05FE360917701709178018091790176
:102A900090917A010E94321D4B015C0120E030E0F0
:102AA00040E05FE369857A858B859C850E94321DB5
:102AB0009B01AC01C501B4010E94C11A4B015C012C
:102AC00060937701709378018093790190937A01F4
:102AD00020E030E040E856E46D857E858F8598895A
:102AE0000E94321D0E94161C7093DA016093D90176
:102AF0008091F50181110E94F90620E030E040E864
:102B000056E4C301B2010E94321D0E94161C70934C
:102B1000DC016093DB018091F50181110E94F906CF
:102B200020E030E040E856E4C501B4010E94321DC7
:102B30000E94161C7093DE016093DD018091F50107
:102B400081110E94F90620E030E040E856E4C70118
:102B5000B6010E94321D0E94161C7093E60160931C
:102B6000E5018091F50181110E94F90620E030E035
:102B7000A901C701B6010E94251D1816BCF4809159
:102B8000760181116DC1F1E0F09376010E94D101CF
:102B9000DC01CB018C599F4FAF4FBF4F8093720127
:102BA00090937301A0937401B093750120E030E01D
:102BB000A901C701B6010E949F1B87FF16C0809123
:102BC0007601882391F0109276010E94D101DC01F8
:102BD000CB018C599F4FAF4FBF4F809372019093A1
:102BE0007301A0937401B0937501C0907201D090ED
:102BF0007301E0907401F09075010E94D10121E011
:102C00006C157D058E059F0508F020E0622F8DE193
:102C10000E94CE0820E030E0A9016D817E818F8185
:102C200098850E94251D1091F80118166CF420E07B
:102C300030E040E05FE36D817E818F8198850E9466
:102C4000251D18168CF10CC020E030E040E05FEB51
:102C50006D817E818F8198850E949F1B87FD24C096
:102C600020E030E0A90169817A818B819C810E94FA
:102C7000251D18166CF420E030E040E05FE3698128
:102C80007A818B819C810E94251D18166CF07EC074
:102C900020E030E040E05FEB69817A818B819C81AC
:102CA0000E949F1B87FF72C02D813E814F815885F6
:102CB00069817A818B819C810E94401B21EE3EE2DA
:102CC00045E652E40E94321D20E030E041EE52E43D
:102CD0000E94C11A6B017C0120E030E044EB53E418
:102CE0000E949F1B87FD09C0C0926E01D0926F01A8
:102CF000E0927001F092710110C020E030E044EBEE
:102D000053E4C701B6010E94C11A60936E0170932B
:102D10006F018093700190937101C0906E01D0900B
:102D20006F01E0907001F090710120E030E044EB21
:102D300053E4C701B6010E94251D181684F420E053
:102D400030E044EB53E4C701B6010E94C01A60931F
:102D50006E0170936F018093700190937101609187
:102D60006E0170916F01809170019091710111233A
:102D7000B1F00E94161C7093F0016093EF018091F6
:102D8000F501882361F00E94F90609C0112339F08A
:102D90002FEF3FEF3093F0012093EF01F0CF6BE086
:102DA00070E081E090E00E948006892B01F56DE0E3
:102DB00070E081E090E00E948006892BC1F46CE015
:102DC00070E081E090E00E948006892B81F46EE043
:102DD00070E081E090E00E948006892B41F467E07A
:102DE00070E082E090E00E948006892B81F061E132
:102DF00070E080E090E00E948B0480E090E0892BFE
:102E000011F40C94D00E0E9400000C94D00E0E947D
:102E1000D1016093930170939401809395019093F5
:102E20009601E5CF20E030E0A901C501B4010E9480
:102E3000321D29813A814B815C810E94C11A4B016C
:102E40005C0120E030E040E05FE3C301B2010E949A
:102E5000321D6B017C0129813A814B815C81A8CCB8
:102E600020E030E0A901C701B6010E949F1B87FF47
:102E7000BCCEA9CEBF92CF92DF92EF92FF920F937A
:102E80001F93CF93DF93CDB7DEB7C659D1090FB6E5
:102E9000F894DEBF0FBECDBF10924E0210924D02CD
:102EA00088EE93E0A0E0B0E080934F029093500250
:102EB000A0935102B093520289E391E090934C02A7
:102EC00080934B028FEF9FEF9093580280935702AD
:102ED00082E090E090932A028093290284E090E0BF
:102EE00090932C0280932B0286E090E090932E0228
:102EF00080932D0287E090E09093300280932F0220
:102F000088E090E090933202809331028AE090E072
:102F100090933402809333028BE090E090933602DA
:102F2000809335028CE090E09093380280933702D2
:102F300082E190E090933A028093390283E190E03D
:102F400090933C0280933B0284E190E090933E0298
:102F500080933D0261E082E00E944F0461E0809135
:102F60002B020E944F0461E080912D020E944F04C9
:102F700061E080912F020E944F0461E08091310254
:102F80000E944F0460E0809131020E941F0461E0C2
:102F9000809133020E944F0461E0809135020E94CB
:102FA0004F0461E0809137020E944F041092F401B7
:102FB0001092F3011092F7011092FC011092FB01A4
:102FC0008FEF93E09093FE018093FD011092000239
:102FD0001092FF019093020280930102109204026A
:102FE0001092030290930602809305021092080249
:102FF0001092070290930A028093090210920C0229
:1030000010920B0290930E0280930D021092100208
:1030100010920F02909312028093110210921402E8
:1030200010921302909316028093150210921802C8
:103030001092170290931A028093190210921C02A8
:1030400010921B0290931E0280931D021092200288
:1030500010921F0290932202809321021092240268
:1030600010922302909326028093250273E07093BE
:10307000270230E23093F60122E02093F801B7E016
:10308000B093F9012093FA0165E0698381E08A83B6
:1030900099E09B83F4E0FC83E1EAED838E8345E8CD
:1030A0004F83788769879A8749E14B878C8749E204
:1030B0004D873E8705E10F87188A15E2198B8A8BA9
:1030C00055E75B8B8C8B45E94D8B3E8B35E53F8B14
:1030D000188EA5E6A98F1A8E31E83B8F2C8F6D8F45
:1030E0008E8F9F8F0F2EF9E3BF2EF02DB8A209A36C
:1030F0001AA21BA3BCA30F2EF5E3CF2EF02DCDA259
:103100001EA20F2EF6E4DF2EF02DDFA20F2EFBE322
:10311000EF2EF02DE8A689A7AAA70F2EF4E1FF2E27
:10312000F02DFBA65CA7FDA74EA78FA738AB29AB58
:103130009AABBBAA0CAB1DAA1EABBFABC8AE19AEF7
:10314000DAAEEBAE8CAFADAFFEAE5FAF2196FFAFA8
:10315000219722964FAF229723968FAF23972496DD
:103160003FAF249725962FAF259726969FAF26979A
:1031700027968FAF2797F6E1FF2E2896FFAE289768
:1031800029968FAF299700E82A960FAF2A9716E263
:103190002B961FAF2B97BFEF2C96BFAF2C97AFE7A7
:1031A0002D96AFAF2D972E965FAF2E97F0E12F960D
:1031B000FFAF2F9760964FAF609761967FAF619793
:1031C0006296EFAF629763961FAE639764969FAF68
:1031D000649770E365967FAF659766969FAF669735
:1031E00071E367967FAF679768969FAF689772E3C2
:1031F00069967FAF69976A963FAF6A976B962FAFD4
:103200006B9770EC6C967FAF6C976D966FAF6D9708
:103210006E962FAF6E976F96FFAE6F97A0968FAF9B
:10322000A097A1960FAFA197A2961FAFA297A396C2
:10323000BFAFA397A496AFAFA497A5965FAFA5978E
:10324000A696FFAFA697A7964FAFA797A8968FAF62
:10325000A897A996EFAFA997AA961FAEAA97AB9683
:103260009FAFAB978BEBAC968FAFAC97AD963FAF64
:10327000AD97AE962FAFAE97AF967FAFAF97E09674
:103280007FAFE0978FE690E00E94271F7C018FE6DA
:10329000FE013196D70101900D928A95E1F787E002
:1032A00090E00E94271F8C01DC0111961C921E9257
:1032B0001396FC92EE9212978FE690E015969C93EF
:1032C0008E93149716961C920E940F05FC01A385FD
:1032D000B485109719F41487038709C08D919C91C8
:1032E0001197009711F0DC01F9CF0D931C93258500
:1032F0003685D80114968D919C911597820F931F56
:10330000968785879091F601892F86958695869573
:10331000977009F08F5F8093F7011091F701812F6B
:1033200090E00E94271F9093F4018093F301185FAF
:1033300081E09091F801911101C080E0810F8093AC
:1033400028021092DA011092D9011092DC01109239
:10335000DB011092DE011092DD011092E00110926B
:10336000DF011092E2011092E1011092E40110924B
:10337000E3011092E6011092E5011092E80110922B
:10338000E7011092EA011092E9011092EC0110920B
:10339000EB011092EE011092ED018FEF9FEF9093F1
:1033A000F0018093EF019093F2018093F10180E0AE
:1033B00090E02091F70130E0821793074CF4E09100
:1033C000F301F091F401E80FF91F10820196F1CF9B
:1033D00080E090ECA3E4B4E48093CD019093CE011F
:1033E000A093CF01B093D00180E090E0A7EDB3E4CB
:1033F0008093D1019093D201A093D301B093D401D3
:1034000080E090EAA7E1B4E48093D5019093D601DF
:10341000A093D701B093D80180E090E8A7E4B4E48A
:103420008093C1019093C201A093C301B093C401E2
:1034300080E090ECA0E0B4E48093C5019093C601D5
:10344000A093C701B093C80180E090E2A4E2B4E485
:103450008093C9019093CA01A093CB01B093CC0192
:1034600080E090E0A0EFB2E48093B5019093B601C4
:10347000A093B701B093B80180E090E0A0E4B3E47A
:103480008093B9019093BA01A093BB01B093BC01A2
:1034900080E090E0ACE1B3E48093BD019093BE0185
:1034A000A093BF01B093C001CA56DF4F0FB6F89486
:1034B000DEBF0FBECDBFDF91CF911F910F91FF9067
:1034C000EF90DF90CF90BF900895052E97FB1EF4EC
:1034D00000940E947C1A57FD07D00E948F1A07FCA7
:1034E00003D04EF40C947C1A50954095309521955C
:1034F0003F4F4F4F5F4F0895909580957095619520
:103500007F4F8F4F9F4F08950E94B11AA59F900D36
:10351000B49F900DA49F800D911D11240895A1E2E8
:103520001A2EAA1BBB1BFD010DC0AA1FBB1FEE1F3D
:10353000FF1FA217B307E407F50720F0A21BB30B88
:10354000E40BF50B661F771F881F991F1A9469F704
:1035500060957095809590959B01AC01BD01CF0160
:103560000895A29FB001B39FC001A39F700D811D5C
:103570001124911DB29F700D811D1124911D08957C
:103580005058BB27AA270E94D81A0C94EB1C0E9403
:10359000DD1C38F00E94E41C20F039F49F3F19F440
:1035A00026F40C94B31C0EF4E095E7FB0C94AD1CD0
:1035B000E92F0E94FC1C58F3BA17620773078407AF
:1035C000950720F079F4A6F50C941E1D0EF4E095F5
:1035D0000B2EBA2FA02D0B01B90190010C01CA01CD
:1035E000A0011124FF27591B99F0593F50F4503E78
:1035F00068F11A16F040A22F232F342F4427585F6A
:10360000F3CF469537952795A795F0405395C9F781
:103610007EF41F16BA0B620B730B840BBAF0915039
:10362000A1F0FF0FBB1F661F771F881FC2F70EC0D8
:10363000BA0F621F731F841F48F4879577956795AB
:10364000B795F7959E3F08F0B0CF9395880F08F097
:103650009927EE0F9795879508950E94DD1C60F0DD
:1036600080E891E009F49EEF0E94E41C28F040E815
:1036700051E071F45EEF0CC00C94B31C0C941E1D51
:10368000E92FE0780E94FC1C40F3092E052AB1F3D3
:10369000261737074807590738F00E2E07F8E02598
:1036A00069F0E025E0640AC0EF6307F8009407FAC8
:1036B000DB01B9019D01DC01CA01AD01EF930E945C
:1036C000BB1B0E94EB1C0E94701B5F91552339F0BD
:1036D0002BED3FE049E450FD49EC0C94C11A0895EC
:1036E000DF93DD27B92FBF7740E85FE31616170693
:1036F00048075B0718F4D92F0E942A1D9F938F93C8
:103700007F936F930E94EF1DEAECF0E00E94B61CDD
:103710000E94EB1C2F913F914F915F910E94451D9C
:10372000DD2351F09058A2EA2AED3FE049EC5FE337
:10373000D0785D270E94D81ADF910C94EB1C0E9470
:10374000891C08F481E008950E94B81B0C94EB1CBE
:103750000E94E41C58F00E94DD1C40F029F45F3FF9
:1037600029F00C94AD1C51110C941F1D0C94B31C2A
:103770000E94FC1C68F39923B1F3552391F3951B28
:10378000550BBB27AA2762177307840738F09F5F82
:103790005F4F220F331F441FAA1FA9F335D00E2EEF
:1037A0003AF0E0E832D091505040E695001CCAF75C
:1037B0002BD0FE2F29D0660F771F881FBB1F26171F
:1037C00037074807AB07B0E809F0BB0B802DBF01F6
:1037D000FF2793585F4F3AF09E3F510578F00C94C5
:1037E000AD1C0C941F1D5F3FE4F3983ED4F3869507
:1037F00077956795B795F7959F5FC9F7880F911DE6
:103800009695879597F90895E1E0660F771F881FD1
:10381000BB1F621773078407BA0720F0621B730B84
:10382000840BBA0BEE1F88F7E09508950E941D1CCB
:103830006894B1110C941F1D08950E94041D88F016
:103840009F5798F0B92F9927B751B0F0E1F0660F64
:10385000771F881F991F1AF0BA95C9F714C0B130A5
:1038600091F00E941E1DB1E008950C941E1D672F5B
:10387000782F8827B85F39F0B93FCCF386957795D4
:103880006795B395D9F73EF49095809570956195BD
:103890007F4F8F4F9F4F0895E89409C097FB3EF4E8
:1038A00090958095709561957F4F8F4F9F4F99238D
:1038B000A9F0F92F96E9BB279395F695879577950B
:1038C0006795B795F111F8CFFAF4BB0F11F460FFCB
:1038D0001BC06F5F7F4F8F4F9F4F16C0882311F023
:1038E00096E911C0772321F09EE8872F762F05C037
:1038F000662371F096E8862F70E060E02AF09A95D2
:10390000660F771F881FDAF7880F9695879597F9C6
:103910000895990F0008550FAA0BE0E8FEEF161660
:103920001706E807F907C0F012161306E407F507B3
:1039300098F0621B730B840B950B39F40A2661F027
:10394000232B242B252B21F408950A2609F4A140CA
:10395000A6958FEF811D811D089597F99F6780E8D7
:1039600070E060E008959FEF80EC0895DF93CF93BF
:103970001F930F93FF92EF92DF927B018C0168946B
:1039800006C0DA2EEF010E94451DFE01E894A591C4
:103990002591359145915591A6F3EF010E94D81AD2
:1039A000FE019701A801DA9469F7DF90EF90FF908C
:1039B0000F911F91CF91DF91089500240A9416165C
:1039C000170618060906089500240A94121613060D
:1039D000140605060895092E0394000C11F488239B
:1039E00052F0BB0F40F4BF2B11F460FF04C06F5FB7
:1039F0007F4F8F4F9F4F089557FD9058440F551F8D
:103A000059F05F3F71F04795880F97FB991F61F060
:103A10009F3F79F087950895121613061406551FD7
:103A2000F2CF4695F1DF08C0161617061806991F43
:103A3000F1CF86957105610508940895E894BB2738
:103A400066277727CB0197F908950E94891C08F40F
:103A50008FEF08959B01AC0160E070E080E89FE388
:103A60000C94A41B0E94451D0C94EB1C0E94DD1CB1
:103A700038F00E94E41C20F0952311F00C94AD1C4A
:103A80000C94B31C11240C941F1D0E94FC1C70F399
:103A9000959FC1F3950F50E0551F629FF001729FF3
:103AA000BB27F00DB11D639FAA27F00DB11DAA1F02
:103AB000649F6627B00DA11D661F829F2227B00D4F
:103AC000A11D621F739FB00DA11D621F839FA00DDA
:103AD000611D221F749F3327A00D611D231F849F2A
:103AE000600D211D822F762F6A2F11249F57504081
:103AF0009AF0F1F088234AF0EE0FFF1FBB1F661FFC
:103B0000771F881F91505040A9F79E3F510580F0C4
:103B10000C94AD1C0C941F1D5F3FE4F3983ED4F34E
:103B2000869577956795B795F795E7959F5FC1F768
:103B3000FE2B880F911D9695879597F90895FA01A8
:103B4000EE0FFF1F309621053105A1F161157105BA
:103B500061F48038BFE39B0749F168949038810590
:103B600061F08038BFEF9B0741F099234AF5FF3F92
:103B7000E1053105210519F1E8940894E795D9018B
:103B8000AA2329F4AB2FBE2FF85FD0F310C0FF5F3C
:103B900070F4A695E0F7F73950F019F0FF3A38F4D1
:103BA0009F779F930DD00F9007FC9058089546F093
:103BB0000C94B31C60E070E080E89FE308954FE749
:103BC0009F775F934F933F932F930E946F1E2F9188
:103BD0003F914F915F910E94321D0C94FB1D9B0100
:103BE000AC010C94321D29F416F00C94AD1C0C940D
:103BF0001E1D0C94B31C0E94041DA8F39638A0F758
:103C000007F80F92E8942BE33AEA48EB5FE70E944B
:103C1000481D0F920F920F924DB75EB70F920E9400
:103C2000B71EE7EFF0E00E94B61C4F915F91EF9155
:103C3000FF91E595EE1FFF1F49F0FE57E06844270E
:103C4000EE0F441FFA95E1F74195550B0E94311E86
:103C50000F9007FE0C942A1D08950C94AD1C0C9433
:103C6000EB1E0E94041DD8F39923C9F3940F511D34
:103C7000A3F39150504094F059F0882332F0660F2E
:103C8000771F881F91505040C1F79E3F51052CF778
:103C9000880F911D9695879597F908955F3FACF031
:103CA000983E9CF0BB27869577956795B79508F465
:103CB000B1609395C1F7BB0F58F711F460FFE8CFDF
:103CC0006F5F7F4F8F4F9F4FE3CF0C941F1D16F0F8
:103CD0000C94EB1E0C94B31C68940C94AD1C0E94C5
:103CE000041DA8F39923C1F3AEF3DF93CF931F9381
:103CF0000F93FF92C92FDD2788232AF02197660FA3
:103D0000771F881FDAF720E030E040E85FEB9FE3A1
:103D1000883920F0803E38F021968F770E94C11AB2
:103D2000EFE1F1E004C00E94C11AECE4F1E00E946E
:103D3000B61C8B01BE01EC01FB2E6F577109759506
:103D4000771F880B990B0E944E1C28E132E741E354
:103D50005FE30E94451DAF2D9801AE01FF900F91CA
:103D60001F91CF91DF910E94D81A0C94EB1CFA019D
:103D7000DC01AA0FBB1F9B01AC01BF5728F422270F
:103D800033274427507820C0B75190F4AB2F00243C
:103D9000469537952795011CA395D2F3002071F025
:103DA000220F331F441FB395DAF30ED00C94C01AC0
:103DB00061307105A0E88A07B94630F49B01AC0177
:103DC0006627772788279078309621F020833183E3
:103DD0004283538308959F3F31F0915020F487959B
:103DE00077956795B795880F911D9695879597F963
:103DF000089597FB072E16F4009407D077FD09D09D
:103E00000E94131F07FC05D03EF4909581959F4FAB
:103E10000895709561957F4F0895EE0FFF1F0590EF
:103E2000F491E02D0994AA1BBB1B51E107C0AA1F06
:103E3000BB1FA617B70710F0A61BB70B881F991F4B
:103E40005A95A9F780959095BC01CD010895CF931F
:103E5000DF938230910510F482E090E0E091A502BA
:103E6000F091A60220E030E0C0E0D0E0309711F100
:103E70004081518148175907C0F04817590761F42C
:103E800082819381209719F09B838A832BC0909322
:103E9000A6028093A50226C02115310519F042170C
:103EA000530718F49A01BE01DF01EF010280F3818C
:103EB000E02DDCCF2115310509F1281B390B243009
:103EC000310590F412968D919C91139761157105AF
:103ED00021F0FB019383828304C09093A602809318
:103EE000A502FD01329644C0FD01E20FF31F81934C
:103EF0009193225031092D933C933AC02091A30213
:103F00003091A402232B41F4209115013091160128
:103F10003093A4022093A302209113013091140145
:103F20002115310541F42DB73EB74091170150914D
:103F30001801241B350BE091A302F091A402E217B3
:103F4000F307A0F42E1B3F0B2817390778F0AC01BC
:103F50004E5F5F4F2417350748F04E0F5F1F509399
:103F6000A4024093A3028193919302C0E0E0F0E0A9
:103F7000CF01DF91CF9108950F931F93CF93DF93DC
:103F8000009709F48CC0FC013297138212820091D1
:103F9000A5021091A6020115110581F4208131813D
:103FA000820F931F2091A3023091A4022817390792
:103FB00079F5F093A402E093A30271C0D80140E028
:103FC00050E0AE17BF0750F412962D913C91139715
:103FD000AD012115310509F1D901F3CF9D01DA01B8
:103FE0003383228360817181860F971F8217930725
:103FF00069F4EC0128813981260F371F2E5F3F4F6E
:10400000318320838A819B8193838283452B29F48A
:10401000F093A602E093A50242C01396FC93EE93A0
:104020001297ED01499159919E01240F351FE21716
:10403000F30771F480819181840F951F0296119688
:104040009C938E938281938113969C938E93129767
:10405000E0E0F0E0D80112968D919C9113970097C3
:1040600019F0F8018C01F6CF8D919C9198012E5F8B
:104070003F4F820F931F2091A3023091A402281773
:10408000390769F4309729F41092A6021092A5021C
:1040900002C0138212821093A4020093A302DF9144
:1040A000CF911F910F91089581E090E0F8940C94C6
:0640B0005920F894FFCF37
:1040B60000E100000000000000C18081000000FF58
:1040C600FFFFFF0000A702800000000000DD017C6A
:1040D600033903040200FF0100010000FFFF000096
:1040E600010001FF000000000053096A06FD09698E
:0840F600097409020A200A0006
:00000001FF
