:100000000C9445010C946D010C946D010C946D01E0
:100010000C946D010C946D010C946D010C946D01A8
:100020000C946D010C946D010C940D070C94D80781
:100030000C946D010C946D010C946D010C946D0188
:100040000C946D010C946D010C946D010C946D0178
:100050000C946D010C946D010C946D010C94C10D08
:100060000C946D010C946D010C946D010C946D0158
:100070000C946D010C946D010C946D010C946D0148
:100080000C946D010C946D010C946D010C946D0138
:100090000C946D010C946D010C946D010C946D0128
:1000A0000C946D010C946D010C946D01680B6B0B3D
:1000B0005A0B5E0B640B8C0B8C0B8C0B6F0B730B46
:1000C000770B7D0B810B8C0B870B084AD73B3BCE04
:1000D000016E84BCBFFDC12F3D6C74319ABD568347
:1000E0003DDA3D00C77F11BED9E4BB4C3E916BAAFF
:1000F000AABE000000803F07634236B79BD8A71A0C
:1001000039685618AEBAAB558C1D3CB7CC5763BD99
:100110006DEDFD753EF6177231BF000000803F089F
:10012000000000BE922449123EABAAAA2ABECDCC42
:10013000CC4C3E00000080BEABAAAAAA3E00000044
:1001400000BF000000803F0000000000084178D39D
:10015000BB4387D1133D190E3CC3BD4282AD2B3E3C
:1001600068EC8276BED98FE1A93E4C80EFFFBE01DC
:10017000C4FF7F3F000000000000080B00020202E5
:100180000100090400000102020000052400100122
:1001900005240101010424020605240600010705C7
:1001A000810310004009040100020A000000070555
:1001B0000202400000070583024000000403090416
:1001C00012010002EF0201404123368000010102CA
:1001D000030141726475696E6F204C4C43004861A5
:1001E0007276657374655220436F6E74726F6C2003
:1001F0004465636B00070605040100080A0B0C0D3B
:100200000900000000240027002A002D0030000013
:10021000000000250028002B002E00310000000007
:10022000002300260029002C002F000404040404ED
:100230000304050202020204030202020206060689
:100240000606060404020202040404080201104027
:10025000804010204080408008020401804020102F
:100260000201108010204040200000000200090F11
:100270000000030401000C0000000000000000006A
:1002800000000000000000006F1C11241FBECFEF13
:10029000DAE0DEBFCDBF11E0A0E0B1E0E0E2FAE4D9
:1002A00002C005900D92A037B107D9F723E0A0E76F
:1002B000B1E001C01D92A135B207E1F711E0C5E43C
:1002C000D1E004C02197FE010E94C223C434D107AB
:1002D000C9F70E94A10F0C940E250C940000CF9238
:1002E000DF92EF92FF920F931F93CF93DF93D90189
:1002F000E801421753071CF0FA01690102C06A01C4
:10030000F901882309F43FC09C2D8D2DC616D70610
:1003100014F4962F872F292F382FE217F3070CF4A8
:100320009F01A417B50734F4CF01821B930B9C01E6
:100330002C0D3D1D0D2C000CEE08FF08C901330FDC
:10034000AA0BBB0B9C01AD012C193D094E095F099D
:10035000AEEFBFEF0E947F208F01FF0F220B330B08
:10036000A90198012C193D094E095F090E946020DE
:10037000DA01C9018F5F9F47A109B1098883998379
:1003800082E090E002C080E090E0DF91CF911F9189
:100390000F91FF90EF90DF90CF900895CF92DF9272
:1003A000EF92FF920F931F93CF93DF93D901E80150
:1003B000421753071CF0FA01690102C06A01F901F2
:1003C000882309F43FC09C2D8D2DC616D70614F442
:1003D000962F872F292F382FE217F3070CF49F0150
:1003E000A417B50734F4CF01821B930B9C012C0D8D
:1003F0003D1D0D2C000CEE08FF08C901330FAA0BA0
:10040000BB0B9C01AD012C193D094E095F09AEEFF4
:10041000BFEF0E947F208F01FF0F220B330BA9013A
:1004200098012C193D094E095F090E946020DA01EC
:10043000C9018F5F9F47A109B1098883998382E031
:1004400090E002C080E090E0DF91CF911F910F918A
:10045000FF90EF90DF90CF9008950F931F93CF936D
:100460008C01C62F60E08091F9020E940F0D0230CE
:10047000110531F10330110509F440C001301105B7
:1004800009F05EC06C2F61708091F1020E940F0D27
:10049000C1FB662760F98091F3020E940F0DC2FB39
:1004A000662760F98091F5020E940F0DC3FB662755
:1004B00060F98091F7020E940F0D809101033BC00B
:1004C0006C2F61708091F1020E940F0DC1FB6627B5
:1004D00060F98091F3020E940F0DC2FB662760F95C
:1004E0008091F5020E940F0DC3FB662760F9809191
:1004F000F7020E940F0D809103031DC06C2F6170E5
:100500008091F1020E940F0DC1FB662760F9809176
:10051000F3020E940F0DC2FB662760F98091F5027D
:100520000E940F0DC3FB662760F98091F7020E94BD
:100530000F0D80910503CF911F910F910C94E60C44
:1005400080E090E0CF911F910F910895AF92BF92FC
:10055000CF92DF92EF92FF920F931F93CF93DF938F
:100560001F92CDB7DEB7ADB6BEB68091F0022DB703
:100570003EB7281B31090FB6F8943EBF0FBE2DBF02
:100580008DB79EB701966C01E090BF02F12C80916F
:10059000BB029091BC02D601FC019F01281B390BC4
:1005A0002E153F051CF421912D93F7CF8091C002A9
:1005B000882371F18091B7029091B80297FD0AC02B
:1005C00068E671E00E94AE236DE270E00E94AE2307
:1005D000262F01C028E08091B9029091BA0297FDC0
:1005E0000AC068E671E00E94AE236DE270E00E94EE
:1005F000AE23962F01C098E0F601EE0DFF1D30E10D
:10060000939FC0011124822B8083C70101967C0136
:1006100086010E0D1F1D2091C5023091C60240912A
:10062000C3025091C4026091A1027091A202809114
:10063000C10281700E94CE01E80EF91E86010E0DE6
:100640001F1D2091C9023091CA024091C7025091EA
:10065000C8026091A3027091A4028091C1028695A4
:1006600081700E94CE01E80EF91E86010E0D1F1D3D
:100670002091CD023091CE024091CB025091CC021C
:100680006091A5027091A6028091C10282FB882729
:1006900080F90E94CE01E80EF91E86010E0D1F1D85
:1006A0002091D1023091D2024091CF025091D002DC
:1006B0006091A7027091A8028091C10283FB8827F4
:1006C00080F90E94CE01E80EF91E86010E0D1F1D55
:1006D0002091D5023091D6024091D3025091D4029C
:1006E0006091A9027091AA028091C10282958170E5
:1006F0000E94CE01E80EF91E86010E0D1F1D2091ED
:10070000D9023091DA024091D7025091D80260911B
:10071000AB027091AC028091C10285FB882780F901
:100720000E94CE01E80EF91E86010E0D1F1D2091BC
:10073000DD023091DE024091DB025091DC026091DB
:10074000AF027091B0028091C20281700E946F016D
:10075000E80EF91E86010E0D1F1D2091E102309159
:10076000E2024091DF025091E0026091AD0270918F
:10077000AE028091C202869581700E946F01E80EE0
:10078000F91E86010E0D1F1D2091E5023091E60233
:100790004091E3025091E4026091B1027091B20283
:1007A0008091C20282FB882780F90E946F01E80EC7
:1007B000F91E86010E0D1F1D2091E9023091EA02FB
:1007C0004091E7025091E8026091B3027091B40247
:1007D0008091C20283FB882780F90E946F018E0DF1
:1007E0009F1D8601080F191F2091ED023091EE0226
:1007F0004091EB025091EC026091B5027091B6020B
:100800008091C202829581700E946F011091F00266
:100810000091EF020E940B0E7C01098341E050E041
:10082000BE016F5F7F4FFC0183810E94190A97FD13
:1008300008C0412F50E0F7018381B60180640E9417
:10084000190A0FB6F894BEBE0FBEADBE0F90DF9171
:10085000CF911F910F91FF90EF90DF90CF90BF90BD
:10086000AF9008958F929F92AF92BF92CF92DF92F6
:10087000EF92FF926B017C010E94B50D4B015C0170
:10088000C60ED71EE81EF91E0E94B50D6815790523
:100890008A059B0528F0C616D706E806F906A0F7D4
:1008A000FF90EF90DF90CF90BF90AF909F908F9090
:1008B00008959091BE02891700F5982F9695969508
:1008C0009695E091BB02F091BC02E90FF11D282F33
:1008D000277081E090E0A0E0B0E004C0880F991F8D
:1008E000AA1FBB1F2A95D2F7809590818923808308
:1008F0008091BD0281110C94A60208959091BE02D0
:100900008917F8F4982F969596959695E091BB02E5
:10091000F091BC02E90FF11D282F277081E090E0D3
:10092000A0E0B0E004C0880F991FAA1FBB1F2A9542
:10093000D2F72081822B80838091BD0281110C949B
:10094000A60208954F925F926F927F928F929F922C
:10095000AF92BF92CF92DF92EF92FF920F931F93CD
:10096000CF93DF9300D000D0CDB7DEB749835A8351
:100970006B837C8348015901BC01990F880B990B4B
:100980000E94211FA50194010E9499209B01AC01A6
:100990000E949A202B013C01A5019401C701B601D8
:1009A0000E9499209B01AC01C301B2010E947821F1
:1009B00020E030E040E85FE30E9499206B017C0179
:1009C00020E030E0A9010E944722181624F0C70158
:1009D000B601905802C0C701B60129813A814B8106
:1009E0005C810E9454224B015C0120E030E0A901AF
:1009F000C701B6010E94472218166CF020E030E0D3
:100A0000A901C701B6010E941A1F87FD09C020E095
:100A100030E0A90109C020E030E040E85FE304C015
:100A200020E030E040E85FEBC501B4010E94801F88
:100A30006B017C0120E030E040E85FEB0E941A1F70
:100A400087FD14C020E030E040E85FE3C701B60155
:100A50000E94472218160CF120E030E0A901C701DE
:100A6000B6010E94472218165CF006C0C12CD12C9A
:100A700090E8E92E9FEBF92EC701B601905802C00D
:100A8000C701B60120E030E0A9010E941A1F87FFCC
:100A90000AC0C12CD12C760106C0C12CD12C80E813
:100AA000E82E8FE3F82EC701B6010F900F900F903C
:100AB0000F90DF91CF911F910F91FF90EF90DF90FA
:100AC000CF90BF90AF909F908F907F906F905F90EE
:100AD0004F900895611102C00C9459040C947E0447
:100AE000CF93DF93EC01CF3F8FEFD80761F1BE01C9
:100AF0000D2E000C880B990B0E94211F20E030E086
:100B000044EB53E40E941A1F87FF02C0C859DE4F0E
:100B1000BE010D2E000C880B990B0E94211F20E0B6
:100B200030E044EB53E40E944722181614F4C856F0
:100B3000D140CE016DE270E00E94AE2370931403A9
:100B40006093130304C0D0931403C0931303C091A4
:100B50001303D091140361E0209709F060E080E274
:100B60000E946A0561E0C130D10509F060E081E2D0
:100B70000E946A0561E0C230D10509F060E082E2BE
:100B80000E946A0561E0C330D10509F060E083E2AC
:100B90000E946A0561E0C430D10509F060E084E29A
:100BA0000E946A0561E0C530D10509F060E085E288
:100BB0000E946A0561E0C630D10509F060E086E276
:100BC0000E946A0561E0279709F060E087E2DF9103
:100BD000CF910C946A0540911B0350911C03209106
:100BE000190330911A0342175307B4F49091E800A7
:100BF0009570E1F39091E80092FD19C08093F100A7
:100C000080911B0390911C0301968F739927892B68
:100C100019F48EEF8093E80080911B0390911C03E0
:100C2000019690931C0380931B0381E0089580E05C
:100C30000895CF92DF92EF92FF920F931F93CF937D
:100C4000DF931F92CDB7DEB7182F062FE42E862F25
:100C5000880F8E5F99830E94EB0583E00E94EB056D
:100C6000F12EC12E9981D92E8C2D8F19801798F4D1
:100C7000F601E7FE02C0849101C080810E94EB056D
:100C8000182F80E00E94EB058123FFEFCF1ADF0AC7
:100C90008111EACF01C081E00F90DF91CF911F91C8
:100CA0000F91FF90EF90DF90CF900895615030F05A
:100CB0002091F100FC0120830196F8CF289884E66A
:100CC00080931E030895CF92DF92EF92FF920F93CD
:100CD0001F93CF93DF936C017A018B01C0E0D0E0CA
:100CE000CE15DF0589F0D8016D918D01D601ED910A
:100CF000FC910190F081E02DC6010995892B11F43A
:100D00007E0102C02196ECCFC701DF91CF911F91E8
:100D10000F91FF90EF90DF90CF9008951F93CF93A6
:100D2000DF93182F60E08091F9020E940F0D612F70
:100D300061708091F1020E940F0D11FB662760F92E
:100D40008091F3020E940F0D12FB662760F98091DB
:100D5000F5020E940F0D13FB662760F98091F702E0
:100D60000E940F0DE0910503E23108F0E251F0E03E
:100D7000EB50FE4FE49180917B00E3FB992790F9C3
:100D8000C92F90E0D92F95E0CC0FDD1F9A95E1F7A0
:100D90008F7DC82BC0937B00E770E064E0937C00FC
:100DA00080917A00806480937A0080917A0086FD39
:100DB000FCCF809178002091790090E0922BDF9118
:100DC000CF911F910895FC0180911803811103C0F8
:100DD0008FEF9FEF08959FB7F89482E08093E9002A
:100DE0002091F20030E01216130614F421E030E0F6
:100DF0002115310559F0289884E680931E038091CF
:100E0000F10080838091F200882319F09FBFC9010F
:100E100008958BE68093E800F9CF1F920F920FB6EA
:100E20000F9211248F939F938091E1009091E100A4
:100E3000937F9093E10083FF0FC01092E90091E04F
:100E40009093EB001092EC0092E39093ED001092DF
:100E5000180398E09093F00082FF20C093E09093F5
:100E6000E9009091F200992319F09AE39093E80039
:100E700090911D03992339F090911D039150909307
:100E80001D03992389F190911E03992339F09091C4
:100E90001E03915090931E03992341F184FF10C0CB
:100EA0008091E2008E7E81608093E2008091E1007B
:100EB0008F7E8093E100809117038E7E806111C048
:100EC00080FF16C08091E2008E7E80618093E200F8
:100ED0008091E1008E7E8093E100809117038E7EE9
:100EE00081608093170304C05D9ACDCF289AD6CF36
:100EF0009F918F910F900FBE0F901F901895DF92CA
:100F0000EF92FF920F931F93CF93DF93D82E8A0116
:100F10007B01E40EF51EEB01CE15DF0571F0D7FE67
:100F200003C0FE01849101C088810E94EB052196D7
:100F30008111F2CF8FEF9FEF01C0C801DF91CF91F8
:100F40001F910F91FF90EF90DF9008950F931F93E3
:100F5000CF93DF931F92CDB7DEB782E0898342E45F
:100F600050E06AE771E080E80E947F070E948D0FE1
:100F7000DC0112960D911C9113970115110569F072
:100F8000D801ED91FC910280F381E02DBE016F5FED
:100F90007F4FC801099597FF07C089810F90DF91A6
:100FA000CF911F910F910895F80100851185E5CF2C
:100FB0001F920F920FB60F921124CF92DF92EF92F1
:100FC000FF920F931F932F933F934F935F936F93D2
:100FD0007F938F939F93AF93BF93EF93FF93CF93A1
:100FE000DF93CDB7DEB76C97DEBFCDBF1092E900BF
:100FF0008091E80083FFEDC168E0CE0145960E9434
:10100000560682EF8093E8008D8987FF05C0909196
:10101000E80090FFFCCF03C09EEF9093E800982F6C
:10102000907609F0C6C09E892F89188D91110CC049
:10103000803829F4809116038093F10002C0109249
:10104000F1001092F10048C1422F50E0512B913035
:1010500051F4811141C14130510509F03DC18091E8
:1010600016038D7F0BC0933061F4811135C141307F
:10107000510509F031C180911603826080931603F7
:101080002BC1953041F48091E80080FFFCCF2068AF
:101090002093E30021C1963009F05FC0EB8CFC8CFB
:1010A0001092E90010921C0310921B03123091F56C
:1010B00010921A03109219030E94A60799E0BE012C
:1010C0006F5F7F4FDB01E92F1D92EA95E9F7998366
:1010D0001A8391E09E8390EA98879AEF99872091EE
:1010E0001B0330911C03275F3F4F3C832B838D8371
:1010F0001092E90010921C0310921B03F0921A0345
:10110000E092190349E050E080E00E947F070E94CE
:10111000A607E2C0F0921A03E09219030E948D0F15
:10112000DC011296ED90FC901397E114F10409F4A0
:10113000C0C0D701ED91FC910480F581E02DBE0186
:101140006B5E7F4FC7010995009719F00CF0C4C082
:10115000C7C0F701E084F184E8CF973009F4C0C03C
:10116000983021F481E08093F100B6C0993009F005
:10117000B3C0837009F0B4C0E3E0F1E081E021E0A6
:1011800036E39081992361F08093E9002093EB008E
:1011900091919093EC003093ED008F5F873089F749
:1011A0008EE78093EA001092EA008F8980931803FB
:1011B00093C08B8D9C8D1092E90010921C031092AD
:1011C0001B0390931A0380931903898D811156C0D4
:1011D0008E899D89913A59F4813209F081C047E0A6
:1011E00050E06DE071E080E00E947F0775C09132B1
:1011F00009F076C0833289F4888D90E0982F882793
:101200002F89822BA0E0B0E08093090190930A011E
:10121000A0930B01B0930C015FC0803269F4809100
:10122000E80082FFFCCF67E08DE091E00E94560667
:101230008BEF8093E80006C0823209F04DC08F89A1
:101240008093140180911503882319F0EEEFFAE0E2
:1012500002C0E0E0F8E080910D0190910E01A091B4
:101260000F01B0911001803B9440A105B10509F038
:101270007BC08091140180FF93C076C00E948D0FC7
:10128000DC0112960D911C9113970115110541F186
:10129000D801ED91FC910190F081E02DBE016B5ED3
:1012A0007F4FC8010995811117C0F801008511858C
:1012B000ECCF113009F44EC0133091F48F8988239C
:1012C00009F445C0823081F440E866E18EED91E09A
:1012D0000E941906882321F08EEF8093E80079C0E0
:1012E00081E28093EB0075C0813029F440E86BE027
:1012F00082ED91E0EDCF833099F70E948D0FDC01F4
:101300001296ED90FC9013978E010F5F1F4F6801AE
:10131000E114F10479F0D701ED91FC910680F78199
:10132000E02DB801C7010995080F111DF701E084F0
:10133000F184EECFD8011C92F60101900020E9F76C
:101340003197BF016C197D0940E0C601C1CF6CEB3C
:1013500071E002C060EC71E06115710509F2FB01FA
:10136000449150E080E840CF0FB6F894A895809162
:101370006000886180936000109260000FBEA895A5
:10138000EE3F2AE0F20739F08091FE0A9091FF0AC1
:1013900091838083A1CF1092FF0A1092FE0A9CCF06
:1013A000EE3F8AE0F80731F0808191819093FF0A47
:1013B0008093FE0A87E797E7918380839BE088E12B
:1013C0000FB6F894A895809360000FBE90936000CC
:1013D00083CF6C960FB6F894DEBF0FBECDBFDF9102
:1013E000CF91FF91EF91BF91AF919F918F917F919D
:1013F0006F915F914F913F912F911F910F91FF90AE
:10140000EF90DF90CF900F900FBE0F901F90189528
:101410002FB7F89487708093E9009091E800892FA6
:10142000807295FF04C09091F20080E4891B2FBF69
:1014300008957F928F929F92AF92BF92CF92DF9248
:10144000EF92FF920F931F93CF93DF93C82E8B01E0
:101450007A0180911803811103C08FEF9FEF75C04F
:101460008091170380FF05C08091E0008260809327
:10147000E000CE2DDF2DD12C8AEF882E8C2D8770A9
:10148000B82E8C2D8072A82E8C2D8074982E9AE305
:10149000792E209709F452C08C2D0E94080A282F1B
:1014A00081110AC08A948820C1F261E070E080E076
:1014B00090E00E947B0DEDCF90E0C817D9070CF4A7
:1014C0002C2F3FB7F894B092E9008091E80085FF97
:1014D00033C0822F90E0C81BD90BAA2029F02150DD
:1014E000A8F01092F100FBCFF801C7FE07C0215011
:1014F00058F044914093F1003196F9CF215020F0FB
:1015000041914093F100FACF080F191FDD2019F027
:101510007092E8000AC08091E80085FD08C07092D2
:10152000E800DD24D394209739F0D12C05C0209712
:1015300019F491107092E8003FBFABCFD110ACCF3F
:101540005D9884E680931D03C701DF91CF911F91C1
:101550000F91FF90EF90DF90CF90BF90AF909F9052
:101560008F907F9008956115710579F0FB010190CE
:101570000020E9F73197AF01461B570BDC01ED91D5
:10158000FC910280F381E02D099480E090E00895C1
:101590004F925F926F927F92EF92FF920F931F9301
:1015A000CF93DF93CDB7DEB7A1970FB6F894DEBF28
:1015B0000FBECDBF7C01FA01CB0119A2223008F485
:1015C0002AE08E010F5D1F4F422E512C612C712C91
:1015D000BF01A30192010E943E20F901CA010150FE
:1015E00011096A3014F4605D01C0695CD8016C9324
:1015F000232B242B252B61F7B801C7010E94B30AC6
:10160000A1960FB6F894DEBF0FBECDBFDF91CF918C
:101610001F910F91FF90EF907F906F905F904F9090
:101620000895CF93DF931F92CDB7DEB76983DC01B6
:10163000ED91FC910280F381E02D41E050E0BE018C
:101640006F5F7F4F09950F90DF91CF91089583E0F1
:101650008093E9008091F200882319F08AE3809357
:10166000E8000895FC018485958597FD0BC09FB720
:10167000F89482E08093E9008091F2009FBF90E0AF
:10168000019608959FB7F89482E08093E9008091D5
:10169000F2009FBF90E00895089580E090E00895E3
:1016A00090E0FC013197EF30F105B0F5EA5AFF4FB9
:1016B0000C94C223809180008F7703C080918000BA
:1016C0008F7D80938000089580918000877FF9CF7F
:1016D00084B58F7702C084B58F7D84BD08958091D5
:1016E00090008F7707C0809190008F7D03C080911C
:1016F0009000877F8093900008958091C0008F773D
:1017000003C08091C0008F7D8093C00008958091B8
:10171000C200877F8093C20008953FB7F8948091FC
:101720003D0390913E03A0913F03B091400326B545
:10173000A89B05C02F3F19F00196A11DB11D3FBF09
:10174000BA2FA92F982F8827820F911DA11DB11D97
:10175000BC01CD0142E0660F771F881F991F4A9593
:10176000D1F70895DC01FB0112968C91129790E05D
:101770002481358182179307D1F491818081813A48
:1017800031F481E0913091F0933089F411C08132CD
:1017900071F49B3021F482811F968C9305C09A309E
:1017A00031F4828150968C9381E00895089580E011
:1017B0000895DC01FB0188E4808389E4818384E46B
:1017C00082831D969C911D979F709F5B93831D96AE
:1017D0008D919C911E9724E0969587952A95E1F727
:1017E0008F708F5B848385E00895FC0182818F5B1D
:1017F000FB01808381E00895CF93DF93EC0180911A
:101800001401882331F083E00E94190A1816190682
:1018100034F081E090E09B838A8380E090E0DF9168
:10182000CF91089583E00E94080A90E00895CF9335
:10183000DF931F92CDB7DEB7FC018485958597FDB8
:1018400005C02FEF3FEF358724870BC0CE010196EF
:101850000E94E306019719F4898190E002C08FEF9E
:101860009FEF0F90DF91CF9108950F931F93CF9328
:10187000DF931F92CDB7DEB78C01FC01848595857F
:1018800097FF0EC0CE0101960E94E306019719F45E
:10189000298130E002C02FEF3FEFF8013587248720
:1018A000F801848595850F90DF91CF911F910F915D
:1018B00008950E940925EF92FF920F931F93CF93F3
:1018C000DF93FB012081213869F52381223251F514
:1018D000DC0112962C9130E0448155814217530768
:1018E00009F58C01FC01C385D485E12CF12C2097EE
:1018F00099F04C815D816A817B818E81811180E8C4
:101900000E947F078F3FFFEF9F0779F0E80EF91ED7
:101910000990D881C02DEBCF81E0D8011F968C9320
:10192000C70105C080E090E002C08FEF9FEFDF911C
:10193000CF911F910F91FF90EF900895CF93DF9378
:10194000CDB7DEB769970FB6F894DEBF0FBECDBF37
:10195000FC01DB018C918F5F8C93BE016F5F7F4F29
:1019600089E1DB011D928A95E9F729E0298384E06A
:101970008A8391E09D8383E08E832A8721E22B87EF
:101980009C879D879F8722E2288B27E02B8B25E071
:101990002C8B8E8B20E430E0388F2F8B998F8281B7
:1019A0008B8395858685998B8A8B838180688D8BC7
:1019B00049E150E080E00E947F0769960FB6F894F5
:1019C000DEBF0FBECDBFDF91CF910895CF93DF93E0
:1019D000282F30E0F901E759FD4F8491F901E65BCA
:1019E000FD4FD491F901E55DFD4FC491CC2391F0F9
:1019F00081110E94500BEC2FF0E0EE0FFF1FE35E11
:101A0000FD4FA591B491EC91ED2381E090E021F49C
:101A100080E002C080E090E0DF91CF9108951F93B5
:101A2000CF93DF93282F30E0F901E759FD4F8491E0
:101A3000F901E65BFD4FD491F901E55DFD4FC491DD
:101A4000CC23C9F0162F81110E94500BEC2FF0E02F
:101A5000EE0FFF1FE15FFD4FA591B4918FB7F89492
:101A6000111105C09C91ED2FE095E92302C0EC9186
:101A7000ED2BEC938FBFDF91CF911F910895CF9302
:101A8000DF9390E0FC01E65BFD4F2491FC01E55DF6
:101A9000FD4F8491882361F190E0880F991FFC012C
:101AA000EF5FFD4FC591D491FC01E15FFD4FA59122
:101AB000B491611109C09FB7F89488812095822361
:101AC0008883EC912E230BC0623061F49FB7F894A9
:101AD0003881822F809583238883EC912E2B2C9341
:101AE0009FBF06C08FB7F894E8812E2B28838FBF45
:101AF000DF91CF9108958F929F92AF92BF92CF9234
:101B0000DF92EF92FF926B017C010E948D0B4B01E3
:101B10005C01C114D104E104F104F1F00E948D0BC9
:101B2000DC01CB0188199909AA09BB09883E9340B9
:101B3000A105B10570F321E0C21AD108E108F1084E
:101B400088EE880E83E0981EA11CB11CC114D1043C
:101B5000E104F10419F7DDCFFF90EF90DF90CF9013
:101B6000BF90AF909F908F9008952FB7F894609199
:101B7000390370913A0380913B0390913C032FBF4E
:101B800008951F920F920FB60F9211242F933F9337
:101B90008F939F93AF93BF938091390390913A03B2
:101BA000A0913B03B0913C033091380323E0230F15
:101BB0002D3720F40196A11DB11D05C026E8230F85
:101BC0000296A11DB11D2093380380933903909391
:101BD0003A03A0933B03B0933C0380913D03909163
:101BE0003E03A0913F03B09140030196A11DB11D9A
:101BF00080933D0390933E03A0933F03B093400333
:101C0000BF91AF919F918F913F912F910F900FBEF8
:101C10000F901F9018958091300381116BC081E067
:101C2000809323038093240329E233E03093260337
:101C300020932503109228031092270321E431E01A
:101C40003093200320931F0310922B0310922A033A
:101C500010922D0310922C0380932E0380932F0358
:101C600081EC809329030E948D0FFC0121818091DA
:101C7000230390E0820F911D089724F081E0809368
:101C8000300338C0A281B381109729F48FE193E02B
:101C9000938382830EC018968D919C91199700971B
:101CA00011F0DC01F8CF8FE193E019969C938E93AD
:101CB00018978081809321038181809322039081F2
:101CC00080912403890F808380E0909123038917FA
:101CD000A8F6A0912503B0912603A80FB11D9C91F1
:101CE000A181B0E0AE5FBE4F9C9391819F5F9183D5
:101CF0008F5FEBCF8FE193E008954F925F926F92E9
:101D00007F928F929F92AF92BF92CF92DF92EF928B
:101D1000FF920F931F93CF93DF93CDB7DEB7289732
:101D20000FB6F894DEBF0FBECDBF49835A836B83D5
:101D30007C83280139018D829E82AF82B886BC01E6
:101D4000990F880B990B0E94211F4B015C01A70181
:101D500096010E941A1F882309F4BBC0A7019601AF
:101D6000C501B4010E941A1F87FF1CC0A301920184
:101D7000C501B4010E9499204B015C01A3019201AD
:101D8000C701B6010E9499209B01AC01C501B401B5
:101D90000E94782120E030E040E85FE30E94992033
:101DA0004B015C01A7019601C501B4010E944722C5
:101DB0001816ECF4A7019601C501B4010E94992000
:101DC0004B015C01A70196016D817E818F81988511
:101DD0000E9499209B01AC01C501B4010E947821A9
:101DE00020E030E0A9010E949A204B015C0120E034
:101DF00030E0A901C501B4010E944722181624F061
:101E0000C501B401905802C0C501B40129813A81CD
:101E10004B815C810E9454226B017C0120E030E008
:101E2000A901C501B4010E94472218166CF020E0F8
:101E300030E0A901C501B4010E941A1F87FD09C045
:101E400020E030E0A90109C020E030E040E85FE395
:101E500004C020E030E040E85FEBC701B6010E941B
:101E6000801F6B017C0120E030E040E85FEB0E94C6
:101E70001A1F87FD14C020E030E040E85FE3C7018F
:101E8000B6010E9447221816A4F020E030E0A90114
:101E9000C701B6010E94472218168CF006C0C12C5B
:101EA000D12C90E8E92E9FEBF92EC701B60190588E
:101EB00008C0C12CD12C80E8E82E8FE3F82EC70192
:101EC000B6012B8D3C8D4D8D5E8D0E941A1F87FFB4
:101ED00005C050E040E030E020E004C05C2D4D2D16
:101EE0003E2D2F2D652F742F832F922F28960FB6FE
:101EF000F894DEBF0FBECDBFDF91CF911F910F9140
:101F0000FF90EF90DF90CF90BF90AF909F908F9019
:101F10007F906F905F904F9008958091450381115D
:101F20000DC082E08093410384E0809342031092CD
:101F300044031092430381E08093450381E493E0DE
:101F40000895CF93DF93CDB7DEB7E2970FB6F8943D
:101F5000DEBF0FBECDBF789484B5826084BD84B5EA
:101F6000816084BD85B5826085BD85B5816085BD94
:101F700080916E00816080936E001092810080914C
:101F800081008260809381008091810081608093D4
:101F90008100809180008160809380008091910019
:101FA0008260809391008091910081608093910084
:101FB000809190008160809390008091C100846046
:101FC0008093C1008091C10082608093C1008091A4
:101FD000C10081608093C1008091C30081608093C3
:101FE000C3008091C00082608093C0008091C200D5
:101FF00081608093C20080917A00846080937A002F
:1020000080917A00826080937A0080917A0081606A
:1020100080937A0080917A00806880937A00109291
:10202000180310921603109217038091D700816055
:102030008093D70080EA8093D80089B5806189BDFC
:1020400089B5826089BD09B400FEFDCF61E070E012
:1020500080E090E00E947B0D8091D8008F7C8061B1
:102060008093D8008091E000807F8093E000809191
:10207000E1008E7E8093E1008DE08093E200559A2E
:10208000209AEEEFFFE7859194918B3F9C4D19F4D8
:1020900081E0809315031092790210927A021092D7
:1020A0007B0210927C02109237021092380210923A
:1020B000390210923A0268EB7BE080E090E00E94E7
:1020C000320485EE91E090937802809377025BE191
:1020D000E52EF12C109114016AE070E080E090E0B0
:1020E0000E947B0D11110BC031E0E31AF10839F0A9
:1020F00064E670E080E090E00E947B0DEBCFE09121
:102100007702F09178028FEF9FEF958784870E9486
:10211000B50D609337027093380280933902909323
:102120003A0269E471E080917702909178020E940E
:10213000B30A6AE070E080E090E00E94320411E0AF
:1021400010934B0262E0809101030E943F0D60E01A
:102150008091FB020E940F0D1092720162E080914B
:1021600003030E943F0D60E08091FD020E940F0D6D
:102170001092710162E0809105030E943F0D60E0C2
:102180008091FF020E940F0D109270011093BD020A
:102190000E94A60220E030EC3093C4022093C302D8
:1021A00080E090E49093C6028093C5023093C80209
:1021B0002093C7029093CA028093C9023093CC0245
:1021C0002093CB029093CE028093CD023093D00225
:1021D0002093CF029093D2028093D1023093D40205
:1021E0002093D3029093D6028093D5023093D802E5
:1021F0002093D7029093DA028093D90282EB9FE872
:10220000A0E7BFE38093A3019093A401A093A5014D
:10221000B093A60183E49DE1AFEABEEB80939F01FA
:102220009093A001A093A101B093A2010E94B50DCB
:10223000672B682B692B41F40E94B50D6230710544
:102240008105910508F40EC10E94B50D6093E1016E
:102250007093E2018093E3019093E4010091DD012A
:102260001091DE012091DF013091E00160177107CC
:102270008207930740F46093DD017093DE01809341
:10228000DF019093E0010091DD011091DE012091CA
:10229000DF013091E0016B017C01C01AD10AE20A32
:1022A000F30A970186010A3F11052105310508F45B
:1022B000D9C06093DD017093DE018093DF019093BC
:1022C000E00124EF31E040E050E0209343023093FE
:1022D00044024093450250934602109247021092E6
:1022E00048021092490210924A0280913B0290915A
:1022F0003C02A0913D02B0913E0280933F02909338
:102300004002A0934102B09342020E94B50D609337
:102310003B0270933C0280933D0290933E020E94E8
:10232000B50D609337027093380280933902909311
:102330003A020E94B50D6B017C016BE571E0809162
:102340007702909178020E94B30A2AE041E050E0BF
:1023500060E070E080917702909178020E94C80A54
:1023600062E671E080917702909178020E94B30A50
:102370002AE0B701A60180917702909178020E942D
:10238000C80A64E671E080917702909178020E9419
:10239000B30A80913B0290913C02A0913D02B09122
:1023A0003E02B701A601481B590B6A0B7B0B2AE0C2
:1023B00080917702909178020E94C80A64E671E0E9
:1023C00080917702909178020E94B30A40913B027B
:1023D00050913C0260913D0270913E0280913F021B
:1023E00090914002A0914102B0914202481B590BCA
:1023F0006A0B7B0B2AE080917702909178020E9411
:10240000C80A66E671E080917702909178020E9496
:10241000B30A0E94B50DAB01BC012AE0809177029E
:10242000909178020E94C80A009177021091780278
:1024300068E671E0C8010E94B30A68E571E0C8016E
:102440000E94B30A62E070E080E090E00E943204F3
:102450000E94B50D60933B0270933C0280933D0255
:1024600090933E0263E070E081E090E00E942D02D4
:1024700061E0892B09F060E080E00E946A0567E076
:1024800070E081E090E00E942D0261E0892B09F06C
:1024900060E081E00E946A056AE070E081E090E01F
:1024A0000E942D0261E0892B09F060E082E00E9429
:1024B0006A056BE070E081E090E00E942D0261E02F
:1024C000892B09F060E083E00E946A056DE070E00E
:1024D00081E090E00E942D0261E0892B09F060E02C
:1024E00084E00E946A0562E070E081E090E00E9472
:1024F0002D0261E0892B09F060E085E00E946A0509
:1025000066E070E081E090E00E942D0261E0892B9E
:1025100009F060E086E00E946A0569E070E081E011
:1025200090E00E942D0261E0892B09F060E087E0D5
:102530000E946A056CE070E081E090E00E942D024C
:1025400061E0892B09F060E088E00E946A056EE096
:1025500070E081E090E00E942D0261E0892B09F09B
:1025600060E089E00E946A0561E070E081E090E04F
:102570000E942D0261E0892B09F060E08AE00E9450
:102580006A0560E070E081E090E00E942D0261E069
:10259000892B09F060E08BE00E946A0565E070E03D
:1025A00081E090E00E942D0261E0892B09F060E05B
:1025B0008CE00E946A0564E070E081E090E00E9497
:1025C0002D0261E0892B09F060E08DE00E946A0530
:1025D00066E070E082E090E00E942D0261E0892BCD
:1025E00009F060E08EE00E946A0568E070E081E03A
:1025F00090E00E942D0261E0892B09F060E08FE0FD
:102600000E946A056FE070E081E090E00E942D0278
:1026100061E0892B09F060E080E10E946A0560E0DA
:1026200070E082E090E00E942D0261E0892B09F0C9
:1026300060E081E10E946A0562E070E082E090E083
:102640000E942D0261E0892B09F060E082E10E9486
:102650006A0561E070E082E090E00E942D0261E096
:10266000892B09F060E083E10E946A056CE070E06C
:1026700082E090E00E942D0261E0892B09F060E089
:1026800084E10E946A0563E070E082E090E00E94CD
:102690002D0261E0892B09F060E085E10E946A0566
:1026A00064E070E082E090E00E942D0261E0892BFE
:1026B00009F060E086E10E946A0565E070E082E072
:1026C00090E00E942D0261E0892B09F060E087E133
:1026D0000E946A056AE070E082E090E00E942D02AC
:1026E00061E0892B09F060E088E10E946A056BE0F7
:1026F00070E082E090E00E942D0261E0892B09F0F9
:1027000060E089E10E946A0567E070E082E090E0A5
:102710000E942D0261E0892B09F060E08AE10E94AD
:102720006A0569E070E082E090E00E942D02182FB7
:1027300068E070E082E090E00E942D02880F991F0F
:10274000E82FE12BE37090917301990F990FE92B1A
:10275000E0937301EF70F0E0E55EFE4F20812223ED
:10276000B1F18091780190917901AC014F5F5F4F99
:102770004330510560F5820F911D27FD9A95909386
:102780007901809378019C0197FF04C022273327A9
:10279000281B390B22303105D4F01816190614F411
:1027A0008BE103C0892B19F08CE10E947E040E940A
:1027B000B50DDC01CB018C599F4FAF4FBF4F8093BC
:1027C000740190937501A0937601B0937701C09046
:1027D0007401D0907501E0907601F09077011C149F
:1027E0001D041E041F044CF40E94B50DC616D70626
:1027F000E806F90610F40C94181C80910101882356
:10280000E9F16EE070E082E090E00E942D022091FC
:10281000DC0130E082179307E1F06EE070E082E0C7
:1028200090E00E942D0221E0892B09F420E0209302
:10283000DC010E94B50DDC01CB018C599F4FAF4FDD
:10284000BF4F8093D8019093D901A093DA01B09340
:10285000DB01C090D801D090D901E090DA01F0906E
:10286000DB010E94B50D21E06C157D058E059F05ED
:1028700008F020E0622F8DE10E946A056EE070E0B2
:1028800082E090E00E942D02682F88E20E946A0593
:10289000809100018823E9F16FE070E082E090E030
:1028A0000E942D022091D70130E082179307E1F0BA
:1028B0006FE070E082E090E00E942D0221E0892B21
:1028C00009F420E02093D7010E94B50DDC01CB0173
:1028D0008C599F4FAF4FBF4F8093D3019093D4013A
:1028E000A093D501B093D601C090D301D090D4016C
:1028F000E090D501F090D6010E94B50D21E06C1555
:102900007D058E059F0508F020E0622F8EE10E9474
:102910006A056FE070E082E090E00E942D0261E0C5
:10292000892B09F060E089E20E946A056DE070E0A1
:1029300082E090E00E942D0261E0892B09F060E0C6
:102940008FE10E946A0580E090E00E948E069AABBB
:1029500089ABBC01990F880B990B0E94211F2B0199
:102960003C01CB01D3018093CF019093D001A09380
:10297000D101B093D20181E090E00E948E069A8747
:102980008987BC01990F880B990B0E94211F4B016D
:102990005C01CB01D5018093CB019093CC01A09336
:1029A000CD01B093CE0183E090E00E948E069A8B19
:1029B000898BBC01990F880B990B0E94211F6B0119
:1029C0007C01CB01D7018093C7019093C801A093EC
:1029D000C901B093CA0187E090E00E948E069E8BE9
:1029E0008D8BBC01990F880B990B0E94211F60935E
:1029F000C3017093C4018093C5019093C6018EE01A
:102A000090E00E948E069A8F898FBC01990F880BE7
:102A1000990B0E94211F6093BF017093C0018093A6
:102A2000C1019093C2018FE090E00E948E069C8FBE
:102A30008B8FBC01990F880B990B0E94211F60930B
:102A4000BB017093BC018093BD019093BE010E94B5
:102A5000B50D2091B7013091B8014091B901509165
:102A6000BA01DC01CB01821B930BA40BB50B883E92
:102A70009340A105B10508F0B3C02DEC3CEC4CE44B
:102A80005FE360919D0270919E0280919F02909100
:102A9000A0020E94801F69837A838B839C832DEC24
:102AA0003CEC4CE45EE3B201C3010E94801F9B0139
:102AB000AC0169817A818B819C810E949A202B01D3
:102AC0003C0160939D0270939E0280939F029093BD
:102AD000A0022DEC3CEC4CE45FE36091910270911C
:102AE000920280919302909194020E94801F6983C8
:102AF0007A838B839C832DEC3CEC4CE45EE3B40145
:102B0000C5010E94801F9B01AC0169817A818B8184
:102B10009C810E949A204B015C016093910270930A
:102B2000920280939302909394022DEC3CEC4CE43F
:102B30005FE3609185027091860280918702909197
:102B400088020E94801F69837A838B839C832DEC8B
:102B50003CEC4CE45EE3B601C7010E94801F9B0180
:102B6000AC0169817A818B819C810E949A2060935B
:102B70008502709386028093870290938802409228
:102B8000950250929602609297027092980240923B
:102B9000990250929A0260929B0270929C028092DB
:102BA0008D0290928E02A0928F02B092900280923B
:102BB000890290928A02A0928B02B0928C0260935A
:102BC00081027093820280938302909384026093C7
:102BD0007D0270937E0280937F029093800218C6DC
:102BE0002DA73EA74FA758AB0E94B50D2DA53EA51A
:102BF0004FA558A9DC01CB01821B930BA40BB50B8D
:102C000080319742A105B10508F0A8C02090950237
:102C10003090960200919702109198029201A301C0
:102C2000B101C8010E944722181614F01201830155
:102C3000C101D8018093950290939602A0939702C8
:102C4000B09398022090990230909A0200919B02D2
:102C500010919C029201A301B101C8010E941A1FA8
:102C600087FD02C012018301C101D801809399023E
:102C700090939A02A0939B02B0939C026090890269
:102C800070908A0200918B0210918C029401A50130
:102C9000B301C8010E944722181614F034018501BF
:102CA000C301D8018093890290938A02A0938B027A
:102CB000B0938C0260908D0270908E0200918F0212
:102CC000109190029401A501B301C8010E941A1F3E
:102CD00087FD02C034018501C301D80180938D02B4
:102CE00090938E02A0938F02B0939002A0908102E5
:102CF000B090820200918302109184029601A70194
:102D0000B501C8010E941A1F87FD02C05601870144
:102D1000C501D8018093810290938202A09383021F
:102D2000B0938402A0907D02B0907E0200917F0259
:102D3000109180029601A701B501C8010E944722A7
:102D4000181614F056018701C501D80180937D0241
:102D500090937E02A0937F02B093800280919502AF
:102D600090919602A0919702B09198028D839E83D4
:102D7000AF83B887C0909D02D0909E02E0909F02E2
:102D8000F090A002CD86DE86EF86F88A2091990227
:102D900030919A0240919B0250919C022D8F3E8F60
:102DA0004F8F58A31F921F921F921F928D809E805B
:102DB000AF80B884CD84DE84EF84F8880D8D1E8DBD
:102DC0002F8D38A140E050E060E87FE389A99AA9FF
:102DD0000E947D0E0F900F900F900F902B013C01E1
:102DE0006093B3017093B4018093B5019093B601E1
:102DF0008091890290918A02A0918B02B0918C02FD
:102E000089A39AA3ABA3BCA3C0909102D0909202D5
:102E1000E0909302F0909402CDA2DEA2EFA2F8A679
:102E200020918D0230918E0240918F02509190023C
:102E300029A73AA74BA75CA71F921F921F921F9228
:102E400089A09AA0ABA0BCA0CDA0DEA0EFA0F8A462
:102E500009A51AA52BA53CA540E050E060E87FE35A
:102E600089859A850E947D0E0F900F900F900F908C
:102E700069837A838B839C836093AF017093B001E5
:102E80008093B1019093B2011F921F921F921F92E3
:102E90008D809E80AF80B884CD84DE84EF84F888F6
:102EA0000D8D1E8D2F8D38A140E050E060EC70E458
:102EB00089A99AA90E947D0E0F900F900F900F90F4
:102EC0006D837E838F8398876093AB017093AC0191
:102ED0008093AD019093AE011F921F921F921F929B
:102EE00089A09AA0ABA0BCA0CDA0DEA0EFA0F8A4C2
:102EF00009A51AA52BA53CA540E050E060EC70E4C4
:102F000089859A850E947D0E0F900F900F900F90EB
:102F10004B015C016093A7017093A8018093A90104
:102F20009093AA0120E030E0A901C301B2010E9400
:102F3000472218165CF420E030E040E85FE3C3016C
:102F4000B2010E941A1F87FF1BC00AC020E030E0B8
:102F500040E85FEBC301B2010E944722181684F4D7
:102F600020E030E0A901C301B2010E9447227301B1
:102F7000620118165CF0F7FAF094F7F8F09406C0C6
:102F8000C12CD12C30E8E32E3FE3F32EA7019601AC
:102F900060E070E080E89FE30E9499202D813E81EF
:102FA0004F8158850E94801F69877A878B879C870D
:102FB000A3019201C701B6010E94801F9B01AC01D1
:102FC00069857A858B859C850E949A2069877A8796
:102FD0008B879C8720E030E0A90169817A818B8111
:102FE0009C810E94472218168CF420E030E040E8D3
:102FF0005FE369817A818B819C810E941A1F87FF20
:1030000044C4C980DA80EB80FC801BC020E030E043
:1030100040E85FEB69817A818B819C810E94472225
:1030200018164CF4C980DA80EB80FC80F7FAF09433
:10303000F7F8F09406C0C12CD12C20E8E22E2FE343
:10304000F22EA701960160E070E080E89FE30E9405
:103050009920A50194010E94801F4B015C012981E8
:103060003A814B815C81C701B6010E94801F9B01A0
:10307000AC01C501B4010E949A204B015C0120E023
:1030800030E040E05FE3C301B2010E94801F6B01AA
:103090007C0120E030E0A90169817A818B819C81EB
:1030A0000E94472229813A814B815C8118160CF0DD
:1030B0005058C701B6010E94801F9B01AC01698571
:1030C0007A858B859C850E949A206D837E838F8371
:1030D00098876093CF017093D0018093D101909332
:1030E000D20120E030E040E05FE369817A818B81AA
:1030F0009C810E94801F6B017C0120E030E0A901CF
:10310000C301B2010E944722181624F077FA709486
:1031100077F87094A3019201C701B6010E94801F45
:103120009B01AC01C501B4010E949A206D877E8786
:103130008F87988B6093CB017093CC018093CD01E6
:103140009093CE0180907D0290907E02A0907F02AD
:10315000B0908002C0908502D0908602E0908702F5
:10316000F0908802009181021091820220918302E6
:10317000309184024DE34F935CE45F936CEC6F936A
:103180008DEC8F9340E050E060E870E489899A8983
:103190000E947D0E0F900F900F900F909B01AC013D
:1031A000505829873A874B875C872093C701309313
:1031B000C8014093C9015093CA01C12C80ECD82E9C
:1031C00088E4E82E84E4F82E00E010E02AE833E4F6
:1031D00040E050E060EC7FE38D899E890E94A2046C
:1031E00069837A838B839C836093C3017093C4014A
:1031F0008093C5019093C601C12C90ECD92E9FE716
:10320000E92E94E4F92E00E010E020E931E440E0FA
:1032100050E060E87FE3898D9A8D0E94A204698B5B
:103220007A8B8B8B9C8B6093BF017093C0018093D2
:10323000C1019093C20100E010E020E931E440E0D8
:1032400050E060E87FE38B8D9C8D0E94A2046D8B23
:103250007E8B8F8B988F6093BB017093BC018093A2
:10326000BD019093BE01C090A301D090A401E09055
:10327000A501F090A60180909F019090A001A090E0
:10328000A101B090A201A70196016D817E818F817D
:1032900098850E94801F2B013C01A50194016D853A
:1032A0007E858F8598890E94801F9B01AC01C30198
:1032B000B2010E949A202B013C0160939B01709304
:1032C0009C0180939D0190939E016D817E818F81F1
:1032D00098859058A50194010E94801F4B015C01C4
:1032E000A70196016D857E858F8598890E94801F34
:1032F0009B01AC01C501B4010E949A206B017C01C5
:1033000060939701709398018093990190939A012B
:1033100020E030E040E05FE3609193017091940120
:1033200080919501909196010E94801F4B015C0154
:1033300020E030E040E05FE3C301B2010E94801F63
:103340009B01AC01C501B4010E949A202B013C01F4
:1033500060939301709394018093950190939601EB
:1033600020E030E040E05FE360918F0170919001D8
:1033700080919101909192010E94801F4B015C010C
:1033800020E030E040E05FE3C701B6010E94801F0B
:103390009B01AC01C501B4010E949A206B017C0124
:1033A00060938F01709390018093910190939201AB
:1033B00020E030E040E05FE360918B0170918C0190
:1033C00080918D0190918E010E94801F4B015C01C4
:1033D00020E030E040E05FE369857A858B859C855D
:1033E0000E94801F9B01AC01C501B4010E949A207C
:1033F0004B015C0160938B0170938C0180938D0174
:1034000090938E0120E030E040E856E4C301B20121
:103410000E94801F0E94EA217093A2026093A10281
:103420008091BD0281110E94A60220E030E040E8B8
:1034300056E4C701B6010E94801F0E94EA217093E2
:10344000A4026093A3028091BD0281110E94A60292
:1034500020E030E040E856E4C501B4010E94801F3E
:103460000E94EA217093A6026093A5028091BD029A
:1034700081110E94A60220E030E040E05FE360910D
:103480008701709188018091890190918A010E9441
:10349000801F4B015C0120E030E040E856E4698980
:1034A0007A898B899C890E94801F20E030E040E06F
:1034B0005FE30E94801F9B01AC01C501B4010E9423
:1034C0009A204B015C01609387017093880180937F
:1034D000890190938A0120E030E040E05FE3609151
:1034E00083017091840180918501909186010E94F1
:1034F000801F6D837E838F83988720E030E040E8D3
:1035000056E46D897E898F89988D0E94801F20E006
:1035100030E040E05FE30E94801F9B01AC016D81C1
:103520007E818F8198850E949A206D837E838F8310
:1035300098876093830170938401809385019093B1
:103540008601C501B4010E94EA217093A80260932C
:10355000A7028091BD0281110E94A6026D817E8129
:103560008F8198850E94EA217093AA026093A90234
:103570008091BD0281110E94A60220E030E040E867
:1035800056E469817A818B819C810E94801F0E9410
:10359000EA217093AC026093AB028091BD0281116D
:1035A0000E94A60220E030E0A90169817A818B8126
:1035B0009C810E9447221816BCF4809182018111DF
:1035C00082C131E0309382010E94B50DDC01CB0154
:1035D0008C599F4FAF4FBF4F80937E0190937F01D7
:1035E000A0938001B093810120E030E0A9016981BE
:1035F0007A818B819C810E941A1F87FF16C080915F
:103600008201882391F0109282010E94B50DDC01A5
:10361000CB018C599F4FAF4FBF4F80937E0190934A
:103620007F01A0938001B093810180907E019090F2
:103630007F01A0908001B09081010E94B50D21E032
:10364000681579058A059B0508F020E0622F8AE25B
:103650000E946A0526E636E646E65FEB69817A81D6
:103660008B819C810E941A1F682F661F6627661F28
:103670008BE20E946A0511E026E636E646E65FE345
:1036800069817A818B819C810E94472218160CF0F7
:1036900010E0612F8CE20E946A052DEC3CEC4CE4BA
:1036A0005FEB69857A858B859C850E941A1F682F40
:1036B000661F6627661F81E30E946A0511E02DECF4
:1036C0003CEC4CE45FE369857A858B859C850E94A0
:1036D000472218160CF010E0612F82E30E946A0561
:1036E00020E030E0A901C301B2010E944722181670
:1036F0005CF420E030E040E05FE3C301B2010E94EF
:10370000472218164CF10AC020E030E040E05FEBA1
:10371000C301B2010E941A1F87FD1EC020E030E0E5
:10372000A901C701B6010E94472218165CF420E0E7
:1037300030E040E05FE3C701B6010E94472218165F
:103740005CF028C020E030E040E05FEBC701B6014C
:103750000E941A1F87FF1EC0A3019201C701B60174
:103760000E94192121EE3EE245E652E40E94801FAC
:1037700020E030E041EE52E40E949A2060937A010A
:1037800070937B0180937C0190937D010E94EA21DC
:10379000CB0102C08FEF9FEF0E9470056BE070E0DD
:1037A00081E090E00E942D02892B91F56DE070E0A0
:1037B00081E090E00E942D02892B51F56CE070E0D1
:1037C00081E090E00E942D02892B11F56EE070E0FF
:1037D00081E090E00E942D02892BD1F467E070E037
:1037E00082E090E00E942D02892B51F40E94B50DD9
:1037F0006093B7017093B8018093B9019093BA01B7
:103800006DE070E082E090E00E942D02892B21F1B2
:1038100061E170E080E090E00E947B0D40E050E0CC
:10382000452B11F40C9416110E9400000C941611F3
:103830008CE10E9459048BE10E945904109274019A
:103840001092750110927601109277011092790111
:10385000109278010C94FD136FE070E082E090E02C
:103860000E942D0221E0892B09F020E02093000125
:103870006EE070E082E090E00E942D0221E0892B52
:1038800009F020E020930101C3CF20E030E0A9013E
:10389000C501B4010E94801F29813A814B815C815E
:1038A0000E949A204B015C0120E030E040E05FE3A1
:1038B000C301B2010E94801F6B017C0129813A8102
:1038C0004B815C81F6CB20E030E0A90169817A81EF
:1038D0008B819C810E941A1F87FFA7CE94CEEF9206
:1038E000FF920F931F93CF93DF93CDB7DEB7C659E7
:1038F000D1090FB6F894DEBF0FBECDBF1092E8011C
:103900001092E70188EE93E0A0E0B0E08093E90137
:103910009093EA01A093EB01B093EC018FE291E068
:103920009093E6018093E5018FEF9FEF9093F20172
:103930008093F10110923B0210923C0210923D02E2
:1039400010923E0210923F021092400210924102E9
:1039500010924202109243021092440210924502C9
:1039600010924602109247021092480210924902A9
:1039700010924A0282E090E09093F2028093F1026A
:1039800084E090E09093F4028093F30286E090E06C
:103990009093F6028093F50287E090E09093F8020E
:1039A0008093F70288E090E09093FA028093F90206
:1039B0008AE090E09093FC028093FB028BE090E021
:1039C0009093FE028093FD028CE090E090930003C0
:1039D0008093FF0282E190E09093020380930103C1
:1039E00083E190E0909304038093030384E190E0EB
:1039F000909306038093050361E082E00E943F0DEF
:103A000061E08091F3020E943F0D61E08091F50238
:103A10000E943F0D61E08091F7020E943F0D61E03E
:103A20008091F9020E943F0D60E08091F9020E94AE
:103A30000F0D61E08091FB020E943F0D61E08091DB
:103A4000FD020E943F0D61E08091FF020E943F0D48
:103A50001092BC021092BB021092BF021092C402DC
:103A60001092C3028FEF93E09093C6028093C50239
:103A70001092C8021092C7029093CA028093C902A2
:103A80001092CC021092CB029093CE028093CD0282
:103A90001092D0021092CF029093D2028093D10262
:103AA0001092D4021092D3029093D6028093D50242
:103AB0001092D8021092D7029093DA028093D90222
:103AC0001092DC021092DB029093DE028093DD0202
:103AD0001092E0021092DF029093E2028093E102E2
:103AE0001092E4021092E3029093E6028093E502C2
:103AF0001092E8021092E7029093EA028093E902A2
:103B00001092EC021092EB029093EE028093ED0281
:103B100073E07093EF0224E32093BE021092C00280
:103B20008FE38093C1021092C20265E0698391E045
:103B30009A8389E08B83A4E0AC83F1EAFD839E83C2
:103B400035E83F83788769878A8739E13B879C8797
:103B500039E23D872E8735E13F87188A35E2398B78
:103B60009A8B55E75B8B9C8B45E94D8B2E8B35E50E
:103B70003F8B188E35E6398F1A8E31E83B8FE2E0A5
:103B8000EC8F5D8F9E8F4F8FA8A339A37AA36BA371
:103B90009CA38DA39EA366E16FA398A790E899A725
:103BA00096E29AA79FEF9BA79FE79CA75DA790E14E
:103BB0009EA74FA796E098ABF9AB1AAA8BAB90E300
:103BC0009CAB8DAB91E39EAB8FAB92E398AF89AF8B
:103BD00093E39AAF8BAF2CAF8DAF85E38EAF3FAF42
:103BE0002196EFAF219780EC22968FAF22972396F4
:103BF0008FAF239782E490E00E94DC237C0182E473
:103C0000FE013196D70101900D928A95E1F787E088
:103C100090E00E94DC238C01DC0111961C921E9224
:103C20001396FC92EE92129782E490E015969C9384
:103C30008E93149716961C920E940B0EFC01A3857E
:103C4000B485109719F41487038709C08D919C914E
:103C50001197009711F0DC01F9CF0D931C93258586
:103C60003685D80114968D919C911597820F931FDC
:103C7000968785879091BE02892F86958695869531
:103C8000977009F08F5F8093BF021091BF02812F60
:103C900090E00E94DC239093BC028093BB02145FEF
:103CA00081E09091C002911101C080E0810F80936A
:103CB000F0021092A2021092A1021092A40210929D
:103CC000A3021092A6021092A5021092A8021092CE
:103CD000A7021092AA021092A9021092AC021092AE
:103CE000AB021092AE021092AD021092B00210928E
:103CF000AF021092B2021092B1021092B40210926E
:103D0000B3021092B6021092B5028FEF9FEF90931C
:103D1000B8028093B7029093BA028093B90280E010
:103D200090E02091BF0230E0821793074CF4E091BD
:103D3000BB02F091BC02E80FF91F10820196F1CF8F
:103D400080E090ECA3E4B4E4809395029093960213
:103D5000A0939702B093980280E090E0A7EDB3E4BF
:103D60008093990290939A02A0939B02B0939C0235
:103D700080E090EAA7E1B4E480939D0290939E02D4
:103D8000A0939F02B093A00280E090E8A7E4B4E47F
:103D90008093890290938A02A0938B02B0938C0245
:103DA00080E090ECA0E0B4E480938D0290938E02CA
:103DB000A0938F02B093900280E090E2A4E2B4E47A
:103DC0008093910290939202A0939302B0939402F5
:103DD00080E090E0A0EFB2E480937D0290937E02B9
:103DE000A0937F02B093800280E090E0A0E4B3E46F
:103DF0008093810290938202A0938302B093840205
:103E000080E090E0ACE1B3E4809385029093860279
:103E1000A0938702B0938802CA56DF4F0FB6F8947A
:103E2000DEBF0FBECDBFDF91CF911F910F91FF90ED
:103E3000EF9008950E945C1F08F481E00895E894D3
:103E400009C097FB3EF490958095709561957F4FE2
:103E50008F4F9F4F9923A9F0F92F96E9BB27939590
:103E6000F695879577956795B795F111F8CFFAF4A0
:103E7000BB0F11F460FF1BC06F5F7F4F8F4F9F4FD1
:103E800016C0882311F096E911C0772321F09EE82F
:103E9000872F762F05C0662371F096E8862F70E095
:103EA00060E02AF09A95660F771F881FDAF7880F6F
:103EB0009695879597F90895990F0008550FAA0BC5
:103EC000E0E8FEEF16161706E807F907C0F012162D
:103ED0001306E407F50798F0621B730B840B950B30
:103EE00039F40A2661F0232B242B252B21F4089585
:103EF0000A2609F4A140A6958FEF811D811D089522
:103F00000E94931F0C9404200E94F61F38F00E9418
:103F1000FD1F20F0952311F00C94ED1F0C94F31F5E
:103F200011240C9438200E94152070F3959FC1F342
:103F3000950F50E0551F629FF001729FBB27F00D57
:103F4000B11D639FAA27F00DB11DAA1F649F6627AC
:103F5000B00DA11D661F829F2227B00DA11D621FFB
:103F6000739FB00DA11D621F839FA00D611D221FB5
:103F7000749F3327A00D611D231F849F600D211D99
:103F8000822F762F6A2F11249F5750409AF0F1F01C
:103F900088234AF0EE0FFF1FBB1F661F771F881F85
:103FA00091505040A9F79E3F510580F00C94ED1FB1
:103FB0000C9438205F3FE4F3983ED4F386957795D0
:103FC0006795B795F795E7959F5FC1F7FE2B880F2B
:103FD000911D9695879597F9089597F99F6780E8C1
:103FE00070E060E008959FEF80EC089500240A944B
:103FF0001616170618060906089500240A941216C4
:104000001306140605060895092E0394000C11F4F6
:10401000882352F0BB0F40F4BF2B11F460FF04C0A3
:104020006F5F7F4F8F4F9F4F089557FD9058440FFC
:10403000551F59F05F3F71F04795880F97FB991F07
:1040400061F09F3F79F087950895121613061406C4
:10405000551FF2CF4695F1DF08C016161706180651
:10406000991FF1CF86957105610508940895E8942C
:10407000BB2766277727CB0197F90895A1E21A2E6F
:10408000AA1BBB1BFD010DC0AA1FBB1FEE1FFF1FFC
:10409000A217B307E407F50720F0A21BB30BE40B4C
:1040A000F50B661F771F881F991F1A9469F7609593
:1040B0007095809590959B01AC01BD01CF0108954D
:1040C000052E97FB1EF400940E94772057FD07D021
:1040D0000E943E2007FC03D04EF40C9477205095AC
:1040E0004095309521953F4F4F4F5F4F08959095E4
:1040F0008095709561957F4F8F4F9F4F08950E94D7
:104100008A20A59F900DB49F900DA49F800D911DB6
:1041100011240895A29FB001B39FC001A39F700D09
:10412000811D1124911DB29F700D811D1124911DBF
:1041300008955058BB27AA270E94B1200C94042050
:104140000E94F61F38F00E94FD1F20F039F49F3FB7
:1041500019F426F40C94F31F0EF4E095E7FB0C948D
:10416000ED1FE92F0E94152058F3BA176207730755
:104170008407950720F079F4A6F50C9437200EF407
:10418000E0950B2EBA2FA02D0B01B90190010C0167
:10419000CA01A0011124FF27591B99F0593F50F47F
:1041A000503E68F11A16F040A22F232F342F4427D7
:1041B000585FF3CF469537952795A795F0405395CF
:1041C000C9F77EF41F16BA0B620B730B840BBAF09F
:1041D0009150A1F0FF0FBB1F661F771F881FC2F70A
:1041E0000EC0BA0F621F731F841F48F4879577951E
:1041F0006795B795F7959E3F08F0B0CF9395880FD8
:1042000008F09927EE0F9795879508950E94F61F5D
:1042100060F080E891E009F49EEF0E94FD1F28F015
:1042200040E851E071F45EEF0CC00C94F31F0C9465
:104230003720E92FE0780E94152040F3092E052A47
:10424000B1F3261737074807590738F00E2E07F83D
:10425000E02569F0E025E0640AC0EF6307F8009408
:1042600007FADB01B9019D01DC01CA01AD01EF9341
:104270000E948F210E9404200E9449215F915523B2
:1042800039F02BED3FE049E450FD49EC0C949A20C5
:104290000895DF93DD27B92FBF7740E85FE3161657
:1042A000170648075B0718F4D92F0E944C229F93EA
:1042B0008F937F936F930E94A422EAECF0E00E9418
:1042C00020220E9404202F913F914F915F910E94E4
:1042D000931FDD2351F09058A2EA2AED3FE049EC0C
:1042E0005FE3D0785D270E94B120DF910C94042019
:1042F0000E948C210C9404200E94FD1F58F00E9403
:10430000F61F40F029F45F3F29F00C94ED1F511186
:104310000C9438200C94F31F0E94152068F3992305
:10432000B1F3552391F3951B550BBB27AA276217B1
:104330007307840738F09F5F5F4F220F331F441FBE
:10434000AA1FA9F335D00E2E3AF0E0E832D09150F2
:104350005040E695001CCAF72BD0FE2F29D0660FDF
:10436000771F881FBB1F261737074807AB07B0E822
:1043700009F0BB0B802DBF01FF2793585F4F3AF028
:104380009E3F510578F00C94ED1F0C9438205F3F50
:10439000E4F3983ED4F3869577956795B795F795AE
:1043A0009F5FC9F7880F911D9695879597F9089596
:1043B000E1E0660F771F881FBB1F62177307840732
:1043C000BA0720F0621B730B840BBA0BEE1F88F741
:1043D000E09508950E94F1216894B1110C94382061
:1043E00008950E941D2088F09F5798F0B92F9927B3
:1043F000B751B0F0E1F0660F771F881F991F1AF0D0
:10440000BA95C9F714C0B13091F00E943720B1E0DD
:1044100008950C943720672F782F8827B85F39F0DC
:10442000B93FCCF3869577956795B395D9F73EF468
:1044300090958095709561957F4F8F4F9F4F089510
:10444000DF93CF931F930F93FF92EF92DF927B0145
:104450008C01689406C0DA2EEF010E94931FFE01C2
:10446000E894A5912591359145915591A6F3EF01D9
:104470000E94B120FE019701A801DA9469F7DF904C
:10448000EF90FF900F911F91CF91DF9108950E94BF
:104490005C1F08F48FEF08959B01AC0160E070E0B1
:1044A00080E89FE30C947821FA01EE0FFF1F30960D
:1044B00021053105A1F16115710561F48038BFE373
:1044C0009B0749F168949038810561F08038BFEF0F
:1044D0009B0741F099234AF5FF3FE105310521058E
:1044E00019F1E8940894E795D901AA2329F4AB2F90
:1044F000BE2FF85FD0F310C0FF5F70F4A695E0F711
:10450000F73950F019F0FF3A38F49F779F930DD0A8
:104510000F9007FC9058089546F00C94F31F60E04C
:1045200070E080E89FE308954FE79F775F934F9394
:104530003F932F930E9424232F913F914F915F919E
:104540000E94801F0C94B0229B01AC010C94801F30
:1045500029F416F00C94ED1F0C9437200C94F31FE3
:104560000E941D20A8F39638A0F707F80F92E89450
:104570002BE33AEA48EB5FE70E94961F0F920F92F7
:104580000F924DB75EB70F920E946C23E7EFF0E0F9
:104590000E9420224F915F91EF91FF91E595EE1FD0
:1045A000FF1F49F0FE57E0684427EE0F441FFA95BD
:1045B000E1F74195550B0E94E6220F9007FE0C94FF
:1045C0004C2208950C94ED1F0C94A0230E941D20F2
:1045D000D8F39923C9F3940F511DA3F39150504080
:1045E00094F059F0882332F0660F771F881F91509E
:1045F0005040C1F79E3F51052CF7880F911D9695AD
:10460000879597F908955F3FACF0983E9CF0BB27E3
:10461000869577956795B79508F4B1609395C1F73E
:10462000BB0F58F711F460FFE8CF6F5F7F4F8F4FDC
:104630009F4FE3CF0C94382016F00C94A0230C94D9
:10464000F31F68940C94ED1F0E941D20A8F399237A
:10465000C1F3AEF3DF93CF931F930F93FF92C92F54
:10466000DD2788232AF02197660F771F881FDAF746
:1046700020E030E040E85FEB9FE3883920F0803EA7
:1046800038F021968F770E949A20EFE1F1E004C084
:104690000E949A20ECE4F1E00E9420228B01BE01EE
:1046A000EC01FB2E6F5771097595771F880B990BDD
:1046B0000E94211F28E132E741E35FE30E94931F3C
:1046C000AF2D9801AE01FF900F911F91CF91DF9117
:1046D0000E94B1200C940420FA01DC01AA0FBB1F38
:1046E0009B01AC01BF5728F4222733274427507879
:1046F00020C0B75190F4AB2F0024469537952795ED
:10470000011CA395D2F3002071F0220F331F441F28
:10471000B395DAF30ED00C94992061307105A0E8BE
:104720008A07B94630F49B01AC01662777278827B2
:104730009078309621F0208331834283538308950B
:104740009F3F31F0915020F4879577956795B79505
:10475000880F911D9695879597F9089597FB072ED9
:1047600016F4009407D077FD09D00E94C82307FCF7
:1047700005D03EF4909581959F4F08957095619571
:104780007F4F0895EE0FFF1F0590F491E02D0994DF
:10479000AA1BBB1B51E107C0AA1FBB1FA617B70767
:1047A00010F0A61BB70B881F991F5A95A9F7809583
:1047B0009095BC01CD010895CF93DF938230910590
:1047C00010F482E090E0E0914F03F091500320E07C
:1047D00030E0C0E0D0E0309711F1408151814817BE
:1047E0005907C0F04817590761F4828193812097D7
:1047F00019F09B838A832BC09093500380934F03BF
:1048000026C02115310519F04217530718F49A01F3
:10481000BE01DF01EF010280F381E02DDCCF211525
:10482000310509F1281B390B2430310590F412961B
:104830008D919C9113976115710521F0FB01938374
:10484000828304C09093500380934F03FD013296FE
:1048500044C0FD01E20FF31F81939193225031096F
:104860002D933C933AC020914D0330914E03232B5E
:1048700041F4209117013091180130934E03209399
:104880004D0320911501309116012115310541F498
:104890002DB73EB74091190150911A01241B350BD9
:1048A000E0914D03F0914E03E217F307A0F42E1BA5
:1048B0003F0B2817390778F0AC014E5F5F4F241784
:1048C000350748F04E0F5F1F50934E0340934D0342
:1048D0008193919302C0E0E0F0E0CF01DF91CF91AE
:1048E00008950F931F93CF93DF93009709F48CC023
:1048F000FC0132971382128200914F0310915003F2
:104900000115110581F420813181820F931F2091BF
:104910004D0330914E032817390779F5F0934E0374
:10492000E0934D0371C0D80140E050E0AE17BF07DF
:1049300050F412962D913C911397AD01211531053C
:1049400009F1D901F3CF9D01DA013383228360811C
:104950007181860F971F8217930769F4EC012881F4
:104960003981260F371F2E5F3F4F318320838A8185
:104970009B8193838283452B29F4F0935003E0932A
:104980004F0342C01396FC93EE931297ED014991A9
:1049900059919E01240F351FE217F30771F48081AE
:1049A0009181840F951F029611969C938E9382811C
:1049B000938113969C938E931297E0E0F0E0D801D8
:1049C00012968D919C911397009719F0F8018C0124
:1049D000F6CF8D919C9198012E5F3F4F820F931FD0
:1049E00020914D0330914E032817390769F4309711
:1049F00029F41092500310924F0302C013821282C6
:104A000010934E0300934D03DF91CF911F910F91AF
:104A1000089581E090E0F8940C940E25F894FFCF6F
:104A2000010100C18081000000FFFFFFFF00E100E5
:104A3000000000000000005103800000FF010001A1
:104A40000000FFFF0000010001FF00000000001156
:104A50000BFC0B120C270B320B170C350C00000053
:104A600000B20B9E0C5B0CD90B564D4450565F3177
:104A70007C315F564D4450560D0A00564D4450450A
:104A80005F003A323A007C005F564D4450450000CA
:00000001FF
