:100000000C942E010C9456010C9456010C9456013C
:100010000C9456010C9456010C9456010C94560104
:100020000C9456010C9456010C94FB010C9485031E
:100030000C9456010C9456010C9456010C945601E4
:100040000C9456010C9456010C9456010C945601D4
:100050000C9456010C9456010C9456010C940B0F01
:100060000C9456010C9456010C9456010C945601B4
:100070000C9456010C9456010C9456010C945601A4
:100080000C9456010C9456010C9456010C94560194
:100090000C9456010C9456010C9456010C94560184
:1000A0000C9456010C9456010C945601BE0CC10CD4
:1000B000B00CB40CBA0CE20CE20CE20CC50CC90C8E
:1000C000CD0CD30CD70CE20CDD0C07634236B79B8A
:1000D000D8A71A39685618AEBAAB558C1D3CB7CCA8
:1000E0005763BD6DEDFD753EF6177231BF00000020
:1000F000803F08000000BE922449123EABAAAA2A03
:10010000BECDCCCC4C3E00000080BEABAAAAAA3E1D
:1001100000000000BF000000803F00000000000859
:100120004178D3BB4387D1133D190E3CC3BD4282F6
:10013000AD2B3E68EC8276BED98FE1A93E4C80EFB4
:10014000FFBE01C4FF7F3F0000000000080B00025B
:10015000020201000904000001020200000524005F
:1001600010010524010101042402060524060001F2
:100170000705810310004009040100020A00000085
:100180000705020240000007058302400000040347
:10019000090412010002EF020140412336800001F0
:1001A0000102030141726475696E6F204C4C43007B
:1001B00048617276657374655220436F6E74726F16
:1001C0006C204465636B00070605040100080A0BF8
:1001D0000C0D0900000000240027002A002D00302B
:1001E0000000000000250028002B002E0031000038
:1001F0000000002300260029002C002F0004040426
:1002000004040304050202020204030202020206BD
:10021000060606060604040202020404040802019B
:10022000104080401020408040800802040180403F
:100230002010020110801020404020000000020029
:10024000090F0000030401000C0000000000000082
:1002500000000000000000000000C61711241FBEAF
:10026000CFEFDAE0DEBFCDBF12E0A0E0B1E0E4E125
:10027000F0E402C005900D92AA32B107D9F723E04D
:10028000AAE2B2E001C01D92AA35B207E1F711E07F
:10029000CEE2D1E004C02197FE010E94BC1ECD3207
:1002A000D107C9F70E94C70F0C9408200C940000D6
:1002B000409171025091720220916F023091700250
:1002C00042175307B4F49091E8009570E1F39091D0
:1002D000E80092FD19C08093F10080917102909125
:1002E000720201968F739927892B19F48EEF8093F0
:1002F000E8008091710290917202019690937202CF
:100300008093710281E0089580E00895CF92DF929A
:10031000EF92FF920F931F93CF93DF931F92CDB76E
:10032000DEB7182F062FE42E862F880F8E5F998355
:100330000E94580183E00E945801F12EC12E99813C
:10034000D92E8C2D8F19801798F4F601E7FE02C084
:10035000849101C080810E945801182F80E00E9482
:1003600058018123FFEFCF1ADF0A8111EACF01C0C4
:1003700081E00F90DF91CF911F910F91FF90EF904F
:10038000DF90CF900895615030F02091F100FC0192
:1003900020830196F8CF289884E68093740208950C
:1003A000CF92DF92EF92FF920F931F93CF93DF9341
:1003B0006C017A018B01C0E0D0E0CE15DF0589F039
:1003C000D8016D918D01D601ED91FC910190F081E4
:1003D000E02DC6010995892B11F47E0102C02196FA
:1003E000ECCFC701DF91CF911F910F91FF90EF905C
:1003F000DF90CF9008951F920F920FB60F921124A5
:100400008F939F938091E1009091E100937F90936F
:10041000E10083FF0FC01092E90091E09093EB00A0
:100420001092EC0092E39093ED001092750298E028
:100430009093F00082FF20C093E09093E9009091A8
:10044000F200992319F09AE39093E80090917302D7
:10045000992339F0909173029150909373029923EC
:1004600089F190917402992339F09091740291501E
:1004700090937402992341F184FF10C08091E200AF
:100480008E7E81608093E2008091E1008F7E809378
:10049000E100809162028E7E806111C080FF16C0F3
:1004A0008091E2008E7E80618093E2008091E10085
:1004B0008E7E8093E100809162028E7E81608093C7
:1004C000620204C05D9ACDCF289AD6CF9F918F91BA
:1004D0000F900FBE0F901F901895DF92EF92FF9232
:1004E0000F931F93CF93DF93D82E8A017B01E40EE5
:1004F000F51EEB01CE15DF0571F0D7FE03C0FE013E
:10050000849101C088810E94580121968111F2CF07
:100510008FEF9FEF01C0C801DF91CF911F910F9125
:10052000FF90EF90DF9008952FB7F8948770809335
:10053000E9009091E800892F807295FF04C09091A6
:10054000F20080E4891B2FBF08957F928F929F92C3
:10055000AF92BF92CF92DF92EF92FF920F931F93D1
:10056000CF93DF93C82E8B017A01809175028111A0
:1005700003C08FEF9FEF75C08091620280FF05C0BE
:100580008091E00082608093E000CE2DDF2DD12CA1
:100590008AEF882E8C2D8770B82E8C2D8072A82E15
:1005A0008C2D8074982E9AE3792E209709F452C0EE
:1005B0008C2D0E949402282F81110AC08A948820D1
:1005C000C1F261E070E080E090E00E94D10EEDCFDA
:1005D00090E0C817D9070CF42C2F3FB7F894B092CD
:1005E000E9008091E80085FF33C0822F90E0C81BAE
:1005F000D90BAA2029F02150A8F01092F100FBCFCE
:10060000F801C7FE07C0215058F044914093F10013
:100610003196F9CF215020F041914093F100FACF6B
:10062000080F191FDD2019F07092E8000AC08091B0
:10063000E80085FD08C07092E800DD24D39420977F
:1006400039F0D12C05C0209719F491107092E80070
:100650003FBFABCFD110ACCF5D9884E680937302DF
:10066000C701DF91CF911F910F91FF90EF90DF9025
:10067000CF90BF90AF909F908F907F900895809182
:10068000670281110DC082E08093630284E0809351
:100690006402109266021092650281E08093670204
:1006A00083E692E008950F931F93CF93DF931F92F9
:1006B000CDB7DEB782E0898342E450E06CE471E0BC
:1006C00080E80E946D020E943F03DC0112960D91AA
:1006D0001C9113970115110569F0D801ED91FC915A
:1006E0000280F381E02DBE016F5F7F4FC801099545
:1006F00097FF07C089810F90DF91CF911F910F91D4
:100700000895F80100851185E5CF1F920F920FB66D
:100710000F921124CF92DF92EF92FF920F931F93CB
:100720002F933F934F935F936F937F938F939F93F9
:10073000AF93BF93EF93FF93CF93DF93CDB7DEB724
:100740006C97DEBFCDBF1092E9008091E80083FF77
:10075000EDC168E0CE0145960E94C30182EF80930F
:10076000E8008D8987FF05C09091E80090FFFCCFDD
:1007700003C09EEF9093E800982F907609F0C6C0D2
:100780009E892F89188D91110CC0803829F4809191
:1007900061028093F10002C01092F1001092F1000A
:1007A00048C1422F50E0512B913051F4811141C189
:1007B0004130510509F03DC1809161028D7F0BC030
:1007C000933061F4811135C14130510509F031C1D7
:1007D000809161028260809361022BC1953041F467
:1007E0008091E80080FFFCCF20682093E30021C1C6
:1007F000963009F05FC0EB8CFC8C1092E9001092EF
:10080000720210927102123091F5109270021092E1
:100810006F020E94530399E0BE016F5F7F4FDB01BF
:10082000E92F1D92EA95E9F799831A8391E09E8357
:1008300090EA98879AEF998720917102309172021D
:10084000275F3F4F3C832B838D831092E9001092EA
:10085000720210927102F0927002E0926F0249E00F
:1008600050E080E00E946D020E945303E2C0F092CB
:100870007002E0926F020E943F03DC011296ED903D
:10088000FC901397E114F10409F4C0C0D701ED9175
:10089000FC910480F581E02DBE016B5E7F4FC701A6
:1008A0000995009719F00CF0C4C0C7C0F701E084A7
:1008B000F184E8CF973009F4C0C0983021F481E08A
:1008C0008093F100B6C0993009F0B3C0837009F08D
:1008D000B4C0E9E1F1E081E021E036E390819923C1
:1008E00061F08093E9002093EB0091919093EC00EC
:1008F0003093ED008F5F873089F78EE78093EA00B1
:100900001092EA008F898093750293C08B8D9C8D25
:100910001092E9001092720210927102909370028C
:1009200080936F02898D811156C08E899D89913A7D
:1009300059F4813209F081C047E050E063E271E090
:1009400080E00E946D0275C0913209F076C083325A
:1009500089F4888D90E0982F88272F89822BA0E03A
:10096000B0E080931F0190932001A0932101B093E8
:1009700022015FC0803269F48091E80082FFFCCFE1
:1009800067E083E291E00E94C3018BEF8093E8006F
:1009900006C0823209F04DC08F8980932A01809170
:1009A0006002882319F0EEEFFAE002C0E0E0F8E020
:1009B0008091230190912401A0912501B0912601FD
:1009C000803B9440A105B10509F07BC080912A01CC
:1009D00080FF93C076C00E943F03DC0112960D9108
:1009E0001C9113970115110541F1D801ED91FC916E
:1009F0000190F081E02DBE016B5E7F4FC80109952B
:100A0000811117C0F80100851185ECCF113009F470
:100A10004EC0133091F48F89882309F445C0823089
:100A200081F440E866E180EB91E00E948601882332
:100A300021F08EEF8093E80079C081E28093EB0093
:100A400075C0813029F440E86BE084EA91E0EDCF95
:100A5000833099F70E943F03DC011296ED90FC90E1
:100A600013978E010F5F1F4F6801E114F10479F0B5
:100A7000D701ED91FC910680F781E02DB801C70107
:100A80000995080F111DF701E084F184EECFD8011C
:100A90001C92F60101900020E9F73197BF016C1913
:100AA0007D0940E0C601C1CF6EE871E002C062E995
:100AB00071E06115710509F2FB01449150E080E895
:100AC00040CF0FB6F894A89580916000886180931C
:100AD0006000109260000FBEA895EE3F2AE0F2077A
:100AE00039F08091FE0A9091FF0A91838083A1CF13
:100AF0001092FF0A1092FE0A9CCFEE3F8AE0F807A0
:100B000031F0808191819093FF0A8093FE0A87E7FC
:100B100097E7918380839BE088E10FB6F894A895CE
:100B2000809360000FBE9093600083CF6C960FB6E9
:100B3000F894DEBF0FBECDBFDF91CF91FF91EF9153
:100B4000BF91AF919F918F917F916F915F914F91E5
:100B50003F912F911F910F91FF90EF90DF90CF90D9
:100B60000F900FBE0F901F901895AF92BF92CF922B
:100B7000DF92EF92FF920F931F93CF93DF931F9219
:100B8000CDB7DEB7ADB6BEB6809115032DB73EB773
:100B9000281B31090FB6F8943EBF0FBE2DBF8DB78D
:100BA0009EB701966C01E090E402F12C8091E00286
:100BB0009091E102D601FC019F01281B390B2E15F3
:100BC0003F051CF421912D93F7CF8091E5028823F6
:100BD00071F18091DC029091DD0297FD0AC068E618
:100BE00071E00E94A81E6DE270E00E94A81E262FF0
:100BF00001C028E08091DE029091DF0297FD0AC0DB
:100C000068E671E00E94A81E6DE270E00E94A81ED6
:100C1000962F01C098E0F601EE0DFF1D30E1939F85
:100C2000C0011124822B8083C70101967C018601BB
:100C30000E0D1F1D2091EA023091EB024091E80257
:100C40005091E9026091C6027091C7028091E6025C
:100C500081700E94080CE80EF91E86010E0D1F1D02
:100C60002091EE023091EF024091EC025091ED02A2
:100C70006091C8027091C9028091E60286958170E8
:100C80000E94080CE80EF91E86010E0D1F1D209112
:100C9000F2023091F3024091F0025091F102609122
:100CA000CA027091CB028091E60282FB882780F90C
:100CB0000E94080CE80EF91E86010E0D1F1D2091E2
:100CC000F6023091F7024091F4025091F5026091E2
:100CD000CC027091CD028091E60283FB882780F9D7
:100CE0000E94080CE80EF91E86010E0D1F1D2091B2
:100CF000FA023091FB024091F8025091F9026091A2
:100D0000CE027091CF028091E602829581700E949E
:100D1000080CE80EF91E86010E0D1F1D2091FE0223
:100D20003091FF024091FC025091FD026091D0028F
:100D30007091D1028091E60285FB882780F90E949C
:100D4000080CE80EF91E86010E0D1F1D20910203EE
:100D50003091030340910003509101036091D4024C
:100D60007091D5028091E70281700E94A90BE80E74
:100D7000F91E86010E0D1F1D2091060330910703F9
:100D800040910403509105036091D2027091D30207
:100D90008091E702869581700E94A90BE80EF91EEA
:100DA00086010E0D1F1D20910A0330910B03409107
:100DB0000803509109036091D6027091D702809187
:100DC000E70282FB882780F90E94A90BE80EF91E32
:100DD00086010E0D1F1D20910E0330910F034091CF
:100DE0000C0350910D036091D8027091D90280914B
:100DF000E70283FB882780F90E94A90B8E0D9F1DB7
:100E00008601080F191F209112033091130340919E
:100E10001003509111036091DA027091DB0280910E
:100E2000E702829581700E94A90B10911503009131
:100E300014030E94550F7C01098341E050E0BE017C
:100E40006F5F7F4FFC0183810E94A50297FD08C060
:100E5000412F50E0F7018381B60180640E94A50212
:100E60000FB6F894BEBE0FBEADBE0F90DF91CF910E
:100E70001F910F91FF90EF90DF90CF90BF90AF90B8
:100E800008959091E302891700F5982F969596950D
:100E90009695E091E002F091E102E90FF11D282F13
:100EA000277081E090E0A0E0B0E004C0880F991FB7
:100EB000AA1FBB1F2A95D2F7809590818923808332
:100EC0008091E20281110C94B50508959091E3029E
:100ED0008917F8F4982F969596959695E091E002EB
:100EE000F091E102E90FF11D282F277081E090E0D9
:100EF000A0E0B0E004C0880F991FAA1FBB1F2A956D
:100F0000D2F72081822B80838091E20281110C94A0
:100F1000B50508950F931F93CF938C01C62F60E002
:100F200080911E030E94650E0230110531F10330DD
:100F3000110509F440C00130110509F05EC06C2FA5
:100F40006170809116030E94650EC1FB662760F9EF
:100F5000809118030E94650EC2FB662760F980919C
:100F60001A030E94650EC3FB662760F980911C037B
:100F70000E94650E809126033BC06C2F61708091AA
:100F800016030E94650EC1FB662760F98091180365
:100F90000E94650EC2FB662760F980911A030E94C9
:100FA000650EC3FB662760F980911C030E94650EE5
:100FB000809128031DC06C2F6170809116030E94E0
:100FC000650EC1FB662760F9809118030E94650ECB
:100FD000C2FB662760F980911A030E94650EC3FB6D
:100FE000662760F980911C030E94650E80912A0398
:100FF000CF911F910F910C943C0E80E090E0CF9127
:101000001F910F9108954F925F926F927F928F92EE
:101010009F92AF92BF92CF92DF92EF92FF920F9387
:101020001F93CF93DF9300D000D0CDB7DEB74983B5
:101030005A836B837C8348015901BC01990F880B4B
:10104000990B0E94FC1BA50194010E94E01A9B01D0
:10105000AC010E94E11A2B013C01A5019401C701DA
:10106000B6010E94E01A9B01AC01C301B2010E94CB
:10107000521B20E030E040E85FE30E94E01A6B0181
:101080007C0120E030E0A9010E94AC1C181624F07D
:10109000C701B601905802C0C701B60129813A8143
:1010A0004B815C810E941E1D4B015C0120E030E001
:1010B000A901C701B6010E94AC1C18166CF020E013
:1010C00030E0A901C701B6010E944D1B87FD09C090
:1010D00020E030E0A90109C020E030E040E85FE313
:1010E00004C020E030E040E85FEBC501B4010E949D
:1010F000B11C6B017C0120E030E040E85FEB0E9416
:101100004D1B87FD14C020E030E040E85FE3C701DD
:10111000B6010E94AC1C18160CF120E030E0A901C9
:10112000C701B6010E94AC1C18165CF006C0C12CA9
:10113000D12C90E8E92E9FEBF92EC701B60190580B
:1011400002C0C701B60120E030E0A9010E944D1B9A
:1011500087FF0AC0C12CD12C760106C0C12CD12C2E
:1011600080E8E82E8FE3F82EC701B6010F900F90AC
:101170000F900F90DF91CF911F910F91FF90EF9003
:10118000DF90CF90BF90AF909F908F907F906F90A7
:101190005F904F9008954F925F926F927F928F92DF
:1011A0009F92AF92BF92CF92DF92EF92FF920F93F6
:1011B0001F93CF93DF93CDB7DEB728970FB6F89480
:1011C000DEBF0FBECDBF49835A836B837C8328016A
:1011D00039018D829E82AF82B886BC01990F880B3F
:1011E000990B0E94FC1B4B015C01A70196010E9418
:1011F0004D1B882309F4B4C0A7019601C501B401B1
:101200000E944D1B87FF1CC0A3019201C501B401C0
:101210000E94E01A4B015C01A3019201C701B601D3
:101220000E94E01A9B01AC01C501B4010E94521B4F
:1012300020E030E040E85FE30E94E01A4B015C01EF
:10124000A7019601C501B4010E94AC1C1816ECF46C
:10125000A7019601C501B4010E94E01A4B015C018F
:10126000A70196016D817E818F8198850E94E01A89
:101270009B01AC01C501B4010E94521B20E030E08B
:10128000A9010E94E11A4B015C0120E030E0A901B4
:10129000C501B4010E94AC1C181624F0C501B401AC
:1012A000905802C0C501B40129813A814B815C810B
:1012B0000E941E1D6B017C0120E030E0A901C501E8
:1012C000B4010E94AC1C18166CF020E030E0A901BB
:1012D000C501B4010E944D1B87FD09C020E030E02C
:1012E000A90109C020E030E040E85FE304C020E04D
:1012F00030E040E85FEBC701B6010E94B11C6B0112
:101300007C0120E030E040E85FEB0E944D1B87FD50
:1013100014C020E030E040E85FE3C701B6010E945E
:10132000AC1C181614F120E030E0A901C701B60189
:101330000E94AC1C18165CF006C0C12CD12C80E8B1
:10134000E82E8FEBF82EC701B601905802C0C701F6
:10135000B60120E030E0A9010E944D1B87FF0AC0C2
:1013600050E040E030E020E009C050E040E030E8EC
:101370002FE304C05C2D4D2D3E2D2F2D652F742F96
:10138000832F922F28960FB6F894DEBF0FBECDBFE5
:10139000DF91CF911F910F91FF90EF90DF90CF9051
:1013A000BF90AF909F908F907F906F905F904F9085
:1013B0000895611102C00C9441070C946607BC01AA
:1013C000009791F0FC0101900020E9F73197AF01FF
:1013D000481B590BE0917602F09177020280F3816D
:1013E000E02D86E792E0099480E090E008958F92E6
:1013F0009F92AF92BF920F931F93CF93DF93CDB77E
:10140000DEB7A1970FB6F894DEBF0FBECDBF19A20D
:10141000423008F44AE08E010F5D1F4F842E912C5C
:10142000A12CB12CA50194010E94AF1AE62FB9019D
:10143000CA0101501109EA3014F4E05D01C0E95C11
:10144000D801EC93232B242B252B61F7C8010E9494
:10145000DF09A1960FB6F894DEBF0FBECDBFDF91B6
:10146000CF911F910F91BF90AF909F908F90089553
:10147000CF93DF930E94DF09EC018DE691E00E949B
:10148000DF098C0F9D1FDF91CF9108954F925F92DE
:101490006F927F928F929F92AF92BF92CF92DF9284
:1014A000EF92FF926B017C01B42E9B01AC010E9474
:1014B0006E1D882319F08DE192E027C026013701C7
:1014C000E89477F82FEF3FEF4FE75FE7C301B201F2
:1014D0000E946E1D81110DC02FEF3FEF4FE75FE7B8
:1014E000C301B2010E944D1B18161CF481E292E068
:1014F0000CC02FEF3FEF4FE75FE4C701B6010E943A
:10150000AC1C181684F485E292E0FF90EF90DF9017
:10151000CF90BF90AF909F908F907F906F905F9093
:101520004F900C94DF092FEF3FEF4FE75FECC701BF
:10153000B6010E944D1B87FDE6CF20E030E0A901F7
:10154000C701B6010E944D1B87FF11C0E0917602D2
:10155000F09177020190F081E02D6DE286E792E054
:1015600009954C01F7FAF094F7F8F09402C0812C39
:10157000912CA12C60E070E080E09FE3AB1441F07F
:1015800020E030E040E251E40E94521BA394F6CFE9
:101590009B01AC01C701B6010E94E11A2B013C017D
:1015A0000E94CB1B6B017C010E94FA1B9B01AC01CA
:1015B000C301B2010E94E01A2B013C014AE0C701BD
:1015C000B6010E94F7097C01E80CF91CBB2069F008
:1015D000E0917602F09177020190F081E02D6EE2C9
:1015E00086E792E00995E80EF91EDB2CDD2021F15B
:1015F00020E030E040E251E4C301B2010E94B11C9E
:101600002B013C010E94CB1B4B01A12CB12C4AE0C9
:10161000C501B4010E94F709E80EF91EC501B40125
:101620000E94FA1B9B01AC01C301B2010E94E01AA7
:101630002B013C01DA94DACFC701FF90EF90DF90E5
:10164000CF90BF90AF909F908F907F906F905F9062
:101650004F9008951F93CF93DF93182F60E08091F0
:101660001E030E94650E612F6170809116030E9417
:10167000650E11FB662760F9809118030E94650EC4
:1016800012FB662760F980911A030E94650E13FB16
:10169000662760F980911C030E94650EE0912A0381
:1016A000E23108F0E251F0E0E953FE4FE49180911D
:1016B0007B00E3FB992790F9C92F90E0D92F95E0A3
:1016C000CC0FDD1F9A95E1F78F7DC82BC0937B006F
:1016D000E770E064E0937C0080917A0080648093FE
:1016E0007A0080917A0086FDFCCF8091780020916D
:1016F000790090E0922BDF91CF911F910895FC012A
:1017000080917502811103C08FEF9FEF08959FB7FD
:10171000F89482E08093E9002091F20030E0121604
:10172000130614F421E030E02115310559F0289812
:1017300084E6809374028091F10080838091F200AE
:10174000882319F09FBFC90108958BE68093E800B4
:10175000F9CFCF92DF92EF92FF920F931F93CF9327
:10176000DF93D901E801421753071CF0FA01690120
:1017700002C06A01F901882309F43FC09C2D8D2D18
:10178000C616D70614F4962F872F292F382FE21765
:10179000F3070CF49F01A417B50734F4CF01821BA3
:1017A000930B9C012C0D3D1D0D2C000CEE08FF0829
:1017B000C901330FAA0BBB0B9C01AD012C193D09CC
:1017C0004E095F09AEEFBFEF0E94A41A8F01FF0F11
:1017D000220B330BA90198012C193D094E095F0911
:1017E0000E94851ADA01C9018F5F9F47A109B109DB
:1017F0008883998382E090E002C080E090E0DF91EE
:10180000CF911F910F91FF90EF90DF90CF900895AF
:10181000CF92DF92EF92FF920F931F93CF93DF93BC
:10182000D901E801421753071CF0FA01690102C00F
:101830006A01F901882309F43FC09C2D8D2DC6163D
:10184000D70614F4962F872F292F382FE217F30786
:101850000CF49F01A417B50734F4CF01821B930B3E
:101860009C012C0D3D1D0D2C000CEE08FF08C9013C
:10187000330FAA0BBB0B9C01AD012C193D094E097E
:101880005F09AEEFBFEF0E94A41A8F01FF0F220B7A
:10189000330BA90198012C193D094E095F090E94DB
:1018A000851ADA01C9018F5F9F47A109B1098883B1
:1018B000998382E090E002C080E090E0DF91CF91D8
:1018C0001F910F91FF90EF90DF90CF900895CF93ED
:1018D000DF931F92CDB7DEB76983DC01ED91FC91F8
:1018E0000280F381E02D41E050E0BE016F5F7F4F49
:1018F00009950F90DF91CF91089583E08093E900DF
:101900008091F200882319F08AE38093E80008951B
:10191000FC018485958597FD0BC09FB7F89482E004
:101920008093E9008091F2009FBF90E001960895B6
:101930009FB7F89482E08093E9008091F2009FBF06
:1019400090E00895089580E090E0089590E0FC0113
:101950003197EF30F105B0F5EA5AFF4F0C94BC1EF9
:10196000809180008F7703C0809180008F7D80936D
:101970008000089580918000877FF9CF84B58F77AC
:1019800002C084B58F7D84BD0895809190008F77CB
:1019900007C0809190008F7D03C080919000877F69
:1019A0008093900008958091C0008F7703C080914C
:1019B000C0008F7D8093C00008958091C200877F12
:1019C0008093C20008953FB7F8948091520390919C
:1019D0005303A0915403B091550326B5A89B05C0AD
:1019E0002F3F19F00196A11DB11D3FBFBA2FA92F9E
:1019F000982F8827820F911DA11DB11DBC01CD011B
:101A000042E0660F771F881F991F4A95D1F7089506
:101A1000DC01FB0112968C91129790E024813581B4
:101A200082179307D1F491818081813A31F481E06A
:101A3000913091F0933089F411C0813271F49B3070
:101A400021F482811F968C9305C09A3031F48281F3
:101A500050968C9381E00895089580E00895DC010C
:101A6000FB0188E4808389E4818384E482831D967A
:101A70009C911D979F709F5B93831D968D919C9168
:101A80001E9724E0969587952A95E1F78F708F5BD6
:101A9000848385E00895FC0182818F5BFB01808354
:101AA00081E00895CF93DF93EC0180912A01882390
:101AB00031F083E00E94A5021816190634F081E087
:101AC00090E09B838A8380E090E0DF91CF9108953E
:101AD00083E00E94940290E008950F931F93CF93A8
:101AE000DF931F92CDB7DEB78C01FC01848595850D
:101AF00097FF0EC0CE0101960E947F0B019719F44B
:101B0000298130E002C02FEF3FEFF80135872487AD
:101B1000F801848595850F90DF91CF911F910F91EA
:101B20000895CF93DF931F92CDB7DEB7FC01848574
:101B3000958597FD05C02FEF3FEF358724870BC0B4
:101B4000CE0101960E947F0B019719F4898190E0E4
:101B500002C08FEF9FEF0F90DF91CF9108950E9409
:101B60000320EF92FF920F931F93CF93DF93FB011C
:101B70002081213869F52381223251F5DC0112964A
:101B80002C9130E0448155814217530709F58C01AF
:101B9000FC01C385D485E12CF12C209799F04C8170
:101BA0005D816A817B818E81811180E80E946D0256
:101BB0008F3FFFEF9F0779F0E80EF91E0990D8815B
:101BC000C02DEBCF81E0D8011F968C93C70105C0D3
:101BD00080E090E002C08FEF9FEFDF91CF911F91E7
:101BE0000F91FF90EF900895CF93DF93CDB7DEB7BD
:101BF00069970FB6F894DEBF0FBECDBFFC01DB01C5
:101C00008C918F5F8C93BE016F5F7F4F89E1DB0109
:101C10001D928A95E9F729E0298384E08A8391E07F
:101C20009D8383E08E832A8721E22B879C879D8773
:101C30009F8722E2288B27E02B8B25E02C8B8E8B35
:101C400020E430E0388F2F8B998F82818B839585AC
:101C50008685998B8A8B838180688D8B49E150E0E2
:101C600080E00E946D0269960FB6F894DEBF0FBE49
:101C7000CDBFDF91CF910895CF93DF93282F30E030
:101C8000F901E55CFD4F8491F901E45EFD4FD491CB
:101C9000F901E350FE4FC491CC2391F081110E94D1
:101CA000A60CEC2FF0E0EE0FFF1FE151FE4FA591C7
:101CB000B491EC91ED2381E090E021F480E002C04A
:101CC00080E090E0DF91CF9108951F93CF93DF9351
:101CD000282F30E0F901E55CFD4F8491F901E45EC5
:101CE000FD4FD491F901E350FE4FC491CC23C9F0CC
:101CF000162F81110E94A60CEC2FF0E0EE0FFF1FB3
:101D0000EF51FE4FA591B4918FB7F894111105C012
:101D10009C91ED2FE095E92302C0EC91ED2BEC9323
:101D20008FBFDF91CF911F910895CF93DF9390E004
:101D3000FC01E45EFD4F2491FC01E350FE4F8491D1
:101D4000882361F190E0880F991FFC01ED52FE4F4E
:101D5000C591D491FC01EF51FE4FA591B491611151
:101D600009C09FB7F8948881209582238883EC91DD
:101D70002E230BC0623061F49FB7F8943881822F14
:101D8000809583238883EC912E2B2C939FBF06C0D4
:101D90008FB7F894E8812E2B28838FBFDF91CF91E6
:101DA00008958F929F92AF92BF92CF92DF92EF925F
:101DB000FF926B017C010E94E30C4B015C01C1149A
:101DC000D104E104F104F1F00E94E30CDC01CB0149
:101DD00088199909AA09BB09883E9340A105B10554
:101DE00070F321E0C21AD108E108F10888EE880EEC
:101DF00083E0981EA11CB11CC114D104E104F104BC
:101E000019F7DDCFFF90EF90DF90CF90BF90AF90AC
:101E10009F908F9008951F920F920FB60F921124EA
:101E20002F933F938F939F93AF93BF9380912A02F9
:101E300090912B02A0912C02B0912D023091510370
:101E400023E0230F2D3720F40196A11DB11D05C0FD
:101E500026E8230F0296A11DB11D20935103809304
:101E60002A0290932B02A0932C02B0932D02809112
:101E7000520390915303A0915403B09155030196DE
:101E8000A11DB11D8093520390935303A09354035B
:101E9000B0935503BF91AF919F918F913F912F9137
:101EA0000F900FBE0F901F901895809149038111DC
:101EB0006BC081E080933C0380933D0322E433E0D8
:101EC00030933F0320933E0310924103109240034E
:101ED00027E531E03093390320933803109244030F
:101EE00010924303109246031092450380934703D8
:101EF0008093480381EC809342030E943F03FC01DE
:101F0000218180913C0390E0820F911D089724F07D
:101F100081E08093490338C0A281B381109729F4EE
:101F200088E393E0938382830EC018968D919C91F1
:101F30001997009711F0DC01F8CF88E393E0199628
:101F40009C938E931897808180933A03818180932C
:101F50003B03908180913D03890F808380E09091C5
:101F60003C038917A8F6A0913E03B0913F03A80F48
:101F7000B11D9C91A181B0E0A85EBE4F9C93918160
:101F80009F5F91838F5FEBCF88E393E00895CF93BA
:101F9000DF93CDB7DEB7A2970FB6F894DEBF0FBEC2
:101FA000CDBF789484B5826084BD84B5816084BDE2
:101FB00085B5826085BD85B5816085BD80916E00E7
:101FC000816080936E001092810080918100826018
:101FD0008093810080918100816080938100809155
:101FE0008000816080938000809191008260809366
:101FF0009100809191008160809391008091900088
:102000008160809390008091C10084608093C100C2
:102010008091C10082608093C1008091C100816085
:102020008093C1008091C30081608093C300809140
:10203000C00082608093C0008091C2008160809364
:10204000C20080917A00846080937A0080917A0047
:10205000826080937A0080917A00816080937A0018
:1020600080917A00806880937A00109275021092B5
:102070006102109262028091D70081608093D70044
:1020800080EA8093D80089B5806189BD89B5826076
:1020900089BD09B400FEFDCF61E070E080E090E012
:1020A0000E94D10E8091D8008F7C80618093D800EF
:1020B0008091E000807F8093E0008091E1008E7E3F
:1020C0008093E1008DE08093E200559A209AEEEF34
:1020D000FFE7859194918B3F9C4D19F481E08093AB
:1020E000600262E0809126030E94950E60E080917C
:1020F00020030E94650E1092300262E08091280356
:102100000E94950E60E0809122030E94650E10925D
:102110002F0262E080912A030E94950E60E0809178
:1021200024030E94650E10922E0281E08093E20249
:102130000E94B50520E030EC3093E9022093E802DC
:1021400080E090E49093EB028093EA023093ED02FA
:102150002093EC029093EF028093EE023093F10211
:102160002093F0029093F3028093F20230930503E0
:1021700020930403909307038093060310925F0259
:1021800010925E0280915E0290915F02009709F0CA
:10219000A6C463E070E081E090E00E948A0761E0FD
:1021A000892B09F060E080E00E94D90967E070E0C7
:1021B00081E090E00E948A0761E0892B09F060E0ED
:1021C00081E00E94D9096AE070E081E090E00E941D
:1021D0008A0761E0892B09F060E082E00E94D9095A
:1021E0006BE070E081E090E00E948A0761E0892B5B
:1021F00009F060E083E00E94D9096DE070E081E0C1
:1022000090E00E948A0761E0892B09F060E084E099
:102210000E94D90962E070E081E090E00E948A07A4
:1022200061E0892B09F060E085E00E94D90966E051
:1022300070E081E090E00E948A0761E0892B09F05C
:1022400060E086E00E94D90969E070E081E090E0FA
:102250000E948A0761E0892B09F060E087E00E9414
:10226000D9096CE070E081E090E00E948A0761E0AB
:10227000892B09F060E088E00E94D9096EE070E0E7
:1022800081E090E00E948A0761E0892B09F060E01C
:1022900089E00E94D90961E070E081E090E00E944D
:1022A0008A0761E0892B09F060E08AE00E94D90981
:1022B00060E070E081E090E00E948A0761E0892B95
:1022C00009F060E08BE00E94D90965E070E081E0F0
:1022D00090E00E948A0761E0892B09F060E08CE0C1
:1022E0000E94D90964E070E081E090E00E948A07D2
:1022F00061E0892B09F060E08DE00E94D90966E079
:1023000070E082E090E00E948A0761E0892B09F08A
:1023100060E08EE00E94D90968E070E081E090E022
:102320000E948A0761E0892B09F060E08FE00E943B
:10233000D9096FE070E081E090E00E948A0761E0D7
:10234000892B09F060E080E10E94D90960E070E02B
:1023500082E090E00E948A0761E0892B09F060E04A
:1023600081E10E94D90962E070E082E090E00E9481
:102370008A0761E0892B09F060E082E10E94D909B7
:1023800061E070E082E090E00E948A0761E0892BC2
:1023900009F060E083E10E94D9096CE070E082E01E
:1023A00090E00E948A0761E0892B09F060E084E1F7
:1023B0000E94D90963E070E082E090E00E948A0701
:1023C00061E0892B09F060E085E10E94D90964E0B1
:1023D00070E082E090E00E948A0761E0892B09F0BA
:1023E00060E086E10E94D90965E070E082E090E05B
:1023F0000E948A0761E0892B09F060E087E10E9472
:10240000D9096AE070E082E090E00E948A0761E00A
:10241000892B09F060E088E10E94D9096BE070E047
:1024200082E090E00E948A0761E0892B09F060E079
:1024300089E10E94D90967E070E082E090E00E94A3
:102440008A0761E0892B09F060E08AE10E94D909DE
:1024500069E070E082E090E00E948A07F82E68E070
:1024600070E082E090E00E948A07880F991FE82FB1
:10247000EF29E37090913102990F990FE92BE093C6
:102480003102EF70F0E0EF5CFE4FF0808BE11F1443
:102490001CF40E94660708C00E944107FF2021F03B
:1024A0008CE10E94660703C08CE10E94410780E036
:1024B00090E00E942A0B9AA389A381E090E00E94F9
:1024C0002A0B1C0183E090E00E942A0B9E8F8D8FC7
:1024D00087E090E00E942A0B98A38F8F80911401CF
:1024E00090911501A0911601B09117018D839E83E3
:1024F000AF83B8878091100190911101A0911201D2
:10250000B091130189879A87AB87BC8780910C01B2
:1025100090910D01A0910E01B0910F018D879E87C2
:10252000AF87B88B8D809E80AF80B884C984DA84F1
:10253000EB84FC848C019D0140E050E060E87FE387
:1025400089A19AA10E94CB082B013C0160934A0209
:1025500070934B0280934C0290934D02809108013E
:1025600090910901A0910A01B0910B01898B9A8B7E
:10257000AB8BBC8B8091040190910501A091060169
:10258000B09107018D8B9E8BAF8BB88F809100012E
:1025900090910101A0910201B0910301898F9A8F5E
:1025A000AB8FBC8F89889A88AB88BC88CD88DE8841
:1025B000EF88F88C8C019D0140E050E060E87FE3FB
:1025C000C1010E94CB0869837A838B839C836093CB
:1025D00046027093470280934802909349028D808F
:1025E0009E80AF80B884C984DA84EB84FC840D8536
:1025F0001E852F85388940E050E060EC70E489A1A9
:102600009AA10E94CB086D837E838F839887609305
:10261000420270934302809344029093450289885A
:102620009A88AB88BC88CD88DE88EF88F88C098DC5
:102630001A8D2B8D3C8D40E050E060EC70E4C101C0
:102640000E94CB084B015C0160933E0270933F02F5
:10265000809340029093410220E030E0A901C30141
:10266000B2010E94AC1C18165CF420E030E040E897
:102670005FE3C301B2010E944D1B87FF1BC00AC06C
:1026800020E030E040E85FEBC301B2010E94AC1CE7
:10269000181684F420E030E0A901C301B2010E94C1
:1026A000AC1C7301620118165CF0F7FAF094F7F8AD
:1026B000F09406C0C12CD12C30E8E32E3FE3F32E7A
:1026C000A701960160E070E080E89FE30E94E01AB5
:1026D0002D813E814F8158850E94B11C6D837E8380
:1026E0008F839887A3019201C701B6010E94B11C94
:1026F0009B01AC016D817E818F8198850E94E11ADA
:102700006D837E838F83988720E030E0A901698103
:102710007A818B819C810E94AC1C18168CF420E07D
:1027200030E040E85FE369817A818B819C810E947F
:102730004D1B87FF0DC4C980DA80EB80FC801BC075
:1027400020E030E040E85FEB69817A818B819C81F9
:102750000E94AC1C18164CF4C980DA80EB80FC8017
:10276000F7FAF094F7F8F09406C0C12CD12C20E8C9
:10277000E22E2FE3F22EA701960160E070E080E8E0
:102780009FE30E94E01AA50194010E94B11C4B0135
:102790005C0129813A814B815C81C701B6010E94AD
:1027A000B11C9B01AC01C501B4010E94E11A6B018F
:1027B0007C0120E030E040E05FE3C301B2010E9411
:1027C000B11C4B015C0120E030E0A90169817A81F4
:1027D0008B819C810E94AC1C29813A814B815C8158
:1027E00018160CF05058C501B4010E94B11C9B0191
:1027F000AC016D817E818F8198850E94E11A6D8385
:102800007E838F83988760935A0270935B028093D4
:102810005C0290935D0220E030E040E05FE369817C
:102820007A818B819C810E94B11C4B015C0120E06C
:1028300030E0A901C301B2010E94AC1C181624F0BB
:1028400077FA709477F87094A3019201C501B401EE
:102850000E94B11C9B01AC01C701B6010E94E11AA4
:102860004B015C01609356027093570280935802AB
:1028700090935902C12CD12C80EFE82E82E4F82EDF
:1028800000E010E020E433E440E050E060E870E471
:102890008D8D9E8D0E94030869837A838B839C8330
:1028A00060935202709353028093540290935502A6
:1028B000C12C90ECD92E98E4E92E94E4F92E00E096
:1028C00010E02AE833E440E050E060EC7FE38F8DD5
:1028D00098A10E94030869877A878B879C876093F9
:1028E0004E0270934F02809350029093510220E069
:1028F00030E040E05FE360913A0270913B028091EA
:102900003C0290913D020E94B11C6B017C0120E0D1
:1029100030E040E05FE36D817E818F8198850E9489
:10292000B11C9B01AC01C701B6010E94E11A2B0149
:102930003C0160933A0270933B0280933C02909377
:102940003D0220E030E040E05FE3609136027091AC
:10295000370280913802909139020E94B11C6B01BC
:102960007C0120E030E040E05FE3C501B4010E945B
:10297000B11C9B01AC01C701B6010E94E11A4B01D9
:102980005C01609336027093370280933802909313
:10299000390220E030E040E05FE360913202709164
:1029A000330280913402909135020E94B11C6B0178
:1029B0007C0120E030E040E05FE369817A818B8137
:1029C0009C810E94B11C9B01AC01C701B6010E9411
:1029D000E11A6B017C0160933202709333028093A1
:1029E00034029093350220E030E040E856E4C30121
:1029F000B2010E94B11C0E94C41B7093C702609375
:102A0000C6028091E20281110E94B50520E030E00B
:102A100040E856E4C501B4010E94B11C0E94C41BE9
:102A20007093C9026093C8028091E20281110E94F2
:102A3000B50520E030E040E856E4C701B6010E9449
:102A4000B11C0E94C41B7093CB026093CA02809198
:102A5000E20281110E94B50520E030E040E856E432
:102A600069857A858B859C850E94B11C0E94C41B58
:102A70007093D3026093D2028091E20281110E948E
:102A8000B5056BE070E081E090E00E948A07892B39
:102A900009F036C26DE070E081E090E00E948A07A4
:102AA000892B09F02DC26CE070E081E090E00E947B
:102AB0008A07892B09F024C26EE070E081E090E083
:102AC0000E948A07892B09F01BC267E070E082E050
:102AD00090E00E948A07892B09F420C211C281303C
:102AE000910509F0E3C02FB7F89460912A02709124
:102AF0002B0280912C0290912D022FBF28EE33E003
:102B000040E050E00E94AF1A21E0643F714081052F
:102B1000910508F020E0622F80E00E94D90980E052
:102B200090E00E942A0B5C012DEC3CEC4CE45FE34E
:102B30006091100170911101809112019091130127
:102B40000E94B11C6B017C01B501BB0C880B990B79
:102B50000E94FC1B2DEC3CEC4CE45EE30E94B11C9B
:102B60009B01AC01C701B6010E94E11A60931001FC
:102B700070931101809312019093130181E090E012
:102B80000E942A0B5C012DEC3CEC4CE45FE360916D
:102B900004017091050180910601909107010E9446
:102BA000B11C6B017C01B501BB0C880B990B0E9419
:102BB000FC1B2DEC3CEC4CE45EE30E94B11C9B0141
:102BC000AC01C701B6010E94E11A60930401709341
:102BD000050180930601909307018FE591E00E9423
:102BE000DF096091100170911101809112019091A3
:102BF000130142E00E94460A83E691E00E94DF0949
:102C00006091040170910501809106019091070186
:102C100042E00E94460A8DE691E00E94DF0963E0EF
:102C200070E081E090E00E948A07892B09F068C17A
:102C3000E2E0F0E0F0935F02E0935E0280E00E9449
:102C4000410780E791E00E94380A8091100190913D
:102C50001101A0911201B09113018093140190937E
:102C60001501A0931601B093170180930C01909366
:102C70000D01A0930E01B0930F018091040190917A
:102C80000501A0910601B09107018093080190937E
:102C90000901A0930A01B0930B0180930001909366
:102CA0000101A0930201B09303012AC1029709F028
:102CB00027C12FB7F89460912A0270912B0280915E
:102CC0002C0290912D022FBF28EE33E040E050E01F
:102CD0000E94AF1A21E0643F71408105910508F020
:102CE00020E0622F81E00E94D909C0901401D090A9
:102CF0001501E0901601F090170180E090E00E942D
:102D00002A0BBC01990F880B990B0E94FC1B9B019D
:102D1000AC01C701B6010E94AC1C181664F080E03B
:102D200090E00E942A0BBC01990F880B990B0E941E
:102D3000FC1B6B017C01C0921401D0921501E09242
:102D40001601F0921701C0900C01D0900D01E09097
:102D50000E01F0900F0180E090E00E942A0BBC0170
:102D6000990F880B990B0E94FC1B9B01AC01C701BA
:102D7000B6010E944D1B87FD0CC080E090E00E94D0
:102D80002A0BBC01990F880B990B0E94FC1B6B014D
:102D90007C01C0920C01D0920D01E0920E01F092E4
:102DA0000F01C0900801D0900901E0900A01F09055
:102DB0000B0181E090E00E942A0BBC01990F880B67
:102DC000990B0E94FC1B9B01AC01C701B6010E943C
:102DD000AC1C181664F081E090E00E942A0BBC0144
:102DE000990F880B990B0E94FC1B6B017C01C09210
:102DF0000801D0920901E0920A01F0920B01C09003
:102E00000001D0900101E0900201F090030181E007
:102E100090E00E942A0BBC01990F880B990B0E942D
:102E2000FC1B9B01AC01C701B6010E944D1B87FD35
:102E30000CC081E090E00E942A0BBC01990F880B26
:102E4000990B0E94FC1B6B017C01C0920001D09287
:102E50000101E0920201F092030180EB91E00E94F7
:102E6000DF0960910C0170910D0180910E0190912C
:102E70000F0142E00E94460A88EB91E00E94DF09C0
:102E800060911401709115018091160190911701C4
:102E900042E00E94460A84EC91E00E94DF096091C2
:102EA000000170910101809102019091030142E0C3
:102EB0000E94460A82ED91E00E94DF0960910801BC
:102EC0007091090180910A0190910B0142E00E94EA
:102ED000460A8DE691E00E94DF0967E070E081E03C
:102EE00090E00E948A07892B59F410925F02109299
:102EF0005E0280EE91E00E94380A81E00E94410764
:102F000061E170E080E090E00E94D10E20E030E0CE
:102F1000232B09F437C90E94000034C983E00E94C2
:102F2000410784E00E94410788E00E94410789E050
:102F30000E9441078AE10E94410781E090E090935E
:102F40005F0280935E0286EE91E00E94380AD8CF3D
:102F500020E030E0A901C501B4010E94B11C298123
:102F60003A814B815C810E94E11A6B017C0120E077
:102F700030E040E05FE3C301B2010E94B11C4B01AD
:102F80005C0129813A814B815C812DCCBF92CF922B
:102F9000DF92EF92FF920F931F93CF93DF93CDB702
:102FA000DEB7C659D1090FB6F894DEBF0FBECDBF4C
:102FB000109279021092780288EE93E0A0E0B0E0DF
:102FC00080937A0290937B02A0937C02B0937D025F
:102FD00085E491E090937702809376028FEF9FEFE4
:102FE000909383028093820282E090E09093170393
:102FF0008093160384E090E0909319038093180364
:1030000086E090E090931B0380931A0387E090E0A2
:1030100090931D0380931C0388E090E090931F031E
:1030200080931E038AE090E0909321038093200315
:103030008BE090E090932303809322038CE090E058
:10304000909325038093240382E190E090932703DB
:103050008093260383E190E09093290380932803D3
:1030600084E190E090932B0380932A0361E082E057
:103070000E94950E61E0809118030E94950E61E018
:1030800080911A030E94950E61E080911C030E94BA
:10309000950E61E080911E030E94950E60E0809184
:1030A0001E030E94650E61E0809120030E94950E30
:1030B00061E0809122030E94950E61E080912403DB
:1030C0000E94950E1092E1021092E0021092E4022A
:1030D0001092E9021092E8028FEF93E09093EB02D6
:1030E0008093EA021092ED021092EC029093EF02AC
:1030F0008093EE021092F1021092F0029093F3028C
:103100008093F2021092F5021092F4029093F7026B
:103110008093F6021092F9021092F8029093FB024B
:103120008093FA021092FD021092FC029093FF022B
:103130008093FE0210920103109200039093030308
:1031400080930203109205031092040390930703E7
:1031500080930603109209031092080390930B03C7
:1031600080930A0310920D0310920C0390930F03A7
:1031700080930E0310921103109210039093130387
:103180008093120373E07093140330E23093E302F0
:1031900022E02093E502B7E0B093E6022093E70235
:1031A00065E0698381E08A8399E09B83F4E0FC8396
:1031B000E1EAED838E8345E84F83788769879A87B4
:1031C00049E14B878C8749E24D873E8705E10F87B0
:1031D000188A15E2198B8A8B55E75B8B8C8B45E936
:1031E0004D8B3E8B35E53F8B188EA5E6A98F1A8E49
:1031F00031E83B8F2C8F6D8F8E8F9F8F0F2EF9E3D1
:10320000BF2EF02DB8A209A31AA21BA3BCA30F2E98
:10321000F5E3CF2EF02DCDA21EA20F2EF6E4DF2E69
:10322000F02DDFA20F2EFBE3EF2EF02DE8A689A7ED
:10323000AAA70F2EF4E1FF2EF02DFBA65CA7FDA799
:103240004EA78FA738AB29AB9AABBBAA0CAB1DAA74
:103250001EABBFABC8AE19AEDAAEEBAE8CAFADAF46
:10326000FEAE5FAF2196FFAF219722964FAF229718
:1032700023968FAF239724963FAF249725962FAFA1
:10328000259726969FAF269727968FAF2797F6E12B
:10329000FF2E2896FFAE289729968FAF299700E832
:1032A0002A960FAF2A9716E22B961FAF2B97BFEFE8
:1032B0002C96BFAF2C97AFE72D96AFAF2D972E96DC
:1032C0005FAF2E97F0E12F96FFAF2F9760964FAF2D
:1032D000609761967FAF61976296EFAF6297639652
:1032E0001FAE639764969FAF649770E365967FAF58
:1032F000659766969FAF669771E367967FAF67970E
:1033000068969FAF689772E369967FAF69976A96F0
:103310003FAF6A976B962FAF6B9770EC6C967FAF51
:103320006C976D966FAF6D976E962FAF6E976F9689
:10333000FFAE6F97A0968FAFA097A1960FAFA19702
:10334000A2961FAFA297A396BFAFA397A496AFAFC5
:10335000A497A5965FAFA597A696FFAFA697A79649
:103360004FAFA797A8968FAFA897A996EFAFA99749
:10337000AA961FAEAA97AB969FAFAB978BEBAC9676
:103380008FAFAC97AD963FAFAD97AE962FAFAE97E0
:10339000AF967FAFAF97E0967FAFE0978FE690E074
:1033A0000E94D61E7C018FE6FE013196D701019066
:1033B0000D928A95E1F787E090E00E94D61E8C017D
:1033C000DC0111961C921E921396FC92EE921297BB
:1033D0008FE690E015969C938E93149716961C9208
:1033E0000E94550FFC01A385B485109719F414872A
:1033F000038709C08D919C911197009711F0DC0112
:10340000F9CF0D931C9325853685D80114968D919F
:103410009C911597820F931F968785879091E30261
:10342000892F869586958695977009F08F5F809392
:10343000E4021091E402812F90E00E94D61E909346
:10344000E1028093E002185F81E09091E502911122
:1034500001C080E0810F809315031092C702109283
:10346000C6021092C9021092C8021092CB021092AA
:10347000CA021092CD021092CC021092CF0210928A
:10348000CE021092D1021092D0021092D30210926A
:10349000D2021092D5021092D4021092D70210924A
:1034A000D6021092D9021092D8021092DB0210922A
:1034B000DA028FEF9FEF9093DD028093DC0290930E
:1034C000DF028093DE0280E090E02091E40230E0B1
:1034D000821793074CF4E091E002F091E102E80FCB
:1034E000F91F10820196F1CFCA56DF4F0FB6F8943C
:1034F000DEBF0FBECDBFDF91CF911F910F91FF9027
:10350000EF90DF90CF90BF900895052E97FB1EF4AB
:1035100000940E949C1A57FD07D00E94AF1A07FC26
:1035200003D04EF40C949C1A5095409530952195FB
:103530003F4F4F4F5F4F08959095809570956195DF
:103540007F4F8F4F9F4F08950E94D11AA59F900DD6
:10355000B49F900DA49F800D911D11240895A1E2A8
:103560001A2EAA1BBB1BFD010DC0AA1FBB1FEE1FFD
:10357000FF1FA217B307E407F50720F0A21BB30B48
:10358000E40BF50B661F771F881F991F1A9469F7C4
:1035900060957095809590959B01AC01BD01CF0120
:1035A0000895A29FB001B39FC001A39F700D811D1C
:1035B0001124911DB29F700D811D1124911D08953C
:1035C0005058BB27AA270E94F81A0C94721C0E941C
:1035D000641C38F00E946B1C20F039F49F3F19F4F2
:1035E00026F40C94611C0EF4E095E7FB0C945B1C34
:1035F000E92F0E94831C58F3BA17620773078407E8
:10360000950720F079F4A6F50C94A51C0EF4E0952E
:103610000B2EBA2FA02D0B01B90190010C01CA018C
:10362000A0011124FF27591B99F0593F50F4503E37
:1036300068F11A16F040A22F232F342F4427585F29
:10364000F3CF469537952795A795F0405395C9F741
:103650007EF41F16BA0B620B730B840BBAF09150F9
:10366000A1F0FF0FBB1F661F771F881FC2F70EC098
:10367000BA0F621F731F841F48F48795779567956B
:10368000B795F7959E3F08F0B0CF9395880F08F057
:103690009927EE0F9795879508950E94371C08F497
:1036A00081E008950E94661B0C94721C0E946B1CA2
:1036B00058F00E94641C40F029F45F3F29F00C94FC
:1036C0005B1C51110C94A61C0C94611C0E94831C61
:1036D00068F39923B1F3552391F3951B550BBB2741
:1036E000AA2762177307840738F09F5F5F4F220F86
:1036F000331F441FAA1FA9F335D00E2E3AF0E0E87D
:1037000032D091505040E695001CCAF72BD0FE2FC6
:1037100029D0660F771F881FBB1F2617370748075A
:10372000AB07B0E809F0BB0B802DBF01FF27935812
:103730005F4F3AF09E3F510578F00C945B1C0C945F
:10374000A61C5F3FE4F3983ED4F386957795679582
:10375000B795F7959F5FC9F7880F911D9695879547
:1037600097F90895E1E0660F771F881FBB1F621766
:1037700073078407BA0720F0621B730B840BBA0B24
:10378000EE1F88F7E09508950E94CB1B6894B11155
:103790000C94A61C08950E948B1C88F09F5798F0EB
:1037A000B92F9927B751B0F0E1F0660F771F881F46
:1037B000991F1AF0BA95C9F714C0B13091F00E9460
:1037C000A51CB1E008950C94A51C672F782F8827BD
:1037D000B85F39F0B93FCCF3869577956795B39587
:1037E000D9F73EF490958095709561957F4F8F4FF6
:1037F0009F4F0895E89409C097FB3EF490958095FB
:10380000709561957F4F8F4F9F4F9923A9F0F92FA6
:1038100096E9BB279395F695879577956795B79524
:10382000F111F8CFFAF4BB0F11F460FF1BC06F5F0A
:103830007F4F8F4F9F4F16C0882311F096E911C01C
:10384000772321F09EE8872F762F05C0662371F03D
:1038500096E8862F70E060E02AF09A95660F771F51
:10386000881FDAF7880F9695879597F90895990F2D
:103870000008550FAA0BE0E8FEEF16161706E8073A
:10388000F907C0F012161306E407F50798F0621B5B
:10389000730B840B950B39F40A2661F0232B242B30
:1038A000252B21F408950A2609F4A140A6958FEF4F
:1038B000811D811D089597F99F6780E870E060E0A1
:1038C00008959FEF80EC089500240A9416161706B9
:1038D00018060906089500240A9412161306140601
:1038E00005060895092E0394000C11F4882352F064
:1038F000BB0F40F4BF2B11F460FF04C06F5F7F4F1C
:103900008F4F9F4F089557FD9058440F551F59F002
:103910005F3F71F04795880F97FB991F61F09F3FBC
:1039200079F087950895121613061406551FF2CFE5
:103930004695F1DF08C0161617061806991FF1CF35
:1039400086957105610508940895E894BB2766275C
:103950007727CB0197F908950E94371C08F48FEF61
:1039600008950E94C41C0C94721C0E94641C38F0C0
:103970000E946B1C20F0952311F00C945B1C0C949E
:10398000611C11240C94A61C0E94831C70F3959F4B
:10399000C1F3950F50E0551F629FF001729FBB2746
:1039A000F00DB11D639FAA27F00DB11DAA1F649FE2
:1039B0006627B00DA11D661F829F2227B00DA11D95
:1039C000621F739FB00DA11D621F839FA00D611D1B
:1039D000221F749F3327A00D611D231F849F600D3C
:1039E000211D822F762F6A2F11249F5750409AF065
:1039F000F1F088234AF0EE0FFF1FBB1F661F771FF1
:103A0000881F91505040A9F79E3F510580F00C94BB
:103A10005B1C0C94A61C5F3FE4F3983ED4F38695A0
:103A200077956795B795F795E7959F5FC1F7FE2B5B
:103A3000880F911D9695879597F90895FA01EE0FD5
:103A4000FF1F309621053105A1F16115710561F463
:103A50008038BFE39B0749F168949038810561F095
:103A60008038BFEF9B0741F099234AF5FF3FE105FE
:103A70003105210519F1E8940894E795D901AA23A5
:103A800029F4AB2FBE2FF85FD0F310C0FF5F70F4A6
:103A9000A695E0F7F73950F019F0FF3A38F49F7720
:103AA0009F930DD00F9007FC9058089546F00C940A
:103AB000611C60E070E080E89FE308954FE79F7726
:103AC0005F934F933F932F930E941E1E2F913F9120
:103AD0004F915F910E94B11C0C947B1D0E94371C7A
:103AE000880B990B089529F416F00C945B1C0C9428
:103AF000A51C0C94611C0E948B1CA8F39638A0F79F
:103B000007F80F92E8942BE33AEA48EB5FE70E944C
:103B1000C71C0F920F920F924DB75EB70F920E9483
:103B2000661EEAECF0E00E94AD1D4F915F91EF91AF
:103B3000FF91E595EE1FFF1F49F0FE57E06844270F
:103B4000EE0F441FFA95E1F74195550B0E94E01DD9
:103B50000F9007FE0C94D41D0895DF93CF931F930D
:103B60000F93FF92EF92DF927B018C01689406C065
:103B7000DA2EEF010E94C41CFE01E894A591259164
:103B8000359145915591A6F3EF010E94F81AFE0177
:103B90009701A801DA9469F7DF90EF90FF900F91F9
:103BA0001F91CF91DF9108959B01AC0160E070E01F
:103BB00080E89FE30C94521B0C945B1C0C949A1E9F
:103BC0000E948B1CD8F39923C9F3940F511DA3F3C2
:103BD0009150504094F059F0882332F0660F771FCF
:103BE000881F91505040C1F79E3F51052CF7880F18
:103BF000911D9695879597F908955F3FACF0983E93
:103C00009CF0BB27869577956795B79508F4B160CA
:103C10009395C1F7BB0F58F711F460FFE8CF6F5FC2
:103C20007F4F8F4F9F4FE3CF0C94A61C16F00C9440
:103C30009A1E0C94611C68940C945B1C0E948B1C53
:103C4000A8F39923C1F3AEF3DF93CF931F930F93A0
:103C5000FF92C92FDD2788232AF02197660F771F4F
:103C6000881FDAF720E030E040E85FEB9FE3883917
:103C700020F0803E38F021968F770E94E11AE2EF23
:103C8000F0E004C00E94E11AEFE1F1E00E94AD1DF6
:103C90008B01BE01EC01FB2E6F5771097595771FE3
:103CA000880B990B0E94FC1B28E132E741E35FE39C
:103CB0000E94C41CAF2D9801AE01FF900F911F917F
:103CC000CF91DF910E94F81A0C94721CFA01DC016A
:103CD000AA0FBB1F9B01AC01BF5728F42227332733
:103CE0004427507820C0B75190F4AB2F002446955C
:103CF00037952795011CA395D2F3002071F0220F70
:103D0000331F441FB395DAF30ED00C94E01A6130E0
:103D10007105A0E88A07B94630F49B01AC0166271B
:103D2000772788279078309621F02083318342834B
:103D3000538308959F3F31F0915020F487957795F4
:103D40006795B795880F911D9695879597F9089572
:103D500097FB072E16F4009407D077FD09D00E9438
:103D6000C21E07FC05D03EF4909581959F4F0895A3
:103D7000709561957F4F0895EE0FFF1F0590F491A8
:103D8000E02D0994AA1BBB1B51E107C0AA1FBB1F52
:103D9000A617B70710F0A61BB70B881F991F5A95D7
:103DA000A9F780959095BC01CD010895CF93DF933D
:103DB0008230910510F482E090E0E0915803F09198
:103DC000590320E030E0C0E0D0E0309711F14081AD
:103DD000518148175907C0F04817590761F482818B
:103DE0009381209719F09B838A832BC0909359036A
:103DF0008093580326C02115310519F04217530747
:103E000018F49A01BE01DF01EF010280F381E02D79
:103E1000DCCF2115310509F1281B390B2430310580
:103E200090F412968D919C9113976115710521F074
:103E3000FB019383828304C09093590380935803BA
:103E4000FD01329644C0FD01E20FF31F819391936F
:103E5000225031092D933C933AC020915603309162
:103E60005703232B41F420912D0130912E013093E3
:103E700057032093560320912B0130912C012115DB
:103E8000310541F42DB73EB740912F0150913001DB
:103E9000241B350BE0915603F0915703E217F3070B
:103EA000A0F42E1B3F0B2817390778F0AC014E5FAA
:103EB0005F4F2417350748F04E0F5F1F509357038D
:103EC000409356038193919302C0E0E0F0E0CF016C
:103ED000DF91CF9108950F931F93CF93DF930097B6
:103EE00009F48CC0FC0132971382128200915803AE
:103EF000109159030115110581F420813181820F40
:103F0000931F20915603309157032817390779F5ED
:103F1000F0935703E093560371C0D80140E050E09E
:103F2000AE17BF0750F412962D913C911397AD0137
:103F30002115310509F1D901F3CF9D01DA01338350
:103F4000228360817181860F971F8217930769F41E
:103F5000EC0128813981260F371F2E5F3F4F3183B7
:103F600020838A819B8193838283452B29F4F0935C
:103F70005903E093580342C01396FC93EE931297B3
:103F8000ED01499159919E01240F351FE217F30766
:103F900071F480819181840F951F029611969C93F4
:103FA0008E938281938113969C938E931297E0E077
:103FB000F0E0D80112968D919C911397009719F01B
:103FC000F8018C01F6CF8D919C9198012E5F3F4FA7
:103FD000820F931F209156033091570328173907FA
:103FE00069F4309729F4109259031092580302C0D3
:103FF000138212821093570300935603DF91CF91DF
:104000001F910F91089581E090E0F8940C9408209E
:04401000F894FFCF52
:1040140000C0004400202444008047440000D743EB
:1040240000A0174400C0434400C18081000000FF89
:10403400FFFFFF00E100000000000000005A0380C1
:104044000000FF0100010000FFFF0000010001FF6C
:104054000000000000670C520D680D7D0C880C9167
:104064000D6D0D00000000080DF40DB10D2F0D585D
:104074003A2000202020202020593A20000D0A0058
:1040840043616C6962726174696E672E2E2E204DD5
:104094006F766520537469636B20746F2066696E54
:1040A4006420585920657874656E747320616E6459
:1040B40020507265737320427574746F6E203200E1
:1040C40058204D696E3A20002020202058204D6150
:1040D400783A200020202020202059204D696E3A73
:1040E400200020202020202059204D61783A2000F3
:1040F400446F6E65210043616C6962726174696E1C
:10410400672E2E2E204C6561766520537469636B8F
:104114002043656E746572656420616E642050721C
:1041240065737320427574746F6E2031006E616E16
:0A41340000696E66006F76660000F9
:00000001FF
