:100000000C948B010C94B3010C94B3010C94B301C8
:100010000C94B3010C94B3010C94B3010C94B30190
:100020000C94B3010C94B3010C947F0D0C94EE0D61
:100030000C94B3010C94B3010C94B3010C94B30170
:100040000C94B3010C94B3010C94B3010C94B30160
:100050000C94B3010C94B3010C94B3010C942010D4
:100060000C94B3010C94B3010C94B3010C94B30140
:100070000C94B3010C94B3010C94B3010C94B30130
:100080000C94B3010C94B3010C94B3010C94B30120
:100090000C94B3010C94B3010C94B3010C94B30110
:1000A0000C94B3010C94B3010C94B301084AD73BF0
:1000B0003BCE016E84BCBFFDC12F3D6C74319ABD37
:1000C00056833DDA3D00C77F11BED9E4BB4C3E915B
:1000D0006BAAAABE000000803F07634236B79BD8D8
:1000E000A71A39685618AEBAAB558C1D3CB7CC5719
:1000F00063BD6DEDFD753EF6177231BF00000080E7
:100100003F08000000BE922449123EABAAAA2ABEB4
:10011000CDCCCC4C3E00000080BEABAAAAAA3E00CB
:10012000000000BF000000803F0000000000084108
:1001300078D3BB4387D1133D190E3CC3BD4282AD7A
:100140002B3E68EC8276BED98FE1A93E4C80EFFF52
:10015000BE01C4FF7F3F000000000000000000005F
:10016000000000002A2B2800000000000000000012
:100170000000000000000000000000002C9EB4A061
:10018000A1A2A434A6A7A5AE362D3738271E1F205E
:10019000212223242526B333B62EB7B89F84858623
:1001A0008788898A8B8C8D8E8F9091929394959667
:1001B0009798999A9B9C9D2F3130A3AD35040506E5
:1001C0000708090A0B0C0D0E0F1011121314151647
:1001D0001718191A1B1C1DAFB1B0B50000000000A4
:1001E000240027002A002D00300000000000250018
:1001F00028002B002E003100000000002300260004
:1002000029002C002F000404040404030405020246
:10021000020204030202020206060606060604049F
:100220000202020404040802011040804010204031
:1002300080408008020401804020100201108010DC
:10024000204040200000000200090F0000030401CC
:10025000000C000000000000000000000000000092
:10026000000000080B000202020000090400000167
:1002700002020000052400100105240101010424EC
:100280000206052406000107058103100040090449
:100290000100020A000000070502024000000705F5
:1002A00083024000000403090412010002EF02016E
:1002B00040412336800001010203014172647569E7
:1002C0006E6F204C4C430041726475696E6F204C18
:1002D000656F6E6172646F00070605040100080A0D
:1002E0000B0C0D0905010906A1018502050719E09E
:1002F00029E715002501750195088102950175080A
:1003000081039506750815002573050719002973E3
:100310008100C0006A1011241FBECFEFDAE0DEBFFB
:10032000CDBF11E0A0E0B1E0E0ECF9E402C005903F
:100330000D92AE37B107D9F723E0AEE7B1E001C0C7
:100340001D92A736B207E1F711E0CBE8D1E004C077
:100350002197FE010E949623CA38D107C9F70E944F
:1003600088130C94DE240C940000CF92DF92EF925D
:10037000FF920F931F93CF93DF93D901E8016A0196
:10038000F9014217530714F06901FA018823D1F1EA
:10039000CB016C157D050CF4C6019F018E179F07DC
:1003A0000CF49C01A417B50734F4CF01821B930B06
:1003B0009C012C0D3D1D0D2C000CEE08FF08032E9A
:1003C000000C440B550B2C193D094E095F09AFEF8A
:1003D000BFE70E9453209F01FF0F440B550B2C19C0
:1003E0003D094E095F090E9434202883398382E049
:1003F00090E0DF91CF911F910F91FF90EF90DF90F0
:10040000CF90089590E080E0F4CFFC01809103024A
:10041000882311F13FB7F89482E08093E90020919E
:10042000F200822F90E01816190614F481E090E093
:10043000882339F0289844E6409302024091F10065
:100440004083222339F02091F200211103C02BE6D2
:100450002093E8003FBF08958FEF9FEF08954091EC
:10046000FA015091FB012091F8013091F9014217F6
:100470005307B4F49091E8009570E1F39091E8008F
:1004800092FD19C08093F1008091FA019091FB01D7
:1004900001968F739927892B19F48EEF8093E800CA
:1004A0008091FA019091FB0101969093FB0180935A
:1004B000FA0181E0089580E00895EF92FF920F9392
:1004C0001F93CF93DF93F82E192FE62E042F81E090
:1004D000860F880F0E942F0283E00E942F02CF2DEB
:1004E000D12FEC0EFD2EF11CCE15DF05B9F007FF64
:1004F00013C0FE0184910E942F02182F80E00E94F9
:100500002F02812321968111EFCFDF91CF911F918F
:100510000F91FF90EF9008958881EDCF81E0F5CFA6
:10052000DF92EF92FF920F931F93CF93DF93D82E1A
:100530008A01EB017B01E40EF51ECE15DF0559F0B3
:10054000D7FE12C0FE0184910E942F0221968111D4
:10055000F4CF0FEF1FEFC801DF91CF911F910F91E3
:10056000FF90EF90DF9008958881EECF2FB7F89439
:1005700087708093E9009091E800892F807295FF41
:1005800004C09091F20080E4891B2FBF0895615050
:1005900030F02091F100FC0120830196F8CF2898DB
:1005A00084E68093020208958091F00181110DC0CC
:1005B00082E08093EC0184E08093ED011092EF01E2
:1005C0001092EE0181E08093F0018CEE91E00895AD
:1005D0000F931F93CF93DF931F92CDB7DEB782E0C7
:1005E000898342E450E063E672E080E80E94900272
:1005F0000E94D402DC0112960D911C910115110587
:1006000089F0D801ED91FC910280F381E02DBE01CB
:100610006F5F7F4FC801099597FD04C0F801008501
:100620001185ECCF89810F90DF91CF911F910F91B0
:100630000895CF93DF93FC01DB01818114963C91F7
:100640001497682F630F7727771F683071059CF523
:10065000C281D381209739F5B383A283908112960A
:100660009C93129713968C93139715968C911597CC
:10067000890F808390E080E0831708F52181C22FE5
:10068000D0E0BE016A5F7E4F16964D915C91179740
:10069000480F591FEA014881EB0148832F5F2183EE
:1006A0000196EACFEA014885598541155105D1F7F0
:1006B000B987A887D3CF80E0DF91CF91089581E0FB
:1006C000FBCFCF93DF931F92CDB7DEB76983DC01F9
:1006D000ED91FC910280F381E02D41E050E0BE01FC
:1006E0006F5F7F4F09950F90DF91CF91089583E061
:1006F0008093E9008091F200882319F08AE38093C7
:10070000E800089583E00E94B60290E00895CF9338
:10071000DF931F92CDB7DEB7FC018485958597FDE9
:1007200008C02FEF3FEF358724870F90DF91CF91DF
:100730000895CE0101960E940502019719F489815E
:1007400090E0F3CF8FEF9FEFF0CF0F931F93CF93F6
:10075000DF931F92CDB7DEB78C01FC0184859585B0
:1007600097FF0BC0CE0101960E940502019771F41C
:10077000898190E0F80195878487F80184859585C3
:100780000F90DF91CF911F910F9108958FEF9FEF01
:10079000F1CFFC018485958597FD0BC09FB7F89438
:1007A00082E08093E9008091F2009FBF90E0019683
:1007B00008959FB7F89482E08093E9008091F20059
:1007C0009FBF90E0089581508F3008F047C0E82F18
:1007D000F0E0E351FC4F0C9496230A040E04FC0352
:1007E000020406042E042E042E04110417041B0414
:1007F0001F0425042E042904809180008F778093A4
:1008000080000895809180008F7DF9CF80918000D5
:10081000877FF5CF84B58F7784BD089584B58F7DAC
:10082000FBCF809190008F77809390000895809106
:1008300090008F7DF9CF80919000877FF5CF8091D8
:10084000C0008F778093C00008958091C0008F7D95
:10085000F9CF8091C200877F8093C2000895CF9323
:10086000DF93282F30E0F901EC5BFD4F8491F90113
:10087000EB5DFD4FD491F901EA5FFD4FC491CC23AC
:10088000A1F081110E94E303EC2FF0E0EE0FFF1FB7
:10089000E850FE4FA591B491EC91ED2381E090E0FA
:1008A00009F480E0DF91CF91089580E090E0FACFE5
:1008B0001F93CF93DF93282F30E0F901EC5BFD4FBE
:1008C0008491F901EB5DFD4FD491F901EA5FFD4F91
:1008D000C491CC23A9F0162F81110E94E303EC2FC1
:1008E000F0E0EE0FFF1FE651FE4FA591B4918FB7D8
:1008F000F894EC91111108C0D095DE23DC938FBFE2
:10090000DF91CF911F910895DE2BF8CFEF92FF92E8
:100910000F931F93CF93DF937C01EB0160E08091F5
:1009200049030E9458046C2F61708E01159507953C
:100930000170CE019595879595958795182F117023
:1009400033E0D595C7953A95E1F782E0E816F104D2
:10095000E9F0809141030E945804602F8091430385
:100960000E945804612F809145030E9458046C2F07
:10097000809147030E94580480915103DF91CF91E9
:100980001F910F91FF90EF900C942F0480914103E1
:100990000E945804602F809143030E945804612FE5
:1009A000809145030E9458046C2F809147030E9458
:1009B000580480915303E2CFCF93DF9390E0FC0182
:1009C000EB5DFD4F24918A5F9D4FFC01849188234C
:1009D000C9F090E0880F991FFC01E452FE4FA591E9
:1009E000B491FC01E651FE4FC591D49161110DC047
:1009F0009FB7F8948C91209582238C93888128232B
:100A000028839FBFDF91CF910895623051F49FB743
:100A1000F8943C91822F809583238C93E8812E2B30
:100A2000EFCF8FB7F894EC912E2B2C938FBFEACF9A
:100A30003FB7F89480919C0190919D01A0919E01F7
:100A4000B0919F0126B5A89B05C02F3F19F00196D4
:100A5000A11DB11D3FBFBA2FA92F982F8827BC0118
:100A6000CD01620F711D811D911D42E0660F771F40
:100A7000881F991F4A95D1F708958F929F92AF9240
:100A8000BF92CF92DF92EF92FF926B017C010E94A6
:100A900018054B015C01C114D104E104F104B9F063
:100AA0000E941805681979098A099B09683E7340F4
:100AB0008105910580F321E0C21AD108E108F1080F
:100AC00088EE880E83E0981EA11CB11CE4CFFF9035
:100AD000EF90DF90CF90BF90AF909F908F90089550
:100AE0007F928F929F92AF92BF92CF92DF92EF92BE
:100AF000FF920F931F93CF93DF93C82E8B017A0140
:100B000080910302811110C08FEF9FEFDF91CF9191
:100B10001F910F91FF90EF90DF90CF90BF90AF901B
:100B20009F908F907F9008958091FE0180FF05C077
:100B30008091E00082608093E000CE2DDF2DD12CEB
:100B40008AEFB82E8C2D8770982E8C2D8072882E6F
:100B50008C2D8074782E9AE3A92E209719F4DD202D
:100B600009F452C08C2D0E94B60281110AC0BA94B9
:100B7000BB2051F261E070E080E090E00E943D0512
:100B8000ECCF8C171D0611F00CF08C2F9FB7F8944A
:100B90009092E9002091E80025FD02C09FBFDDCFC3
:100BA000282F30E0C21BD30B882029F08150A0F001
:100BB0001092F100FBCFF801C7FC0AC0815050F041
:100BC00041914093F100FACF44914093F100319666
:100BD0008150D0F7020F131FDD2021F0A092E80012
:100BE000D12CDCCF8091E80085FD07C0A092E80001
:100BF000DD24D394209791F2F3CF209779F67720D4
:100C000069F2A092E800CACF5D9884E68093FF0164
:100C1000C7017CCFEF92FF921F93CF93DF931F9278
:100C2000CDB7DEB77C018091650281112CC011E047
:100C300010935802109359028EE592E090935B0254
:100C400080935A0210925D0210925C0281E591E05D
:100C500090935502809354021092600210925F02AA
:100C60001092620210926102109363021093640268
:100C700081EC80935E020E94D40264E572E00E94DF
:100C800019031093650282E0898341E050E0BE01C0
:100C90006F5F7F4F809157020E94700597FD08C0DB
:100CA0008091570248E050E0B70180640E947005CF
:100CB0000F90DF91CF911F91FF90EF900895CF9308
:100CC000DF93EC0180911801882331F083E00E94CA
:100CD00070051816190634F081E090E09B838A8332
:100CE00080E090E0DF91CF9108952FB7F894609164
:100CF00098017091990180919A0190919B012FBF69
:100D00000895DC01FB0191818081813A31F49D7F5E
:100D100081E0913009F080E008958132E1F79B3065
:100D200029F482811F968C9381E008959A3099F777
:100D3000828150968C93F8CFFC014281FB01248183
:100D400035814217130611F40C94810680E0089552
:100D5000DC01FB0188E4808389E4818384E482836D
:100D60001D969C911D979F709F5B93831D968D91FF
:100D70009C9124E0969587952A95E1F78F708F5B7B
:100D8000848385E00895EF92FF920F931F93CF9392
:100D9000DF93FB012081213871F52381223259F53F
:100DA000DC0112964C91248135814217130619F506
:100DB000EC010B851C85F12CE12C0115110589F046
:100DC000F801448155816281738180E80E9490021C
:100DD0008F3F980749F0E80EF91ED8010D911C913C
:100DE000ECCF81E08F87C701DF91CF911F910F91E9
:100DF000FF90EF90089590E080E0F6CFCF93DF93DF
:100E0000CDB7DEB769970FB6F894DEBF0FBECDBF82
:100E1000FC01DB018C918F5F8C939E012D5F3F4F16
:100E20008DE0D9011D928A95E9F729E0298384E0B4
:100E30008A8391E09D8383E08E832A8721E22B873A
:100E40009C879D879F8722E2288B27E02B8B25E0BC
:100E50002C8B8E8B20E430E0388F2F8B998F828102
:100E60008B8395858685998B8A8B838180688D8B12
:100E700049E150E0BE016F5F7F4F80E00E94900229
:100E800069960FB6F894DEBF0FBECDBFDF91CF914C
:100E90000895CF92DF92EF92FF920F931F93CF931B
:100EA000DF936C01EB017B01E40EF51E10E000E026
:100EB000CE15DF0581F069916D30D1F3D601ED914A
:100EC000FC910190F081E02DC6010995892B19F064
:100ED0000F5F1F4FEDCFC801DF91CF911F910F9191
:100EE000FF90EF90DF90CF900895DC016838A0F07C
:100EF0006858FD0186E0662321F09681961301C0B3
:100F00001682815031968111F6CFCD0104960E9450
:100F10000A0681E090E00895E62FF0E067FF12C036
:100F2000E058F10981E090E001C0880FEA95EAF706
:100F3000809514969C911497892314968C931497FA
:100F400060E0D7CFE45AFE4F6491662359F067FF03
:100F5000D0CF14968C9114978D7F14968C93149700
:100F60006F77C7CF90E080E00895EF92FF921F93D4
:100F7000CF93DF93EC01162FE8E7E60F683880F493
:100F8000E62FF0E067FF32C0E058F10921E030E0E1
:100F900001C0220FEA95EAF78C81822B8C83E0E076
:100FA0008E818E17D9F08F81E817C1F08885E817F8
:100FB000A9F08985E81791F08A85E81779F08B8583
:100FC000E81761F0DE01169690E080E02D91211186
:100FD0002AC08C0F9D1FDC011696EC93CE0104965F
:100FE0000E940A06EE24E394F12C0BC0E45AFE4F53
:100FF000E491E11111C081E090E09B838A83F12CA0
:10100000E12C612FCE010E947507C701DF91CF91BE
:101010001F91FF90EF900895E7FFC2CF8C8182600F
:101020008C83EF77BDCF01968630910579F6E3CFBB
:10103000089590E080E00895FC014281FB01248145
:1010400035814217130611F40C94810680E008954F
:10105000EF92FF920F931F93CF93DF93FB012081B9
:10106000213889F52381223271F5DC0112964C91E9
:10107000248135814217130631F58C01FC01C385AB
:10108000D485F12CE12C209791F04C815D816A810F
:101090007B818E81811180E80E9490028F3F9807AA
:1010A00059F0E80EF91E0990D881C02DECCF81E0EF
:1010B000D8011F968C93C701DF91CF911F910F919B
:1010C000FF90EF90089590E080E0F6CFCF93DF930C
:1010D000CDB7DEB769970FB6F894DEBF0FBECDBFB0
:1010E000FC01DB018C918F5F8C939E012D5F3F4F44
:1010F0008DE0D9011D928A95E9F729E0298384E0E2
:101100008A8391E09D8383E08E832A8721E22B8767
:101110009C879D879F8722E2288B27E02B8B25E0E9
:101120002C8B8E8B20E430E0388F2F8B998F82812F
:101130008B8395858685998B8A8B838180688D8B3F
:1011400049E150E0BE016F5F7F4F80E00E94900256
:1011500069960FB6F894DEBF0FBECDBFDF91CF9179
:101160000895CF9380918F0181112CC0C1E0C0936D
:101170008201C093830188E891E090938501809378
:101180008401109287011092860183E291E090938E
:101190007F0180937E0110928A0110928901109242
:1011A0008C0110928B01C0938D01C0938E0181EC54
:1011B000809388010E94D4026EE771E00E941903B7
:1011C000C0938F018EE791E0CF9108958F929F9207
:1011D000AF92BF92CF92DF92EF92FF920F931F9345
:1011E000CF93DF93CDB7DEB7ADB6BEB680914003E7
:1011F0002DB73EB7281B31090FB6F8943EBF0FBE7E
:101200002DBF8DB79EB701966C01E0900F03F12CB6
:1012100080910B0390910C03D601FC019F01281BC8
:10122000390B2E153F051CF421912D93F7CF80919A
:101230001003882359F1809107039091080328E057
:1012400097FD09C068E671E00E9482236DE270E0BC
:101250000E948223262F8091090390910A0368E05F
:1012600097FD08C068E671E00E9482236DE270E09D
:101270000E948223F601EE0DFF1D90E1699FB001EF
:101280001124262B2083F70131967F0186010E0D54
:101290001F1D2091150330911603409113035091A7
:1012A00014036091F1027091F20280911103817038
:1012B0000E94B501E80EF91E86010E0D1F1D20913A
:1012C000190330911A03409117035091180360914C
:1012D000F3027091F40280911103869581700E944F
:1012E000B501E80EF91E86010E0D1F1D20911D038C
:1012F00030911E0340911B0350911C036091F50235
:101300007091F6028091110382FB882780F90E9478
:10131000B501E80EF91E86010E0D1F1D2091210357
:101320003091220340911F03509120036091F702F6
:101330007091F8028091110383FB882780F90E9445
:10134000B501E80EF91E86010E0D1F1D2091250323
:101350003091260340912303509124036091F902B8
:101360007091FA0280911103829581700E94B501FB
:10137000E80EF91E86010E0D1F1D209129033091E4
:101380002A0340912703509128036091FB0270913A
:10139000FC028091110385FB882780F90E94B5012A
:1013A000E80EF91E86010E0D1F1D20912D033091B0
:1013B0002E0340912B0350912C036091FF027091FA
:1013C00000038091120381700E94B501E80EF91E9E
:1013D00086010E0D1F1D2091310330913203409183
:1013E0002F03509130036091FD027091FE028091B5
:1013F0001203869581700E94B501E80EF91E8601E0
:101400000E0D1F1D2091350330913603409133039B
:101410005091340360910103709102038091120393
:1014200082FB882780F90E94B501E80EF91E86012B
:101430000E0D1F1D2091390330913A03409137035F
:10144000509138036091030370910403809112035B
:1014500083FB882780F90E94B5018E0D9F1D8601B0
:10146000080F191F20913D0330913E0340913B032B
:1014700050913C0360910503709106038091120323
:10148000829581700E94B5010E94B1084C01409183
:10149000400380913F0350E07A01FFEFEF1AFF0A0B
:1014A0002DB73EB72E193F090FB6F8943EBF0FBEB9
:1014B0002DBF0DB71EB70F5F1F4FEDB7FEB781836E
:1014C000B601C80101960E94D524F4018381A701C9
:1014D000B80180640E9470050FB6F894BEBE0FBEBE
:1014E000ADBEDF91CF911F910F91FF90EF90DF90F4
:1014F000CF90BF90AF909F908F90089590910E03E2
:10150000891708F5E82FE695E695E69520910B03F7
:1015100030910C03E20FF32FF11D282F277081E08B
:1015200090E0A0E0B0E004C0880F991FAA1FBB1F85
:101530002A95D2F7809590818923808380910D032D
:1015400081110C94E608089590910E03891700F517
:10155000E82FE695E695E69520910B0330910C0374
:10156000E20FF32FF11D282F277081E090E0A0E01B
:10157000B0E004C0880F991FAA1FBB1F2A95D2F79D
:101580002081822B808380910D0381110C94E608C9
:101590000895611102C00C947E0A0C94A40ACF93A2
:1015A000DF93EC01CF3FDC0709F46FC0BE010D2EC5
:1015B000000C880B990B0E94F51E20E030E044EBF4
:1015C00053E40E94EE1E87FF02C0C859DE4FBE01E1
:1015D0000D2E000C880B990B0E94F51E20E030E0C8
:1015E00044EB53E40E941B22181614F4C856D14051
:1015F000CE016DE270E00E9482237093010260933D
:101600000002C0910002D091010261E0209709F030
:1016100060E080E20E94C90A61E0C130D10509F0B2
:1016200060E081E20E94C90A61E0C230D10509F0A0
:1016300060E082E20E94C90A61E0C330D10509F08E
:1016400060E083E20E94C90A61E0C430D10509F07C
:1016500060E084E20E94C90A61E0C530D10509F06A
:1016600060E085E20E94C90A61E0C630D10509F058
:1016700060E086E20E94C90A61E0279709F060E015
:1016800087E2DF91CF910C94C90AD0930102C093F5
:101690000002B7CF4F925F926F927F928F929F928C
:1016A000AF92BF92CF92DF92EF92FF920F931F9370
:1016B000CF93DF9300D000D01F92CDB7DEB7498320
:1016C0005A836B837C835901BC01990F880B990B5A
:1016D0000E94F51EA50198010E946D209B01AC019E
:1016E0000E946E202B013C01A5019801C701B601A3
:1016F0000E946D209B01AC01C301B2010E944C21EC
:1017000020E030E040E85FE30E946D206B017C0147
:1017100020E030E0A9010E941B2218160CF477C0CB
:10172000C701B601905829813A814B815C810E94A2
:1017300028224B015C0120E030E0A901C701B6017D
:101740000E941B2220E030E040E85FE3181684F09E
:1017500020E030E0A901C701B6010E94EE1E20E0A2
:1017600030E0A90187FF04C020E030E040E85FEBF3
:10177000C501B4010E94541F6B017C0120E030E0E0
:1017800040E85FEB0E94EE1E87FD44C020E030E0A1
:1017900040E85FE3C701B6010E941B2218160CF453
:1017A00044C020E030E0A901C701B6010E941B221D
:1017B0001816BCF15601ED82F982F7FAF094F7F8A9
:1017C000F09420E030E0A901C701B6010E94EE1EAE
:1017D00087FF04C0A12CB12C1D821982B5018D8117
:1017E00099810F900F900F900F900F90DF91CF91F4
:1017F0001F910F91FF90EF90DF90CF90BF90AF902F
:101800009F908F907F906F905F904F900895C70149
:10181000B60189CFC12CD12C80E8E82E8FEBF82EB1
:10182000C9CF5601ED82F982CCCFA12CB12C80E832
:101830008D838FE38983D2CF4F925F926F927F9295
:101840008F929F92AF92BF92CF92DF92EF92FF92D0
:101850000F931F93CF93DF93CDB7DEB728970FB6C3
:10186000F894DEBF0FBECDBF49835A836B837C8360
:1018700039018D829E82AF82B886BC01990F880B98
:10188000990B0E94F51E4B015C01A70196010E9475
:10189000EE1E882309F4DDC0A7019601C501B4013D
:1018A0000E94EE1E87FF1CC0A3019801C501B40170
:1018B0000E946D204B015C01A3019801C701B60194
:1018C0000E946D209B01AC01C501B4010E944C2116
:1018D00020E030E040E85FE30E946D204B015C01B6
:1018E000A7019601C501B4010E941B221816ECF451
:1018F000A7019601C501B4010E946D204B015C0156
:10190000A70196016D817E818F8198850E946D204F
:101910009B01AC01C501B4010E944C2120E030E0E4
:10192000A9010E946E204B015C0120E030E0A9017A
:10193000C501B4010E941B2218160CF475C0C50124
:10194000B401905829813A814B815C810E94282200
:101950006B017C0120E030E0A901C501B4010E94C7
:101960001B2220E030E040E85FE3181684F020E01E
:1019700030E0A901C501B4010E94EE1E20E030E074
:10198000A90187FF04C020E030E040E85FEBC70119
:10199000B6010E94541F6B017C0120E030E040E85A
:1019A0005FEB0E94EE1E87FD42C020E030E040E881
:1019B0005FE3C701B6010E941B2218160CF43EC05B
:1019C00020E030E0A901C701B6010E941B225601A8
:1019D0008701181634F056018701F7FAF094F7F8EA
:1019E000F0942B8D3C8D4D8D5E8DC701B6010E940C
:1019F000EE1E87FD2EC0B501C80128960FB6F894DB
:101A0000DEBF0FBECDBFDF91CF911F910F91FF9031
:101A1000EF90DF90CF90BF90AF909F908F907F908E
:101A20006F905F904F900895C501B4018BCFC12C8A
:101A3000D12C90E8E92E9FEBF92ECDCFA12CB12C23
:101A400000E81FE3C12CD12C80E8E82E8FE3F82EAC
:101A5000C8CFA12CB12C00E010E0CDCFCF93DF9305
:101A6000EC0160E0809149030E9458046C2F617082
:101A7000809141030E945804BE017595679561707D
:101A8000809143030E945804BE0175956795759532
:101A900067956170809145030E945804BE0123E060
:101AA000759567952A95E1F7809147030E94580440
:101AB000E0915503E23108F0E251F0E0E852FD4FC9
:101AC000E49190917B008E2F880F880F80729F7D0C
:101AD000892B80937B00E770E064E0937C00809129
:101AE0007A00806480937A0080917A0086FDFCCF32
:101AF0008091780090917900DF91CF9108951F92A5
:101B00000F920FB60F9211248F939F938091E10053
:101B10009091E100937F9093E10083FF0FC01092BA
:101B2000E90091E09093EB001092EC0092E3909327
:101B3000ED001092030298E09093F00082FF22C023
:101B400093E09093E9009091F200992319F09AE3C1
:101B50009093E8009091FF01992341F09091FF014B
:101B600091509093FF01911101C05D9A90910202F2
:101B7000992341F0909102029150909302029111A9
:101B800001C0289A84FF18C08091E2008E7E816097
:101B90008093E2008091E1008F7E8093E10080914C
:101BA000FE018E7E80618093FE019F918F910F9048
:101BB0000FBE0F901F90189580FFF7CF8091E20025
:101BC0008E7E80618093E2008091E1008E7E809322
:101BD000E1008091FE018E7E8160E5CF1F920F9221
:101BE0000FB60F921124CF92DF92EF92FF920F93D4
:101BF0001F932F933F934F935F936F937F938F9395
:101C00009F93AF93BF93EF93FF93CF93DF93CDB7A2
:101C1000DEB76C97DEBFCDBF1092E9008091E8007F
:101C200083FF25C068E0CE0145960E94C70282EF7F
:101C30008093E8008D8987FF39C09091E80090FF7C
:101C4000FCCF982F907609F034C19E894F89588D2A
:101C50002F89F88C911131C0803861F58091FD0198
:101C60008093F1001092F1008EEF8093E8006C9663
:101C70000FB6F894DEBF0FBECDBFDF91CF91FF91BD
:101C8000EF91BF91AF919F918F917F916F915F91F4
:101C90004F913F912F911F910F91FF90EF90DF9007
:101CA000CF900F900FBE0F901F9018959EEF9093BE
:101CB000E800C7CF1092F100D5CF913059F48111CF
:101CC000D3CF4130510581F68091FD018D7F809306
:101CD000FD01CACF933049F48111C6CF413051057F
:101CE00019F68091FD018260F2CF953041F4809128
:101CF000E80080FFFCCF20682093E300B5CF96304A
:101D000009F0A9C00B8D1C8D22E01092E900109201
:101D1000FB011092FA01F2122EC01092F9011092FA
:101D2000F8010E94E8021F8299E09983FA8291E00B
:101D30009E8390EA98879AEF99872091FA013091D3
:101D4000FB01275F3F4F3C832B838D831092E9007B
:101D50001092FB011092FA011093F9010093F8011F
:101D600049E050E0BE016F5F7F4F80E00E9490022B
:101D70000E94E80279CF1093F9010093F8010E94C4
:101D8000D402DC0112960D911C910115110509F484
:101D900051C1D801ED91FC910480F581E02DBE0187
:101DA0006B5E7F4FC8010995009709F03EC1F801AD
:101DB00000851185EACFF3E0FF120EC08F898823DA
:101DC00009F440C0823061F440E860E187EC92E0C1
:101DD0000E945D02811148CF81E28093EB0047CFE2
:101DE000813029F440E86BE08BEB92E0F1CF833057
:101DF00099F70E94D402DC011296ED90FC908E01BE
:101E00000F5F1F4F6801E114F10479F0D701ED91E4
:101E1000FC910680F781E02DB801C7010995080FF4
:101E2000111DF701E084F184EECFD8011C92F60178
:101E300001900020E9F73197BF016C197D0940E05E
:101E4000C601C6CF65EA72E0FB01449150E080E82C
:101E50000E94900209CF973009F4BECF983021F448
:101E600081E08093F10000CF993009F0FDCE8370BE
:101E700009F0B2CFE7E0F1E081E031E096E32191B3
:101E8000222371F08093E9003093EB00DF0111977A
:101E90002C912093EC009093ED008F5F873079F7C1
:101EA0008EE78093EA001092EA008F898093030204
:101EB000DBCE8B8D9C8D1092E9001092FB0110926D
:101EC000FA019093F9018093F801898D811192C0F4
:101ED0008E899D89913A49F4813209F07DCF47E09E
:101EE00050E061E171E080E0B3CF913209F074CF4E
:101EF000833269F48F89988DB0E0A0E080930D0162
:101F000090930E01A0930F01B0931001ADCE8032DB
:101F100069F48091E80082FFFCCF67E081E191E005
:101F20000E94C7028BEF8093E8009ECE823209F0B8
:101F30009BCE8F8980931801EEEFFFE785919491F6
:101F40008B3F9C4D51F1E0E0F8E0809111019091C0
:101F50001201A0911301B0911401803B9440A1059E
:101F6000B105F1F48091180180FD1AC0EE3F8AE0BE
:101F7000F80789F587E797E7918380838091600070
:101F80008093FC0188E19BE00FB6F894A8958093BC
:101F900060000FBE9093600067CEEEEFFAE0D5CF01
:101FA000808191818737974709F05ECEA89580910F
:101FB00060008861809360008091FC0180936000E4
:101FC000EE3F2AE0F20789F08091FE0A9091FF0A25
:101FD0009183808349CE808191818737980751F220
:101FE0009093FF0A8093FE0AC5CF1092FF0A1092C9
:101FF000FE0A3ACE0E94D402DC0112960D911C9189
:102000000115110509F4E8CED801ED91FC9101907C
:10201000F081E02DBE016B5E7F4FC80109958111F3
:1020200023CEF80100851185EBCF181619060CF4A4
:102030001BCED2CEF1E0FF12BECE69EA72E004CF31
:102040001F920F920FB60F9211242F933F938F93ED
:102050009F93AF93BF938091980190919901A09124
:102060009A01B0919B013091970123E0230F2D3706
:1020700058F50196A11DB11D2093970180939801F9
:1020800090939901A0939A01B0939B0180919C0138
:1020900090919D01A0919E01B0919F010196A11D7B
:1020A000B11D80939C0190939D01A0939E01B093DC
:1020B0009F01BF91AF919F918F913F912F910F9071
:1020C0000FBE0F901F90189526E8230F0296A11DB2
:1020D000B11DD2CFEF92FF920F931F93CF93DF9357
:1020E000CDB7DEB7C659D1090FB6F894DEBF0FBE23
:1020F000CDBF109207021092060288EE93E0A0E096
:10210000B0E08093080290930902A0930A02B09372
:102110000B028FE391E090930502809304028FEF0E
:102120009FEF909311028093100210927E02109202
:102130007D028DE591E090937C0280937B028091FB
:102140007302811113C010926E0210926D0284EE20
:1021500092E09093700280936F028FE290E09093F0
:1021600072028093710281E0809373028091650214
:1021700081112CC011E010935802109359028EE582
:1021800092E090935B0280935A0210925D0210924B
:102190005C0281E591E09093550280935402109285
:1021A000600210925F02109262021092610210931C
:1021B00063021093640281EC80935E020E94D40259
:1021C00064E572E00E94190310936502E0915F02DA
:1021D000F0916002309709F011C28DE692E0909381
:1021E000600280935F02809161029091620220916F
:1021F000710230917202820F931F9093620280935A
:10220000610210928D0210928E0210928F02109233
:1022100090021092910210929202109293021092E8
:1022200094021092950210929602109297021092C8
:1022300098021092990210929A0210929B021092A8
:102240009C0282E090E0909342038093410384E0FB
:1022500090E0909344038093430386E090E0909352
:1022600046038093450387E090E090934803809372
:10227000470388E090E090934A03809349038AE003
:1022800090E090934C0380934B038BE090E090930D
:102290004E0380934D038CE090E090935003809325
:1022A0004F0382E190E0909352038093510383E1C6
:1022B00090E0909354038093530384E190E09093D3
:1022C00056038093550361E082E00E94DC0461E0E4
:1022D000809143030E94DC0461E0809145030E94E9
:1022E000DC0461E0809147030E94DC0461E080919E
:1022F00049030E94DC0460E0809149030E94580475
:1023000061E080914B030E94DC0461E080914D0309
:102310000E94DC0461E080914F030E94DC04109273
:102320000C0310920B0310920F03109214031092DF
:1023300013038FEF93E0909316038093150310928D
:1023400018031092170390931A03809319031092A5
:102350001C0310921B0390931E0380931D03109285
:10236000200310921F039093220380932103109265
:102370002403109223039093260380932503109245
:1023800028031092270390932A0380932903109225
:102390002C0310922B0390932E0380932D03109205
:1023A000300310922F0390933203809331031092E5
:1023B00034031092330390933603809335031092C5
:1023C00038031092370390933A03809339031092A5
:1023D0003C0310923B0390933E0380933D0373E0D4
:1023E00070933F0324E320930E03109210038FE3B6
:1023F000809311031092120365E0698391E09A8340
:1024000089E08B83A4E0AC83F1EAFD839E8335E809
:102410003F83788769878A8739E13B879C8739E2E0
:102420003D872E8735E13F87188A35E2398B9A8BB5
:1024300055E75B8B9C8B45E94D8B2E8B35E53F8BB0
:10244000188E35E6398F1A8E31E83B8FE2E0EC8F3B
:102450005D8F9E8F4F8FA8A339A37AA36BA39CA3F4
:102460008DA39EA366E16FA398A790E899A796E233
:102470009AA79FEF9BA79FE79CA75DA790E19EA7C8
:102480004FA796E098ABF9AB1AAA8BAB90E39CAB45
:102490008DAB91E39EAB8FAB92E398AF89AF93E3A3
:1024A0009AAF8BAF2CAF8DAF85E38EAF3FAF219648
:1024B000EFAF219780EC22968FAF229723968FAFB4
:1024C000239782E490E00E94B0237C0182E4FE0125
:1024D0003196D70101900D928A95E1F787E090E05F
:1024E0000E94B0238C01DC0111961C921E9213965F
:1024F000FC92EE92129782E490E015969C938E9354
:10250000149716961C920E94B108FC01A385B4850D
:10251000109709F07DC01487038785859685D801BB
:1025200014962D913C91820F931F968785879091E9
:102530000E03892F869586958695977009F070C051
:1025400080930F0310910F03812F90E00E94B0231E
:1025500090930C0380930B0381E0909110039111F1
:1025600001C080E0145F810F809340031092F2025B
:102570001092F1021092F4021092F3021092F602FD
:102580001092F5021092F8021092F7021092FA02DD
:102590001092F9021092FC021092FB021092FE02BD
:1025A0001092FD02109200031092FF02109202039B
:1025B0001092010310920403109203031092060379
:1025C000109205038FEF9FEF90930803809307030A
:1025D00090930A038093090390E080E020910F0319
:1025E00028171906F9F0F4F0E0910B03F0910C03B1
:1025F000E80FF91F10820196F1CFFC0180819181D3
:102600000097D9F78DE692E091838083ECCDDC01D1
:102610008D919C9111970097D1F70D931C937DCFCD
:102620008F5F8ECF80E090ECAEE1B4E48093E50262
:102630009093E602A093E702B093E80280E090EC6A
:10264000AAE0B4E48093E9029093EA02A093EB023B
:10265000B093EC0280E090E8A8E1B4E48093ED024E
:102660009093EE02A093EF02B093F00280E090E42A
:10267000A2E1B4E48093D9029093DA02A093DB0242
:10268000B093DC0280E090E8A7EFB3E48093DD0232
:102690009093DE02A093DF02B093E00280E090E02E
:1026A000A7E0B4E48093E1029093E202A093E302F6
:1026B000B093E40280E090E0A0E0B5E48093CD0226
:1026C0009093CE02A093CF02B093D0021092D10289
:1026D0001092D2021092D3021092D40280E090E4C1
:1026E000AFE7B4E48093D5029093D602A093D702CB
:1026F000B093D802CA56DF4F0FB6F894DEBF0FBEB4
:10270000CDBFDF91CF911F910F91FF90EF90089572
:10271000CF93DF93CDB7DEB7E2970FB6F894DEBF65
:102720000FBECDBF789484B5826084BD84B58160CE
:1027300084BD85B5826085BD85B5816085BD80918C
:102740006E00816080936E00109281008091810004
:1027500082608093810080918100816080938100FC
:1027600080918000816080938000809191008260E0
:10277000809391008091910081608093910080917D
:1027800090008160809390008091C100846080936C
:10279000C1008091C10082608093C1008091C1001E
:1027A00081608093C1008091C30081608093C300E9
:1027B0008091C00082608093C0008091C2008160DF
:1027C0008093C20080917A00846080937A00809127
:1027D0007A00826080937A0080917A008160809391
:1027E0007A0080917A00806880937A0010920302C8
:1027F0001092FD011092FE018091D70081608093BC
:10280000D70080EA8093D80089B5806189BD89B5F9
:10281000826089BD09B400FEFDCF61E070E080E018
:1028200090E00E943D058091D8008F7C806180936C
:10283000D8008091E000807F8093E0008091E100EB
:102840008E7E8093E1008DE08093E200559A209A7D
:102850001092C9021092CA021092CB021092CC02BE
:102860001092890210928A0210928B0210928C02AE
:102870000E9475066B017C014B015C0128EB820E06
:102880002BE0921EA11CB11C0E9475066C157D05E3
:102890008E059F0528F086169706A806B906A0F7AC
:1028A00068EE73E080E090E00E943D058FEF9FEFBF
:1028B00090931102809310020E9475066093890222
:1028C00070938A0280938B0290938C0240E150E0D7
:1028D00065E671E084E092E00E945F060E94750662
:1028E0006B017C014B015C013AE0830E911CA11C41
:1028F000B11C0E9475066C157D058E059F0528F09C
:1029000086169706A806B906A0F741E040939D02F7
:102910000E9475066093890270938A0280938B02ED
:1029200090938C0246E050E066E771E084E092E02C
:102930000E945F0662E0809151030E94DC0460E027
:1029400080914B030E94580462E0809153030E94DF
:10295000DC0460E080914D030E94580462E08091A5
:1029600055030E94DC0460E080914F030E945804EC
:1029700010921403109213038FEF93E090931603B9
:1029800080931503109218031092170390931A0363
:102990008093190310921C0310921B0390931E0343
:1029A00080931D031092200310921F039093220323
:1029B0008093210310922403109223039093260303
:1029C00080932503109228031092270390932A03E3
:1029D0008093290351E050930D030E94E60882EB97
:1029E0009FE8A0E7BFE38093C6019093C701A0933F
:1029F000C801B093C90183E49DE1AFEABEEB8093C7
:102A0000C2019093C301A093C401B093C50163E0D8
:102A100070E081E090E00E94860461E0892B09F07B
:102A200060E080E00E94C90A67E070E081E090E029
:102A30000E94860461E0892B09F060E081E00E9439
:102A4000C90A6AE070E081E090E00E94860461E0DB
:102A5000892B09F060E082E00E94C90A6BE070E017
:102A600081E090E00E94860461E0892B09F060E03B
:102A700083E00E94C90A6DE070E081E090E00E946E
:102A8000860461E0892B09F060E084E00E94C90AB5
:102A900062E070E081E090E00E94860461E0892BB2
:102AA00009F060E085E00E94C90A66E070E081E01C
:102AB00090E00E94860461E0892B09F060E086E0E6
:102AC0000E94C90A69E070E081E090E00E948604FB
:102AD00061E0892B09F060E087E00E94C90A6CE0A0
:102AE00070E081E090E00E94860461E0892B09F0AB
:102AF00060E088E00E94C90A6EE070E081E090E04A
:102B00000E94860461E0892B09F060E089E00E9460
:102B1000C90A61E070E081E090E00E94860461E013
:102B2000892B09F060E08AE00E94C90A70E060E049
:102B300081E090E00E94860461E0892B09F060E06A
:102B40008BE00E94C90A65E070E081E090E00E949D
:102B5000860461E0892B09F060E08CE00E94C90ADC
:102B600064E070E081E090E00E94860461E0892BDF
:102B700009F060E08DE00E94C90A66E070E082E042
:102B800090E00E94860461E0892B09F060E08EE00D
:102B90000E94C90A68E070E081E090E00E9486042B
:102BA00061E0892B09F060E08FE00E94C90A6FE0C4
:102BB00070E081E090E00E94860461E0892B09F0DA
:102BC00060E080E10E94C90A70E060E082E090E08D
:102BD0000E94860461E0892B09F060E081E10E9497
:102BE000C90A62E070E082E090E00E94860461E041
:102BF000892B09F060E082E10E94C90A61E070E07F
:102C000082E090E00E94860461E0892B09F060E098
:102C100083E10E94C90A6CE070E082E090E00E94CB
:102C2000860461E0892B09F060E084E10E94C90A12
:102C300063E070E082E090E00E94860461E0892B0E
:102C400009F060E085E10E94C90A64E070E082E07A
:102C500090E00E94860461E0892B09F060E086E143
:102C60000E94C90A65E070E082E090E00E9486045C
:102C700061E0892B09F060E087E10E94C90A6AE0FF
:102C800070E082E090E00E94860461E0892B09F008
:102C900060E088E10E94C90A6BE070E082E090E0A9
:102CA0000E94860461E0892B09F060E089E10E94BE
:102CB000C90A67E070E082E090E00E94860461E06B
:102CC000892B09F060E08AE10E94C90A69E070E09E
:102CD00082E090E00E948604898368E070E082E0F0
:102CE00090E00E948604880F991FE981E82BE37029
:102CF0008091A001880F880FE82BE093A001C0907D
:102D0000A301D090A401E090A501F090A601C11408
:102D1000D104E104F10409F045C0EF70F0E0E55D95
:102D2000FE4F20818091A1019091A201820F911DFF
:102D300027FD9A959093A2018093A1019C0197FF92
:102D400004C022273327281B390B233031050CF40C
:102D500042C0181619060CF065C20E9475066D3344
:102D6000710581059105B8F18BE10E94A40A0E94CA
:102D70007506645C7F4F8F4F9F4F6093A3017093E4
:102D8000A4018093A5019093A601C090A301D090C7
:102D9000A401E090A501F090A601C114D104E104C2
:102DA000F104C9F00E947506C616D706E806F906B2
:102DB00090F48CE10E947E0A8BE10E947E0A1092C0
:102DC000A3011092A4011092A5011092A6011092E5
:102DD000A2011092A101809105018823D1F16EE03A
:102DE00070E082E090E00E9486042091EB012817B9
:102DF0001906D1F06EE070E082E090E00E94860457
:102E000021E0892B09F420E02093EB010E94750654
:102E1000645C7F4F8F4F9F4F6093E7017093E80191
:102E20008093E9019093EA010E94750621E0C09029
:102E3000E701D090E801E090E901F090EA016C151B
:102E40007D058E059F0508F020E0622F8DE10E9430
:102E5000C90A6EE070E082E090E00E94860461E0C2
:102E6000892B09F060E088E20E94C90A8091040180
:102E70008823D1F16FE070E082E090E00E94860448
:102E80002091E60128171906D1F06FE070E082E08A
:102E900090E00E94860421E0892B09F420E0209331
:102EA000E6010E947506645C7F4F8F4F9F4F6093D1
:102EB000E2017093E3018093E4019093E5010E94A5
:102EC000750621E0C090E201D090E301E090E401BA
:102ED000F090E5016C157D058E059F0508F020E05A
:102EE000622F8EE10E94C90A6FE070E082E090E0FC
:102EF0000E94860461E0892B09F060E089E20E946B
:102F0000C90A6DE070E082E090E00E948604892B9F
:102F100009F095C18FE10E94A40A90E080E00E9430
:102F20002E0D9A878987BC01990F880B990B0E94F7
:102F3000F51E762EC72ED82EE92E862F9C2DAD2D70
:102F4000BE2D8093DE019093DF01A093E001B0934A
:102F5000E10181E090E00E942E0D9E878D87BC01EB
:102F6000990F880B990B0E94F51EF62E7BA38D837B
:102F7000692E862F972FAD81B62D8093DA0190931D
:102F8000DB01A093DC01B093DD0183E090E00E94BF
:102F90002E0D9A8F898FBC01990F880B990B0E9477
:102FA000F51E562E472E382E292E862F942DA32D12
:102FB000B22D8093D6019093D701A093D801B093FE
:102FC000D90187E090E00E942E0D9E8F8D8FBC016D
:102FD000990F880B990B0E94F51E6093D201709394
:102FE000D3018093D4019093D5018EE090E00E94AC
:102FF0002E0D98A38F8FBC01990F880B990B0E94FF
:10300000F51E6093CE017093CF018093D001909311
:10301000D1018FE090E00E942E0D9AA389A3BC01FC
:10302000990F880B990B0E94F51E6093CA0170934B
:10303000CB018093CC019093CD01809000019090C2
:103040000101A0900201B09003018091ED029091E6
:10305000EE02A091EF02B091F002898B9A8BAB8BBC
:10306000BC8B2091E1023091E2024091E302509149
:10307000E4022D8B3E8B4F8B588F8091D50290911F
:10308000D602A091D702B091D8028FA798ABA9AB76
:10309000BAAB9FEF89169906A906B90609F4B0C123
:1030A0000E947506681979098A099B09683E734070
:1030B0008105910508F0C7C02DEC3CEC4CE45FE3C2
:1030C00069897A898B899C890E94541F4B015C0114
:1030D0002DEC3CEC4CE45EE3672D7C2D8D2D9E2D7C
:1030E0000E94541F9B01AC01C501B4010E946E20D7
:1030F0004B015C018092ED029092EE02A092EF02F1
:10310000B092F0022DEC3CEC4CE45FE36D897E89DB
:103110008F89988D0E94541F69837A838B839C8347
:103120002DEC3CEC4CE45EE36F2D7BA18D81962D64
:103130000E94541F9B01AC0169817A818B819C8123
:103140000E946E206B017C01C092E102D092E202EB
:10315000E092E302F092E4022DEC3CEC4CE45FE3FD
:103160006FA578A989A99AA90E94541F69837A83B7
:103170008B839C832DEC3CEC4CE45EE3652D742D3D
:10318000832D922D0E94541F9B01AC0169817A818D
:103190008B819C810E946E206093D5027093D60231
:1031A0008093D7029093D8028092E5029092E60233
:1031B000A092E702B092E8028092E9029092EA02BD
:1031C000A092EB02B092EC02C092DD02D092DE023D
:1031D000E092DF02F092E002C092D902D092DA02CD
:1031E000E092DB02F092DC026093D1027093D20293
:1031F0008093D3029093D4026093CD027093CE0259
:103200008093CF029093D00261E170E080E090E083
:103210000E943D0540E050E0452B09F4F8CB0E94A8
:103220000000F5CB892B09F4D6CD0E9475066D33CD
:1032300071058105910508F4CECD8CE196CD8FE125
:103240000E947E0A6ACE0E947506681979098A0969
:103250009B09603177428105910508F0D1C08090CB
:10326000E5029090E602A090E702B090E802940197
:10327000A501672D7C2D8D2D9E2D0E94EE1E87FDB4
:1032800004C0872C9C2CAD2CBE2CC401D50180938E
:10329000E5029093E602A093E702B093E8028090E3
:1032A000E9029090EA02A090EB02B090EC02940147
:1032B000A501672D7C2D8D2D9E2D0E941B22181699
:1032C00024F4782CC92CDA2CEB2C872D9C2DAD2DD9
:1032D000BE2D8093E9029093EA02A093EB02B09393
:1032E000EC02B090D902C090DA02D090DB02E090FC
:1032F000DC022B2D3C2D4D2D5E2D6F2D7BA18D8164
:10330000962D0E94EE1E87FD04C0BF2CCBA0DD8051
:10331000E62C8B2D9C2DAD2DBE2D8093D902909344
:10332000DA02A093DB02B093DC02B090DD02C09021
:10333000DE02D090DF02E090E0022B2D3C2D4D2DDF
:103340005E2D6F2D7BA18D81962D0E941B2218165C
:1033500024F4FB2CCBA2DD826E2C8F2D9BA1AD81A2
:10336000B62D8093DD029093DE02A093DF02B0932E
:10337000E002E090D102F090D2022091D3022D839E
:103380003091D402398397014D815981652D742D77
:10339000832D922D0E941B22181624F0E52CF42C6C
:1033A0003D822982C701AD81B9818093D10290937A
:1033B000D202A093D302B093D402E090CD02F09059
:1033C000CE024091CF024D835091D0025983970194
:1033D000652D742D832D922D0E94EE1E87FF04C053
:1033E0005E2C4F2C3D802980852D942DA32DB22D50
:1033F0008093CD029093CE02A093CF02B093D002DF
:103400008091E5029091E602A091E702B091E80276
:103410008BA39CA3ADA3BEA32091E9023091EA0245
:103420004091EB025091EC022FA338A749A75AA76D
:103430001F921F921F921F928BA09CA0ADA0BEA0B6
:10344000C988DA88EB88FC880FA118A529A53AA5B8
:1034500040E050E060E87FE389859A850E941C0C7B
:103460000F900F900F900F9069837A838B839C83CA
:103470004090D9025090DA026090DB027090DC023A
:103480008091DD029091DE02A091DF02B091E00216
:103490008BA79CA7ADA7BEA71F921F921F921F923A
:1034A00053014201CD88DE88EF88F88C0BA51CA55E
:1034B0002DA53EA540E050E060E87FE38D859E8528
:1034C0000E941C0C0F900F900F900F906D837E83C5
:1034D0008F8398871F921F921F921F928BA09CA090
:1034E000ADA0BEA0C988DA88EB88FC880FA118A51A
:1034F00029A53AA540E050E060EC70E489859A8502
:103500000E941C0C0F900F900F900F9069877A8784
:103510008B879C871F921F921F921F92530142011B
:10352000CD88DE88EF88F88C0BA51CA52DA53EA5BF
:1035300040E050E060EC70E48D859E850E941C0C9C
:103540000F900F900F900F906D877E878F87988BCD
:1035500020E030E0A90169817A818B819C810E9401
:103560001B2229803A804B805C80181624F057FA81
:10357000509457F8509420E030E040E85FE3C201F7
:10358000B1010E94EE1E87FD83C3A12CB12C90E8EF
:103590009D8BAFE3A98B95014D89598960E070E05F
:1035A00080E89FE30E946D2029853A854B855C85E4
:1035B0000E94541F6B017C0195014D8959896981D5
:1035C0007A818B819C810E94541F9B01AC01C701B1
:1035D000B6010E946E204B015C0120E030E0A901A1
:1035E0006D817E818F8198850E941B22CD80DE8037
:1035F000EF80F884181624F0F7FAF094F7F8F094B6
:1036000020E030E040E85FE3C701B6010E94EE1E13
:1036100087FD42C3612C712CB0E8BD8B2FE3298B51
:1036200020E030E040E05FE369817A818B819C811A
:103630000E94541FA70196010E94541FA5019401E6
:103640000E946E2069877A878B879C876093DE0152
:103650007093DF018093E0019093E10193014D8924
:10366000598960E070E080E89FE30E946D202D851D
:103670003E854F8558890E94541F6B017C01930140
:103680004D8959896D817E818F8198850E94541F53
:103690009B01AC01C701B6010E946E206B017C0149
:1036A00020E030E040E05FE36D817E818F8198858E
:1036B0000E94541FA20191010E94541F9B01AC0162
:1036C000C701B6010E946E206D837E838F83988729
:1036D0006093DA017093DB018093DC019093DD014C
:1036E0008090CD029090CE02A090CF02B090D002F8
:1036F0000091D1021091D2022091D3023091D402D4
:103700004DE34F935CE45F938CEC8F939DEC9F9320
:10371000CFA4D8A8E9A8FAA840E050E060E870E497
:10372000898D9A8D0E941C0C0F900F900F900F9016
:103730009B01AC0150582D873E874F87588B2093B3
:10374000D6013093D7014093D8015093D901C12CB1
:1037500080ECD82E88E4E82E84E4F82E00E010E017
:103760002AE833E440E050E060EC7FE38D8D9E8DED
:103770000E944A0B2B013C014092D2015092D3018E
:103780006092D4017092D501C12C90ECD92E9FE7A4
:10379000E92E94E4F92E00E010E020E931E440E065
:1037A00050E060E87FE38F8D98A10E944A0B698BFF
:1037B0007A8B8B8B9C8B6093CE017093CF0180931F
:1037C000D0019093D10100E010E020E931E440E025
:1037D00050E060E87FE389A19AA10E944A0B6D8BBB
:1037E0007E8B8F8B988F6093CA017093CB018093EF
:1037F000CC019093CD018091C6019091C701A09119
:10380000C801B091C901898F9A8FAB8FBC8FC090CE
:10381000C201D090C301E090C401F090C5019C01A9
:10382000AD0169857A858B859C850E94541F4B016B
:103830005C01A70196016D817E818F8198850E9430
:10384000541F9B01AC01C501B4010E946E2020E011
:1038500030E040E05FE30E94541F4B015C0120E038
:1038600030E040E05FE36091BE017091BF01809164
:10387000C0019091C1010E94541F9B01AC01C50180
:10388000B4010E946E2069837A838B839C8360934A
:10389000BE017093BF018093C0019093C1016985FF
:1038A0007A858B859C859058A70196010E94541FAC
:1038B0006B017C01298D3A8D4B8D5C8D6D817E81F4
:1038C0008F8198850E94541F9B01AC01C701B601EE
:1038D0000E946E2020E030E040E05FE30E94541F31
:1038E0006B017C0120E030E040E05FE36091BA01D1
:1038F0007091BB018091BC019091BD010E94541F49
:103900009B01AC01C701B6010E946E206B017C01D6
:10391000C092BA01D092BB01E092BC01F092BD010D
:1039200020E030E040E05FE36091B6017091B701C4
:103930008091B8019091B9010E94541F4B015C0124
:1039400020E030E040E05FE36D857E858F859889DB
:103950000E94541F9B01AC01C501B4010E946E205E
:103960004B015C018092B6019092B701A092B80120
:10397000B092B90120E030E040E054E469817A81FE
:103980008B819C810E94541F20E030E040E054E491
:103990000E946E200E94BE217093F2026093F10299
:1039A00080910D0381110E94E60820E030E040E0A4
:1039B00054E4C701B6010E94541F20E030E040E00B
:1039C00054E40E946E200E94BE217093F402609322
:1039D000F30280910D0381110E94E60820E030E09F
:1039E00040E054E4C501B4010E94541F20E030E0DF
:1039F00040E054E40E946E200E94BE217093F602C3
:103A00006093F50280910D0381110E94E60820E089
:103A100030E040E054E4C301B2010E94541F20E0B2
:103A200030E040E054E40E946E200E94BE2170937A
:103A3000FC026093FB0280910D0381110E94E60855
:103A400020E030E040E05FE36091B2017091B301AB
:103A50008091B4019091B5010E94541F4B015C010B
:103A600020E030E040E054E469897A898B899C89C0
:103A70000E94541F20E030E040E054E40E946E2099
:103A800020E030E040E05FE30E94541F9B01AC0166
:103A9000C501B4010E946E206D837E838F83988759
:103AA0006093B2017093B3018093B4019093B50118
:103AB00020E030E040E05FE36091AE017091AF0143
:103AC0008091B0019091B1010E94541F4B015C01A3
:103AD00020E030E040E054E46D897E898F89988D44
:103AE0000E94541F20E030E040E054E40E946E2029
:103AF00020E030E040E05FE30E94541F9B01AC01F6
:103B0000C501B4010E946E204B015C018092AE01A0
:103B10009092AF01A092B001B092B1016D817E810F
:103B20008F8198850E94BE217093F8026093F702FE
:103B300080910D0381110E94E608C501B4010E9425
:103B4000BE217093FA026093F90280910D038111F6
:103B50000E94E60820E030E0A901C301B2010E9402
:103B60001B221816ACF48091AD0181112DC191E09A
:103B70009093AD010E947506645C7F4F8F4F9F4FFD
:103B80006093A9017093AA018093AB019093AC015B
:103B900020E030E0A901C301B2010E94EE1E87FFC0
:103BA00014C08091AD01882381F01092AD010E9474
:103BB0007506645C7F4F8F4F9F4F6093A901709390
:103BC000AA018093AB019093AC018090A9019090E1
:103BD000AA01A090AB01B090AC010E94750621E053
:103BE000681579058A059B0508F020E0622F8AE2B6
:103BF0000E94C90A26E636E646E65FEBC301B2013B
:103C00000E94EE1E682F661F6627661F8BE20E94C9
:103C1000C90AA1E0AD8326E636E646E65FE3C301C6
:103C2000B2010E941B2218160CF01D826D818CE2DD
:103C30000E94C90A20E030E0A90169817A818B8164
:103C40009C810E941B2218165CF520E030E040E0C9
:103C50005FE369817A818B819C810E941B22181607
:103C60005CF120E030E0A901C701B6010E941B22EF
:103C700018160CF09EC020E030E040E05FE3C70182
:103C8000B6010E941B221816BCF08FEF9FEF2BC0CD
:103C900051014D8A598A7FCC3601ED8AF98AC0CC10
:103CA00020E030E040E05FEB69817A818B819C818C
:103CB0000E94EE1E87FFD5CF29813A814B815C811E
:103CC000C701B6010E94ED2021EE3EE245E652E436
:103CD0000E94541F20E030E041EE52E40E946E202A
:103CE0000E94BE21CB010E94CF0A6AE070E082E010
:103CF00090E00E948604892B09F040C06BE070E0E0
:103D000082E090E00E948604892BC1F567E070E0B4
:103D100082E090E00E948604892B51F40E9475068F
:103D2000609300017093010180930201909303015D
:103D30006CE070E082E090E00E948604892BF1F450
:103D40006FE070E082E090E00E94860421E0892B21
:103D500009F020E0209304016EE070E082E090E042
:103D60000E94860421E0892B09F020E020930501C0
:103D70006CE370E080E090E00E943D052091A70197
:103D80003091A8013A832983232B09F43DCA0E946C
:103D900075066D3371058105910508F435CA698191
:103DA0008BE792E00E9475071092A8011092A7017C
:103DB0002BCA20E030E040E05FEBC701B6010E9473
:103DC000EE1E87FF62CF78CF20E030E0A901C3016B
:103DD000B2010E94EE1E87FFF8CEE7CE0E94301F90
:103DE00008F481E00895E89409C097FB3EF49095AB
:103DF0008095709561957F4F8F4F9F4F9923A9F0C4
:103E0000F92F96E9BB279395F69587957795679552
:103E1000B795F111F8CFFAF4BB0F11F460FF1BC096
:103E20006F5F7F4F8F4F9F4F16C0882311F096E929
:103E300011C0772321F09EE8872F762F05C06623D7
:103E400071F096E8862F70E060E02AF09A95660F90
:103E5000771F881FDAF7880F9695879597F9089549
:103E6000990F0008550FAA0BE0E8FEEF161617068B
:103E7000E807F907C0F012161306E407F50798F0F3
:103E8000621B730B840B950B39F40A2661F0232B0C
:103E9000242B252B21F408950A2609F4A140A69588
:103EA0008FEF811D811D08950E94671F0C94D81FFC
:103EB0000E94CA1F38F00E94D11F20F0952311F0F4
:103EC0000C94C11F0C94C71F11240C940C200E9449
:103ED000E91F70F3959FC1F3950F50E0551F629F46
:103EE000F001729FBB27F00DB11D639FAA27F00D53
:103EF000B11DAA1F649F6627B00DA11D661F829F7A
:103F00002227B00DA11D621F739FB00DA11D621F5E
:103F1000839FA00D611D221F749F3327A00D611D7B
:103F2000231F849F600D211D822F762F6A2F11245D
:103F30009F5750409AF0F1F088234AF0EE0FFF1F90
:103F4000BB1F661F771F881F91505040A9F79E3FE7
:103F5000510580F00C94C11F0C940C205F3FE4F3DA
:103F6000983ED4F3869577956795B795F795E7953D
:103F70009F5FC1F7FE2B880F911D9695879597F946
:103F8000089597F99F6780E870E060E008959FEFDB
:103F900080EC089500240A941616170618060906E0
:103FA000089500240A9412161306140605060895AF
:103FB000092E0394000C11F4882352F0BB0F40F437
:103FC000BF2B11F460FF04C06F5F7F4F8F4F9F4F77
:103FD000089557FD9058440F551F59F05F3F71F0F9
:103FE0004795880F97FB991F61F09F3F79F0879560
:103FF0000895121613061406551FF2CF4695F1DFE9
:1040000008C0161617061806991FF1CF8695710578
:10401000610508940895E894BB2766277727CB01AC
:1040200097F90895A1E21A2EAA1BBB1BFD010DC032
:10403000AA1FBB1FEE1FFF1FA217B307E407F50758
:1040400020F0A21BB30BE40BF50B661F771F881F34
:10405000991F1A9469F760957095809590959B01CA
:10406000AC01BD01CF010895052E97FB1EF400940D
:104070000E944B2057FD07D00E94122007FC03D05E
:104080004EF40C944B2050954095309521953F4F20
:104090004F4F5F4F089590958095709561957F4F34
:1040A0008F4F9F4F08950E945E20A59F900DB49F53
:1040B000900DA49F800D911D11240895A29FB00121
:1040C000B39FC001A39F700D811D1124911DB29F4C
:1040D000700D811D1124911D08955058BB27AA27EA
:1040E0000E9485200C94D81F0E94CA1F38F00E949D
:1040F000D11F20F039F49F3F19F426F40C94C71F08
:104100000EF4E095E7FB0C94C11FE92F0E94E91F14
:1041100058F3BA17620773078407950720F079F4FC
:10412000A6F50C940B200EF4E0950B2EBA2FA02DC3
:104130000B01B90190010C01CA01A0011124FF2754
:10414000591B99F0593F50F4503E68F11A16F0404F
:10415000A22F232F342F4427585FF3CF469537954E
:104160002795A795F0405395C9F77EF41F16BA0B13
:10417000620B730B840BBAF09150A1F0FF0FBB1FC1
:10418000661F771F881FC2F70EC0BA0F621F731F0A
:10419000841F48F4879577956795B795F7959E3F67
:1041A00008F0B0CF9395880F08F09927EE0F9795F8
:1041B000879508950E94CA1F60F080E891E009F495
:1041C0009EEF0E94D11F28F040E851E071F45EEFAD
:1041D0000CC00C94C71F0C940B20E92FE0780E94B0
:1041E000E91F40F3092E052AB1F3261737074807C0
:1041F000590738F00E2E07F8E02569F0E025E06455
:104200000AC0EF6307F8009407FADB01B9019D01CA
:10421000DC01CA01AD01EF930E9463210E94D81F07
:104220000E941D215F91552339F02BED3FE049E4B9
:1042300050FD49EC0C946E200895DF93DD27B92FD3
:10424000BF7740E85FE31616170648075B0718F4C8
:10425000D92F0E9420229F938F937F936F930E9468
:104260007822ECEAF0E00E94F4210E94D81F2F91FE
:104270003F914F915F910E94671FDD2351F090584D
:10428000A2EA2AED3FE049EC5FE3D0785D270E9487
:104290008520DF910C94D81F0E9460210C94D81FB8
:1042A0000E94D11F58F00E94CA1F40F029F45F3FBE
:1042B00029F00C94C11F51110C940C200C94C71FB1
:1042C0000E94E91F68F39923B1F3552391F3951BDD
:1042D000550BBB27AA2762177307840738F09F5F27
:1042E0005F4F220F331F441FAA1FA9F335D00E2E94
:1042F0003AF0E0E832D091505040E695001CCAF701
:104300002BD0FE2F29D0660F771F881FBB1F2617C3
:1043100037074807AB07B0E809F0BB0B802DBF019A
:10432000FF2793585F4F3AF09E3F510578F00C9469
:10433000C11F0C940C205F3FE4F3983ED4F38695A4
:1043400077956795B795F7959F5FC9F7880F911D8A
:104350009695879597F90895E1E0660F771F881F76
:10436000BB1F621773078407BA0720F0621B730B29
:10437000840BBA0BEE1F88F7E09508950E94C521C3
:104380006894B1110C940C2008950E94F11F88F0DC
:104390009F5798F0B92F9927B751B0F0E1F0660F09
:1043A000771F881F991F1AF0BA95C9F714C0B1304A
:1043B00091F00E940B20B1E008950C940B20672F20
:1043C000782F8827B85F39F0B93FCCF38695779579
:1043D0006795B395D9F73EF4909580957095619562
:1043E0007F4F8F4F9F4F0895DF93CF931F930F936E
:1043F000FF92EF92DF927B018C01689406C0DA2E67
:10440000EF010E94671FFE01E894A5912591359167
:1044100045915591A6F3EF010E948520FE01970179
:10442000A801DA9469F7DF90EF90FF900F911F9148
:10443000CF91DF9108950E94301F08F48FEF089507
:104440009B01AC0160E070E080E89FE30C944C219C
:10445000FA01EE0FFF1F309621053105A1F161151C
:10446000710561F48038BFE39B0749F16894903887
:10447000810561F08038BFEF9B0741F099234AF531
:10448000FF3FE1053105210519F1E8940894E7950E
:10449000D901AA2329F4AB2FBE2FF85FD0F310C0A7
:1044A000FF5F70F4A695E0F7F73950F019F0FF3A86
:1044B00038F49F779F930DD00F9007FC9058089584
:1044C00046F00C94C71F60E070E080E89FE3089519
:1044D0004FE79F775F934F933F932F930E94F8226C
:1044E0002F913F914F915F910E94541F0C94842211
:1044F0009B01AC010C94541F29F416F00C94C11FBD
:104500000C940B200C94C71F0E94F11FA8F396383F
:10451000A0F707F80F92E8942BE33AEA48EB5FE73D
:104520000E946A1F0F920F920F924DB75EB70F92C3
:104530000E944023E9EDF0E00E94F4214F915F9149
:10454000EF91FF91E595EE1FFF1F49F0FE57E068E0
:104550004427EE0F441FFA95E1F74195550B0E9451
:10456000BA220F9007FE0C94202208950C94C11FCC
:104570000C9474230E94F11FD8F39923C9F3940F6C
:10458000511DA3F39150504094F059F0882332F01C
:10459000660F771F881F91505040C1F79E3F51050D
:1045A0002CF7880F911D9695879597F908955F3F91
:1045B000ACF0983E9CF0BB27869577956795B795AC
:1045C00008F4B1609395C1F7BB0F58F711F460FF81
:1045D000E8CF6F5F7F4F8F4F9F4FE3CF0C940C203E
:1045E00016F00C9474230C94C71F68940C94C11F8C
:1045F0000E94F11FA8F39923C1F3AEF3DF93CF9389
:104600001F930F93FF92C92FDD2788232AF021974C
:10461000660F771F881FDAF720E030E040E85FEB95
:104620009FE3883920F0803E38F021968F770E94F2
:104630006E20E1E0F1E004C00E946E20EEE2F1E0C5
:104640000E94F4218B01BE01EC01FB2E6F57710912
:104650007595771F880B990B0E94F51E28E132E7AC
:1046600041E35FE30E94671FAF2D9801AE01FF9009
:104670000F911F91CF91DF910E9485200C94D81F3C
:10468000FA01DC01AA0FBB1F9B01AC01BF5728F444
:10469000222733274427507820C0B75190F4AB2FFE
:1046A0000024469537952795011CA395D2F3002049
:1046B00071F0220F331F441FB395DAF30ED00C9420
:1046C0006D2061307105A0E88A07B94630F49B017E
:1046D000AC016627772788279078309621F02083D1
:1046E00031834283538308959F3F31F0915020F4EA
:1046F000879577956795B795880F911D96958795BE
:1047000097F9089597FB072E16F4009407D077FDCC
:1047100009D00E949C2307FC05D03EF4909581951A
:104720009F4F0895709561957F4F0895EE0FFF1F7D
:104730000590F491E02D0994AA1BBB1B51E107C021
:10474000AA1FBB1FA617B70710F0A61BB70B881F21
:10475000991F5A95A9F780959095BC01CD010895B0
:104760000F931F93CF93DF938230910510F482E073
:1047700090E0E0916503F091660330E020E0B0E066
:10478000A0E0309799F42115310509F44AC0281B9F
:10479000390B24303105D8F58A819B81611571056B
:1047A00089F1FB0193838283FE0111C04081518115
:1047B0000281138148175907E0F04817590799F407
:1047C000109761F012960C93129713961C933296E1
:1047D000CF01DF91CF911F910F9108950093650351
:1047E00010936603F4CF2115310551F0421753079A
:1047F00038F0A901DB019A01BD01DF01F801C1CF49
:10480000EF01F9CF9093660380936503CDCFFE014E
:10481000E20FF31F8193919322503109398328834A
:10482000D7CF2091630330916403232B41F420916F
:104830001B0130911C01309364032093630320918A
:10484000190130911A012115310541F42DB73EB7F8
:1048500040911D0150911E01241B350BE091630313
:10486000F0916403E217F307A0F42E1B3F0B281707
:10487000390778F0AC014E5F5F4F2417350748F0D9
:104880004E0F5F1F50936403409363038193919392
:104890009FCFF0E0E0E09CCFCF93DF930097E9F06B
:1048A000FC01329713821282A0916503B0916603D6
:1048B000ED0130E020E01097A1F420813181820FDA
:1048C000931F20916303309164032817390709F07F
:1048D00061C0F0936403E0936303DF91CF91089587
:1048E000EA01CE17DF07E8F54A815B819E01411599
:1048F0005105B1F7E901FB83EA8349915991C40F4E
:10490000D51FEC17FD0761F4808191810296840F19
:10491000951FE90199838883828193819B838A8390
:10492000F0E0E0E012968D919C9113970097B9F515
:104930002D913C911197CD010296820F931F2091EA
:104940006303309164032817390739F6309751F51E
:104950001092660310926503B0936403A0936303FF
:10496000BCCFD383C28340815181840F951FC81768
:10497000D90761F44E5F5F4F88819981480F591FB5
:10498000518340838A819B819383828321153105E2
:1049900009F0B0CFF0936603E09365039ECFFD016D
:1049A000DC01C0CF13821282D7CFFB01DC0102C031
:1049B00001900D9241505040D8F70895F894FFCFE0
:1049C000FFFFFFFF010100C18081000000FFFFFF2A
:1049D000FF00E1000000000000000067038000000D
:1049E0000000001C0866082808A80600FF01000156
:1049F0000000FFFF0000010001FF00000000006157
:104A0000035F0682037703C9038703A50300000041
:104A1000009C06FE06C306A80600000000B5074974
:104A20000719081808564D4450565F317C315F56BF
:0E4A30004D4450560A00564D4450525F00004F
:00000001FF
