:100000000C949A010C94C2010C94C2010C94C2018C
:100010000C94C2010C94C2010C94C2010C94C20154
:100020000C94C2010C94C2010C945E020C94260440
:100030000C94C2010C94C2010C94C2010C94C20134
:100040000C94C2010C94C2010C94C2010C94C20124
:100050000C94C2010C94C2010C94C2010C94B70E12
:100060000C94C2010C94C2010C94C2010C94C20104
:100070000C94C2010C94C2010C94C2010C94C201F4
:100080000C94C2010C94C2010C94C2010C94C201E4
:100090000C94C2010C94C2010C94C2010C94C201D4
:1000A0000C94C2010C94C2010C94C201C70BCA0B80
:1000B000B90BBD0BC30BEB0BEB0BEB0BCE0BD20B4E
:1000C000D60BDC0BE00BEB0BE60B084AD73B3BCE29
:1000D000016E84BCBFFDC12F3D6C74319ABD568347
:1000E0003DDA3D00C77F11BED9E4BB4C3E916BAAFF
:1000F000AABE000000803F07634236B79BD8A71A0C
:1001000039685618AEBAAB558C1D3CB7CC5763BD99
:100110006DEDFD753EF6177231BF000000803F089F
:10012000000000BE922449123EABAAAA2ABECDCC42
:10013000CC4C3E00000080BEABAAAAAA3E00000044
:1001400000BF000000803F0000000000084178D39D
:10015000BB4387D1133D190E3CC3BD4282AD2B3E3C
:1001600068EC8276BED98FE1A93E4C80EFFFBE01DC
:10017000C4FF7F3F000000000000080B00020202E5
:100180000100090400000102020000052400100122
:1001900005240101010424020605240600010705C7
:1001A000810310004009040100020A000000070555
:1001B0000202400000070583024000000403090416
:1001C00012010002EF0201404123368000010102CA
:1001D000030141726475696E6F204C4C430041729B
:1001E0006475696E6F204C656F6E6172646F000795
:1001F0000605040100080A0B0C0D0905010906A1FA
:10020000018502050719E029E7150025017501950B
:10021000088102950175088103950675081500256A
:10022000730507190029738100C000000000000059
:1002300000002A2B28000000000000000000000041
:10024000000000000000000000002C9EB4A0A1A24D
:10025000A434A6A7A5AE362D3738271E1F2021228D
:1002600023242526B333B62EB7B89F848586878886
:10027000898A8B8C8D8E8F90919293949596979876
:10028000999A9B9C9D2F3130A3AD35040506070834
:10029000090A0B0C0D0E0F10111213141516171856
:1002A000191A1B1C1DAFB1B0B500000000002400DE
:1002B00027002A002D003000000000002500280043
:1002C0002B002E0031000000000023002600290032
:1002D0002C002F000404040404030405020202029B
:1002E00004030202020206060606060604040202CF
:1002F00002040404080201104080401020408040A5
:10030000800802040180402010020110801020406B
:1003100040200000000200090F0000030401000C4F
:1003200000000000000000000000000000000000CD
:1003300000003C1C11241FBECFEFDAE0DEBFCDBFB2
:1003400011E0A0E0B1E0EAE0FAE402C005900D920D
:10035000A237B107D9F723E0A2E7B1E001C01D92AF
:10036000A531B207E1F711E0CAE9D1E004C0219755
:10037000FE010E94BA23C939D107C9F70E94F810BB
:100380000C9403250C9400004091CE015091CF01B4
:100390002091CC013091CD0142175307B4F49091D4
:1003A000E8009570E1F39091E80092FD19C0809308
:1003B000F1008091CE019091CF0101968F73992722
:1003C000892B19F48EEF8093E8008091CE019091F3
:1003D000CF0101969093CF018093CE0181E00895E3
:1003E00080E00895DF92EF92FF920F931F93CF93D7
:1003F000DF93D82EF92EE42E062F10E0C8010196C7
:10040000880F0E94C40183E00E94C401CD2DDF2D1E
:100410000C0F1D1FC017D10789F0E7FE03C0FE01B6
:10042000849101C088810E94C401F82E80E00E945E
:10043000C4018F2121968111EDCF01C081E0DF91B0
:10044000CF911F910F91FF90EF90DF900895615031
:1004500030F02091F100FC0120830196F8CF28981C
:1004600084E68093D2010895CF92DF92EF92FF92BB
:100470000F931F93CF93DF936C017A018B01C0E040
:10048000D0E0CE15DF0581F0D8016D918D01D60148
:10049000ED91FC910190F081E02DC6010995892B29
:1004A00011F02196EECF7E01C701DF91CF911F9110
:1004B0000F91FF90EF90DF90CF9008951F920F92D1
:1004C0000FB60F9211248F939F938091E10090912A
:1004D000E100937F9093E10083FF0FC01092E90049
:1004E00091E09093EB001092EC0092E39093ED007A
:1004F0001092D30198E09093F00082FF20C093E027
:100500009093E9009091F200992319F09AE3909367
:10051000E8009091D101992339F09091D101915047
:100520009093D101992389F19091D201992339F0C7
:100530009091D20191509093D201992341F184FF7F
:1005400010C08091E2008E7E81608093E2008091F5
:10055000E1008F7E8093E1008091BF018E7E8061FB
:1005600011C080FF16C08091E2008E7E8061809372
:10057000E2008091E1008E7E8093E1008091BF01D6
:100580008E7E81608093BF0104C05D9ACDCF289A92
:10059000D6CF9F918F910F900FBE0F901F901895FF
:1005A000DF92EF92FF920F931F93CF93DF93D82E9A
:1005B0008A017B01E40EF51EEB01CE15DF0571F01B
:1005C000D7FE03C0FE01849101C088810E94C4014E
:1005D00021968111F2CF8FEF9FEF01C0C801DF910B
:1005E000CF911F910F91FF90EF90DF9008952FB75B
:1005F000F89487708093E9009091E800892F8072C9
:1006000095FF04C09091F20080E4891B2FBF0895EC
:100610007F928F929F92AF92BF92CF92DF92EF9292
:10062000FF920F931F93CF93DF93C82E8B017A0114
:100630008091D301811103C08FEF9FEF74C080912F
:10064000BF0180FF05C08091E00082608093E000E0
:10065000CE2DDF2DD12C8AEFB82E8C2D8770982EC1
:100660008C2D8072882E8C2D8074782E9AE3A92E82
:10067000209719F4DD2009F451C08C2D0E94F70257
:1006800081110AC0BA94BB20B9F261E070E080E049
:1006900090E00E94710EECCF282F30E0C217D307F4
:1006A0000CF48C2F9FB7F8949092E9002091E80009
:1006B00025FF32C0282F30E0C21BD30B882029F041
:1006C0008150A0F01092F100FBCFF801C7FE0AC0E4
:1006D000815050F044914093F1003196F9CF41910F
:1006E0004093F1008150D8F7020F131FDD2019F05D
:1006F000A092E8000AC08091E80085FD08C0A092A1
:10070000E800DD24D394209739F0D12C05C0209740
:1007100019F47110A092E8009FBFAACF5D9884E6FB
:100720008093D101C701DF91CF911F910F91FF906D
:10073000EF90DF90CF90BF90AF909F908F907F9081
:100740000895CF93DF93FC01DB01C281D381209711
:1007500019F47383628308C088859985009711F026
:10076000EC01FACFB987A887808112968C931297F3
:10077000818113968C931397908115968C91159780
:10078000890F808380E014969C9114978917A0F4B8
:100790009181C92FD0E0AE014A5F5E4F16962D9130
:1007A0003C911797280F311DE9012881EA01288320
:1007B0009F5F91838F5FE7CF81E0DF91CF910895B5
:1007C0008091C40181110DC082E08093C00184E05A
:1007D0008093C1011092C3011092C20181E0809305
:1007E000C40180EC91E008950F931F93CF93DF93A2
:1007F0001F92CDB7DEB782E0898342E450E06AE71A
:1008000071E080E80E94D0020E94E003DC011296B1
:100810000D911C9113970115110589F0D801ED91E7
:10082000FC910280F381E02DBE016F5F7F4FC80114
:10083000099597FD04C0F80100851185ECCF8981E9
:100840000F90DF91CF911F910F9108951F920F92FA
:100850000FB60F921124CF92DF92EF92FF920F9377
:100860001F932F933F934F935F936F937F938F9338
:100870009F93AF93BF93EF93FF93CF93DF93CDB746
:10088000DEB76C97DEBFCDBF1092E9008091E80023
:1008900083FFFBC168E0CE0145960E94270282EFEC
:1008A0008093E8008D8987FF05C09091E80090FF54
:1008B000FCCF03C09EEF9093E800982F907609F04C
:1008C000C6C09E894F89588D2F89F88C91110CC014
:1008D000803829F48091BE018093F10002C010920B
:1008E000F1001092F10045C1913051F4811141C1E4
:1008F0004130510509F03DC18091BE018D7F0BC093
:10090000933061F4811135C14130510509F031C195
:100910008091BE0182608093BE012BC1953049F465
:100920008091E80080FFFCCF822F80688093E300F5
:1009300020C1963009F05EC00B8D1C8D22E0109214
:10094000E9001092CF011092CE01F21232C0109243
:10095000CD011092CC010E94F40399E0BE016F5FBB
:100960007F4FDB01E92F1D92EA95E9F79983FA821F
:1009700091E09E8390EA98879AEF99872091CE0123
:100980003091CF01275F3F4F3C832B838D831092A3
:10099000E9001092CF011092CE011093CD01009387
:1009A000CC0149E050E080E00E94D0020E94F403B4
:1009B000E0C01093CD010093CC010E94E003DC0164
:1009C00012960D911C9113970115110509F4BBC0E6
:1009D000D801ED91FC910480F581E02DBE016B5EA4
:1009E0007F4FC8010995009709F0C7C0F80100853D
:1009F0001185EACF973009F445C1983021F481E0A0
:100A00008093F100B6C0993009F0B3C0837009F04B
:100A100039C1E7E0F1E081E031E096E32081211186
:100A200009C08EE78093EA001092EA008F898093D4
:100A3000D3019FC08093E9003093EB002191209374
:100A4000EC009093ED008F5F873041F7EACF8B8DFC
:100A50009C8D1092E9001092CF011092CE019093DC
:100A6000CD018093CC01898D811153C08E899D89E0
:100A7000913A49F4813209F005C147E050E061E163
:100A800071E080E0BBC0913209F0FCC0833269F4B0
:100A90008F89988DA0E0B0E080930D0190930E01B6
:100AA000A0930F01B093100164C0803269F480916B
:100AB000E80082FFFCCF67E081E191E00E9427021D
:100AC0008BEF8093E80055C0823209F052C08F89C5
:100AD00080931801EEEFFFE7859194918B3F9C4D39
:100AE00019F0E0E0F8E002C0EEEFFAE080911101C9
:100AF00090911201A0911301B0911401803B944098
:100B0000A105B10509F09EC08091180180FF79C050
:100B100099C00E94E003FC010281138101151105B7
:100B200009F4B0C0D801ED91FC910190F081E02D65
:100B3000BE016B5E7F4FC801099581111AC0F80193
:100B400000851185EBCFF1E0FF1609F44EC0F3E00C
:100B5000FF1298C08F89882309F44AC0823089F433
:100B600040E860E18EED91E00E94F201882309F4F3
:100B700089C08EEF8093E80088C018161906CCF360
:100B800081C0813029F440E86BE082ED91E0ECCF48
:100B9000833009F077C00E94E003DC011296ED90EB
:100BA000FC9013978E010F5F1F4F6801E114F10451
:100BB00079F0D701ED91FC910680F781E02DB80125
:100BC000C7010995080F111DF701E084F184EECFEC
:100BD000D8011C92F60101900020E9F73197BF017E
:100BE0006C197D0940E0C601BFCF60EC71E002C026
:100BF0006CEB71E0FB01449150E080E80E94D00270
:100C0000B8CFEE3F2AE0F20751F08081918187371B
:100C1000A7E79A0721F09093FF0A8093FE0A87E7DF
:100C200097E791838083809160008093D0019BE05F
:100C300088E10FB6F894A895809360000FBE90935A
:100C4000600097CF808191818737974709F091CFD6
:100C5000A895809160008861809360008091D001A8
:100C600080936000EE3FBAE0FB0739F08091FE0A06
:100C70009091FF0A918380837CCF1092FF0A10929B
:100C8000FE0A77CF81E28093EB006C960FB6F89462
:100C9000DEBF0FBECDBFDF91CF91FF91EF91BF912E
:100CA000AF919F918F917F916F915F914F913F9104
:100CB0002F911F910F91FF90EF90DF90CF900F90A9
:100CC0000FBE0F901F901895CF92DF92EF92FF9278
:100CD0000F931F93CF93DF93D901E8014217530776
:100CE0001CF0FA01690102C06A01F9018823B1F11F
:100CF000CB016C157D050CF4C6019F018E179F0773
:100D00000CF49C01A417B50734F4CF01821B930B9C
:100D10009C012C0D3D1D0D2C000CEE08FF08C90197
:100D2000330FAA0BBB0B9C01AD012C193D094E09D9
:100D30005F09AFEFBFE70E94311F8F01FF0F220B4A
:100D4000330BA90198012C193D094E095F090E9436
:100D5000121F2883398382E090E002C080E090E097
:100D6000DF91CF911F910F91FF90EF90DF90CF9087
:100D700008952091D301211103C08FEF9FEF0895B3
:100D80005FB7F89422E02093E9002091F20030E070
:100D90001216130614F421E030E0422FFC0184E621
:100DA000415038F028988093D2019091F1009193AE
:100DB000F7CF2115310521F08091F200882319F039
:100DC0005FBFC90108958BE68093E800F9CFCF9308
:100DD000DF931F92CDB7DEB76983DC01ED91FC9103
:100DE0000280F381E02D41E050E0BE016F5F7F4F54
:100DF00009950F90DF91CF91089583E08093E900EA
:100E00008091F200882319F08AE38093E800089526
:100E1000CF93DF931F92CDB7DEB7FC018485958514
:100E200097FD05C02FEF3FEF358724870BC0CE011C
:100E300001960E94B906019719F4898190E002C0D9
:100E40008FEF9FEF0F90DF91CF9108950F931F9336
:100E5000CF93DF931F92CDB7DEB78C01FC01848561
:100E6000958597FF0EC0CE0101960E94B9060197A5
:100E700019F4898190E002C08FEF9FEFF801958708
:100E80008487F801848595850F90DF91CF911F911C
:100E90000F910895FC018485958597FD0BC09FB740
:100EA000F89482E08093E9008091F2009FBF90E087
:100EB000019608959FB7F89482E08093E9008091AD
:100EC000F2009FBF90E00895CF93DF93EC018091F3
:100ED0001801882331F083E00E94080318161906D0
:100EE00034F081E090E09B838A8380E090E0DF91A2
:100EF000CF91089583E00E94F70290E0089581E089
:100F00008093DA018093DB0120EE31E03093DD0144
:100F10002093DC011092DF011092DE0123E331E027
:100F20003093D7012093D6011092E2011092E10193
:100F30001092E4011092E3018093E5018093E601B1
:100F400081EC8093E0010E94E003FC01418120914B
:100F5000DA0130E0240F311D2830310524F466ED2C
:100F600071E00C94A10308957F928F929F92AF92AB
:100F7000BF92CF92DF92EF92FF920F931F93CF9386
:100F8000DF93CDB7DEB7ADB6BEB680916E022DB79A
:100F90003EB7281B31090FB6F8943EBF0FBE2DBFD8
:100FA0008DB79EB701966C01E0903D02F12C8091C7
:100FB000390290913A02D601FC019F01281B390B9E
:100FC0002E153F051CF421912D93F7CF80913E0201
:100FD000882369F1809135029091360297FD0AC00D
:100FE00068E671E00E94A6236DE270E00E94A623ED
:100FF000262F01C028E0809137029091380297FD9A
:1010000009C068E671E00E94A6236DE270E00E94CC
:10101000A62301C068E0F601EE0DFF1D30E1639FDD
:10102000C0011124822B8083C70101967C018601B7
:101030000E0D1F1D20914302309144024091410248
:101040005091420260911F027091200280913F02F4
:1010500081700E946406E80EF91E86010E0D1F1DA8
:10106000209147023091480240914502509146023A
:10107000609121027091220280913F0286958170D9
:101080000E946406E80EF91E86010E0D1F1D2091B8
:101090004B0230914C024091490250914A026091BA
:1010A00023027091240280913F0282FB882780F9FD
:1010B0000E946406E80EF91E86010E0D1F1D209188
:1010C0004F023091500240914D0250914E0260917A
:1010D00025027091260280913F0283FB882780F9C8
:1010E0000E946406E80EF91E86010E0D1F1D209158
:1010F000530230915402409151025091520260913A
:1011000027027091280280913F02829581700E948F
:101110006406E80EF91E86010E0D1F1D2091570270
:101120003091580240915502509156026091290227
:1011300070912A0280913F0285FB882780F90E94E6
:101140006406E80EF91E86010E0D1F1D20915B023C
:1011500030915C024091590250915A0260912D02E7
:1011600070912E028091400281700E946406E80E08
:10117000F91E86010E0D1F1D20915F023091600245
:1011800040915D0250915E0260912B0270912C02A1
:1011900080914002869581700E946406E80EF91ED7
:1011A00086010E0D1F1D2091630230916402409153
:1011B00061025091620260912F0270913002809121
:1011C000400282FB882780F90E946406E80EF91E1F
:1011D00086010E0D1F1D209167023091680240911B
:1011E00065025091660260913102709132028091E5
:1011F000400283FB882780F90E9464068E0D9F1DA4
:101200008601080F191F20916B0230916C024091EA
:10121000690250916A0260913302709134028091A8
:101220004002829581700E94640610916E02709057
:101230006D020E94AA0F4C01412F50E07A019FEFEE
:10124000E91AF90AEDB7FEB7EE19FF090FB6F894DF
:10125000FEBF0FBEEDBF0DB71EB70F5F1F4F7182F0
:10126000B601C80101960E94FA24F4018381A70106
:10127000B80180640E9408030FB6F894BEBE0FBE8A
:10128000ADBEDF91CF911F910F91FF90EF90DF9056
:10129000CF90BF90AF909F908F907F900895909146
:1012A0003C028917F8F4982F969596959695E091BB
:1012B0003902F0913A02E90FF11D282F277081E0E1
:1012C00090E0A0E0B0E004C0880F991FAA1FBB1FE8
:1012D0002A95D2F72081822B808380913B02811155
:1012E0000C94B407089590913C02891700F5982F4B
:1012F000969596959695E0913902F0913A02E90F0C
:10130000F11D282F277081E090E0A0E0B0E004C03C
:10131000880F991FAA1FBB1F2A95D2F7809590812D
:101320008923808380913B0281110C94B407089536
:101330004F925F926F927F928F929F92AF92BF92E5
:10134000CF92DF92EF92FF920F931F93CF93DF9391
:1013500000D000D0CDB7DEB749835A836B837C833E
:1013600048015901BC01990F880B990B0E94FB2081
:10137000A50194010E946D1F9B01AC010E946E1F8C
:101380002B013C01A5019401C701B6010E946D1F0C
:101390009B01AC01C301B2010E94512020E030E06A
:1013A00040E85FE30E946D1F6B017C0120E030E0AC
:1013B000A9010E94D221181624F0C701B601905845
:1013C00002C0C701B60129813A814B815C810E942C
:1013D0004C224B015C0120E030E0A901C701B601BD
:1013E0000E94D22118166CF020E030E0A901C7015C
:1013F000B6010E944C2087FD09C020E030E0A90121
:1014000009C020E030E040E85FE304C020E030E0C5
:1014100040E85FEBC501B4010E94DF216B017C0154
:1014200020E030E040E85FEB0E944C2087FD14C0D4
:1014300020E030E040E85FE3C701B6010E94D2211E
:1014400018160CF120E030E0A901C701B6010E9496
:10145000D22118165CF006C0C12CD12C90E8E92EE0
:101460009FEBF92EC701B601905802C0C701B60123
:1014700020E030E0A9010E944C2087FF0AC0C12C67
:10148000D12C760106C0C12CD12C80E8E82E8FE348
:10149000F82EC701B6010F900F900F900F90DF91BB
:1014A000CF911F910F91FF90EF90DF90CF90BF9061
:1014B000AF909F908F907F906F905F904F90089526
:1014C000611102C00C9473090C944F09CF93DF9300
:1014D000EC01CF3F8FEFD80761F1BE010D2E000C5C
:1014E000880B990B0E94FB2020E030E044EB53E492
:1014F0000E944C2087FF02C0C859DE4FBE010D2E4E
:10150000000C880B990B0E94FB2020E030E044EB9C
:1015100053E40E94D221181614F4C856D140CE01CB
:101520006DE270E00E94A6237093D5016093D40110
:1015300004C0D093D501C093D401C091D401D091FF
:10154000D50161E0209709F060E080E20E94600A26
:1015500061E0C130D10509F060E081E20E94600ADB
:1015600061E0C230D10509F060E082E20E94600AC9
:1015700061E0C330D10509F060E083E20E94600AB7
:1015800061E0C430D10509F060E084E20E94600AA5
:1015900061E0C530D10509F060E085E20E94600A93
:1015A00061E0C630D10509F060E086E20E94600A81
:1015B00061E0279709F060E087E2DF91CF910C941A
:1015C000600A1F93CF93DF93182F60E0809177021A
:1015D0000E94060E612F617080916F020E94060EBC
:1015E00011FB662760F9809171020E94060E12FBC2
:1015F000662760F9809173020E94060E13FB66272E
:1016000060F9809175020E94060EE0918302E2313A
:1016100008F0E251F0E0E151FE4FE49180917B004F
:10162000E3FB992790F9C92F90E0D92F95E0CC0FD3
:10163000DD1F9A95E1F78F7DC82BC0937B00E77083
:10164000E064E0937C0080917A00806480937A006B
:1016500080917A0086FDFCCF8091780020917900FE
:1016600090E0922BDF91CF911F9108950F931F93DC
:10167000CF938C01C62F60E0809177020E94060E06
:101680000230110531F10330110509F440C0013079
:10169000110509F05EC06C2F617080916F020E948D
:1016A000060EC1FB662760F9809171020E94060E4A
:1016B000C2FB662760F9809173020E94060EC3FB8D
:1016C000662760F9809175020E94060E80917F0264
:1016D0003BC06C2F617080916F020E94060EC1FBAF
:1016E000662760F9809171020E94060EC2FB662790
:1016F00060F9809173020E94060EC3FB662760F9B1
:10170000809175020E94060E809181021DC06C2F8F
:10171000617080916F020E94060EC1FB662760F91E
:10172000809171020E94060EC2FB662760F98091CB
:1017300073020E94060EC3FB662760F98091750252
:101740000E94060E80918302CF911F910F910C94FD
:10175000DD0D80E090E0CF911F910F91089590E012
:10176000FC013197EF30F105B0F5EA5AFF4F0C94C8
:10177000BA23809180008F7703C0809180008F7D95
:1017800080938000089580918000877FF9CF84B591
:101790008F7702C084B58F7D84BD089580919000BD
:1017A0008F7707C0809190008F7D03C0809190005B
:1017B000877F8093900008958091C0008F7703C049
:1017C0008091C0008F7D8093C00008958091C200F9
:1017D000877F8093C20008953FB7F89480910D03EE
:1017E00090910E03A0910F03B091100326B5A89B12
:1017F00005C02F3F19F00196A11DB11D3FBFBA2FA3
:10180000A92F982F8827820F911DA11DB11DBC0102
:10181000CD0142E0660F771F881F991F4A95D1F7C7
:101820000895DC01FB0191818081813A31F481E0EE
:10183000913091F0933089F411C0813271F49B3072
:1018400021F482811F968C9305C09A3031F48281F5
:1018500050968C9381E00895089580E00895FC01EE
:10186000228130E0FB01448155812417350711F4B2
:101870000C94110C80E00895DC01FB0188E4808366
:1018800089E4818384E482831D969C911D979F70D7
:101890009F5B93831D968D919C911E9724E0969556
:1018A00087952A95E1F78F708F5B848385E0089593
:1018B000CF92DF92EF92FF920F931F93CF93DF931C
:1018C0006C01EB017B01E40EF51E00E010E0CE158B
:1018D000DF0581F069916D30D1F3D601ED91FC9176
:1018E0000190F081E02DC6010995892B19F00F5F59
:1018F0001F4FEDCFC801DF91CF911F910F91FF9046
:10190000EF90DF90CF900895089580E090E00895E3
:10191000FC01228130E0FB01448155812417350709
:1019200011F40C94110C80E00895FC0182818F5B0E
:10193000FB01808381E008950E94F524EF92FF92DD
:101940000F931F93CF93DF93FB012081213851F533
:101950002381223239F5DC0112962C9130E044814A
:10196000558142175307F1F4EC010B851C85E12CDE
:10197000F12C0115110591F0F80144815581628126
:10198000738180E80E94D0028F3FFFEF9F0769F0CC
:10199000E80EF91ED8010D911C91EBCF81E08F87E5
:1019A000C70105C080E090E002C08FEF9FEFDF919C
:1019B000CF911F910F91FF90EF900895CF93DF93F8
:1019C000CDB7DEB769970FB6F894DEBF0FBECDBFB7
:1019D000FC01DB018C918F5F8C93BE016F5F7F4FA9
:1019E00089E1DB011D928A95E9F729E0298384E0EA
:1019F0008A8391E09D8383E08E832A8721E22B876F
:101A00009C879D879F8722E2288B27E02B8B25E0F0
:101A10002C8B8E8B20E430E0388F2F8B998F828136
:101A20008B8395858685998B8A8B838180688D8B46
:101A300049E150E080E00E94D00269960FB6F89428
:101A4000DEBF0FBECDBFDF91CF910895EF92FF9221
:101A50000F931F93CF93DF93FB012081213869F50A
:101A60002381223251F5DC0112962C9130E0448121
:101A700055814217530709F58C01FC01C385D485B4
:101A8000E12CF12C209799F04C815D816A817B815A
:101A90008E81811180E80E94D0028F3FFFEF9F0767
:101AA00079F0E80EF91E0990D881C02DEBCF81E0C6
:101AB000D8011F968C93C70105C080E090E002C05A
:101AC0008FEF9FEFDF91CF911F910F91FF90EF90DC
:101AD0000895CF93DF93CDB7DEB769970FB6F8942B
:101AE000DEBF0FBECDBFFC01DB018C918F5F8C93FD
:101AF000BE016F5F7F4F89E1DB011D928A95E9F797
:101B000029E0298384E08A8391E09D8383E08E83AA
:101B10002A8721E22B879C879D879F8722E2288B3B
:101B200027E02B8B25E02C8B8E8B20E430E0388F48
:101B30002F8B998F82818B8395858685998B8A8B54
:101B4000838180688D8B49E150E080E00E94D00263
:101B500069960FB6F894DEBF0FBECDBFDF91CF916F
:101B600008950F931F93CF93DF931F92CDB7DEB7E6
:101B70008B018091E701811105C00E947F0781E000
:101B80008093E70182E0898341E050E0BE016F5F0E
:101B90007F4F8091D9010E94080397FD08C0809172
:101BA000D90148E050E0B80180640E9408030F901A
:101BB000DF91CF911F910F910895CF93DF93282F3D
:101BC00030E0F901EE5EFC4F8491F901ED50FD4FDC
:101BD000D491F901EC52FD4FC491CC2391F08111C5
:101BE0000E94AF0BEC2FF0E0EE0FFF1FEA53FD4F0A
:101BF000A591B491EC91ED2381E090E021F480E097
:101C000002C080E090E0DF91CF9108951F93CF93C1
:101C1000DF93282F30E0F901EE5EFC4F8491F9014B
:101C2000ED50FD4FD491F901EC52FD4FC491CC23FE
:101C3000C1F0162F81110E94AF0BEC2FF0E0EE0FD8
:101C4000FF1FE854FD4FA591B4919FB7F89411116F
:101C500004C08C91D095D82302C0EC91DE2BDC938C
:101C60009FBFDF91CF911F910895CF93DF9390E0B5
:101C7000FC01ED50FD4F2491FC01EC52FD4F84918D
:101C8000882361F190E0880F991FFC01E655FD4F14
:101C9000C591D491FC01E854FD4FA591B491611117
:101CA00009C09FB7F8948881209582238883EC919E
:101CB0002E230BC0623061F49FB7F8948881322FD5
:101CC000309583238883EC912E2B2C939FBF06C0E5
:101CD0008FB7F894E8812E2B28838FBFDF91CF91A7
:101CE00008958F929F92AF92BF92CF92DF92EF9220
:101CF000FF926B017C010E94EC0B4B015C01C11453
:101D0000D104E104F104F1F00E94EC0BDC01CB0101
:101D100088199909AA09BB09883E9340A105B10514
:101D200070F321E0C21AD108E108F10888EE880EAC
:101D300083E0981EA11CB11CC114D104E104F1047C
:101D400019F7DDCFFF90EF90DF90CF90BF90AF906D
:101D50009F908F9008952FB7F89460910903709128
:101D60000A0380910B0390910C032FBF08951F92DB
:101D70000F920FB60F9211242F933F938F939F933F
:101D8000AF93BF938091090390910A03A0910B0335
:101D9000B0910C033091080323E0230F2D3720F47A
:101DA0000196A11DB11D05C026E8230F0296A11DB5
:101DB000B11D209308038093090390930A03A09315
:101DC0000B03B0930C0380910D0390910E03A0912F
:101DD0000F03B09110030196A11DB11D80930D0357
:101DE00090930E03A0930F03B0931003BF91AF9194
:101DF0009F918F913F912F910F900FBE0F901F9049
:101E00001895DC01683810F0685825C0E62FF0E01E
:101E100067FF12C0E058F10981E090E001C0880F2F
:101E2000EA95EAF7809514969C9114978923149665
:101E30008C93149760E00FC0E65DFD4F64916623BC
:101E4000F9F067FF08C014968C9114978D7F149653
:101E50008C9314976F77FD0186E0662321F09681BD
:101E6000691301C01682815031968111F6CFCD01E0
:101E7000BD016C5F7F4F0E94B10D81E090E008953D
:101E800080E090E00895EF92FF921F93CF93DF934D
:101E9000EC01162F683818F0E8E7E60F23C0E62FAC
:101EA000F0E067FF0DC0E058F10981E090E001C06B
:101EB000880FEA95EAF79C81892B8C83E0E012C0B9
:101EC000E65DFD4FE491E11107C081E090E09B8366
:101ED0008A83E12CF12C33C0E7FF04C08C8182603F
:101EE0008C83EF778E818E1709F18F81E817F1F0DF
:101EF0008885E817D9F08985E817C1F08A85E81741
:101F0000A9F08B85E81791F0DE01169680E090E04D
:101F10002D91211106C0DE01A80FB91F1696EC9372
:101F200005C001968630910599F7CFCFBE016C5F51
:101F30007F4FCE010E94B10DEE24E394F12C612F6E
:101F4000CE010E94010FC701DF91CF911F91FF9039
:101F5000EF90089580910003811137C081E0809354
:101F6000F3028093F40229EF32E03093F6022093DB
:101F7000F5021092F8021092F70229E631E0309350
:101F8000F0022093EF021092FB021092FA021092DC
:101F9000FD021092FC028093FE028093FF0281EC0E
:101FA0008093F9020E94E003FC0141812091F30239
:101FB00030E0240F311D2830310524F46FEE72E03B
:101FC0000E94A10381E0809300038FEE92E00895C8
:101FD0004F925F926F927F928F929F92AF92BF9239
:101FE000CF92DF92EF92FF920F931F93CF93DF93E5
:101FF000CDB7DEB728970FB6F894DEBF0FBECDBFC2
:1020000049835A836B837C83280139018D829E82A8
:10201000AF82B886BC01990F880B990B0E94FB20F8
:102020004B015C01A70196010E944C20882309F412
:10203000C0C0A7019601C501B4010E944C2087FFD2
:102040001CC0A3019201C501B4010E946D1F4B0188
:102050005C01A3019201C701B6010E946D1F9B01A3
:10206000AC01C501B4010E94512020E030E040E8FD
:102070005FE30E946D1F4B015C01A7019601C50142
:10208000B4010E94D2211816ECF4A7019601C501F3
:10209000B4010E946D1F4B015C01A70196016D8187
:1020A0007E818F8198850E946D1F9B01AC01C501C7
:1020B000B4010E94512020E030E0A9010E946E1F6F
:1020C0004B015C0120E030E0A901C501B4010E9490
:1020D000D221181624F0C501B401905802C0C501E0
:1020E000B40129813A814B815C810E944C226B01B1
:1020F0007C0120E030E0A901C501B4010E94D22199
:1021000018166CF020E030E0A901C501B4010E946E
:102110004C2087FD09C060E070E0CB0109C060E0A1
:1021200070E080E89FE304C060E070E080E89FEB2F
:10213000A70196010E94DF216B017C0120E030E0C5
:1021400040E85FEB0E944C2087FD14C020E030E0A7
:1021500040E85FE3C701B6010E94D2211816A4F03F
:1021600020E030E0A901C701B6010E94D221181673
:102170008CF006C0C12CD12C90E8E92E9FEBF92EF3
:10218000C701B601905808C0C12CD12C80E8E82EB8
:102190008FE3F82EC701B6012B8D3C8D4D8D5E8DE2
:1021A0000E944C2087FD05C05C2D4D2D3E2D2F2D0E
:1021B00004C050E040E030E020E0652F742F832F12
:1021C000922F28960FB6F894DEBF0FBECDBFDF91D9
:1021D000CF911F910F91FF90EF90DF90CF90BF9024
:1021E000AF909F908F907F906F905F904F900895E9
:1021F000CF93DF93CDB7DEB7E4970FB6F894DEBF89
:102200000FBECDBF789484B5826084BD84B58160F3
:1022100084BD85B5826085BD85B5816085BD8091B1
:102220006E00816080936E00109281008091810029
:102230008260809381008091810081608093810021
:102240008091800081608093800080919100826005
:1022500080939100809191008160809391008091A2
:1022600090008160809390008091C1008460809391
:10227000C1008091C10082608093C1008091C10043
:1022800081608093C1008091C30081608093C3000E
:102290008091C00082608093C0008091C200816004
:1022A0008093C20080917A00846080937A0080914C
:1022B0007A00826080937A0080917A0081608093B6
:1022C0007A0080917A00806880937A001092D3011E
:1022D0001092BE011092BF018091D700816080935F
:1022E000D70080EA8093D80089B5806189BD89B51F
:1022F000826089BD09B400FEFDCF61E070E080E03E
:1023000090E00E94710E8091D8008F7C8061809354
:10231000D8008091E000807F8093E0008091E10010
:102320008E7E8093E1008DE08093E200559A209AA2
:1023300062E080917F020E94350E60E08091790218
:102340000E94060E62E0809181020E94350E60E0DC
:1023500080917B020E94060E62E0809183020E94BF
:10236000350E60E080917D020E94060E10924202BE
:10237000109241028FEF93E09093440280934302C6
:1023800010924602109245029093480280934702B1
:1023900010924A021092490290934C0280934B0291
:1023A00010924E0210924D029093500280934F0271
:1023B0001092520210925102909354028093530251
:1023C0001092560210925502909358028093570231
:1023D00081E080933B020E94B40782EB9FE8A0E774
:1023E000BFE38093980190939901A0939A01B093D1
:1023F0009B0183E49DE1AFEABEEB8093940190934F
:102400009501A0939601B093970163E070E081E09D
:1024100090E00E94360B61E0892B09F060E080E0DB
:102420000E94600A67E070E081E090E00E94360B55
:1024300061E0892B09F060E081E00E94600A6AE0B7
:1024400070E081E090E00E94360B61E0892B09F09A
:1024500060E082E00E94600A6BE070E081E090E062
:102460000E94360B61E0892B09F060E083E00E9456
:10247000600A6DE070E081E090E00E94360B61E060
:10248000892B09F060E084E00E94600A62E070E05D
:1024900081E090E00E94360B61E0892B09F060E05A
:1024A00085E00E94600A66E070E081E090E00E94B2
:1024B000360B61E0892B09F060E086E00E94600A3B
:1024C00069E070E081E090E00E94360B61E0892BCA
:1024D00009F060E087E00E94600A6CE070E081E053
:1024E00090E00E94360B61E0892B09F060E088E003
:1024F0000E94600A6EE070E081E090E00E94360B7E
:1025000061E0892B09F060E089E00E94600A61E0E7
:1025100070E081E090E00E94360B61E0892B09F0C9
:1025200060E08AE00E94600A60E070E081E090E094
:102530000E94360B61E0892B09F060E08BE00E947D
:10254000600A65E070E081E090E00E94360B61E097
:10255000892B09F060E08CE00E94600A64E070E082
:1025600081E090E00E94360B61E0892B09F060E089
:102570008DE00E94600A66E070E082E090E00E94D8
:10258000360B61E0892B09F060E08EE00E94600A62
:1025900068E070E081E090E00E94360B61E0892BFA
:1025A00009F060E08FE00E94600A6FE070E081E077
:1025B00090E00E94360B61E0892B09F060E080E139
:1025C0000E94600A60E070E082E090E00E94360BBA
:1025D00061E0892B09F060E081E10E94600A62E01D
:1025E00070E082E090E00E94360B61E0892B09F0F8
:1025F00060E082E10E94600A61E070E082E090E0C9
:102600000E94360B61E0892B09F060E083E10E94B3
:10261000600A6CE070E082E090E00E94360B61E0BE
:10262000892B09F060E084E10E94600A63E070E0B9
:1026300082E090E00E94360B61E0892B09F060E0B7
:1026400085E10E94600A64E070E082E090E00E9410
:10265000360B61E0892B09F060E086E10E94600A98
:1026600065E070E082E090E00E94360B61E0892B2B
:1026700009F060E087E10E94600A6AE070E082E0B1
:1026800090E00E94360B61E0892B09F060E088E160
:102690000E94600A6BE070E082E090E00E94360BDE
:1026A00061E0892B09F060E089E10E94600A67E03F
:1026B00070E082E090E00E94360B61E0892B09F027
:1026C00060E08AE10E94600AC0907501D0907601B6
:1026D000E0907701F09078010E94AB0E970186019F
:1026E00008581F4F2F4F3F4F6017710782079307FE
:1026F00008F457C069E070E082E090E00E94360B79
:10270000898368E070E082E090E00E94360B880FD9
:10271000991FE981E82BE37090917201990F990F4D
:10272000E92BE0937201CD28CE28CF2811F00C942C
:10273000321CEF70F0E0E15EFE4F2081809173016A
:1027400090917401820F911D27FD9A9590937401C9
:1027500080937301009729F114F08BE101C08CE1A3
:102760000E944F090E94AB0E6B017C0128E7C20E4C
:10277000D11CE11CF11CC0927501D0927601E0924F
:102780007701F0927801C114D104E104F10449F019
:102790000E94AB0EC616D706E806F90610F40C9494
:1027A000EB1B809105018823E9F16EE070E082E087
:1027B00090E00E94360B2091BD0130E08217930714
:1027C000E1F06EE070E082E090E00E94360B21E0E4
:1027D000892B09F420E02093BD010E94AB0EDC019F
:1027E000CB0188589F4FAF4FBF4F8093B901909353
:1027F000BA01A093BB01B093BC010E94AB0E21E0D3
:10280000C090B901D090BA01E090BB01F090BC013A
:102810006C157D058E059F0508F020E0622F8DE187
:102820000E94600A6EE070E082E090E00E94360B49
:1028300061E0892B09F060E088E20E94600A8091E3
:1028400004018823E9F16FE070E082E090E00E94EB
:10285000360B2091B80130E082179307E1F06FE06A
:1028600070E082E090E00E94360B21E0892B09F4B1
:1028700020E02093B8010E94AB0EDC01CB01885808
:102880009F4FAF4FBF4F8093B4019093B501A0937A
:10289000B601B093B7010E94AB0E21E0C090B40125
:1028A000D090B501E090B601F090B7016C157D05B0
:1028B0008E059F0508F020E0622F8EE10E94600ADD
:1028C0006FE070E082E090E00E94360B61E0892BBF
:1028D00009F060E089E20E94600A6DE070E082E049
:1028E00090E00E94360B892B21F48FE10E944F0962
:1028F00003C08FE10E94730980E090E00E94E10A2A
:102900009E838D83BC01990F880B990B0E94FB203D
:102910006983672E782E892E862F962DA72DB82DA8
:102920008093B0019093B101A093B201B093B30131
:1029300081E090E00E94E10A9A878987BC01990FA3
:10294000880B990B0E94FB20962EA72EB82EC92E1D
:10295000862F9A2DAB2DBC2D8093AC019093AD01A9
:10296000A093AE01B093AF0183E090E00E94E10A32
:102970009E878D87BC01990F880B990B0E94FB20C5
:10298000D62EE72EF82E9D8F862F9E2DAF2DBD8D36
:102990008093A8019093A901A093AA01B093AB01E1
:1029A00087E090E00E94E10A9A8B898BBC01990F25
:1029B000880B990B0E94FB206093A4017093A501E2
:1029C0008093A6019093A7018EE090E00E94E10A17
:1029D0009E8B8D8BBC01990F880B990B0E94FB205D
:1029E0006093A0017093A1018093A2019093A30131
:1029F0008FE090E00E94E10A9A8F898FBC01990FC5
:102A0000880B990B0E94FB2060939C0170939D01A1
:102A100080939E0190939F012090000130900101CE
:102A200040900201509003013FEF23163306430606
:102A3000530609F49FC10E94AB0EDC01CB01821941
:102A40009309A409B509883E9340A105B10508F092
:102A5000B5C02DEC3CEC4CE45FE360911B0270913F
:102A60001C0280911D0290911E020E94DF211B0119
:102A70002C012DEC3CEC4CE45EE36981762D872D36
:102A8000982D0E94DF219B01AC01C201B1010E947F
:102A90006E1F2B013C0160931B0270931C028093FC
:102AA0001D0290931E022DEC3CEC4CE45FE3609120
:102AB0000F027091100280911102909112020E94F7
:102AC000DF2169837A838B839C832DEC3CEC4CE47F
:102AD0005EE3692D7A2D8B2D9C2D0E94DF219B01B9
:102AE000AC0169817A818B819C810E946E1F4B01B0
:102AF0005C0160930F027093100280931102909317
:102B000012022DEC3CEC4CE45FE360910302709107
:102B1000040280910502909106020E94DF216983E0
:102B20007A838B839C832DEC3CEC4CE45EE36D2D2F
:102B30007E2D8F2D9D8D0E94DF219B01AC0169812F
:102B40007A818B819C810E946E1F60930302709337
:102B50000402809305029093060240921302509261
:102B6000140260921502709216024092170250925F
:102B700018026092190270921A0280920B029092CF
:102B80000C02A0920D02B0920E0280920702909267
:102B90000802A0920902B0920A026093FF017093AA
:102BA000000280930102909302026093FB017093F4
:102BB000FC018093FD019093FE01FDC50E94AB0EC8
:102BC000DC01CB0182199309A409B5098031974230
:102BD000A105B10508F0CEC0209013023090140278
:102BE00040901502509016029101A2016981762D44
:102BF000872D982D0E944C2087FD04C02980362CFB
:102C0000472C582CC101D2018093130290931402D7
:102C1000A0931502B093160220901702309018026C
:102C20004090190250901A029101A2016981762DFB
:102C3000872D982D0E94D221181624F02980362C39
:102C4000472C582CC101D20180931702909318028F
:102C5000A0931902B0931A026090070270900802C4
:102C60008090090280910A0289839301482D582F90
:102C7000692D7A2D8B2D9C2D0E944C2087FD04C040
:102C8000692C7A2C8B2CC982C301A82DB981809321
:102C9000070290930802A0930902B0930A02609081
:102CA0000B0270900C0280900D0290910E0299839D
:102CB0009301482D592F692D7A2D8B2D9C2D0E9423
:102CC000D221181624F0692C7A2C8B2CC982C301CE
:102CD000A82DB98180930B0290930C02A0930D0252
:102CE000B0930E02A090FF01B0900002C0900102CC
:102CF000A0910202A98395014C2D5A2F6D2D7E2D96
:102D00008F2D9D8D0E94D22118162CF0AD2CBE2C3B
:102D1000CF2CBD8DB983C501AC2DB9818093FF0146
:102D200090930002A0930102B0930202A090FB01D5
:102D3000B090FC01C090FD012091FE012983950116
:102D40004C2D59816D2D7E2D8F2D9D8D0E944C20F7
:102D500087FD05C0AD2CBE2CCF2C3D8D3983C50120
:102D6000AC2DB9818093FB019093FC01A093FD01F0
:102D7000B093FE018091130290911402A09115026C
:102D8000B09116028D8F9E8FAF8FB8A320911B023A
:102D900030911C0240911D0250911E0229A33AA3BA
:102DA0004BA35CA38091170290911802A091190285
:102DB000B0911A028DA39EA3AFA3B8A71F921F9232
:102DC0001F921F928D8C9E8CAF8CB8A0C9A0DAA0E8
:102DD000EBA0FCA00DA11EA12FA138A540E050E062
:102DE00060E87FE38D819E810E94E80F0F900F9035
:102DF0000F900F902B013C012091070230910802A7
:102E00004091090250910A0229A73AA74BA75CA753
:102E100080910F0290911002A0911102B0911202C4
:102E20008DA79EA7AFA7B8AB20910B0230910C02E3
:102E300040910D0250910E0229AB3AAB4BAB5CAB0B
:102E40001F921F921F921F9289A49AA4ABA4BCA4A4
:102E5000CDA4DEA4EFA4F8A809A91AA92BA93CA91E
:102E600040E050E060E87FE389859A850E94E80FA2
:102E70000F900F900F900F9069837A838B839C83C0
:102E80001F921F921F921F928D8C9E8CAF8CB8A0A8
:102E9000C9A0DAA0EBA0FCA00DA11EA12FA138A50E
:102EA00040E050E060EC70E48D819E810E94E80F6C
:102EB0000F900F900F900F906D837E838F83988774
:102EC0001F921F921F921F9289A49AA4ABA4BCA424
:102ED000CDA4DEA4EFA4F8A809A91AA92BA93CA99E
:102EE00040E050E060EC70E489859A850E94E80F2C
:102EF0000F900F900F900F9069877A878B879C8730
:102F000020E030E0A901C301B2010E94D2211816CD
:102F10005CF420E030E040E85FE3C301B2010E94CE
:102F20004C2087FF1BC00AC020E030E040E85FEB88
:102F3000C301B2010E94D221181684F420E030E0CF
:102F4000A901C301B2010E94D221730162011816C6
:102F50005CF0F7FAF094F7F8F09406C0C12CD12C8D
:102F600030E8E32E3FE3F32EA701960160E070E026
:102F700080E89FE30E946D1F2D813E814F8158851F
:102F80000E94DF214B015C01A7019601C301B20140
:102F90000E94DF219B01AC01C501B4010E946E1F9C
:102FA0006D837E838F83988720E030E0A90169815B
:102FB0007A818B819C810E94D22118166CF420E0CA
:102FC00030E040E85FE369817A818B819C810E94D7
:102FD0004C2087FF21C00CC020E030E040E85FEBD0
:102FE00069817A818B819C810E94D2211816A4F478
:102FF00020E030E0A90169817A818B819C810E9467
:10300000D221C980DA80EB80FC8018165CF0F7FAD8
:10301000F094F7F8F09406C0C12CD12C20E8E22EF1
:103020002FE3F22EA701960160E070E080E89FE3B5
:103030000E946D1F29853A854B855C850E94DF21A2
:103040004B015C01A701960169817A818B819C818A
:103050000E94DF219B01AC01C501B4010E946E1FDB
:103060006B017C0120E030E040E05FE3C301B2018E
:103070000E94DF214B015C0120E030E0A901698161
:103080007A818B819C810E94D22129813A814B8156
:103090005C8118160CF05058C501B4010E94DF2164
:1030A0002D813E814F8158850E946E1F6D837E83E6
:1030B0008F8398876093B0017093B1018093B201C0
:1030C0009093B30120E030E040E05FE369817A81D2
:1030D0008B819C810E94DF214B015C0120E030E06C
:1030E000A901C301B2010E94D221181624F077FA77
:1030F000709477F87094A3019201C501B4010E9405
:10310000DF21A70196010E946E1F69877A878B874E
:103110009C876093AC017093AD018093AE01909356
:10312000AF018090FB019090FC01A090FD01B09058
:10313000FE01C0900302D0900402E0900502F090DE
:1031400006020091FF0110910002209101023091CE
:1031500002024DE34F935CE45F938CEC8F939DEC04
:103160009F9340E050E060E870E48D859E850E946A
:10317000E80F0F900F900F900F909B01AC015058EB
:103180002D873E874F87588B2093A8013093A90144
:103190004093AA015093AB01C12C80ECD82E88E457
:1031A000E82E84E4F82E00E010E02AE833E440E062
:1031B00050E060EC7FE389899A890E9498092B018D
:1031C0003C016093A4017093A5018093A6019093A4
:1031D000A701C12C90ECD92E9FE7E92E94E4F92E9B
:1031E00000E010E020E931E440E050E060E87FE3F7
:1031F0008D899E890E949809698B7A8B8B8B9C8B19
:103200006093A0017093A1018093A2019093A30108
:1032100000E010E020E931E440E050E060E87FE3C6
:10322000898D9A8D0E9498096D8B7E8B8F8B988FDC
:1032300060939C0170939D0180939E0190939F01E8
:103240008091980190919901A0919A01B0919B0170
:10325000898F9A8FAB8FBC8FC0909401D0909501CD
:10326000E0909601F09097019C01AD016D817E8107
:103270008F8198850E94DF214B015C01A701960197
:1032800069857A858B859C850E94DF219B01AC0135
:10329000C501B4010E946E1F20E030E040E05FE312
:1032A0000E94DF214B015C0120E030E040E05FE361
:1032B00060919001709191018091920190919301A0
:1032C0000E94DF219B01AC01C501B4010E946E1F69
:1032D00069837A838B839C836093900170939101BF
:1032E00080939201909393016D817E818F81988567
:1032F0009058A70196010E94DF216B017C01298D66
:103300003A8D4B8D5C8D69857A858B859C850E9475
:10331000DF219B01AC01C701B6010E946E1F20E0B6
:1033200030E040E05FE30E94DF216B017C0120E0A0
:1033300030E040E05FE360918C0170918D018091FD
:103340008E0190918F010E94DF219B01AC01C7018A
:10335000B6010E946E1F6B017C0160938C0170931B
:103360008D0180938E0190938F0120E030E040E04A
:103370005FE3609188017091890180918A01909149
:103380008B010E94DF214B015C0120E030E040E036
:103390005FE36D857E858F8598890E94DF219B0183
:1033A000AC01C501B4010E946E1F4B015C0160932A
:1033B00088017093890180938A0190938B0120E0AA
:1033C00030E040E054E469817A818B819C810E94E5
:1033D000DF2120E030E040E054E40E946E1F0E94B4
:1033E000C3207093200260931F0280913B028111E1
:1033F0000E94B40720E030E040E054E4C701B60189
:103400000E94DF2120E030E040E054E40E946E1F83
:103410000E94C320709322026093210280913B029C
:1034200081110E94B40720E030E040E054E4C5017F
:10343000B4010E94DF2120E030E040E054E40E942B
:103440006E1F0E94C3207093240260932302809118
:103450003B0281110E94B40720E030E040E054E4D8
:10346000C301B2010E94DF2120E030E040E054E4DB
:103470000E946E1F0E94C32070932A02609329024B
:1034800080913B0281110E94B40720E030E040E0CF
:103490005FE3609184017091850180918601909134
:1034A00087010E94DF214B015C0120E030E040E019
:1034B00054E469897A898B899C890E94DF2120E004
:1034C00030E040E054E40E946E1F20E030E040E035
:1034D0005FE30E94DF219B01AC01C501B4010E94A2
:1034E0006E1F6D837E838F839887609384017093B2
:1034F0008501809386019093870120E030E040E0D1
:103500005FE36091800170918101809182019091CF
:1035100083010E94DF214B015C0120E030E040E0AC
:1035200054E46D897E898F89988D0E94DF2120E087
:1035300030E040E054E40E946E1F20E030E040E0C4
:103540005FE30E94DF219B01AC01C501B4010E9431
:103550006E1F4B015C016093800170938101809329
:103560008201909383016D817E818F8198850E9475
:10357000C320709326026093250280913B02811143
:103580000E94B407C501B4010E94C32070932802B1
:103590006093270280913B0281110E94B40720E0D2
:1035A00030E0A901C301B2010E94D2211816BCF477
:1035B00080917F0181114CC191E090937F010E9425
:1035C000AB0EDC01CB0188589F4FAF4FBF4F8093AC
:1035D0007B0190937C01A0937D01B0937E0120E05C
:1035E00030E0A901C301B2010E944C2087FF16C040
:1035F00080917F01882391F010927F010E94AB0E91
:10360000DC01CB0188589F4FAF4FBF4F80937B01A8
:1036100090937C01A0937D01B0937E0180907B010B
:1036200090907C01A0907D01B0907E010E94AB0E35
:1036300021E0681579058A059B0508F020E0622FD6
:103640008AE20E94600A26E636E646E65FEBC301A0
:10365000B2010E944C20682F661F6627661F8BE20E
:103660000E94600AA1E0AD8326E636E646E65FE307
:10367000C301B2010E94D22118160CF01D826D8187
:103680008CE20E94600A20E030E0A90169817A8121
:103690008B819C810E94D22118166CF420E030E0CE
:1036A00040E05FE369817A818B819C810E94D22115
:1036B00018165CF10CC020E030E040E05FEB69815F
:1036C0007A818B819C810E944C2087FD1EC020E066
:1036D00030E0A901C701B6010E94D22118165CF49E
:1036E00020E030E040E05FE3C701B6010E94D22154
:1036F00018165CF022C020E030E040E05FEBC7012C
:10370000B6010E944C2087FF18C029813A814B8165
:103710005C81C701B6010E94ED1F21EE3EE245E645
:1037200052E40E94DF2120E030E041EE52E40E94AA
:103730006E1F0E94C320CB0102C08FEF9FEF0E943B
:10374000660A6AE070E082E090E00E94360B892B06
:1037500011F56BE070E082E090E00E94360B892B5F
:10376000D1F467E070E082E090E00E94360B892B94
:1037700051F40E94AB0E609300017093010180939D
:103780000201909303016CE070E082E090E00E94FF
:10379000360B892BA1F12091790130917A013A837E
:1037A0002983232B41F00E94AB0E693771058105F7
:1037B000910508F043C061E170E080E090E00E9474
:1037C000710E40E050E0452B11F40C9405120E945C
:1037D00000000C9405128CE10E9473098BE10E9499
:1037E0007309109275011092760110927701109270
:1037F000780110927401109273010C94D1136FE050
:1038000070E082E090E00E94360B21E0892B09F005
:1038100020E0209304016EE070E082E090E00E94DE
:10382000360B21E0892B09F020E02093050168E7A1
:1038300070E080E090E00E94710EADCF69818FEE64
:1038400091E00E94010F10927A0110927901B3CF9A
:1038500020E030E0A901C301B2010E944C2087FFA3
:10386000DDCECACEC0907501D0907601E090770190
:10387000F09078010C94C813EF92FF920F931F936E
:10388000CF93DF93CDB7DEB7C659D1090FB6F89401
:10389000DEBF0FBECDBF109294021092930288EE4D
:1038A00093E0A0E0B0E08093950290939602A093FD
:1038B0009702B09398028BE491E0909392028093E8
:1038C00091028FEF9FEF90939E0280939D02109242
:1038D000F2011092F1018DE591E09093F001809357
:1038E000EF018091E702811113C01092E202109261
:1038F000E1028BEF91E09093E4028093E3028FE288
:1039000090E09093E6028093E50281E08093E702E5
:103910008091E701811105C00E947F0781E08093BB
:10392000E701E091E101F091E201309739F481EE95
:1039300092E09093E2018093E1010AC0808191813D
:10394000009711F0FC01FACF81EE92E09183808321
:103950002091E3013091E4018091E5029091E6022B
:10396000820F931F9093E4018093E30182E090E043
:103970009093700280936F0284E090E090937202C3
:103980008093710286E090E09093740280937302BA
:1039900087E090E0909376028093750288E090E053
:1039A00090937802809377028AE090E090937A0275
:1039B000809379028BE090E090937C0280937B026D
:1039C0008CE090E090937E0280937D0282E190E013
:1039D0009093800280937F0283E190E09093820233
:1039E0008093810284E190E090938402809383022B
:1039F00061E082E00E94350E61E0809171020E94D8
:103A0000350E61E0809173020E94350E61E0809175
:103A100075020E94350E61E0809177020E94350E9A
:103A200060E0809177020E94060E61E08091790249
:103A30000E94350E61E080917B020E94350E61E0AC
:103A400080917D020E94350E10923A021092390246
:103A500010923D0210924202109241028FEF93E0C9
:103A600090934402809343021092460210924502C2
:103A7000909348028093470210924A0210924902A2
:103A800090934C0280934B0210924E0210924D0282
:103A90009093500280934F02109252021092510262
:103AA0009093540280935302109256021092550242
:103AB000909358028093570210925A021092590222
:103AC00090935C0280935B0210925E0210925D0202
:103AD0009093600280935F021092620210926102E2
:103AE00090936402809363021092660210926502C2
:103AF000909368028093670210926A0210926902A2
:103B000090936C0280936B0273E070936D0224E3D8
:103B100020933C0210923E028FE380933F0210926A
:103B2000400265E0698391E09A8389E08B83A4E099
:103B3000AC83F1EAFD839E8335E83F83788769870C
:103B40008A8739E13B879C8739E23D872E8735E1BB
:103B50003F87188A35E2398B9A8B55E75B8B9C8BB4
:103B600045E94D8B2E8B35E53F8B188E35E6398F29
:103B70001A8E31E83B8FE2E0EC8F5D8F9E8F4F8F86
:103B8000A8A339A37AA36BA39CA38DA39EA366E1EC
:103B90006FA398A790E899A796E29AA79FEF9BA793
:103BA0009FE79CA75DA790E19EA74FA796E098ABE3
:103BB000F9AB1AAA8BAB90E39CAB8DAB91E39EABB8
:103BC0008FAB92E398AF89AF93E39AAF8BAF2CAFF3
:103BD0008DAF85E38EAF3FAF2196EFAF219780EC9D
:103BE00022968FAF229723968FAF239782E490E09F
:103BF0000E94D4237C0182E4FE013196D70101901A
:103C00000D928A95E1F787E090E00E94D4238C0121
:103C1000DC0111961C921E921396FC92EE92129762
:103C200082E490E015969C938E93149716961C92BE
:103C30000E94AA0FFC01A385B485109719F414877C
:103C4000038709C08D919C911197009711F0DC01B9
:103C5000F9CF0D931C9325853685D80114968D9147
:103C60009C911597820F931F9687858790913C02B0
:103C7000892F869586958695977009F08F5F80933A
:103C80003D0210913D02812F90E00E94D423909339
:103C90003A028093390281E090913E02911101C075
:103CA00080E0145F180F10936E02109220021092A1
:103CB0001F021092220210922102109224021092EE
:103CC00023021092260210922502109228021092CE
:103CD000270210922A021092290210922C021092AE
:103CE0002B0210922E0210922D021092300210928E
:103CF0002F0210923202109231021092340210926E
:103D000033028FEF9FEF90933602809335029093AA
:103D100038028093370280E090E020913D0230E04D
:103D2000821793074CF4E0913902F0913A02E80FC0
:103D3000F91F10820196F1CF80E090ECAEE1B4E47F
:103D40008093130290931402A0931502B09316026D
:103D500080E090ECAAE0B4E48093170290931802FC
:103D6000A0931902B0931A0280E090E8A8E1B4E4AD
:103D700080931B0290931C02A0931D02B0931E021D
:103D800080E090E4A2E1B4E48093070290930802FB
:103D9000A0930902B0930A0280E090E8A7EFB3E491
:103DA00080930B0290930C02A0930D02B0930E022D
:103DB00080E090E0A7E0B4E480930F0290931002BB
:103DC000A0931102B093120280E090E0A0E0B5E46D
:103DD0008093FB019093FC01A093FD01B093FE0141
:103DE0001092FF0110920002109201021092020242
:103DF00080E090E4AFE7B4E4809303029093040280
:103E0000A0930502B0930602CA56DF4F0FB6F8948E
:103E1000DEBF0FBECDBFDF91CF911F910F91FF90FD
:103E2000EF900895052E97FB1EF400940E94291F21
:103E300057FD07D00E943C1F07FC03D04EF40C94A2
:103E4000291F50954095309521953F4F4F4F5F4F1B
:103E5000089590958095709561957F4F8F4F9F4FF6
:103E600008950E945E1FA59F900DB49F900DA49F82
:103E7000800D911D11240895A1E21A2EAA1BBB1BCF
:103E8000FD010DC0AA1FBB1FEE1FFF1FA217B30726
:103E9000E407F50720F0A21BB30BE40BF50B661F3C
:103EA000771F881F991F1A9469F760957095809500
:103EB00090959B01AC01BD01CF010895A29FB00177
:103EC000B39FC001A39F700D811D1124911DB29F4E
:103ED000700D811D1124911D08955058BB27AA27EC
:103EE0000E94851F0C9498210E948A2138F00E941C
:103EF000912120F039F49F3F19F426F40C946021AD
:103F00000EF4E095E7FB0C945A21E92F0E94A921B9
:103F100058F3BA17620773078407950720F079F4FE
:103F2000A6F50C94CB210EF4E0950B2EBA2FA02D04
:103F30000B01B90190010C01CA01A0011124FF2756
:103F4000591B99F0593F50F4503E68F11A16F04051
:103F5000A22F232F342F4427585FF3CF4695379550
:103F60002795A795F0405395C9F77EF41F16BA0B15
:103F7000620B730B840BBAF09150A1F0FF0FBB1FC3
:103F8000661F771F881FC2F70EC0BA0F621F731F0C
:103F9000841F48F4879577956795B795F7959E3F69
:103FA00008F0B0CF9395880F08F09927EE0F9795FA
:103FB000879508950E948A2160F080E891E009F4D5
:103FC0009EEF0E94912128F040E851E071F45EEFED
:103FD0000CC00C9460210C94CB21E92FE0780E9456
:103FE000A92140F3092E052AB1F326173707480700
:103FF000590738F00E2E07F8E02569F0E025E06457
:104000000AC0EF6307F8009407FADB01B9019D01CC
:10401000DC01CA01AD01EF930E9468200E94982143
:104020000E941D205F91552339F02BED3FE049E4BC
:1040300050FD49EC0C946E1F0895DF93DD27B92FD6
:10404000BF7740E85FE31616170648075B0718F4CA
:10405000D92F0E94D7219F938F937F936F930E94B4
:104060009C22EAECF0E00E9463210E9498212F91AB
:104070003F914F915F910E94F221DD2351F09058C2
:10408000A2EA2AED3FE049EC5FE3D0785D270E9489
:10409000851FDF910C9498210E94362108F481E05D
:1040A00008950E9465200C9498210E94912158F057
:1040B0000E948A2140F029F45F3F29F00C945A2194
:1040C00051110C94CC210C9460210E94A92168F319
:1040D0009923B1F3552391F3951B550BBB27AA27C1
:1040E00062177307840738F09F5F5F4F220F331FFB
:1040F000441FAA1FA9F335D00E2E3AF0E0E832D0C3
:1041000091505040E695001CCAF72BD0FE2F29D0C5
:10411000660F771F881FBB1F261737074807AB0797
:10412000B0E809F0BB0B802DBF01FF2793585F4F0C
:104130003AF09E3F510578F00C945A210C94CC2112
:104140005F3FE4F3983ED4F3869577956795B795EE
:10415000F7959F5FC9F7880F911D9695879597F9F9
:104160000895E1E0660F771F881FBB1F6217730772
:104170008407BA0720F0621B730B840BBA0BEE1F87
:1041800088F7E09508950E94CA206894B1110C94B4
:10419000CC2108950E94B12188F09F5798F0B92F43
:1041A0009927B751B0F0E1F0660F771F881F991F6C
:1041B0001AF0BA95C9F714C0B13091F00E94CB2122
:1041C000B1E008950C94CB21672F782F8827B85F32
:1041D00039F0B93FCCF3869577956795B395D9F7C4
:1041E0003EF490958095709561957F4F8F4F9F4FCE
:1041F0000895E89409C097FB3EF4909580957095DA
:1042000061957F4F8F4F9F4F9923A9F0F92F96E922
:10421000BB279395F695879577956795B795F11197
:10422000F8CFFAF4BB0F11F460FF1BC06F5F7F4F34
:104230008F4F9F4F16C0882311F096E911C0772346
:1042400021F09EE8872F762F05C0662371F096E84F
:10425000862F70E060E02AF09A95660F771F881F1E
:10426000DAF7880F9695879597F90895990F0008C2
:10427000550FAA0BE0E8FEEF16161706E807F90738
:10428000C0F012161306E407F50798F0621B730BD3
:10429000840B950B39F40A2661F0232B242B252B54
:1042A00021F408950A2609F4A140A6958FEF811DF7
:1042B000811D089597F99F6780E870E060E0089598
:1042C0009FEF80EC0895DF93CF931F930F93FF929E
:1042D000EF92DF927B018C01689406C0DA2EEF0129
:1042E0000E94F221FE01E894A59125913591459116
:1042F0005591A6F3EF010E94851FFE019701A801C9
:10430000DA9469F7DF90EF90FF900F911F91CF91B2
:10431000DF91089500240A94161617061806090658
:10432000089500240A94121613061406050608952B
:10433000092E0394000C11F4882352F0BB0F40F4B3
:10434000BF2B11F460FF04C06F5F7F4F8F4F9F4FF3
:10435000089557FD9058440F551F59F05F3F71F075
:104360004795880F97FB991F61F09F3F79F08795DC
:104370000895121613061406551FF2CF4695F1DF65
:1043800008C0161617061806991FF1CF86957105F5
:10439000610508940895E894BB2766277727CB0129
:1043A00097F908950E94362108F48FEF08959B0134
:1043B000AC0160E070E080E89FE30C9451200E9423
:1043C000F2210C9498210E948A2138F00E949121B8
:1043D00020F0952311F00C945A210C9460211124A3
:1043E0000C94CC210E94A92170F3959FC1F3950FE5
:1043F00050E0551F629FF001729FBB27F00DB11D69
:10440000639FAA27F00DB11DAA1F649F6627B00DF8
:10441000A11D661F829F2227B00DA11D621F739FE1
:10442000B00DA11D621F839FA00D611D221F749FEF
:104430003327A00D611D231F849F600D211D822F36
:10444000762F6A2F11249F5750409AF0F1F088235D
:104450004AF0EE0FFF1FBB1F661F771F881F91508A
:104460005040A9F79E3F510580F00C945A210C94BE
:10447000CC215F3FE4F3983ED4F38695779567951A
:10448000B795F795E7959F5FC1F7FE2B880F911DB4
:104490009695879597F90895FA01EE0FFF1F3096CC
:1044A00021053105A1F16115710561F48038BFE383
:1044B0009B0749F168949038810561F08038BFEF1F
:1044C0009B0741F099234AF5FF3FE105310521059E
:1044D00019F1E8940894E795D901AA2329F4AB2FA0
:1044E000BE2FF85FD0F310C0FF5F70F4A695E0F721
:1044F000F73950F019F0FF3A38F49F779F930DD0B9
:104500000F9007FC9058089546F00C94602160E0ED
:1045100070E080E89FE308954FE79F775F934F93A4
:104520003F932F930E941C232F913F914F915F91B6
:104530000E94DF210C94A8229B01AC010C94DF2186
:1045400029F416F00C945A210C94CB210C94602180
:104550000E94B121A8F39638A0F707F80F92E894CB
:104560002BE33AEA48EB5FE70E94F5210F920F92A6
:104570000F924DB75EB70F920E946423E7EFF0E011
:104580000E9463214F915F91EF91FF91E595EE1F9E
:10459000FF1F49F0FE57E0684427EE0F441FFA95CD
:1045A000E1F74195550B0E94DE220F9007FE0C9417
:1045B000D72108950C945A210C9498230E94B1217C
:1045C000D8F39923C9F3940F511DA3F39150504090
:1045D00094F059F0882332F0660F771F881F9150AE
:1045E0005040C1F79E3F51052CF7880F911D9695BD
:1045F000879597F908955F3FACF0983E9CF0BB27F4
:10460000869577956795B79508F4B1609395C1F74E
:10461000BB0F58F711F460FFE8CF6F5F7F4F8F4FEC
:104620009F4FE3CF0C94CC2116F00C9498230C945C
:10463000602168940C945A210E94B121A8F3992317
:10464000C1F3AEF3DF93CF931F930F93FF92C92F64
:10465000DD2788232AF02197660F771F881FDAF756
:1046600020E030E040E85FEB9FE3883920F0803EB7
:1046700038F021968F770E946E1FEFE1F1E004C0C1
:104680000E946E1FECE4F1E00E9463218B01BE01E9
:10469000EC01FB2E6F5771097595771F880B990BED
:1046A0000E94FB2028E132E741E35FE30E94F22110
:1046B000AF2D9801AE01FF900F911F91CF91DF9127
:1046C0000E94851F0C949821FA01DC01AA0FBB1FE0
:1046D0009B01AC01BF5728F4222733274427507889
:1046E00020C0B75190F4AB2F0024469537952795FD
:1046F000011CA395D2F3002071F0220F331F441F39
:10470000B395DAF30ED00C946D1F61307105A0E8FB
:104710008A07B94630F49B01AC01662777278827C2
:104720009078309621F0208331834283538308951B
:104730009F3F31F0915020F4879577956795B79515
:10474000880F911D9695879597F9089597FB072EE9
:1047500016F4009407D077FD09D00E94C02307FC0F
:1047600005D03EF4909581959F4F08957095619581
:104770007F4F0895EE0FFF1F0590F491E02D0994EF
:10478000AA1BBB1B51E107C0AA1FBB1FA617B70777
:1047900010F0A61BB70B881F991F5A95A9F7809593
:1047A0009095BC01CD0108950F931F93CF93DF9394
:1047B0008230910510F482E090E0E0911303F091D3
:1047C000140320E030E0A0E0B0E0309719F1408120
:1047D00051810281138148175907C8F08417950742
:1047E00069F4109731F012960C93129713961C935C
:1047F00027C0009313031093140322C02115310521
:1048000019F04217530718F49A01BD01EF01DF01B7
:10481000F801DBCF21153105F9F0281B390B2430C5
:10482000310580F48A819B816115710521F0FB01BE
:104830009383828304C09093140380931303FE0137
:10484000329644C0FE01E20FF31F819391932250F0
:104850003109398328833AC0209111033091120322
:10486000232B41F420911B0130911C013093120342
:10487000209311032091190130911A01211531055E
:1048800041F42DB73EB740911D0150911E01241BEC
:10489000350BE0911103F0911203E217F307A0F436
:1048A0002E1B3F0B2817390778F0AC014E5F5F4F86
:1048B0002417350748F04E0F5F1F509312034093A3
:1048C00011038193919302C0E0E0F0E0CF01DF910A
:1048D000CF911F910F910895CF93DF93009709F423
:1048E00081C0FC01329713821282A0911303B09110
:1048F0001403109781F420813181820F931F20913E
:104900001103309112032817390751F5F093120360
:10491000E093110367C0ED0120E030E0CE17DF0720
:1049200040F44A815B819E0141155105F1F0EA0195
:10493000F5CFD383C28340815181840F951FC8175F
:10494000D90759F488819981840F951F0296918324
:1049500080838A819B81938382832115310529F489
:10496000F0931403E09313033DC0E901FB83EA8352
:1049700049915991C40FD51FEC17FD0761F480814F
:104980009181840F951F0296E90199838883828122
:1049900093819B838A83E0E0F0E012968D919C9155
:1049A0001397009719F0FD01DC01F7CF8D919C91D1
:1049B00011979D012E5F3F4F820F931F209111038E
:1049C000309112032817390769F4309729F41092AF
:1049D00014031092130302C013821282B0931203C5
:1049E000A0931103DF91CF91089581E090E0F894B6
:1049F0000C940325FB01DC0102C001900D92415093
:0A4A00005040D8F70895F894FFCF56
:104A0A00FFFFFFFF010100C18081000000FFFFFFDF
:104A1A00FF00E10000000000000000150380000014
:104A2A00FF0100010000FFFF0000010001FF00007C
:104A3A000000002F0CDE0C9E0C3C0C000000009CB9
:104A4A000C9C0C9C0C950C00000000E70664077A8D
:104A5A0007FD064A070807260700000000430F580B
:104A6A000C850C840C00000000880C690D260D3C96
:024A7A000C002E
:00000001FF
