:100000000C949A010C94C2010C94C2010C94C2018C
:100010000C94C2010C94C2010C94C2010C94C20154
:100020000C94C2010C94C2010C94A9060C941B07F9
:100030000C94C2010C94C2010C94C2010C94C20134
:100040000C94C2010C94C2010C94C2010C94C20124
:100050000C94C2010C94C2010C94C2010C94F90CD2
:100060000C94C2010C94C2010C94C2010C94C20104
:100070000C94C2010C94C2010C94C2010C94C201F4
:100080000C94C2010C94C2010C94C2010C94C201E4
:100090000C94C2010C94C2010C94C2010C94C201D4
:1000A0000C94C2010C94C2010C94C201AC09AF09BA
:1000B0009E09A209A809D009D009D009B309B70936
:1000C000BB09C109C509D009CB09084AD73B3BCEBA
:1000D000016E84BCBFFDC12F3D6C74319ABD568347
:1000E0003DDA3D00C77F11BED9E4BB4C3E916BAAFF
:1000F000AABE000000803F07634236B79BD8A71A0C
:1001000039685618AEBAAB558C1D3CB7CC5763BD99
:100110006DEDFD753EF6177231BF000000803F089F
:10012000000000BE922449123EABAAAA2ABECDCC42
:10013000CC4C3E00000080BEABAAAAAA3E00000044
:1001400000BF000000803F0000000000084178D39D
:10015000BB4387D1133D190E3CC3BD4282AD2B3E3C
:1001600068EC8276BED98FE1A93E4C80EFFFBE01DC
:10017000C4FF7F3F000000000000080B00020202E5
:100180000100090400000102020000052400100122
:1001900005240101010424020605240600010705C7
:1001A000810310004009040100020A000000070555
:1001B0000202400000070583024000000403090416
:1001C00012010002EF0201404123368000010102CA
:1001D000030141726475696E6F204C4C430041729B
:1001E0006475696E6F204C656F6E6172646F000795
:1001F0000605040100080A0B0C0D090000000000B0
:100200000000002A2B280000000000000000000071
:1002100000000000000000000000002C9EB4A0A11F
:10022000A2A434A6A7A5AE362D3738271E1F20213D
:100230002223242526B333B62EB7B89F848586871C
:1002400088898A8B8C8D8E8F9091929394959697B6
:1002500098999A9B9C9D2F3130A3AD3504050607D4
:1002600008090A0B0C0D0E0F101112131415161796
:1002700018191A1B1C1DAFB1B0B5000000000024F6
:100280000027002A002D0030000000000025002873
:10029000002B002E00310000000000230026002962
:1002A000002C002F000404040404030405020202CD
:1002B00002040302020202060606060606040402FF
:1002C0000202040404080201104080401020408013
:1002D000408008020401804020100201108010209C
:1002E0004040200000000200090F0000030401004C
:1002F0000C000000000000000000000000000000F2
:10030000000005010906A1018502050719E029E79A
:100310001500250175019508810295017508810375
:1003200095067508150025730507190029738100C6
:10033000C000311D11241FBECFEFDAE0DEBFCDBFFC
:1003400011E0A0E0B1E0ECE3FCE402C005900D9206
:10035000A038B107D9F723E0A0E8B1E001C01D92B1
:10036000A137B207E1F711E0CAE9D1E004C0219753
:10037000FE010E94D324C939D107C9F70E94241174
:100380000C941C260C940000CF92DF92EF92FF9207
:100390000F931F93CF93DF93D901E80142175307BF
:1003A0001CF0FA01690102C06A01F9018823B1F168
:1003B000CB016C157D050CF4C6019F018E179F07BC
:1003C0000CF49C01A417B50734F4CF01821B930BE6
:1003D0009C012C0D3D1D0D2C000CEE08FF08C901E1
:1003E000330FAA0BBB0B9C01AD012C193D094E0923
:1003F0005F09AFEFBFE70E9490218F01FF0F220B33
:10040000330BA90198012C193D094E095F090E947F
:1004100071212883398382E090E002C080E090E07F
:10042000DF91CF911F910F91FF90EF90DF90CF90D0
:1004300008950F931F93CF93DF931F92CDB7DEB72D
:1004400082E0898342E450E06AE771E080E80E943C
:10045000F60F0E941011DC0112960D911C9113975A
:100460000115110589F0D801ED91FC910280F3810D
:10047000E02DBE016F5F7F4FC801099597FD04C055
:10048000F80100851185ECCF89810F90DF91CF9124
:100490001F910F9108950F931F93CF938C01C62F37
:1004A00060E0809139030E94480C0230110531F15F
:1004B0000330110509F440C00130110509F05EC098
:1004C0006C2F6170809131030E94480CC1FB66273C
:1004D00060F9809133030E94480CC2FB662760F9E3
:1004E000809135030E94480CC3FB662760F9809118
:1004F00037030E94480C809141033BC06C2F617010
:10050000809131030E94480CC1FB662760F98091FD
:1005100033030E94480CC2FB662760F980913503C3
:100520000E94480CC3FB662760F9809137030E9444
:10053000480C809143031DC06C2F61708091310382
:100540000E94480CC1FB662760F9809133030E942A
:10055000480CC2FB662760F9809135030E94480C65
:10056000C3FB662760F9809137030E94480C809195
:100570004503CF911F910F910C941F0C80E090E0E8
:10058000CF911F910F91089581E080939C028093F9
:100590009D0222EA32E030939F0220939E02109245
:1005A000A1021092A0022FE231E030939902209331
:1005B00098021092A4021092A3021092A602109226
:1005C000A5028093A7028093A80281EC8093A202E7
:1005D0000E941011FC01418120919C0230E0240F07
:1005E000311D2830310524F468E972E00C94D410F0
:1005F00008957F928F929F92AF92BF92CF92DF9297
:10060000EF92FF920F931F93CF93DF93CDB7DEB797
:10061000ADB6BEB6809130032DB73EB7281B310969
:100620000FB6F8943EBF0FBE2DBF8DB79EB7019693
:100630006C01E090FF02F12C8091FB029091FC0292
:10064000D601FC019F01281B390B2E153F051CF418
:1006500021912D93F7CF80910003882369F1809138
:10066000F7029091F80297FD0AC068E671E00E94D7
:10067000BF246DE270E00E94BF24262F01C028E055
:100680008091F9029091FA0297FD09C068E671E045
:100690000E94BF246DE270E00E94BF2401C068E0A8
:1006A000F601EE0DFF1D30E1639FC0011124822B86
:1006B0008083C70101967C0186010E0D1F1D2091CC
:1006C00005033091060340910303509104036091A8
:1006D000E1027091E2028091010381700E94C401E5
:1006E000E80EF91E86010E0D1F1D209109033091A1
:1006F0000A0340910703509108036091E30270914F
:10070000E40280910103869581700E94C401E80E85
:10071000F91E86010E0D1F1D20910D0330910E0351
:1007200040910B0350910C036091E5027091E60239
:100730008091010382FB882780F90E94C401E80EA2
:10074000F91E86010E0D1F1D209111033091120319
:1007500040910F03509110036091E7027091E802FD
:100760008091010383FB882780F90E94C401E80E71
:10077000F91E86010E0D1F1D2091150330911603E1
:1007800040911303509114036091E9027091EA02C1
:1007900080910103829581700E94C401E80EF91EC8
:1007A00086010E0D1F1D2091190330911A034091EF
:1007B0001703509118036091EB027091EC02809145
:1007C000010385FB882780F90E94C401E80EF91E09
:1007D00086010E0D1F1D20911D0330911E034091B7
:1007E0001B0350911C036091EF027091F002809105
:1007F000020381700E94C401E80EF91E86010E0DED
:100800001F1D209121033091220340911F0350911D
:1008100020036091ED027091EE02809102038695B3
:1008200081700E94C401E80EF91E86010E0D1F1D85
:1008300020912503309126034091230350912403F6
:100840006091F1027091F2028091020382FB88278D
:1008500080F90E94C401E80EF91E86010E0D1F1DCD
:100860002091290330912A034091270350912803B6
:100870006091F3027091F4028091020383FB882758
:1008800080F90E94C4018E0D9F1D8601080F191F5B
:1008900020912D0330912E0340912B0350912C0376
:1008A0006091F5027091F602809102038295817049
:1008B0000E94C4011091300370902F030E94050E16
:1008C0004C01412F50E07A019FEFE91AF90AEDB788
:1008D000FEB7EE19FF090FB6F894FEBF0FBEEDBFCD
:1008E0000DB71EB70F5F1F4F7182B601C801019689
:1008F0000E941326F4018381A701B80180640E943D
:100900002E100FB6F894BEBE0FBEADBEDF91CF91D4
:100910001F910F91FF90EF90DF90CF90BF90AF901D
:100920009F908F907F9008952091DC01211103C04A
:100930008FEF9FEF08955FB7F89422E02093E900CE
:100940002091F20030E01216130614F421E030E09A
:10095000422FFC0184E6415038F028988093DB0157
:100960009091F1009193F7CF2115310521F08091FD
:10097000F200882319F05FBFC90108958BE68093C8
:10098000E800F9CF9091FE02891700F5982F96950F
:1009900096959695E091FB02F091FC02E90FF11D0E
:1009A000282F277081E090E0A0E0B0E004C0880F1D
:1009B000991FAA1FBB1F2A95D2F780959081892382
:1009C00080838091FD0281110C94F9020895909129
:1009D000FE028917F8F4982F969596959695E091D2
:1009E000FB02F091FC02E90FF11D282F277081E036
:1009F00090E0A0E0B0E004C0880F991FAA1FBB1FC1
:100A00002A95D2F72081822B80838091FD0281116B
:100A10000C94F90208954F925F926F927F928F9299
:100A20009F92AF92BF92CF92DF92EF92FF920F937D
:100A30001F93CF93DF9300D000D0CDB7DEB74983AB
:100A40005A836B837C8348015901BC01990F880B41
:100A5000990B0E943220A50194010E94AA219B01BA
:100A6000AC010E94AB212B013C01A5019401C701FF
:100A7000B6010E94AA219B01AC01C301B2010E94F0
:100A8000892220E030E040E85FE30E94AA216B0168
:100A90007C0120E030E0A9010E945823181624F0C0
:100AA000C701B601905802C0C701B60129813A8139
:100AB0004B815C810E9465234B015C0120E030E0AA
:100AC000A901C701B6010E94582318166CF020E056
:100AD00030E0A901C701B6010E942B2087FD09C0A3
:100AE00020E030E0A90109C020E030E040E85FE309
:100AF00004C020E030E040E85FEBC501B4010E9493
:100B000091206B017C0120E030E040E85FEB0E9427
:100B10002B2087FD14C020E030E040E85FE3C701F0
:100B2000B6010E94582318160CF120E030E0A9010C
:100B3000C701B6010E94582318165CF006C0C12CEC
:100B4000D12C90E8E92E9FEBF92EC701B601905801
:100B500002C0C701B60120E030E0A9010E942B20AD
:100B600087FF0AC0C12CD12C760106C0C12CD12C24
:100B700080E8E82E8FE3F82EC701B6010F900F90A2
:100B80000F900F90DF91CF911F910F91FF90EF90F9
:100B9000DF90CF90BF90AF909F908F907F906F909D
:100BA0005F904F900895611102C00C94C2040C94A0
:100BB000E704CF93DF93EC01CF3F8FEFD80761F1CC
:100BC000BE010D2E000C880B990B0E94322020E0F4
:100BD00030E044EB53E40E942B2087FF02C0C85949
:100BE000DE4FBE010D2E000C880B990B0E943220A7
:100BF00020E030E044EB53E40E945823181614F42C
:100C0000C856D140CE016DE270E00E94BF247093BF
:100C1000DF016093DE0104C0D093DF01C093DE01E9
:100C2000C091DE01D091DF0161E0209709F060E022
:100C300080E20E94D30561E0C130D10509F060E097
:100C400081E20E94D30561E0C230D10509F060E085
:100C500082E20E94D30561E0C330D10509F060E073
:100C600083E20E94D30561E0C430D10509F060E061
:100C700084E20E94D30561E0C530D10509F060E04F
:100C800085E20E94D30561E0C630D10509F060E03D
:100C900086E20E94D30561E0279709F060E087E2D1
:100CA000DF91CF910C94D3051F93CF93DF93182F2F
:100CB00060E0809139030E94480C612F617080913F
:100CC00031030E94480C11FB662760F980913303C1
:100CD0000E94480C12FB662760F9809135030E9440
:100CE000480C13FB662760F9809137030E94480C7B
:100CF000E0914503E23108F0E251F0E0E151FE4FAE
:100D0000E49180917B00E3FB992790F9C92F90E053
:100D1000D92F95E0CC0FDD1F9A95E1F78F7DC82B79
:100D2000C0937B00E770E064E0937C0080917A00E0
:100D3000806480937A0080917A0086FDFCCF809158
:100D400078002091790090E0922BDF91CF911F9154
:100D500008951F920F920FB60F9211248F939F93B5
:100D60008091E1009091E100937F9093E10083FFF7
:100D70000FC01092E90091E09093EB001092EC000C
:100D800092E39093ED001092DC0198E09093F000D4
:100D900082FF20C093E09093E9009091F2009923A4
:100DA00019F09AE39093E8009091DA01992339F0D1
:100DB0009091DA0191509093DA01992389F1909101
:100DC000DB01992339F09091DB0191509093DB0185
:100DD000992341F184FF10C08091E2008E7E8160F2
:100DE0008093E2008091E1008F7E8093E10080910A
:100DF000D9018E7E806111C080FF16C08091E20013
:100E00008E7E80618093E2008091E1008E7E8093EF
:100E1000E1008091D9018E7E81608093D90104C068
:100E20005D9ACDCF289AD6CF9F918F910F900FBE0C
:100E30000F901F9018951F920F920FB60F921124CA
:100E4000CF92DF92EF92FF920F931F932F933F93D6
:100E50004F935F936F937F938F939F93AF93BF93C2
:100E6000EF93FF93CF93DF93CDB7DEB76C97DEBFE1
:100E7000CDBF1092E9008091E80083FFFBC168E0DC
:100E8000CE0145960E94C71082EF8093E8008D89BD
:100E900087FF05C09091E80090FFFCCF03C09EEF54
:100EA0009093E800982F907609F0C6C09E894F89EC
:100EB000588D2F89F88C91110CC0803829F48091BD
:100EC000D8018093F10002C01092F1001092F1005D
:100ED00045C1913051F4811141C14130510509F0B2
:100EE0003DC18091D8018D7F0BC0933061F4811199
:100EF00035C14130510509F031C18091D80182607E
:100F00008093D8012BC1953049F48091E80080FF8F
:100F1000FCCF822F80688093E30020C1963009F0D7
:100F20005EC00B8D1C8D22E01092E9001092D7015B
:100F30001092D601F21232C01092D5011092D40153
:100F40000E94190299E0BE016F5F7F4FDB01E92F1C
:100F50001D92EA95E9F79983FA8291E09E8390EADF
:100F600098879AEF99872091D6013091D701275F12
:100F70003F4F3C832B838D831092E9001092D70161
:100F80001092D6011093D5010093D40149E050E0AE
:100F900080E00E94F60F0E941902E0C01093D50174
:100FA0000093D4010E941011DC0112960D911C9146
:100FB00013970115110509F4BBC0D801ED91FC91FF
:100FC0000480F581E02DBE016B5E7F4FC80109955D
:100FD000009709F0C7C0F80100851185EACF973066
:100FE00009F445C1983021F481E08093F100B6C046
:100FF000993009F0B3C0837009F039C1E3E0F1E042
:1010000081E031E096E32081211109C08EE78093D1
:10101000EA001092EA008F898093DC019FC08093E0
:10102000E9003093EB0021912093EC009093ED00C8
:101030008F5F873041F7EACF8B8D9C8D1092E9004E
:101040001092D7011092D6019093D5018093D401CC
:10105000898D811153C08E899D89913A49F48132DD
:1010600009F005C147E050E06DE071E080E0BBC0F1
:10107000913209F0FCC0833269F48F89988DA0E029
:10108000B0E08093090190930A01A0930B01B09303
:101090000C0164C0803269F48091E80082FFFCCFCB
:1010A00067E08DE091E00E94C7108BEF8093E8002D
:1010B00055C0823209F052C08F8980931401EEEF3F
:1010C000FFE7859194918B3F9C4D19F0E0E0F8E0AB
:1010D00002C0EEEFFAE080910D0190910E01A09117
:1010E0000F01B0911001803B9440A105B10509F0BA
:1010F0009EC08091140180FF79C099C00E94101198
:10110000FC01028113810115110509F4B0C0D80159
:10111000ED91FC910190F081E02DBE016B5E7F4F5F
:10112000C801099581111AC0F80100851185EBCF1E
:10113000F1E0FF1609F44EC0F3E0FF1298C08F896A
:10114000882309F44AC0823089F440E860E18EEDDA
:1011500091E00E94C10F882309F489C08EEF80932B
:10116000E80088C018161906CCF381C0813029F434
:1011700040E86BE082ED91E0ECCF833009F077C07E
:101180000E941011DC011296ED90FC9013978E01D5
:101190000F5F1F4F6801E114F10479F0D701ED9161
:1011A000FC910680F781E02DB801C7010995080F71
:1011B000111DF701E084F184EECFD8011C92F601F5
:1011C00001900020E9F73197BF016C197D0940E0DB
:1011D000C601BFCF60EC71E002C06CEB71E0FB01B7
:1011E000449150E080E80E94F60FB8CFEE3F2AE02D
:1011F000F20751F0808191818737A7E79A0721F0A4
:101200009093FF0A8093FE0A87E797E79183808394
:10121000809160008093DD019BE088E10FB6F89437
:10122000A895809360000FBE9093600097CF808157
:1012300091818737974709F091CFA89580916000F9
:101240008861809360008091DD0180936000EE3FB3
:10125000BAE0FB0739F08091FE0A9091FF0A918372
:1012600080837CCF1092FF0A1092FE0A77CF81E232
:101270008093EB006C960FB6F894DEBF0FBECDBF27
:10128000DF91CF91FF91EF91BF91AF919F918F919E
:101290007F916F915F914F913F912F911F910F918E
:1012A000FF90EF90DF90CF900F900FBE0F901F90A8
:1012B0001895CF93DF931F92CDB7DEB76983DC011A
:1012C000ED91FC910280F381E02D41E050E0BE0100
:1012D0006F5F7F4F09950F90DF91CF91089583E065
:1012E0008093E9008091F200882319F08AE38093CB
:1012F000E8000895FC018485958597FD0BC09FB794
:10130000F89482E08093E9008091F2009FBF90E022
:10131000019608959FB7F89482E08093E900809148
:10132000F2009FBF90E0089590E0FC013197EF300C
:10133000F105B0F5EA5AFF4F0C94D3248091800058
:101340008F7703C0809180008F7D80938000089507
:1013500080918000877FF9CF84B58F7702C084B5F4
:101360008F7D84BD0895809190008F7707C0809114
:1013700090008F7D03C080919000877F80939000C4
:1013800008958091C0008F7703C08091C0008F7D49
:101390008093C00008958091C200877F8093C2002F
:1013A00008953FB7F8948091FE019091FF01A091BC
:1013B0000002B091010226B5A89B05C02F3F19F08D
:1013C0000196A11DB11D3FBFBA2FA92F982F8827C5
:1013D000820F911DA11DB11DBC01CD0142E0660F20
:1013E000771F881F991F4A95D1F70895DC01FB01EB
:1013F00091818081813A31F481E0913091F0933094
:1014000089F411C0813271F49B3021F482811F96DE
:101410008C9305C09A3031F4828150968C9381E090
:101420000895089580E00895FC01228130E0FB01D9
:10143000448155812417350711F40C94F60980E096
:101440000895DC01FB0188E4808389E4818384E4DE
:1014500082831D969C911D979F709F5B93831D9621
:101460008D919C911E9724E0969587952A95E1F79A
:101470008F708F5B848385E00895CF92DF92EF9227
:10148000FF920F931F93CF93DF936C01EB017B01CE
:10149000E40EF51E00E010E0CE15DF0581F0699145
:1014A0006D30D1F3D601ED91FC910190F081E02DEA
:1014B000C6010995892B19F00F5F1F4FEDCFC801A9
:1014C000DF91CF911F910F91FF90EF90DF90CF9020
:1014D0000895089580E090E00895FC01228130E0B5
:1014E000FB01448155812417350711F40C94F6094A
:1014F00080E00895FC0182818F5BFB01808381E0A5
:101500000895CF93DF93EC0180911401882331F08B
:1015100083E00E942E101816190634F081E090E046
:101520009B838A8380E090E0DF91CF91089583E0F0
:101530000E941D1090E008950F931F93CF93DF93A7
:101540001F92CDB7DEB78C01FC018485958597FF8E
:101550000EC0CE0101960E949404019719F489816E
:1015600090E002C08FEF9FEFF80195878487F80124
:10157000848595850F90DF91CF911F910F910895EC
:10158000CF93DF931F92CDB7DEB7FC01848595859D
:1015900097FD05C02FEF3FEF358724870BC0CE01A5
:1015A00001960E949404019719F4898190E002C089
:1015B0008FEF9FEF0F90DF91CF9108950E940E263D
:1015C000EF92FF920F931F93CF93DF93FB01208144
:1015D000213851F52381223239F5DC0112962C9104
:1015E00030E04481558142175307F1F4EC010B853B
:1015F0001C85E12CF12C0115110591F0F8014481B5
:1016000055816281738180E80E94F60F8F3FFFEF62
:101610009F0769F0E80EF91ED8010D911C91EBCFE0
:1016200081E08F87C70105C080E090E002C08FEFA6
:101630009FEFDF91CF911F910F91FF90EF90089551
:10164000CF93DF93CDB7DEB769970FB6F894DEBFBF
:101650000FBECDBFFC01DB018C918F5F8C93BE016F
:101660006F5F7F4F89E1DB011D928A95E9F729E0E1
:10167000298384E08A8391E09D8383E08E832A8797
:1016800021E22B879C879D879F8722E2288B27E07A
:101690002B8B25E02C8B8E8B20E430E0388F2F8B2A
:1016A000998F82818B8395858685998B8A8B83819F
:1016B00080688D8B49E150E080E00E94F60F6996CA
:1016C0000FB6F894DEBF0FBECDBFDF91CF91089566
:1016D000EF92FF920F931F93CF93DF93FB01208133
:1016E000213869F52381223251F5DC0112962C91C3
:1016F00030E0448155814217530709F58C01FC0104
:10170000C385D485E12CF12C209799F04C815D8123
:101710006A817B818E81811180E80E94F60F8F3F64
:10172000FFEF9F0779F0E80EF91E0990D881C02DD0
:10173000EBCF81E0D8011F968C93C70105C080E0F4
:1017400090E002C08FEF9FEFDF91CF911F910F913B
:10175000FF90EF900895CF93DF93CDB7DEB76997F1
:101760000FB6F894DEBF0FBECDBFFC01DB018C913C
:101770008F5F8C93BE016F5F7F4F89E1DB011D920C
:101780008A95E9F729E0298384E08A8391E09D83A3
:1017900083E08E832A8721E22B879C879D879F8702
:1017A00022E2288B27E02B8B25E02C8B8E8B20E4EC
:1017B00030E0388F2F8B998F82818B83958586853A
:1017C000998B8A8B838180688D8B49E150E080E022
:1017D0000E94F60F69960FB6F894DEBF0FBECDBF1C
:1017E000DF91CF9108950F931F93CF93DF931F92B3
:1017F000CDB7DEB78B018091A902811105C00E948F
:10180000C40281E08093A90282E0898341E050E034
:10181000BE016F5F7F4F80919B020E942E1097FD4B
:1018200008C080919B0248E050E0B80180640E94AB
:101830002E100F90DF91CF911F910F910895CF93AC
:10184000DF93282F30E0F901ED51FD4F8491F9012C
:10185000EC53FD4FD491F901EB55FD4FC491CC23CE
:1018600091F081110E949409EC2FF0E0EE0FFF1F20
:10187000E956FD4FA591B491EC91ED2381E090E004
:1018800021F480E002C080E090E0DF91CF910895E4
:101890001F93CF93DF93282F30E0F901ED51FD4FD7
:1018A0008491F901EC53FD4FD491F901EB55FD4FB3
:1018B000C491CC23C1F0162F81110E949409EC2F02
:1018C000F0E0EE0FFF1FE757FD4FA591B4919FB7D2
:1018D000F894111104C08C91D095D82302C0EC91DA
:1018E000DE2BDC939FBFDF91CF911F910895CF93A3
:1018F000DF9390E0FC01EC53FD4F2491FC01EB558C
:10190000FD4F8491882361F190E0880F991FFC01BD
:10191000E558FD4FC591D491FC01E757FD4FA591C6
:10192000B491611109C09FB7F894888120958223F2
:101930008883EC912E230BC0623061F49FB7F8943A
:101940008881322F309583238883EC912E2B2C9322
:101950009FBF06C08FB7F894E8812E2B28838FBFD6
:10196000DF91CF9108958F929F92AF92BF92CF92C5
:10197000DF92EF92FF926B017C010E94D1094B0133
:101980005C01C114D104E104F104F1F00E94D10919
:10199000DC01CB0188199909AA09BB09883E93404B
:1019A000A105B10570F321E0C21AD108E108F108E0
:1019B00088EE880E83E0981EA11CB11CC114D104CE
:1019C000E104F10419F7DDCFFF90EF90DF90CF90A5
:1019D000BF90AF909F908F9008952FB7F89460912B
:1019E000FA017091FB018091FC019091FD012FBFE4
:1019F00008951F920F920FB60F9211242F933F93C9
:101A00008F939F93AF93BF938091FA019091FB01C5
:101A1000A091FC01B091FD013091F90123E0230F69
:101A20002D3720F40196A11DB11D05C026E8230F16
:101A30000296A11DB11D2093F9018093FA019093A4
:101A4000FB01A093FC01B093FD018091FE019091F8
:101A5000FF01A0910002B09101020196A11DB11DEC
:101A60008093FE019093FF01A0930002B0930102C6
:101A7000BF91AF919F918F913F912F910F900FBE8A
:101A80000F901F901895DC01683810F0685825C039
:101A9000E62FF0E067FF12C0E058F10981E090E026
:101AA00001C0880FEA95EAF7809514969C911497E7
:101AB000892314968C93149760E00FC0E550FE4F75
:101AC00064916623F9F067FF08C014968C9114970F
:101AD0008D7F14968C9314976F77FD0186E06623B3
:101AE00021F09681691301C01682815031968111CF
:101AF000F6CFCD01BD016C5F7F4F0E94F30B81E0FB
:101B000090E0089580E090E00895DC01683810F0DE
:101B100068582DC0E62FF0E067FF11C0E058F109CA
:101B200081E090E001C0880FEA95EAF714969C9155
:101B30001497892B14968C93149760E018C0E55085
:101B4000FE4F6491611109C081E090E013969C936F
:101B50008E93129780E090E0089567FF08C0149676
:101B60008C911497826014968C9314976F771696C5
:101B70008C911697681751F117968C9117976817E3
:101B800029F118968C911897681701F119968C9184
:101B900019976817D9F01A968C911A976817B1F0AF
:101BA0001B968C911B97681789F0FD01369680E093
:101BB00090E02191211105C0FD01E80FF91F668316
:101BC00005C0019686309105A1F7BECFCD01BD01BC
:101BD0006C5F7F4F0E94F30B81E090E00895EF92DD
:101BE000FF921F93CF93DF93EC01162F0E94850D78
:101BF0007C01612FCE010E94430DC7019927DF911F
:101C0000CF911F91FF90EF9008958091F101811184
:101C100037C081E08093E4018093E5012AEE31E052
:101C20003093E7012093E6011092E9011092E80158
:101C300027E431E03093E1012093E0011092EC01C0
:101C40001092EB011092EE011092ED018093EF01E2
:101C50008093F00181EC8093EA010E941011FC0155
:101C600041812091E40130E0240F311D28303105FD
:101C700024F460EE71E00E94D41081E08093F101C1
:101C800080EE91E00895CF93C82F809384019093C4
:101C900085010E94ED0C6093800170938101809317
:101CA0008201909383016C2F81EB92E0CF910C9491
:101CB000850D4F925F926F927F928F929F92AF921B
:101CC000BF92CF92DF92EF92FF920F931F93CF9329
:101CD000DF93CDB7DEB728970FB6F894DEBF0FBEFF
:101CE000CDBF49835A836B837C83280139018D8260
:101CF0009E82AF82B886BC01990F880B990B0E9417
:101D000032204B015C01A70196010E942B20882301
:101D100009F4C0C0A7019601C501B4010E942B209F
:101D200087FF1CC0A3019201C501B4010E94AA2132
:101D30004B015C01A3019201C701B6010E94AA21D7
:101D40009B01AC01C501B4010E94892220E030E072
:101D500040E85FE30E94AA214B015C01A7019601C4
:101D6000C501B4010E9458231816ECF4A70196018E
:101D7000C501B4010E94AA214B015C01A701960193
:101D80006D817E818F8198850E94AA219B01AC0183
:101D9000C501B4010E94892220E030E0A9010E941F
:101DA000AB214B015C0120E030E0A901C501B40189
:101DB0000E945823181624F0C501B401905802C09F
:101DC000C501B40129813A814B815C810E94652360
:101DD0006B017C0120E030E0A901C501B4010E9443
:101DE000582318166CF020E030E0A901C501B401B9
:101DF0000E942B2087FD09C060E070E0CB0109C084
:101E000060E070E080E89FE304C060E070E080E89C
:101E10009FEBA70196010E9491206B017C0120E0BD
:101E200030E040E85FEB0E942B2087FD14C020E0EB
:101E300030E040E85FE3C701B6010E94582318165E
:101E4000A4F020E030E0A901C701B6010E945823A8
:101E500018168CF006C0C12CD12C90E8E92E9FEB0F
:101E6000F92EC701B601905808C0C12CD12C80E8CA
:101E7000E82E8FE3F82EC701B6012B8D3C8D4D8DDA
:101E80005E8D0E942B2087FD05C05C2D4D2D3E2DC3
:101E90002F2D04C050E040E030E020E0652F742F8B
:101EA000832F922F28960FB6F894DEBF0FBECDBFBA
:101EB000DF91CF911F910F91FF90EF90DF90CF9026
:101EC000BF90AF909F908F907F906F905F904F905A
:101ED00008954091D6015091D7012091D4013091BD
:101EE000D50142175307B4F49091E8009570E1F3DF
:101EF0009091E80092FD19C08093F1008091D60185
:101F00009091D70101968F739927892B19F48EEF41
:101F10008093E8008091D6019091D701019690932B
:101F2000D7018093D60181E0089580E00895CF9293
:101F3000DF92EF92FF920F931F93CF93DF936C0189
:101F40007A018B01C0E0D0E0CE15DF0581F0D80129
:101F50006D918D01D601ED91FC910190F081E02D04
:101F6000C6010995892B11F02196EECF7E01C7019C
:101F7000DF91CF911F910F91FF90EF90DF90CF9065
:101F80000895DF92EF92FF920F931F93CF93DF9309
:101F9000D82EF92EE42E062F10E0C8010196880FE6
:101FA0000E94690F83E00E94690FCD2DDF2D0C0F79
:101FB0001D1FC017D10789F0E7FE03C0FE01849101
:101FC00001C088810E94690FF82E80E00E94690F8D
:101FD0008F2121968111EDCF01C081E0DF91CF915A
:101FE0001F910F91FF90EF90DF900895DF92EF9295
:101FF000FF920F931F93CF93DF93D82E8A017B011B
:10200000E40EF51EEB01CE15DF0571F0D7FE03C01F
:10201000FE01849101C088810E94690F219681117F
:10202000F2CF8FEF9FEF01C0C801DF91CF911F91D9
:102030000F91FF90EF90DF9008952FB7F89487707D
:102040008093E9009091E800892F807295FF04C089
:102050009091F20080E4891B2FBF08957F928F92A8
:102060009F92AF92BF92CF92DF92EF92FF920F9327
:102070001F93CF93DF93C82E8B017A018091DC01EF
:10208000811103C08FEF9FEF74C08091D90180FF51
:1020900005C08091E00082608093E000CE2DDF2DAE
:1020A000D12C8AEFB82E8C2D8770982E8C2D8072B3
:1020B000882E8C2D8074782E9AE3A92E209719F4FF
:1020C000DD2009F451C08C2D0E941D1081110AC021
:1020D000BA94BB20B9F261E070E080E090E00E9429
:1020E000B30CECCF282F30E0C217D3070CF48C2FA1
:1020F0009FB7F8949092E9002091E80025FF32C044
:10210000282F30E0C21BD30B882029F08150A0F08B
:102110001092F100FBCFF801C7FE0AC0815050F0C9
:1021200044914093F1003196F9CF41914093F100F1
:102130008150D8F7020F131FDD2019F0A092E8009C
:102140000AC08091E80085FD08C0A092E800DD2467
:10215000D394209739F0D12C05C0209719F4711031
:10216000A092E8009FBFAACF5D9884E68093DA0131
:10217000C701DF91CF911F910F91FF90EF90DF90FA
:10218000CF90BF90AF909F908F907F9008956150B7
:1021900030F02091F100FC0120830196F8CF2898BF
:1021A00084E68093DB010895CF93DF93FC01DB018C
:1021B000C281D381209719F47383628308C0888514
:1021C0009985009711F0EC01FACFB987A887808133
:1021D00012968C931297818113968C93139790810A
:1021E00015968C911597890F808380E014969C91A9
:1021F0001497891788F41696CD91DC911797C80F1C
:10220000D11D9881C181D0E0CE5FDE4F988391814E
:102210009F5F91838F5FEACF81E0DF91CF91089537
:102220008091650381110DC082E08093610384E099
:1022300080936203109264031092630381E08093A1
:10224000650381E693E00895CF93DF93CDB7DEB7C2
:10225000AE970FB6F894DEBF0FBECDBF789484B5AD
:10226000826084BD84B5816084BD85B5826085BD92
:1022700085B5816085BD80916E00816080936E0020
:102280001092810080918100826080938100809112
:1022900081008160809381008091800081608093C3
:1022A00080008091910082608093910080919100E4
:1022B0008160809391008091900081608093900074
:1022C0008091C10084608093C1008091C1008260D0
:1022D0008093C1008091C10081608093C100809192
:1022E000C30081608093C3008091C00082608093AE
:1022F000C0008091C20081608093C20080917A000A
:10230000846080937A0080917A00826080937A0062
:1023100080917A00816080937A0080917A00806851
:1023200080937A001092DC011092D8011092D901AA
:102330008091D70081608093D70080EA8093D80095
:1023400089B5806189BD89B5826089BD09B400FE07
:10235000FDCF61E070E080E090E00E94B30C8091DE
:10236000D8008F7C80618093D8008091E000807FCE
:102370008093E0008091E1008E7E8093E1008DE00B
:102380008093E200559A209A10929402109295023E
:1023900010929602109297021092540210925502D7
:1023A00010925602109257020E94ED0C6B017C01B4
:1023B0004B015C0128EB820E2BE0921EA11CB11C8C
:1023C0000E94ED0C6C157D058E059F0528F0861684
:1023D0009706A806B906A0F760ED77E080E090E0E8
:1023E0000E94B30C8FEF9FEF90930F0280930E0229
:1023F0000E94ED0C60935402709355028093560234
:102400009093570241E150E06DE671E082E092E086
:102410000E94810A0E94ED0C6B017C014B015C0162
:102420003AE0830E911CA11CB11C0E94ED0C6C15AE
:102430007D058E059F0528F086169706A806B90625
:10244000A0F741E04093680262E0809141030E945E
:10245000770C60E080913B030E94480C62E0809121
:1024600043030E94770C60E080913D030E94480C7A
:1024700062E0809145030E94770C60E080913F0309
:102480000E94480C10920403109203038FEF93E014
:10249000909306038093050310920803109207039C
:1024A00090930A038093090310920C0310920B037C
:1024B00090930E0380930D031092100310920F035C
:1024C000909312038093110310921403109213033C
:1024D000909316038093150310921803109217031C
:1024E00090931A038093190351E05093FD020E94C8
:1024F000F90282EB9FE8A0E7BFE38093AA019093E3
:10250000AB01A093AC01B093AD0183E49DE1AFEAD0
:10251000BEEB8093A6019093A701A093A801B0936E
:10252000A90163E070E081E090E00E944B0261E06D
:10253000892B09F060E080E00E94D30567E070E03D
:1025400081E090E00E944B0261E0892B09F060E09D
:1025500081E00E94D3056AE070E081E090E00E9493
:102560004B0261E0892B09F060E082E00E94D30514
:102570006BE070E081E090E00E944B0261E0892B0B
:1025800009F060E083E00E94D3056DE070E081E037
:1025900090E00E944B0261E0892B09F060E084E04A
:1025A0000E94D30562E070E081E090E00E944B025F
:1025B00061E0892B09F060E085E00E94D30566E0C8
:1025C00070E081E090E00E944B0261E0892B09F00D
:1025D00060E086E00E94D30569E070E081E090E071
:1025E0000E944B0261E0892B09F060E087E00E94C5
:1025F000D3056CE070E081E090E00E944B0261E066
:10260000892B09F060E088E00E94D3056EE070E05D
:1026100081E090E00E944B0261E0892B09F060E0CC
:1026200089E00E94D30561E070E081E090E00E94C3
:102630004B0261E0892B09F060E08AE00E94D3053B
:1026400060E070E081E090E00E944B0261E0892B45
:1026500009F060E08BE00E94D30565E070E081E066
:1026600090E00E944B0261E0892B09F060E08CE071
:102670000E94D30564E070E081E090E00E944B028C
:1026800061E0892B09F060E08DE00E94D30566E0EF
:1026900070E082E090E00E944B0261E0892B09F03B
:1026A00060E08EE00E94D30568E070E081E090E099
:1026B0000E944B0261E0892B09F060E08FE00E94EC
:1026C000D3056FE070E081E090E00E944B0261E092
:1026D000892B09F060E080E10E94D30560E070E0A2
:1026E00082E090E00E944B0261E0892B09F060E0FB
:1026F00081E10E94D30562E070E082E090E00E94F8
:102700004B0261E0892B09F060E082E10E94D30571
:1027100061E070E082E090E00E944B0261E0892B72
:1027200009F060E083E10E94D3056CE070E082E094
:1027300090E00E944B0261E0892B09F060E084E1A7
:102740000E94D30563E070E082E090E00E944B02BB
:1027500061E0892B09F060E085E10E94D30564E027
:1027600070E082E090E00E944B0261E0892B09F06A
:1027700060E086E10E94D30565E070E082E090E0D1
:102780000E944B0261E0892B09F060E087E10E9422
:10279000D3056AE070E082E090E00E944B0261E0C5
:1027A000892B09F060E088E10E94D3056BE070E0BE
:1027B00082E090E00E944B0261E0892B09F060E02A
:1027C00089E10E94D30567E070E082E090E00E941A
:1027D0004B0261E0892B09F060E08AE10E94D30599
:1027E00069E070E082E090E00E944B02898368E03B
:1027F00070E082E090E00E944B02880F991FE9810F
:10280000E82BE37090918601990F990FE92BE093E3
:102810008601EF70F0E0E55EFE4F20812223B1F1EA
:1028200080918B0190918C01AC014F5F5F4F4330E1
:10283000510560F5820F911D27FD9A9590938C01AB
:1028400080938B019C0197FF04C022273327281B0C
:10285000390B22303105D4F01816190614F48BE127
:1028600003C0892B19F08CE10E94E7040E94ED0C53
:10287000DC01CB018C599F4FAF4FBF4F8093870135
:1028800090938801A0938901B0938A01C090870139
:10289000D0908801E0908901F0908A01C114D104A0
:1028A000E104F10449F00E94ED0CC616D706E806D3
:1028B000F90610F40C94DC1C809101018823E9F1E5
:1028C0006EE070E082E090E00E944B022091D30124
:1028D00030E082179307E1F06EE070E082E090E074
:1028E0000E944B0221E0892B09F420E02093D301C0
:1028F0000E94ED0CDC01CB018C599F4FAF4FBF4FB5
:102900008093CF019093D001A093D101B093D201D5
:102910000E94ED0C21E0C090CF01D090D001E0905A
:10292000D101F090D2016C157D058E059F0508F050
:1029300020E0622F8DE10E94D3056EE070E082E01E
:1029400090E00E944B02682F88E20E94D30580919C
:102950000001882309F44CC06FE070E082E090E051
:102960000E944B022091CE0130E08217930759F16B
:102970006FE070E082E090E00E944B029A838983CE
:1029800081E0A981BA81AB2B09F480E08093CE016C
:102990000E94ED0CDC01CB018C599F4FAF4FBF4F14
:1029A0008093CA019093CB01A093CC01B093CD0149
:1029B00029813A81232B19F080EF90E002C081EF4A
:1029C00090E00E94430E0E94ED0C21E0C090CA01ED
:1029D000D090CB01E090CC01F090CD016C157D053D
:1029E0008E059F0508F020E0622F8EE10E94D3053E
:1029F0006FE070E082E090E00E944B0261E0892B82
:102A000009F060E089E20E94D3056DE070E082E0A9
:102A100090E00E944B02892B49F48FE10E94E70469
:102A200062EF81EB92E00E94850D08C062EF81EBBE
:102A300092E00E94430D8FE10E94C20480E090E08A
:102A40000E9454061C01BC01990F880B990B0E942F
:102A50003220562E672E782E892E862F962DA72D62
:102A6000B82D8093C6019093C701A093C801B0937D
:102A7000C90181E090E00E9454069A878987BC01D1
:102A8000990F880B990B0E943220962EA72EB82EF4
:102A9000C92E862F9A2DAB2DBC2D8093C201909309
:102AA000C301A093C401B093C50183E090E00E94EC
:102AB00054069A8B898BBC01990F880B990B0E9445
:102AC0003220D62EE72EF82E9D83862F9E2DAF2DF9
:102AD000BD818093BE019093BF01A093C001B093CC
:102AE000C10187E090E00E9454069E8B8D8BBC0153
:102AF000990F880B990B0E9432206093BA01709352
:102B0000BB018093BC019093BD018EE090E00E94D8
:102B100054069A8F898FBC01990F880B990B0E94DC
:102B200032206093B6017093B7018093B8019093FF
:102B3000B9018FE090E00E9454069E8F8D8FBC01FA
:102B4000990F880B990B0E9432206093B201709309
:102B5000B3018093B4019093B5010E94ED0C2091D4
:102B6000AE013091AF014091B0015091B101298384
:102B70003A834B835C83DC01CB01821B930BA40B58
:102B8000B50B883E9340A105B10508F0B9C02DEC06
:102B90003CEC4CE45FE36091DD027091DE028091D9
:102BA000DF029091E0020E94912069837A838B83F7
:102BB0009C832DEC3CEC4CE45EE3652D762D872D5B
:102BC000982D0E9491209B01AC0169817A818B81B3
:102BD0009C810E94AB212B013C016093DD0270932C
:102BE000DE028093DF029093E0022DEC3CEC4CE49B
:102BF0005FE36091D1027091D2028091D3029091F3
:102C0000D4020E94912069837A838B839C832DEC6C
:102C10003CEC4CE45EE3692D7A2D8B2D9C2D0E94BB
:102C200091209B01AC0169817A818B819C810E94FA
:102C3000AB214B015C016093D1027093D20280936F
:102C4000D3029093D4022DEC3CEC4CE45FE3609112
:102C5000C5027091C6028091C7029091C8020E947D
:102C6000912069837A838B839C832DEC3CEC4CE42C
:102C70005EE36D2D7E2D8F2D9D810E9491209B0105
:102C8000AC0169817A818B819C810E94AB21609328
:102C9000C5027093C6028093C7029093C802409207
:102CA000D5025092D6026092D7027092D80240921A
:102CB000D9025092DA026092DB027092DC028092BA
:102CC000CD029092CE02A092CF02B092D00280921A
:102CD000C9029092CA02A092CB02B092CC02609339
:102CE000C1027093C2028093C3029093C4026093A6
:102CF000BD027093BE028093BF029093C0024CC687
:102D00000E94ED0CDC01CB0129813A814B815C8171
:102D1000821B930BA40BB50B80319742A105B10523
:102D200008F0D9C04090D5020091D6021091D70288
:102D30004091D8024983242D302F412F5981652D90
:102D4000762D872D982D0E942B2087FD03C0452CC2
:102D500083018982842D902FA12FB9818093D50280
:102D60009093D602A093D702B093D8020091D902D3
:102D70001091DA025091DB0259834090DC029801F5
:102D8000452F542D652D762D872D982D0E94582383
:102D9000181624F0052D162D7982482CC801A9811A
:102DA000B42D8093D9029093DA02A093DB02B09302
:102DB000DC028090C9020091CA021091CB0280917E
:102DC000CC028983282D302F412F582F692D7A2D41
:102DD0008B2D9C2D0E942B2087FD03C0892C850103
:102DE000C982882D902FA12FB9818093C902909319
:102DF000CA02A093CB02B093CC028090CD02009186
:102E0000CE021091CF029091D0029983282D302FBD
:102E1000412F592F692D7A2D8B2D9C2D0E945823DF
:102E200018161CF0892C8501C982882D902FA12F9E
:102E3000B9818093CD029093CE02A093CF02B0933C
:102E4000D002C090C1020091C2021091C302A091B1
:102E5000C402A9832C2D302F412F5A2F6D2D7E2D8A
:102E60008F2D9D810E945823181624F0CD2C8701A8
:102E7000BD81B9838C2D902FA12FB9818093C10280
:102E80009093C202A093C302B093C402C090BD024B
:102E90000091BE021091BF022091C00229832C2D07
:102EA000302F412F59816D2D7E2D8F2D9D810E94B8
:102EB0002B2087FD04C0CD2C87013D8139838C2DCB
:102EC000902FA12FB9818093BD029093BE02A09351
:102ED000BF02B093C0028091D5029091D602A0911A
:102EE000D702B091D8028D839E83AF83B88720919B
:102EF000DD023091DE024091DF025091E0022D8729
:102F00003E874F87588B8091D9029091DA02A09129
:102F1000DB02B091DC028F8F98A3A9A3BAA31F9202
:102F20001F921F921F928D809E80AF80B884CD84A7
:102F3000DE84EF84F8880F8D18A129A13AA140E022
:102F400050E060E87FE3C1010E94590E0F900F909E
:102F50000F900F902B013C012091C9023091CA02C1
:102F60004091CB025091CC022BA33CA34DA35EA376
:102F70008091D1029091D202A091D302B091D4025B
:102F80008FA398A7A9A7BAA72091CD023091CE020E
:102F90004091CF025091D0022BA73CA74DA75EA72E
:102FA0001F921F921F921F928BA09CA0ADA0BEA04B
:102FB000CFA0D8A4E9A4FAA40BA51CA52DA53EA5D5
:102FC00040E050E060E87FE389859A850E94590ED1
:102FD0000F900F900F900F9069837A838B839C835F
:102FE0001F921F921F921F928D809E80AF80B88487
:102FF000CD84DE84EF84F8880F8D18A129A13AA131
:1030000040E050E060EC70E4C1010E94590E0F9066
:103010000F900F900F906D837E838F8398871F9200
:103020001F921F921F928BA09CA0ADA0BEA0CFA00C
:10303000D8A4E9A4FAA40BA51CA52DA53EA540E0A3
:1030400050E060EC70E489859A850E94590E0F90DB
:103050000F900F900F9069877A878B879C8720E06D
:1030600030E0A901C301B2010E94582318165CF494
:1030700020E030E040E85FE3C301B2010E942B2072
:1030800087FF1BC00AC020E030E040E85FEBC301CF
:10309000B2010E945823181684F420E030E0A90100
:1030A000C301B2010E9458237301620118165CF03B
:1030B000F7FAF094F7F8F09406C0C12CD12C30E860
:1030C000E32E3FE3F32EA701960160E070E080E875
:1030D0009FE30E94AA212D813E814F8158850E9445
:1030E00091204B015C01A7019601C301B2010E942E
:1030F00091209B01AC01C501B4010E94AB216D83FD
:103100007E838F83988720E030E0A90169817A81EE
:103110008B819C810E94582318166CF420E030E0CB
:1031200040E85FE369817A818B819C810E942B203A
:1031300087FF21C00CC020E030E040E85FEB6981F0
:103140007A818B819C810E9458231816A4F420E078
:1031500030E0A90169817A818B819C810E9458238A
:10316000C980DA80EB80FC8018165CF0F7FAF094E6
:10317000F7F8F09406C0C12CD12C20E8E22E2FE302
:10318000F22EA701960160E070E080E89FE30E94C4
:10319000AA2129853A854B855C850E9491204B01A7
:1031A0005C01A701960169817A818B819C810E94D3
:1031B00091209B01AC01C501B4010E94AB216B01C0
:1031C0007C0120E030E040E05FE3C301B2010E94F7
:1031D00091204B015C0120E030E0A90169817A81F6
:1031E0008B819C810E94582329813A814B815C818B
:1031F00018160CF05058C501B4010E9491202D8181
:103200003E814F8158850E94AB216D837E838F83E1
:1032100098876093C6017093C7018093C80190930B
:10322000C90120E030E040E05FE369817A818B8171
:103230009C810E9491204B015C0120E030E0A901BB
:10324000C301B2010E945823181624F077FA709433
:1032500077F87094A3019201C501B4010E949120F6
:10326000A70196010E94AB216D877E878F87988B7F
:103270006093C2017093C3018093C4019093C50110
:103280008090BD029090BE02A090BF02B090C0029C
:10329000C090C502D090C602E090C702F090C8026C
:1032A0000091C1021091C2022091C3023091C40268
:1032B0004DE34F935CE45F938CEC8F939DEC9F9375
:1032C00040E050E060E870E489899A890E94590ED4
:1032D0000F900F900F900F909B01AC0150582987D1
:1032E0003A874B875C872093BE013093BF014093A0
:1032F000C0015093C101C12C80ECD82E88E4E82E87
:1033000084E4F82E00E010E02AE833E440E050E0E6
:1033100060EC7FE38D899E890E940B052B013C01A7
:103320006093BA017093BB018093BC019093BD017F
:10333000C12C90ECD92E9FE7E92E94E4F92E00E001
:1033400010E020E931E440E050E060E87FE3898D5F
:103350009A8D0E940B05698B7A8B8B8B9C8B60936B
:10336000B6017093B7018093B8019093B90100E062
:1033700010E020E931E440E050E060E87FE38D8D2B
:103380009E8D0E940B056D8B7E8B8F8B988F60932B
:10339000B2017093B3018093B4019093B501809111
:1033A000AA019091AB01A091AC01B091AD01898FC0
:1033B0009A8FAB8FBC8FC090A601D090A701E090F0
:1033C000A801F090A9019C01AD016D817E818F81E2
:1033D00098850E9491204B015C01A70196016D85A3
:1033E0007E858F8598890E9491209B01AC01C50143
:1033F000B4010E94AB2120E030E040E05FE30E9496
:1034000091204B015C0120E030E040E05FE36091FF
:10341000A2017091A3018091A4019091A5010E9445
:1034200091209B01AC01C501B4010E94AB216983CD
:103430007A838B839C836093A2017093A301809312
:10344000A4019093A5016D817E818F81988590580C
:10345000A70196010E9491206B017C01298D3A8D74
:103460004B8D5C8D6D857E858F8598890E9491201E
:103470009B01AC01C701B6010E94AB2120E030E006
:1034800040E05FE30E9491206B017C0120E030E08E
:1034900040E05FE360919E0170919F018091A001E7
:1034A0009091A1010E9491209B01AC01C701B6013E
:1034B0000E94AB216B017C0160939E0170939F0180
:1034C0008093A0019093A10120E030E040E05FE311
:1034D00060919A0170919B0180919C0190919D0156
:1034E0000E9491204B015C0120E030E040E05FE36E
:1034F00069857A858B859C850E9491209B01AC0112
:10350000C501B4010E94AB214B015C0160939A019B
:1035100070939B0180939C0190939D0120E030E08B
:1035200040E054E469817A818B819C810E949120E2
:1035300020E030E040E054E40E94AB210E94FB22F6
:103540007093E2026093E1028091FD0281110E947A
:10355000F90220E030E040E054E4C701B6010E94E7
:10356000912020E030E040E054E40E94AB210E9432
:10357000FB227093E4026093E3028091FD028111CB
:103580000E94F90220E030E040E054E4C501B401BB
:103590000E94912020E030E040E054E40E94AB2102
:1035A0000E94FB227093E6026093E5028091FD0287
:1035B00081110E94F90220E030E040E054E4C301B0
:1035C000B2010E94912020E030E040E054E40E94EB
:1035D000AB210E94FB227093EC026093EB0280917E
:1035E000FD0281110E94F90220E030E040E05FE33B
:1035F0006091960170919701809198019091990145
:103600000E9491204B015C0120E030E040E054E456
:1036100069897A898B899C890E94912020E030E019
:1036200040E054E40E94AB2120E030E040E05FE362
:103630000E9491209B01AC01C501B4010E94AB2105
:103640006D837E838F839887609396017093970133
:10365000809398019093990120E030E040E05FE38F
:1036600060919201709193018091940190919501E4
:103670000E9491204B015C0120E030E040E054E4E6
:103680006D897E898F89988D0E94912020E030E09D
:1036900040E054E40E94AB2120E030E040E05FE3F2
:1036A0000E9491209B01AC01C501B4010E94AB2195
:1036B0004B015C016093920170939301809394019C
:1036C000909395016D817E818F8198850E94FB2268
:1036D0007093E8026093E7028091FD0281110E94DD
:1036E000F902C501B4010E94FB227093EA026093C3
:1036F000E9028091FD0281110E94F90220E030E090
:10370000A901C301B2010E9458231816BCF480918C
:10371000910181119CC191E0909391010E94ED0C67
:10372000DC01CB018C599F4FAF4FBF4F80938D0170
:1037300090938E01A0938F01B093900120E030E030
:10374000A901C301B2010E942B2087FF16C08091FE
:103750009101882391F0109291010E94ED0CDC01FF
:10376000CB018C599F4FAF4FBF4F80938D019093EA
:103770008E01A0938F01B093900180908D01909065
:103780008E01A0908F01B09090010E94ED0C21E07D
:10379000681579058A059B0508F020E0622F8AE20A
:1037A0000E94D30526E636E646E65FEBC301B2018A
:1037B0000E942B20682F661F6627661F8BE20E94DF
:1037C000D305A1E0AD8326E636E646E65FE3C30116
:1037D000B2010E94582318160CF01D826D818CE2F4
:1037E0000E94D3052DEC3CEC4CE45FEB69857A85B7
:1037F0008B859C850E942B20682F661F6627661F7D
:1038000081E30E94D305B1E0BD832DEC3CEC4CE498
:103810005FE369857A858B859C850E9458231816FD
:103820000CF01D826D8182E30E94D30520E030E020
:10383000A90169817A818B819C810E945823181685
:103840006CF420E030E040E05FE369817A818B81B5
:103850009C810E94582318165CF10CC020E030E0D7
:1038600040E05FEB69817A818B819C810E942B20F3
:1038700087FD1EC020E030E0A901C701B6010E940B
:10388000582318165CF420E030E040E05FE3C70105
:10389000B6010E94582318165CF022C020E030E0E8
:1038A00040E05FEBC701B6010E942B2087FF18C0E4
:1038B00029813A814B815C81C701B6010E942A228D
:1038C00021EE3EE245E652E40E94912020E030E005
:1038D00041EE52E40E94AB210E94FB22CB0102C0C8
:1038E0008FEF9FEF0E94D9056BE070E081E090E0E0
:1038F0000E944B02892BA1F56DE070E081E090E021
:103900000E944B02892B61F56CE070E081E090E051
:103910000E944B02892B21F56EE070E081E090E07F
:103920000E944B02892BE1F45BC067E070E082E00B
:1039300090E00E944B02892B51F40E94ED0C6093A1
:10394000AE017093AF018093B0019093B1016DE02F
:1039500070E082E090E00E944B02892B09F454C091
:1039600020918401309185013A832983232BA1F092
:103970000E94ED0C00918001109181012091820143
:10398000309183010C591F4F2F4F3F4F06171707D8
:103990002807390708F451C061E170E080E090E049
:1039A0000E94B30C40E050E0452B11F40C949112AE
:1039B0000E9400000C9491128CE10E94C2048BE1E1
:1039C0000E94C2041092870110928801109289010E
:1039D00010928A0110928C0110928B010C945C144D
:1039E0006AE070E082E090E00E944B02892B09F0CF
:1039F0009CCF98E088E10FB6F894A895809360007A
:103A00000FBE90936000FFCF6FE070E082E090E027
:103A10000E944B0221E0892B09F020E02093000155
:103A20006EE070E082E090E00E944B0221E0892B82
:103A300009F020E02093010193CF698181EB92E0AE
:103A40000E94430D1092850110928401A5CF20E0C1
:103A500030E0A901C301B2010E942B2087FF8DCE67
:103A60007ACEEF92FF920F931F93CF93DF93CDB750
:103A7000DEB7C659D1090FB6F894DEBF0FBECDBF71
:103A8000109205021092040288EE93E0A0E0B0E0EC
:103A90008093060290930702A0930802B093090254
:103AA00083E591E090930302809302028FEF9FEFF2
:103AB00090930F0280930E021092580210925902B6
:103AC00010925A0210925B0210925C0210925D02F8
:103AD00010925E0210925F021092600210926102D8
:103AE00010926202109263021092640210926502B8
:103AF00010926602109267021092B4021092B30202
:103B000085E691E09093B2028093B10280915903CF
:103B1000811113C0109254031092530382E093E07A
:103B200090935603809355038FE290E0909358034F
:103B30008093570381E0809359038091A9028111FA
:103B400005C00E94C40281E08093A902E091A30213
:103B5000F091A402309739F483E593E09093A402A6
:103B60008093A3020AC080819181009711F0FC012B
:103B7000FACF83E593E0918380832091A502309171
:103B8000A6028091570390915803820F931F909340
:103B9000A6028093A50282E090E090933203809386
:103BA000310384E090E0909334038093330386E004
:103BB00090E0909336038093350387E090E09093F4
:103BC00038038093370388E090E090933A03809322
:103BD00039038AE090E090933C0380933B038BE0B1
:103BE00090E090933E0380933D038CE090E09093AF
:103BF000400380933F0382E190E0909342038093DF
:103C0000410383E190E0909344038093430384E174
:103C100090E0909346038093450361E082E00E9428
:103C2000770C61E0809133030E94770C61E0809112
:103C300035030E94770C61E0809137030E94770C76
:103C400061E0809139030E94770C60E08091390334
:103C50000E94480C61E080913B030E94770C61E078
:103C600080913D030E94770C61E080913F030E94A8
:103C7000770C1092FC021092FB021092FF0210923D
:103C80000403109203038FEF93E090930603809355
:103C90000503109208031092070390930A03809380
:103CA000090310920C0310920B0390930E03809360
:103CB0000D031092100310920F0390931203809340
:103CC0001103109214031092130390931603809320
:103CD0001503109218031092170390931A03809300
:103CE000190310921C0310921B0390931E038093E0
:103CF0001D031092200310921F03909322038093C0
:103D0000210310922403109223039093260380939F
:103D10002503109228031092270390932A0380937F
:103D2000290310922C0310922B0390932E0380935F
:103D30002D0373E070932F0324E32093FE0210926F
:103D400000038FE3809301031092020365E069830F
:103D500091E09A8389E08B83A4E0AC83F1EAFD8350
:103D60009E8335E83F83788769878A8739E13B8777
:103D70009C8739E23D872E8735E13F87188A35E2F7
:103D8000398B9A8B55E75B8B9C8B45E94D8B2E8B42
:103D900035E53F8B188E35E6398F1A8E31E83B8F2B
:103DA000E2E0EC8F5D8F9E8F4F8FA8A339A37AA39B
:103DB0006BA39CA38DA39EA366E16FA398A790E835
:103DC00099A796E29AA79FEF9BA79FE79CA75DA75D
:103DD00090E19EA74FA796E098ABF9AB1AAA8BABE0
:103DE00090E39CAB8DAB91E39EAB8FAB92E398AF2E
:103DF00089AF93E39AAF8BAF2CAF8DAF85E38EAFD6
:103E00003FAF2196EFAF219780EC22968FAF22979C
:103E100023968FAF239782E490E00E94ED247C01EB
:103E200082E4FE013196D70101900D928A95E1F767
:103E300087E090E00E94ED248C01DC0111961C9239
:103E40001E921396FC92EE92129782E490E01596E1
:103E50009C938E93149716961C920E94050EFC015B
:103E6000A385B485109719F41487038709C08D9131
:103E70009C911197009711F0DC01F9CF0D931C93E1
:103E800025853685D80114968D919C911597820FC2
:103E9000931F968785879091FE02892F8695869538
:103EA0008695977009F08F5F8093FF021091FF0253
:103EB000812F90E00E94ED249093FC028093FB02FE
:103EC00081E090910003911101C080E0145F180F10
:103ED000109330031092E2021092E1021092E40279
:103EE0001092E3021092E6021092E5021092E802AC
:103EF0001092E7021092EA021092E9021092EC028C
:103F00001092EB021092EE021092ED021092F0026B
:103F10001092EF021092F2021092F1021092F4024B
:103F20001092F3021092F6021092F5028FEF9FEFBB
:103F30009093F8028093F7029093FA028093F9022B
:103F400080E090E02091FF0230E0821793074CF46C
:103F5000E091FB02F091FC02E80FF91F108201963C
:103F6000F1CF80E090ECA3E4B4E48093D502909389
:103F7000D602A093D702B093D80280E090E0A7EDDC
:103F8000B3E48093D9029093DA02A093DB02B0935A
:103F9000DC0280E090EAA7E1B4E48093DD02909334
:103FA000DE02A093DF02B093E00280E090E8A7E495
:103FB000B4E48093C9029093CA02A093CB02B09359
:103FC000CC0280E090ECA0E0B4E48093CD0290932A
:103FD000CE02A093CF02B093D00280E090E2A4E2A0
:103FE000B4E48093D1029093D202A093D302B09311
:103FF000D40280E090E0A0EFB2E48093BD02909301
:10400000BE02A093BF02B093C00280E090E0A0E4A3
:10401000B3E48093C1029093C202A093C302B09311
:10402000C40280E090E0ACE1B3E48093C5029093D9
:10403000C602A093C702B093C802CA56DF4F0FB69C
:10404000F894DEBF0FBECDBFDF91CF911F910F91CE
:10405000FF90EF9008950E946D2008F481E008958C
:10406000E89409C097FB3EF4909580957095619512
:104070007F4F8F4F9F4F9923A9F0F92F96E9BB27C8
:104080009395F695879577956795B795F111F8CF44
:10409000FAF4BB0F11F460FF1BC06F5F7F4F8F4FAF
:1040A0009F4F16C0882311F096E911C0772321F0A5
:1040B0009EE8872F762F05C0662371F096E8862F3D
:1040C00070E060E02AF09A95660F771F881FDAF794
:1040D000880F9695879597F90895990F0008550FC1
:1040E000AA0BE0E8FEEF16161706E807F907C0F07E
:1040F00012161306E407F50798F0621B730B840B86
:10410000950B39F40A2661F0232B242B252B21F45F
:1041100008950A2609F4A140A6958FEF811D811DFF
:1041200008950E94A4200C9415210E94072138F0C4
:104130000E940E2120F0952311F00C94FE200C9487
:10414000042111240C9449210E94262170F3959F8B
:10415000C1F3950F50E0551F629FF001729FBB277E
:10416000F00DB11D639FAA27F00DB11DAA1F649F1A
:104170006627B00DA11D661F829F2227B00DA11DCD
:10418000621F739FB00DA11D621F839FA00D611D53
:10419000221F749F3327A00D611D231F849F600D74
:1041A000211D822F762F6A2F11249F5750409AF09D
:1041B000F1F088234AF0EE0FFF1FBB1F661F771F29
:1041C000881F91505040A9F79E3F510580F00C94F4
:1041D000FE200C9449215F3FE4F3983ED4F386958A
:1041E00077956795B795F795E7959F5FC1F7FE2B94
:1041F000880F911D9695879597F9089597F99F6770
:1042000080E870E060E008959FEF80EC089500245E
:104210000A941616170618060906089500240A942B
:1042200012161306140605060895092E0394000CB1
:1042300011F4882352F0BB0F40F4BF2B11F460FF40
:1042400004C06F5F7F4F8F4F9F4F089557FD905869
:10425000440F551F59F05F3F71F04795880F97FB4A
:10426000991F61F09F3F79F0879508951216130604
:104270001406551FF2CF4695F1DF08C01616170633
:104280001806991FF1CF8695710561050894089568
:10429000E894BB2766277727CB0197F90895A1E219
:1042A0001A2EAA1BBB1BFD010DC0AA1FBB1FEE1FB0
:1042B000FF1FA217B307E407F50720F0A21BB30BFB
:1042C000E40BF50B661F771F881F991F1A9469F777
:1042D00060957095809590959B01AC01BD01CF01D3
:1042E0000895052E97FB1EF400940E94882157FD27
:1042F00007D00E944F2107FC03D04EF40C94882174
:1043000050954095309521953F4F4F4F5F4F089501
:1043100090958095709561957F4F8F4F9F4F089531
:104320000E949B21A59F900DB49F900DA49F800D8E
:10433000911D11240895A29FB001B39FC001A39FB6
:10434000700D811D1124911DB29F700D811D1124CE
:10435000911D08955058BB27AA270E94C2210C9492
:1043600015210E94072138F00E940E2120F039F417
:104370009F3F19F426F40C9404210EF4E095E7FB1A
:104380000C94FE20E92F0E94262158F3BA176207E9
:1043900073078407950720F079F4A6F50C9448215B
:1043A0000EF4E0950B2EBA2FA02D0B01B901900150
:1043B0000C01CA01A0011124FF27591B99F0593F94
:1043C00050F4503E68F11A16F040A22F232F342FDC
:1043D0004427585FF3CF469537952795A795F0402A
:1043E0005395C9F77EF41F16BA0B620B730B840B3F
:1043F000BAF09150A1F0FF0FBB1F661F771F881FF7
:10440000C2F70EC0BA0F621F731F841F48F487954E
:1044100077956795B795F7959E3F08F0B0CF939540
:10442000880F08F09927EE0F9795879508950E94B9
:10443000072160F080E891E009F49EEF0E940E21D0
:1044400028F040E851E071F45EEF0CC00C940421B8
:104450000C944821E92FE0780E94262140F3092E90
:10446000052AB1F3261737074807590738F00E2EEB
:1044700007F8E02569F0E025E0640AC0EF6307F87B
:10448000009407FADB01B9019D01DC01CA01AD010D
:10449000EF930E94A0220E9415210E945A225F9150
:1044A000552339F02BED3FE049E450FD49EC0C94E5
:1044B000AB210895DF93DD27B92FBF7740E85FE395
:1044C0001616170648075B0718F4D92F0E945D23BC
:1044D0009F938F937F936F930E94B523EAECF0E054
:1044E0000E9431230E9415212F913F914F915F919E
:1044F0000E94A420DD2351F09058A2EA2AED3FE06B
:1045000049EC5FE3D0785D270E94C221DF910C94D3
:1045100015210E949D220C9415210E940E2158F015
:104520000E94072140F029F45F3F29F00C94FE20FF
:1045300051110C9449210C9404210E94262168F306
:104540009923B1F3552391F3951B550BBB27AA274C
:1045500062177307840738F09F5F5F4F220F331F86
:10456000441FAA1FA9F335D00E2E3AF0E0E832D04E
:1045700091505040E695001CCAF72BD0FE2F29D051
:10458000660F771F881FBB1F261737074807AB0723
:10459000B0E809F0BB0B802DBF01FF2793585F4F98
:1045A0003AF09E3F510578F00C94FE200C9449217E
:1045B0005F3FE4F3983ED4F3869577956795B7957A
:1045C000F7959F5FC9F7880F911D9695879597F985
:1045D0000895E1E0660F771F881FBB1F62177307FE
:1045E0008407BA0720F0621B730B840BBA0BEE1F13
:1045F00088F7E09508950E9402236894B1110C9405
:10460000492108950E942E2188F09F5798F0B92FD4
:104610009927B751B0F0E1F0660F771F881F991FF7
:104620001AF0BA95C9F714C0B13091F00E94482130
:10463000B1E008950C944821672F782F8827B85F40
:1046400039F0B93FCCF3869577956795B395D9F74F
:104650003EF490958095709561957F4F8F4F9F4F59
:104660000895DF93CF931F930F93FF92EF92DF9202
:104670007B018C01689406C0DA2EEF010E94A42011
:10468000FE01E894A5912591359145915591A6F3A8
:10469000EF010E94C221FE019701A801DA9469F797
:1046A000DF90EF90FF900F911F91CF91DF910895D0
:1046B0000E946D2008F48FEF08959B01AC0160E02B
:1046C00070E080E89FE30C948922FA01EE0FFF1F4F
:1046D000309621053105A1F16115710561F480382D
:1046E000BFE39B0749F168949038810561F08038F9
:1046F000BFEF9B0741F099234AF5FF3FE1053105E4
:10470000210519F1E8940894E795D901AA2329F421
:10471000AB2FBE2FF85FD0F310C0FF5F70F4A695EB
:10472000E0F7F73950F019F0FF3A38F49F779F938C
:104730000DD00F9007FC9058089546F00C9404217A
:1047400060E070E080E89FE308954FE79F775F9314
:104750004F933F932F930E9435242F913F914F9178
:104760005F910E9491200C94C1239B01AC010C9499
:10477000912029F416F00C94FE200C9448210C94FE
:1047800004210E942E21A8F39638A0F707F80F9273
:10479000E8942BE33AEA48EB5FE70E94A7200F92E8
:1047A0000F920F924DB75EB70F920E947D24E7EFF4
:1047B000F0E00E9431234F915F91EF91FF91E595D9
:1047C000EE1FFF1F49F0FE57E0684427EE0F441F1D
:1047D000FA95E1F74195550B0E94F7230F9007FEDC
:1047E0000C945D2308950C94FE200C94B1240E9437
:1047F0002E21D8F39923C9F3940F511DA3F391509F
:10480000504094F059F0882332F0660F771F881FCC
:1048100091505040C1F79E3F51052CF7880F911DD4
:104820009695879597F908955F3FACF0983E9CF078
:10483000BB27869577956795B79508F4B1609395F2
:10484000C1F7BB0F58F711F460FFE8CF6F5F7F4FE0
:104850008F4F9F4FE3CF0C94492116F00C94B12455
:104860000C94042168940C94FE200E942E21A8F33D
:104870009923C1F3AEF3DF93CF931F930F93FF926E
:10488000C92FDD2788232AF02197660F771F881FFD
:10489000DAF720E030E040E85FEB9FE3883920F072
:1048A000803E38F021968F770E94AB21EFE1F1E056
:1048B00004C00E94AB21ECE4F1E00E9431238B01A3
:1048C000BE01EC01FB2E6F5771097595771F880BA0
:1048D000990B0E94322028E132E741E35FE30E9416
:1048E000A420AF2D9801AE01FF900F911F91CF91A1
:1048F000DF910E94C2210C941521FA01DC01AA0F5C
:10490000BB1F9B01AC01BF5728F422273327442744
:10491000507820C0B75190F4AB2F002446953795BE
:104920002795011CA395D2F3002071F0220F331FAD
:10493000441FB395DAF30ED00C94AA2161307105AF
:10494000A0E88A07B94630F49B01AC0166277727B7
:1049500088279078309621F02083318342835383D7
:1049600008959F3F31F0915020F487957795679592
:10497000B795880F911D9695879597F9089597FBA0
:10498000072E16F4009407D077FD09D00E94D92491
:1049900007FC05D03EF4909581959F4F0895709542
:1049A00061957F4F0895EE0FFF1F0590F491E02D64
:1049B0000994AA1BBB1B51E107C0AA1FBB1FA61766
:1049C000B70710F0A61BB70B881F991F5A95A9F7B8
:1049D00080959095BC01CD0108950F931F93CF93BF
:1049E000DF938230910510F482E090E0E0916F0354
:1049F000F091700320E030E0A0E0B0E0309719F1D2
:104A0000408151810281138148175907C8F08417EA
:104A1000950769F4109731F012960C93129713963C
:104A20001C9327C000936F031093700322C02115BD
:104A3000310519F04217530718F49A01BD01EF012F
:104A4000DF01F801DBCF21153105F9F0281B390B07
:104A50002430310580F48A819B816115710521F034
:104A6000FB019383828304C09093700380936F0350
:104A7000FE01329644C0FE01E20FF31F8193919331
:104A800022503109398328833AC020916D03309137
:104A90006E03232B41F420911701309118013093BC
:104AA0006E0320936D03209115013091160121159D
:104AB000310541F42DB73EB74091190150911A01CB
:104AC000241B350BE0916D03F0916E03E217F307A1
:104AD000A0F42E1B3F0B2817390778F0AC014E5F6E
:104AE0005F4F2417350748F04E0F5F1F50936E033A
:104AF00040936D038193919302C0E0E0F0E0CF0119
:104B0000DF91CF911F910F910895CF93DF9300977D
:104B100009F481C0FC01329713821282A0916F03C5
:104B2000B0917003109781F420813181820F931F1F
:104B300020916D0330916E032817390751F5F093DA
:104B40006E03E0936D0367C0ED0120E030E0CE1707
:104B5000DF0740F44A815B819E0141155105F1F068
:104B6000EA01F5CFD383C28340815181840F951F21
:104B7000C817D90759F488819981840F951F029627
:104B8000918380838A819B81938382832115310560
:104B900029F4F0937003E0936F033DC0E901FB83B8
:104BA000EA8349915991C40FD51FEC17FD0761F4B1
:104BB00080819181840F951F0296E90199838883F2
:104BC000828193819B838A83E0E0F0E012968D914D
:104BD0009C911397009719F0FD01DC01F7CF8D919F
:104BE0009C9111979D012E5F3F4F820F931F209143
:104BF0006D0330916E032817390769F4309729F453
:104C00001092700310926F0302C013821282B0934D
:104C10006E03A0936D03DF91CF91089581E090E042
:104C2000F8940C941C26FB01DC0102C001900D924B
:0C4C300041505040D8F70895F894FFCF91
:104C3C00010100C18081000000FFFFFFFF00E100C7
:104C4C00000000000000007103800000FF01000163
:104C5C000000FFFF0000010001FF00000000001435
:104C6C000A200BE00A210A00000000DE0ADE0ADE40
:104C7C000A7A0A000000006D0AAB0B680B210A00CF
:104C8C000000005909810A970A6F097A09C00A9C29
:104C9C000A00000000EF0D3D0A6A0A690A564D44ED
:104CAC0050565F317C315F564D4450560D0A000012
:00000001FF
