:100000000C9445010C946D010C946D010C946D01E0
:100010000C946D010C946D010C946D010C946D01A8
:100020000C946D010C946D010C9449070C94140808
:100030000C946D010C946D010C946D010C946D0188
:100040000C946D010C946D010C946D010C946D0178
:100050000C946D010C946D010C946D010C94580C72
:100060000C946D010C946D010C946D010C946D0158
:100070000C946D010C946D010C946D010C946D0148
:100080000C946D010C946D010C946D010C946D0138
:100090000C946D010C946D010C946D010C946D0128
:1000A0000C946D010C946D010C946D015C0A5F0A57
:1000B0004E0A520A580A800A800A800A630A670AAE
:1000C0006B0A710A750A800A7B0A084AD73B3BCE45
:1000D000016E84BCBFFDC12F3D6C74319ABD568347
:1000E0003DDA3D00C77F11BED9E4BB4C3E916BAAFF
:1000F000AABE000000803F07634236B79BD8A71A0C
:1001000039685618AEBAAB558C1D3CB7CC5763BD99
:100110006DEDFD753EF6177231BF000000803F089F
:10012000000000BE922449123EABAAAA2ABECDCC42
:10013000CC4C3E00000080BEABAAAAAA3E00000044
:1001400000BF000000803F0000000000084178D39D
:10015000BB4387D1133D190E3CC3BD4282AD2B3E3C
:1001600068EC8276BED98FE1A93E4C80EFFFBE01DC
:10017000C4FF7F3F000000000000080B00020202E5
:100180000100090400000102020000052400100122
:1001900005240101010424020605240600010705C7
:1001A000810310004009040100020A000000070555
:1001B0000202400000070583024000000403090416
:1001C00012010002EF0201404123368000010102CA
:1001D000030141726475696E6F204C4C43004861A5
:1001E0007276657374655220436F6E74726F6C2003
:1001F0004465636B00070605040100080A0B0C0D3B
:100200000900000000240027002A002D0030000013
:10021000000000250028002B002E00310000000007
:10022000002300260029002C002F000404040404ED
:100230000304050202020204030202020206060689
:100240000606060404020202040404080201104027
:10025000804010204080408008020401804020102F
:100260000201108010204040200000000200090F11
:100270000000030401000C0000000000000000006A
:100280000000000000000000B11A11241FBECFEFD3
:10029000DAE0DEBFCDBF11E0A0E0B1E0E6E7F6E4D2
:1002A00002C005900D92AA34B107D9F722E0AAE462
:1002B000B1E001C01D92AB3DB207E1F711E0C5E42A
:1002C000D1E004C02197FE010E94E421C434D1078B
:1002D000C9F70E941E0F0C9439230C940000CF9292
:1002E000DF92EF92FF920F931F93CF93DF93D90189
:1002F000E801421753071CF0FA01690102C06A01C4
:10030000F9018823C9F19C2D8D2DC616D70614F44A
:10031000962F872F292F382FE217F3070CF49F0110
:10032000A417B50734F4CF01821B930B9C012C0D4D
:100330003D1D0D2C000CEE08FF08C901330FAA0B60
:10034000BB0B9C01AD012C193D094E095F09AFEFB4
:10035000BFE70E945B1D8F01FF0F220B330BA9012A
:1003600098012C193D094E095F090E943C1D288304
:10037000398382E090E002C080E090E0DF91CF918D
:100380001F910F91FF90EF90DF90CF900895CF9243
:10039000DF92EF92FF920F931F93CF93DF93D901D8
:1003A000E801421753071CF0FA01690102C06A0113
:1003B000F9018823C9F19C2D8D2DC616D70614F49A
:1003C000962F872F292F382FE217F3070CF49F0160
:1003D000A417B50734F4CF01821B930B9C012C0D9D
:1003E0003D1D0D2C000CEE08FF08C901330FAA0BB0
:1003F000BB0B9C01AD012C193D094E095F09AFEF04
:10040000BFE70E945B1D8F01FF0F220B330BA90179
:1004100098012C193D094E095F090E943C1D288353
:10042000398382E090E002C080E090E0DF91CF91DC
:100430001F910F91FF90EF90DF90CF9008950F9351
:100440001F93CF938C01C62F60E0809133020E94EE
:10045000A60B0230110531F10330110509F440C03B
:100460000130110509F05EC06C2F617080912B0284
:100470000E94A60BC1FB662760F980912D020E94A5
:10048000A60BC2FB662760F980912F020E94A60B83
:10049000C3FB662760F9809131020E94A60B809110
:1004A0003B023BC06C2F617080912B020E94A60B17
:1004B000C1FB662760F980912D020E94A60BC2FB4A
:1004C000662760F980912F020E94A60BC3FB662766
:1004D00060F9809131020E94A60B80913D021DC0FF
:1004E0006C2F617080912B020E94A60BC1FB6627C6
:1004F00060F980912D020E94A60BC2FB662760F96D
:1005000080912F020E94A60BC3FB662760F98091A1
:1005100031020E94A60B80913F02CF911F910F9153
:100520000C947D0B80E090E0CF911F910F91089586
:100530007F928F929F92AF92BF92CF92DF92EF9273
:10054000FF920F931F93CF93DF93CDB7DEB7ADB676
:10055000BEB680912A022DB73EB7281B31090FB6CF
:10056000F8943EBF0FBE2DBF8DB79EB701966C01AC
:10057000E090F901F12C8091F5019091F601D601FE
:10058000FC019F01281B390B2E153F051CF42191FE
:100590002D93F7CF8091FA01882371F18091F101B9
:1005A0009091F20197FD0AC068E671E00E94D021A7
:1005B0006DE270E00E94D021262F01C028E08091DA
:1005C000F3019091F40197FD0AC068E671E00E9482
:1005D000D0216DE270E00E94D021962F01C098E0FA
:1005E000F601EE0DFF1D30E1939FC0011124822B17
:1005F0008083C70101967C0186010E0D1F1D20918D
:10060000FF01309100024091FD015091FE01609187
:10061000DB017091DC018091FB0181700E94C701B8
:10062000E80EF91E86010E0D1F1D20910302309168
:10063000040240910102509102026091DD0170912B
:10064000DE018091FB01869581700E94C701E80E52
:10065000F91E86010E0D1F1D209107023091080220
:1006600040910502509106026091DF017091E00116
:100670008091FB0182FB882780F90E94C701E80E68
:10068000F91E86010E0D1F1D20910B0230910C02E8
:100690004091090250910A026091E1017091E201DA
:1006A0008091FB0183FB882780F90E94C701E80E37
:1006B000F91E86010E0D1F1D20910F0230911002B0
:1006C00040910D0250910E026091E3017091E4019E
:1006D0008091FB01829581700E94C701E80EF91E8E
:1006E00086010E0D1F1D20911302309114024091BE
:1006F0001102509112026091E5017091E601809122
:10070000FB0185FB882780F90E94C701E80EF91ECE
:1007100086010E0D1F1D2091170230911802409185
:100720001502509116026091E9017091EA018091E1
:10073000FC0181700E946F01E80EF91E86010E0D0A
:100740001F1D20911B0230911C02409119025091F3
:100750001A026091E7017091E8018091FC01869591
:1007600081700E946F01E80EF91E86010E0D1F1D9B
:1007700020911F023091200240911D0250911E02D3
:100780006091EB017091EC018091FC0182FB882764
:1007900080F90E946F01E80EF91E86010E0D1F1DE3
:1007A0002091230230912402409121025091220293
:1007B0006091ED017091EE018091FC0183FB88272F
:1007C00080F90E946F018E0D9F1D8601080F191F71
:1007D0002091270230912802409125025091260253
:1007E0006091EF017091F0018091FC018295817020
:1007F0000E946F0110912A02709029020E94A20C9F
:100800007C01412F50E04A019FEF891A990AEDB708
:10081000FEB7E819F9090FB6F894FEBF0FBEEDBF99
:100820000DB71EB70F5F1F4F7182B601C801019649
:100830000E943023F7018381A401B80180640E94E3
:10084000630E0FB6F894BEBE0FBEADBEDF91CF9162
:100850001F910F91FF90EF90DF90CF90BF90AF90DE
:100860009F908F907F9008959091F801891700F5DF
:10087000982F969596959695E091F501F091F60151
:10088000E90FF11D282F277081E090E0A0E0B0E093
:1008900004C0880F991FAA1FBB1F2A95D2F7809505
:1008A0009081892380838091F70181110C949802B3
:1008B00008959091F8018917F8F4982F96959695D8
:1008C0009695E091F501F091F601E90FF11D282FC1
:1008D000277081E090E0A0E0B0E004C0880F991F8D
:1008E000AA1FBB1F2A95D2F72081822B808380917B
:1008F000F70181110C94980208954F925F926F92C4
:100900007F928F929F92AF92BF92CF92DF92EF929F
:10091000FF920F931F93CF93DF9300D000D0CDB7FA
:10092000DEB749835A836B837C8348015901BC013C
:10093000990F880B990B0E94251FA50194010E9415
:10094000971D9B01AC010E94981D2B013C01A50144
:100950009401C701B6010E94971D9B01AC01C30120
:10096000B2010E947B1E20E030E040E85FE30E947D
:10097000971D6B017C0120E030E0A9010E94FC1F63
:10098000181624F0C701B601905802C0C701B6017D
:1009900029813A814B815C810E9476204B015C0168
:1009A00020E030E0A901C701B6010E94FC1F181623
:1009B0006CF020E030E0A901C701B6010E94761E6C
:1009C00087FD09C020E030E0A90109C020E030E047
:1009D00040E85FE304C020E030E040E85FEBC501A1
:1009E000B4010E9409206B017C0120E030E040E866
:1009F0005FEB0E94761E87FD14C020E030E040E8E7
:100A00005FE3C701B6010E94FC1F18160CF120E03D
:100A100030E0A901C701B6010E94FC1F18165CF066
:100A200006C0C12CD12C90E8E92E9FEBF92EC7010E
:100A3000B601905802C0C701B60120E030E0A9011C
:100A40000E94761E87FF0AC0C12CD12C760106C0F9
:100A5000C12CD12C80E8E82E8FE3F82EC701B60117
:100A60000F900F900F900F90DF91CF911F910F91EA
:100A7000FF90EF90DF90CF90BF90AF909F908F90BE
:100A80007F906F905F904F900895611102C00C9419
:100A900034040C945904CF93DF93EC01CF3F8FEFD4
:100AA000D80761F1BE010D2E000C880B990B0E9436
:100AB000251F20E030E044EB53E40E94761E87FFC0
:100AC00002C0C859DE4FBE010D2E000C880B990BD9
:100AD0000E94251F20E030E044EB53E40E94FC1FFD
:100AE000181614F4C856D140CE016DE270E00E9491
:100AF000D02170934E0260934D0204C0D0934E02F9
:100B0000C0934D02C0914D02D0914E0261E02097FA
:100B100009F060E080E20E94450561E0C130D10546
:100B200009F060E081E20E94450561E0C230D10534
:100B300009F060E082E20E94450561E0C330D10522
:100B400009F060E083E20E94450561E0C430D10510
:100B500009F060E084E20E94450561E0C530D105FE
:100B600009F060E085E20E94450561E0C630D105EC
:100B700009F060E086E20E94450561E0279709F0F0
:100B800060E087E2DF91CF910C944505FC018091F4
:100B9000A802811103C08FEF9FEF08959FB7F894CB
:100BA00082E08093E9002091F20030E012161306F3
:100BB00014F421E030E02115310559F0289884E63D
:100BC0008093A7028091F10080838091F2008823B6
:100BD00019F09FBFC90108958BE68093E800F9CF13
:100BE000CF92DF92EF92FF920F931F93CF93DF93F9
:100BF0006C017A018B01C0E0D0E0CE15DF0589F0F1
:100C0000D8016D918D01D601ED91FC910190F0819B
:100C1000E02DC6010995892B11F47E0102C02196B1
:100C2000ECCFC701DF91CF911F910F91FF90EF9013
:100C3000DF90CF900895CF93DF931F92CDB7DEB7AB
:100C40006983DC01ED91FC910280F381E02D41E0AC
:100C500050E0BE016F5F7F4F09950F90DF91CF91FC
:100C6000089583E08093E9008091F200882319F0D1
:100C70008AE38093E8000895CF93DF931F92CDB766
:100C8000DEB7FC018485958597FD05C02FEF3FEF0A
:100C9000358724870BC0CE0101960E94C6050197B7
:100CA00019F4898190E002C08FEF9FEF0F90DF91E0
:100CB000CF9108950F931F93CF93DF931F92CDB7DA
:100CC000DEB78C01FC018485958597FF0EC0CE01AF
:100CD00001960E94C605019719F4298130E002C0EF
:100CE0002FEF3FEFF80135872487F801848595853C
:100CF0000F90DF91CF911F910F910895FC01848592
:100D0000958597FD0BC09FB7F89482E08093E9002A
:100D10008091F2009FBF90E0019608959FB7F894EC
:100D200082E08093E9008091F2009FBF90E00895F7
:100D3000089580E090E00895CF93DF93EC018091D7
:100D40001401882331F083E00E94630E18161906FF
:100D500034F081E090E09B838A8380E090E0DF9133
:100D6000CF91089583E00E94520E90E00895CF92B3
:100D7000DF92EF92FF920F931F93CF93DF931F9217
:100D8000CDB7DEB7182F062FE42E862F880F8E5F83
:100D900099830E94240E83E00E94240EF12EC12E1E
:100DA0009981D92E8C2D8F19801798F4F601E7FEC2
:100DB00002C0849101C080810E94240E182F80E01F
:100DC0000E94240E8123FFEFCF1ADF0A8111EACFA0
:100DD00001C081E00F90DF91CF911F910F91FF90A3
:100DE000EF90DF90CF9008951F93CF93DF93182F4C
:100DF00060E0809133020E94A60B612F61708091A8
:100E00002B020E94A60B11FB662760F980912D0230
:100E10000E94A60B12FB662760F980912F020E94A8
:100E2000A60B13FB662760F9809131020E94A60B86
:100E3000E0913F02E23108F0E251F0E0EB50FE4F6A
:100E4000E49180917B00E3FB992790F9C92F90E012
:100E5000D92F95E0CC0FDD1F9A95E1F78F7DC82B38
:100E6000C0937B00E770E064E0937C0080917A009F
:100E7000806480937A0080917A0086FDFCCF809117
:100E800078002091790090E0922BDF91CF911F9113
:100E900008951F920F920FB60F9211248F939F9374
:100EA0008091E1009091E100937F9093E10083FFB6
:100EB0000FC01092E90091E09093EB001092EC00CB
:100EC00092E39093ED001092A80298E09093F000C6
:100ED00082FF20C093E09093E9009091F200992363
:100EE00019F09AE39093E8009091A602992339F0C3
:100EF0009091A60291509093A602992389F1909126
:100F0000A702992339F09091A70291509093A702DC
:100F1000992341F184FF10C08091E2008E7E8160B0
:100F20008093E2008091E1008F7E8093E1008091C8
:100F3000A5028E7E806111C080FF16C08091E20004
:100F40008E7E80618093E2008091E1008E7E8093AE
:100F5000E1008091A5028E7E81608093A50204C08D
:100F60005D9ACDCF289AD6CF9F918F910F900FBECB
:100F70000F901F901895DF92EF92FF920F931F939F
:100F8000CF93DF93D82E8A017B01E40EF51EEB018F
:100F9000CE15DF0571F0D7FE03C0FE01849101C0BC
:100FA00088810E94240E21968111F2CF8FEF9FEF4E
:100FB00001C0C801DF91CF911F910F91FF90EF9079
:100FC000DF9008950F931F93CF93DF931F92CDB7B8
:100FD000DEB782E0898342E450E06AE771E080E8AE
:100FE0000E94BB070E940A0FDC0112960D911C9112
:100FF00013970115110569F0D801ED91FC9102805C
:10100000F381E02DBE016F5F7F4FC801099597FF07
:1010100007C089810F90DF91CF911F910F910895A3
:10102000F80100851185E5CF1F920F920FB60F9240
:101030001124CF92DF92EF92FF920F931F932F9381
:101040003F934F935F936F937F938F939F93AF9350
:10105000BF93EF93FF93CF93DF93CDB7DEB76C973A
:10106000DEBFCDBF1092E9008091E80083FFEDC1A3
:1010700068E0CE0145960E94FD0E82EF8093E80065
:101080008D8987FF05C09091E80090FFFCCF03C0D9
:101090009EEF9093E800982F907609F0C6C09E8945
:1010A0002F89188D91110CC0803829F48091A402E9
:1010B0008093F10002C01092F1001092F10048C13B
:1010C000422F50E0512B913051F4811141C14130F8
:1010D000510509F03DC18091A4028D7F0BC0933072
:1010E00061F4811135C14130510509F031C1809160
:1010F000A40282608093A4022BC1953041F48091B8
:10110000E80080FFFCCF20682093E30021C19630E7
:1011100009F05FC0EB8CFC8C1092E9001092A202E7
:101120001092A102123091F51092A00210929F022B
:101130000E94E20799E0BE016F5F7F4FDB01E92F5C
:101140001D92EA95E9F799831A8391E09E8390EACC
:1011500098879AEF99872091A1023091A202275F88
:101160003F4F3C832B838D831092E9001092A202A3
:101170001092A102F092A002E0929F0249E050E09A
:1011800080E00E94BB070E94E207E2C0F092A0024A
:10119000E0929F020E940A0FDC011296ED90FC90F3
:1011A0001397E114F10409F4C0C0D701ED91FC914B
:1011B0000480F581E02DBE016B5E7F4FC70109956C
:1011C000009719F00CF0C4C0C7C0F701E084F184A7
:1011D000E8CF973009F4C0C0983021F481E08093C3
:1011E000F100B6C0993009F0B3C0837009F0B4C003
:1011F000E3E0F1E081E021E036E39081992361F0C2
:101200008093E9002093EB0091919093EC00309350
:10121000ED008F5F873089F78EE78093EA001092A8
:10122000EA008F898093A80293C08B8D9C8D1092C9
:10123000E9001092A2021092A1029093A002809362
:101240009F02898D811156C08E899D89913A59F4EA
:10125000813209F081C047E050E06DE071E080E04C
:101260000E94BB0775C0913209F076C0833289F4C1
:10127000888D90E0982F88272F89822BA0E0B0E0FE
:101280008093090190930A01A0930B01B0930C0184
:101290005FC0803269F48091E80082FFFCCF67E094
:1012A0008DE091E00E94FD0E8BEF8093E80006C078
:1012B000823209F04DC08F89809314018091A3027E
:1012C000882319F0EEEFFAE002C0E0E0F8E0809148
:1012D0000D0190910E01A0910F01B0911001803B82
:1012E0009440A105B10509F07BC08091140180FFF5
:1012F00093C076C00E940A0FDC0112960D911C91DA
:1013000013970115110541F1D801ED91FC91019060
:10131000F081E02DBE016B5E7F4FC8010995811100
:1013200017C0F80100851185ECCF113009F44EC0CB
:10133000133091F48F89882309F445C0823081F4F9
:1013400040E866E18EED91E00E94B706882321F027
:101350008EEF8093E80079C081E28093EB0075C046
:10136000813029F440E86BE082ED91E0EDCF8330ED
:1013700099F70E940A0FDC011296ED90FC901397EA
:101380008E010F5F1F4F6801E114F10479F0D7015E
:10139000ED91FC910680F781E02DB801C701099518
:1013A000080F111DF701E084F184EECFD8011C92E3
:1013B000F60101900020E9F73197BF016C197D0912
:1013C00040E0C601C1CF6CEB71E002C060EC71E09F
:1013D0006115710509F2FB01449150E080E840CFAE
:1013E0000FB6F894A89580916000886180936000A2
:1013F000109260000FBEA895EE3F2AE0F20739F088
:101400008091FE0A9091FF0A91838083A1CF109270
:10141000FF0A1092FE0A9CCFEE3F8AE0F80731F0F7
:10142000808191819093FF0A8093FE0A87E797E776
:10143000918380839BE088E10FB6F894A895809310
:1014400060000FBE9093600083CF6C960FB6F89447
:10145000DEBF0FBECDBFDF91CF91FF91EF91BF9166
:10146000AF919F918F917F916F915F914F913F913C
:101470002F911F910F91FF90EF90DF90CF900F90E1
:101480000FBE0F901F90189590E0FC013197EF3040
:10149000F105B0F5EA5AFF4F0C94E42180918000E9
:1014A0008F7703C0809180008F7D809380000895A6
:1014B00080918000877FF9CF84B58F7702C084B593
:1014C0008F7D84BD0895809190008F7707C08091B3
:1014D00090008F7D03C080919000877F8093900063
:1014E00008958091C0008F7703C08091C0008F7DE8
:1014F0008093C00008958091C200877F8093C200CE
:1015000008953FB7F8948091C7029091C802A091C6
:10151000C902B091CA0226B5A89B05C02F3F19F099
:101520000196A11DB11D3FBFBA2FA92F982F882763
:10153000820F911DA11DB11DBC01CD0142E0660FBE
:10154000771F881F991F4A95D1F70895DC01FB0189
:1015500012968C91129790E024813581821793071F
:10156000D1F491818081813A31F481E0913091F020
:10157000933089F411C0813271F49B3021F482815F
:101580001F968C9305C09A3031F4828150968C93CB
:1015900081E00895089580E00895DC01FB0188E46E
:1015A000808389E4818384E482831D969C911D97C6
:1015B0009F709F5B93831D968D919C911E9724E055
:1015C000969587952A95E1F78F708F5B848385E0E8
:1015D0000895FC0182818F5BFB01808381E0089587
:1015E0000E942B23EF92FF920F931F93CF93DF93D1
:1015F000FB012081213869F52381223251F5DC017C
:1016000012962C9130E0448155814217530709F519
:101610008C01FC01C385D485E12CF12C209799F035
:101620004C815D816A817B818E81811180E80E947D
:10163000BB078F3FFFEF9F0779F0E80EF91E099077
:10164000D881C02DEBCF81E0D8011F968C93C701C4
:1016500005C080E090E002C08FEF9FEFDF91CF9157
:101660001F910F91FF90EF900895CF93DF93CDB727
:10167000DEB769970FB6F894DEBF0FBECDBFFC0191
:10168000DB018C918F5F8C93BE016F5F7F4F89E18F
:10169000DB011D928A95E9F729E0298384E08A839A
:1016A00091E09D8383E08E832A8721E22B879C87AC
:1016B0009D879F8722E2288B27E02B8B25E02C8BB0
:1016C0008E8B20E430E0388F2F8B998F82818B8333
:1016D00095858685998B8A8B838180688D8B49E17E
:1016E00050E080E00E94BB0769960FB6F894DEBF19
:1016F0000FBECDBFDF91CF910895CF93DF93282FF9
:1017000030E0F901E759FD4F8491F901E65BFD4FA7
:10171000D491F901E55DFD4FC491CC2391F0811185
:101720000E94440AEC2FF0E0EE0FFF1FE35EFD4F36
:10173000A591B491EC91ED2381E090E021F480E05B
:1017400002C080E090E0DF91CF9108951F93CF9386
:10175000DF93282F30E0F901E759FD4F8491F9011B
:10176000E65BFD4FD491F901E55DFD4FC491CC23BB
:10177000C9F0162F81110E94440AEC2FF0E0EE0F01
:10178000FF1FE15FFD4FA591B4918FB7F894111140
:1017900005C09C91ED2FE095E92302C0EC91ED2B63
:1017A000EC938FBFDF91CF911F910895CF93DF937B
:1017B00090E0FC01E65BFD4F2491FC01E55DFD4FEF
:1017C0008491882361F190E0880F991FFC01EF5FFD
:1017D000FD4FC591D491FC01E15FFD4FA591B491FE
:1017E000611109C09FB7F89488812095822388836E
:1017F000EC912E230BC0623061F49FB7F8943881CE
:10180000822F809583238883EC912E2B2C939FBF6E
:1018100006C08FB7F894E8812E2B28838FBFDF9105
:10182000CF9108958F929F92AF92BF92CF92DF9205
:10183000EF92FF926B017C010E94810A4B015C01D7
:10184000C114D104E104F104F1F00E94810ADC0129
:10185000CB0188199909AA09BB09883E9340A105C3
:10186000B10570F321E0C21AD108E108F10888EE51
:10187000880E83E0981EA11CB11CC114D104E104A0
:10188000F10419F7DDCFFF90EF90DF90CF90BF907C
:10189000AF909F908F9008952FB7F8946091C302F6
:1018A0007091C4028091C5029091C6022FBF089525
:1018B0001F920F920FB60F9211242F933F938F9385
:1018C0009F93AF93BF938091C3029091C402A09164
:1018D000C502B091C6023091C20223E0230F2D371A
:1018E00020F40196A11DB11D05C026E8230F029624
:1018F000A11DB11D2093C2028093C3029093C40224
:10190000A093C502B093C6028091C7029091C8020D
:10191000A091C902B091CA020196A11DB11D809388
:10192000C7029093C802A093C902B093CA02BF91A4
:10193000AF919F918F913F912F910F900FBE0F907C
:101940001F9018958091BA0281116BC081E080933D
:10195000AD028093AE0223EB32E03093B0022093CD
:10196000AF021092B2021092B10221E431E0309342
:10197000AA022093A9021092B5021092B40210920A
:10198000B7021092B6028093B8028093B90281EC3C
:101990008093B3020E940A0FFC0121818091AD0265
:1019A00090E0820F911D089724F081E08093BA02A5
:1019B00038C0A281B381109729F489EA92E0938319
:1019C00082830EC018968D919C911997009711F003
:1019D000DC01F8CF89EA92E019969C938E931897D0
:1019E00080818093AB0281818093AC029081809151
:1019F000AE02890F808380E09091AD028917A8F62E
:101A0000A091AF02B091B002A80FB11D9C91A1812D
:101A1000B0E0AE5FBE4F9C9391819F5F91838F5FDB
:101A2000EBCF89EA92E008954F925F926F927F9296
:101A30008F929F92AF92BF92CF92DF92EF92FF92DE
:101A40000F931F93CF93DF93CDB7DEB728970FB6D1
:101A5000F894DEBF0FBECDBF49835A836B837C836E
:101A6000280139018D829E82AF82B886BC01990F10
:101A7000880B990B0E94251F4B015C01A701960161
:101A80000E94761E882309F4BBC0A7019601C501F8
:101A9000B4010E94761E87FF1CC0A3019201C501FC
:101AA000B4010E94971D4B015C01A3019201C70183
:101AB000B6010E94971D9B01AC01C501B4010E94B3
:101AC0007B1E20E030E040E85FE30E94971D4B0161
:101AD0005C01A7019601C501B4010E94FC1F181604
:101AE000ECF4A7019601C501B4010E94971D4B01BA
:101AF0005C01A70196016D817E818F8198850E948E
:101B0000971D9B01AC01C501B4010E947B1E20E022
:101B100030E0A9010E94981D4B015C0120E030E0FB
:101B2000A901C501B4010E94FC1F181624F0C501CB
:101B3000B401905802C0C501B40129813A814B819A
:101B40005C810E9476206B017C0120E030E0A901DD
:101B5000C501B4010E94FC1F18166CF020E030E0B3
:101B6000A901C501B4010E94761E87FD09C020E0CD
:101B700030E0A90109C020E030E040E85FE304C0A4
:101B800020E030E040E85FEBC701B6010E94092089
:101B90006B017C0120E030E040E85FEB0E94761EA4
:101BA00087FD14C020E030E040E85FE3C701B601E4
:101BB0000E94FC1F1816A4F020E030E0A901C70124
:101BC000B6010E94FC1F18168CF006C0C12CD12C47
:101BD00090E8E92E9FEBF92EC701B601905808C096
:101BE000C12CD12C80E8E82E8FE3F82EC701B60176
:101BF0002B8D3C8D4D8D5E8D0E94761E87FF05C01E
:101C000050E040E030E020E004C05C2D4D2D3E2D42
:101C10002F2D652F742F832F922F28960FB6F894AF
:101C2000DEBF0FBECDBFDF91CF911F910F91FF900F
:101C3000EF90DF90CF90BF90AF909F908F907F906C
:101C40006F905F904F9008954091A1025091A20231
:101C500020919F023091A00242175307B4F4909153
:101C6000E8009570E1F39091E80092FD19C080932F
:101C7000F1008091A1029091A20201968F739927A1
:101C8000892B19F48EEF8093E8008091A102909146
:101C9000A20201969093A2028093A10281E008958E
:101CA00080E008952FB7F89487708093E9009091B1
:101CB000E800892F807295FF04C09091F20080E4C3
:101CC000891B2FBF08957F928F929F92AF92BF92F0
:101CD000CF92DF92EF92FF920F931F93CF93DF93F8
:101CE000C82E8B017A018091A802811103C08FEF69
:101CF0009FEF75C08091A50280FF05C08091E00034
:101D000082608093E000CE2DDF2DD12C8AEF882ECB
:101D10008C2D8770B82E8C2D8072A82E8C2D8074FF
:101D2000982E9AE3792E209709F452C08C2D0E94A8
:101D3000520E282F81110AC08A948820C1F261E0D6
:101D400070E080E090E00E94120CEDCF90E0C817A8
:101D5000D9070CF42C2F3FB7F894B092E90080918A
:101D6000E80085FF33C0822F90E0C81BD90BAA2062
:101D700029F02150A8F01092F100FBCFF801C7FE26
:101D800007C0215058F044914093F1003196F9CFAB
:101D9000215020F041914093F100FACF080F191F14
:101DA000DD2019F07092E8000AC08091E80085FDFE
:101DB00008C07092E800DD24D394209739F0D12C2C
:101DC00005C0209719F491107092E8003FBFABCF87
:101DD000D110ACCF5D9884E68093A602C701DF9155
:101DE000CF911F910F91FF90EF90DF90CF90BF9018
:101DF000AF909F908F907F900895615030F0209128
:101E0000F100FC0120830196F8CF289884E68093A6
:101E1000A70208958091CF0281110DC082E08093C6
:101E2000CB0284E08093CC021092CE021092CD02BD
:101E300081E08093CF028BEC92E00895CF93DF9303
:101E4000CDB7DEB7E2970FB6F894DEBF0FBECDBFB9
:101E5000789484B5826084BD84B5816084BD85B585
:101E6000826085BD85B5816085BD80916E00816091
:101E700080936E0010928100809181008260809337
:101E80008100809181008160809381008091800039
:101E900081608093800080919100826080939100A6
:101EA0008091910081608093910080919000816089
:101EB000809390008091C10084608093C1008091E4
:101EC000C10082608093C1008091C10081608093D5
:101ED000C1008091C30081608093C3008091C000E5
:101EE00082608093C0008091C20081608093C200B4
:101EF00080917A00846080937A0080917A00826079
:101F000080937A0080917A00816080937A0080913A
:101F10007A00806880937A001092A8021092A4023E
:101F20001092A5028091D70081608093D70080EA4B
:101F30008093D80089B5806189BD89B5826089BDEB
:101F400009B400FEFDCF61E070E080E090E00E9407
:101F5000120C8091D8008F7C80618093D800809192
:101F6000E000807F8093E0008091E1008E7E80938E
:101F7000E1008DE08093E200559A209AEEEFFFE7B2
:101F8000859194918B3F9C4D19F481E08093A3023D
:101F900062E080913B020E94D60B60E080913502A6
:101FA0000E94A60B10924C0162E080913D020E94BB
:101FB000D60B60E0809137020E94A60B10924B0175
:101FC00062E080913F020E94D60B60E0809139026E
:101FD0000E94A60B10924A011092FE011092FD0180
:101FE0008FEF93E0909300028093FF011092020222
:101FF0001092010290930402809303021092060251
:1020000010920502909308028093070210920A0230
:102010001092090290930C0280930B0210920E0210
:1020200010920D029093100280930F0210921202F0
:1020300010921102909314028093130281E0809316
:10204000F7010E94980282EB9FE8A0E7BFE380932C
:102050007D0190937E01A0937F01B093800183E482
:102060009DE1AFEABEEB8093790190937A01A09352
:102070007B01B0937C0163E070E081E090E00E941E
:102080001F0261E0892B09F060E080E00E944505B5
:1020900067E070E081E090E00E941F0261E0892B20
:1020A00009F060E081E00E9445056AE070E081E0AF
:1020B00090E00E941F0261E0892B09F060E082E05D
:1020C0000E9445056BE070E081E090E00E941F02F5
:1020D00061E0892B09F060E083E00E9445056DE036
:1020E00070E081E090E00E941F0261E0892B09F01E
:1020F00060E084E00E94450562E070E081E090E0ED
:102100000E941F0261E0892B09F060E085E00E94D7
:10211000450566E070E081E090E00E941F0261E00A
:10212000892B09F060E086E00E94450569E070E0D7
:1021300081E090E00E941F0261E0892B09F060E0DD
:1021400087E00E9445056CE070E081E090E00E942D
:102150001F0261E0892B09F060E088E00E944505DC
:102160006EE070E081E090E00E941F0261E0892B48
:1021700009F060E089E00E94450561E070E081E0DF
:1021800090E00E941F0261E0892B09F060E08AE084
:102190000E94450560E070E081E090E00E941F022F
:1021A00061E0892B09F060E08BE00E94450565E065
:1021B00070E081E090E00E941F0261E0892B09F04D
:1021C00060E08CE00E94450564E070E081E090E012
:1021D0000E941F0261E0892B09F060E08DE00E94FF
:1021E000450566E070E082E090E00E941F0261E039
:1021F000892B09F060E08EE00E94450568E070E000
:1022000081E090E00E941F0261E0892B09F060E00C
:102210008FE00E9445056FE070E081E090E00E9451
:102220001F0261E0892B09F060E080E10E94450512
:1022300060E070E082E090E00E941F0261E0892B84
:1022400009F060E081E10E94450562E070E082E013
:1022500090E00E941F0261E0892B09F060E082E1BA
:102260000E94450561E070E082E090E00E941F025C
:1022700061E0892B09F060E083E10E9445056CE094
:1022800070E082E090E00E941F0261E0892B09F07B
:1022900060E084E10E94450563E070E082E090E048
:1022A0000E941F0261E0892B09F060E085E10E9435
:1022B000450564E070E082E090E00E941F0261E06A
:1022C000892B09F060E086E10E94450565E070E039
:1022D00082E090E00E941F0261E0892B09F060E03B
:1022E00087E10E9445056AE070E082E090E00E948C
:1022F0001F0261E0892B09F060E088E10E9445053A
:102300006BE070E082E090E00E941F0261E0892BA8
:1023100009F060E089E10E94450567E070E082E035
:1023200090E00E941F0261E0892B09F060E08AE1E1
:102330000E94450569E070E082E090E00E941F0283
:10234000182F68E070E082E090E00E941F02880F82
:10235000991FE82FE12BE37090914D01990F990F90
:10236000E92BE0934D01EF70F0E0E55EFE4F208138
:102370002223B1F18091520190915301AC014F5F42
:102380005F4F4330510560F5820F911D27FD9A95EF
:1023900090935301809352019C0197FF04C0222720
:1023A0003327281B390B22303105D4F018161906B3
:1023B00014F48BE103C0892B19F08CE10E945904BD
:1023C0000E944C0CDC01CB018C599F4FAF4FBF4F8B
:1023D00080934E0190934F01A0935001B09351010F
:1023E000C0904E01D0904F01E0905001F09051010B
:1023F0001C141D041E041F044CF40E944C0CC61631
:10240000D706E806F90610F40C94461A80910101EB
:102410008823E9F16EE070E082E090E00E941F0204
:102420002091B60130E082179307E1F06EE070E092
:1024300082E090E00E941F0221E0892B09F420E055
:102440002093B6010E944C0CDC01CB018C599F4FAC
:10245000AF4FBF4F8093B2019093B301A093B401EB
:10246000B093B501C090B201D090B301E090B40137
:10247000F090B5010E944C0C21E06C157D058E0595
:102480009F0508F020E0622F8DE10E9445056EE077
:1024900070E082E090E00E941F02682F88E20E94B4
:1024A0004505809100018823E9F16FE070E082E04A
:1024B00090E00E941F022091B10130E08217930743
:1024C000E1F06FE070E082E090E00E941F0221E006
:1024D000892B09F420E02093B1010E944C0CDC010F
:1024E000CB018C599F4FAF4FBF4F8093AD0190935D
:1024F000AE01A093AF01B093B001C090AD01D090F8
:10250000AE01E090AF01F090B0010E944C0C21E0D0
:102510006C157D058E059F0508F020E0622F8EE189
:102520000E9445056FE070E082E090E00E941F028B
:1025300061E0892B09F060E089E20E9445056DE0C9
:1025400070E082E090E00E941F0261E0892B09F0B8
:1025500060E08FE10E94450580E090E00E94F40673
:102560009AAB89ABBC01990F880B990B0E94251F70
:102570002B013C01CB01D3018093A9019093AA01C7
:10258000A093AB01B093AC0181E090E00E94F4060F
:102590009A878987BC01990F880B990B0E94251F88
:1025A0004B015C01CB01D5018093A5019093A6015D
:1025B000A093A701B093A80183E090E00E94F406E5
:1025C0009A8B898BBC01990F880B990B0E94251F50
:1025D0006B017C01CB01D7018093A1019093A201F3
:1025E000A093A301B093A40187E090E00E94F406B9
:1025F0009E8B8D8BBC01990F880B990B0E94251F18
:1026000060939D0170939E0180939F019093A00120
:102610008EE090E00E94F4069A8F898FBC01990F9A
:10262000880B990B0E94251F6093990170939A0162
:1026300080939B0190939C018FE090E00E94F406B0
:102640009C8F8B8FBC01990F880B990B0E94251FC3
:1026500060939501709396018093970190939801F0
:102660000E944C0C20919101309192014091930174
:1026700050919401DC01CB01821B930BA40BB50B91
:10268000883E9340A105B10508F0B3C02DEC3CECA9
:102690004CE45FE36091D7017091D8018091D9013A
:1026A0009091DA010E94092069837A838B839C834D
:1026B0002DEC3CEC4CE45EE3B201C3010E94092026
:1026C0009B01AC0169817A818B819C810E94981D5C
:1026D0002B013C016093D7017093D8018093D901FD
:1026E0009093DA012DEC3CEC4CE45FE36091CB017C
:1026F0007091CC018091CD019091CE010E94092072
:1027000069837A838B839C832DEC3CEC4CE45EE301
:10271000B401C5010E9409209B01AC0169817A8145
:102720008B819C810E94981D4B015C016093CB01C1
:102730007093CC018093CD019093CE012DEC3CECB5
:102740004CE45FE36091BF017091C0018091C101D1
:102750009091C2010E94092069837A838B839C83B4
:102760002DEC3CEC4CE45EE3B601C7010E9409206D
:102770009B01AC0169817A818B819C810E94981DAB
:102780006093BF017093C0018093C1019093C20117
:102790004092CF015092D0016092D1017092D2014B
:1027A0004092D3015092D4016092D5017092D6012B
:1027B0008092C7019092C801A092C901B092CA014B
:1027C0008092C3019092C401A092C501B092C6014B
:1027D0006093BB017093BC018093BD019093BE01D7
:1027E0006093B7017093B8018093B9019093BA01D7
:1027F0003DC62DA73EA74FA758AB0E944C0C2DA558
:102800003EA54FA558A9DC01CB01821B930BA40B5D
:10281000B50B80319742A105B10508F0A8C0209002
:10282000CF013090D0010091D1011091D2019201DD
:10283000A301B101C8010E94FC1F181614F0120177
:102840008301C101D8018093CF019093D001A0935F
:10285000D101B093D2012090D3013090D4010091E6
:10286000D5011091D6019201A301B101C8010E94C6
:10287000761E87FD02C012018301C101D801809339
:10288000D3019093D401A093D501B093D601609069
:10289000C3017090C4010091C5011091C60194015B
:1028A000A501B301C8010E94FC1F181614F03401E1
:1028B0008501C301D8018093C3019093C401A09303
:1028C000C501B093C6016090C7017090C801009126
:1028D000C9011091CA019401A501B301C8010E9468
:1028E000761E87FD02C034018501C301D8018093A3
:1028F000C7019093C801A093C901B093CA01A090E9
:10290000BB01B090BC010091BD011091BE019601C8
:10291000A701B501C8010E94761E87FD02C05601BD
:102920008701C501D8018093BB019093BC01A0939E
:10293000BD01B093BE01A090B701B090B801009165
:10294000B9011091BA019601A701B501C8010E9411
:10295000FC1F181614F056018701C501D801809399
:10296000B7019093B801A093B901B093BA018091D7
:10297000CF019091D001A091D101B091D2018D836E
:102980009E83AF83B8872091D7013091D8014091C1
:10299000D9015091DA012D873E874F87588B80915E
:1029A000D3019091D401A091D501B091D6018D8F22
:1029B0009E8FAF8FB8A31F921F921F921F928D8080
:1029C0009E80AF80B884CD84DE84EF84F8880D8D3E
:1029D0001E8D2F8D38A140E050E060E87FE389A98B
:1029E0009AA90E94140D0F900F900F900F902B0139
:1029F0003C0160938D0170938E0180938F019093C1
:102A000090012091C3013091C4014091C5015091C2
:102A1000C60129A33AA34BA35CA38091CB0190915B
:102A2000CC01A091CD01B091CE018DA39EA3AFA307
:102A3000B8A72091C7013091C8014091C9015091B8
:102A4000CA0129A73AA74BA75CA71F921F921F9202
:102A50001F9289A09AA0ABA0BCA0CDA0DEA0EFA041
:102A6000F8A409A51AA52BA53CA540E050E060E814
:102A70007FE389859A850E94140D0F900F900F9027
:102A80000F9069837A838B839C8360938901709311
:102A90008A0180938B0190938C011F921F921F9249
:102AA0001F928D809E80AF80B884CD84DE84EF84B9
:102AB000F8880D8D1E8D2F8D38A140E050E060EC20
:102AC00070E489A99AA90E94140D0F900F900F909D
:102AD0000F906D837E838F839887609385017093B9
:102AE000860180938701909388011F921F921F9205
:102AF0001F9289A09AA0ABA0BCA0CDA0DEA0EFA0A1
:102B0000F8A409A51AA52BA53CA540E050E060EC6F
:102B100070E489859A850E94140D0F900F900F9094
:102B20000F904B015C01609381017093820180934F
:102B300083019093840120E030E0A901C301B20138
:102B40000E94FC1F18165CF420E030E040E85FE3D0
:102B5000C301B2010E94761E87FF1BC00AC020E09D
:102B600030E040E85FEBC301B2010E94FC1F181681
:102B700084F420E030E0A901C301B2010E94FC1FEF
:102B80007301620118165CF0F7FAF094F7F8F0940C
:102B900006C0C12CD12C30E8E32E3FE3F32EA70171
:102BA000960160E070E080E89FE30E94971D2D8110
:102BB0003E814F8158850E94092069877A878B87DB
:102BC0009C87A3019201C701B6010E9409209B01C5
:102BD000AC0169857A858B859C850E94981D6987E3
:102BE0007A878B879C8720E030E0A90169817A8110
:102BF0008B819C810E94FC1F18168CF420E030E031
:102C000040E85FE369817A818B819C810E94761E16
:102C100087FF7DC4C980DA80EB80FC801BC020E088
:102C200030E040E85FEB69817A818B819C810E9472
:102C3000FC1F18164CF4C980DA80EB80FC80F7FA90
:102C4000F094F7F8F09406C0C12CD12C20E8E22EC5
:102C50002FE3F22EA701960160E070E080E89FE389
:102C60000E94971DA50194010E9409204B015C015F
:102C700029813A814B815C81C701B6010E940920FC
:102C80009B01AC01C501B4010E94981D4B015C0180
:102C900020E030E040E05FE3C301B2010E94092080
:102CA0006B017C0120E030E0A90169817A818B8190
:102CB0009C810E94FC1F29813A814B815C811816FE
:102CC0000CF05058C701B6010E9409209B01AC01CD
:102CD00069857A858B859C850E94981D6D837E838E
:102CE0008F8398876093A9017093AA018093AB01A9
:102CF0009093AC0120E030E040E05FE369817A81AD
:102D00008B819C810E9409206B017C0120E030E0D6
:102D1000A901C301B2010E94FC1F181624F077FA22
:102D2000709477F87094A3019201C701B6010E94D4
:102D300009209B01AC01C501B4010E94981D6D875B
:102D40007E878F87988B6093A5017093A6018093EF
:102D5000A7019093A8018090B7019090B801A0902E
:102D6000B901B090BA01C090BF01D090C001E0900D
:102D7000C101F090C2010091BB011091BC012091F2
:102D8000BD013091BE014DE34F935CE45F936CEC69
:102D90006F938DEC8F9340E050E060E870E4898998
:102DA0009A890E94140D0F900F900F900F909B0125
:102DB000AC01505829873A874B875C872093A10143
:102DC0003093A2014093A3015093A401C12C80EC45
:102DD000D82E88E4E82E84E4F82E00E010E02AE8FB
:102DE00033E440E050E060EC7FE38D899E890E94EF
:102DF0007D0469837A838B839C8360939D017093A8
:102E00009E0180939F019093A001C12C90ECD92E3C
:102E10009FE7E92E94E4F92E00E010E020E931E488
:102E200040E050E060E87FE3898D9A8D0E947D0448
:102E3000698B7A8B8B8B9C8B6093990170939A0131
:102E400080939B0190939C0100E010E020E931E425
:102E500040E050E060E87FE38B8D9C8D0E947D0414
:102E60006D8B7E8B8F8B988F6093950170939601FD
:102E7000809397019093980180907D0190907E01BE
:102E8000A0907F01B09080014090790150907A012C
:102E900060907B0170907C01A50194016D817E8121
:102EA0008F8198850E9409206B017C01A30192010A
:102EB0006D857E858F8598890E9409209B01AC01D4
:102EC000C701B6010E94981D6B017C0160937501DA
:102ED0007093760180937701909378016D817E8164
:102EE0008F8198859058A30192010E9409202B019F
:102EF0003C01A50194016D857E858F8598890E948E
:102F000009209B01AC01C301B2010E94981D4B0135
:102F10005C016093710170937201809373019093CF
:102F2000740120E030E040E05FE360916D0170915A
:102F30006E0180916F01909170010E9409202B0118
:102F40003C0120E030E040E05FE3C701B6010E94B1
:102F500009209B01AC01C301B2010E94981D2B0105
:102F60003C0160936D0170936E0180936F019093AB
:102F7000700120E030E040E05FE360916901709112
:102F80006A0180916B0190916C010E9409206B0194
:102F90007C0120E030E040E05FE3C501B4010E9425
:102FA00009209B01AC01C701B6010E94981D6B016D
:102FB0007C016093690170936A0180936B01909327
:102FC0006C0120E030E040E05FE3609165017091CA
:102FD000660180916701909168010E9409204B0170
:102FE0005C0120E030E040E05FE369857A858B8515
:102FF0009C850E9409209B01AC01C501B4010E947F
:10300000981D4B015C01609365017093660180938C
:1030100067019093680120E030E040E054E4C30190
:10302000B2010E94092020E030E040E054E40E9418
:10303000981D0E94ED1E7093DC016093DB0180916E
:10304000F70181110E94980220E030E040E054E452
:10305000C701B6010E94092020E030E040E054E4BE
:103060000E94981D0E94ED1E7093DE016093DD01A9
:103070008091F70181110E94980220E030E040E049
:1030800054E4C501B4010E94092020E030E040E092
:1030900054E40E94981D0E94ED1E7093E00160931D
:1030A000DF018091F70181110E94980220E030E059
:1030B00040E054E469817A818B819C810E940920DF
:1030C00020E030E040E054E40E94981D0E94ED1E94
:1030D0007093E6016093E5018091F70181110E94F0
:1030E000980220E030E040E05FE360916101709180
:1030F000620180916301909164010E9409204B015B
:103100005C0120E030E040E054E469897A898B89F1
:103110009C890E94092020E030E040E054E40E94B5
:10312000981D20E030E040E05FE30E9409209B0111
:10313000AC01C501B4010E94981D4B015C01609374
:10314000610170936201809363019093640120E0B8
:1031500030E040E05FE360915D0170915E0180913D
:103160005F01909160010E9409206D837E838F83AF
:10317000988720E030E040E054E46D897E898F89B3
:10318000988D0E94092020E030E040E054E40E9445
:10319000981D20E030E040E05FE30E9409209B01A1
:1031A000AC016D817E818F8198850E94981D6D8311
:1031B0007E838F83988760935D0170935E01809317
:1031C0005F0190936001C501B4010E94ED1E7093F0
:1031D000E2016093E1018091F70181110E94980260
:1031E0006D817E818F8198850E94ED1E7093E40130
:1031F0006093E3018091F70181110E94980220E021
:1032000030E0A90169817A818B819C810E94FC1F39
:103210001816BCF480915C01811197C131E03093A4
:103220005C010E944C0CDC01CB018C599F4FAF4FCD
:10323000BF4F8093580190935901A0935A01B093C6
:103240005B0120E030E0A90169817A818B819C815A
:103250000E94761E87FF16C080915C01882391F042
:1032600010925C010E944C0CDC01CB018C599F4FE9
:10327000AF4FBF4F8093580190935901A0935A01CB
:10328000B0935B018090580190905901A0905A0131
:10329000B0905B010E944C0C21E0681579058A050D
:1032A0009B0508F020E0622F8AE20E94450526E691
:1032B00036E646E65FEB69817A818B819C810E94CC
:1032C000761E682F661F6627661F8BE20E944505E3
:1032D00011E026E636E646E65FE369817A818B8176
:1032E0009C810E94FC1F18160CF010E0612F8CE2EC
:1032F0000E9445052DEC3CEC4CE45FEB69857A853A
:103300008B859C850E94761E682F661F6627661F28
:1033100081E30E94450511E02DEC3CEC4CE45FE3B9
:1033200069857A858B859C850E94FC1F18160CF098
:1033300010E0612F82E30E94450520E030E0A90102
:10334000C301B2010E94FC1F18165CF420E030E0BB
:1033500040E05FE3C301B2010E94FC1F18164CF16C
:103360000AC020E030E040E05FEBC301B2010E9400
:10337000761E87FD1EC020E030E0A901C701B6011E
:103380000E94FC1F18165CF420E030E040E05FE390
:10339000C701B6010E94FC1F18165CF028C020E08F
:1033A00030E040E05FEBC701B6010E94761E87FF68
:1033B0001EC0A3019201C701B6010E94171E21EE93
:1033C0003EE245E652E40E94092020E030E041EE72
:1033D00052E40E94981D60935401709355018093AC
:1033E0005601909357010E94ED1ECB0102C08FEF52
:1033F0009FEF0E944B056BE070E081E090E00E943F
:103400001F02892B99F56DE070E081E090E00E9449
:103410001F02892B59F56CE070E081E090E00E947A
:103420001F02892B19F56EE070E081E090E00E94A8
:103430001F02892BD9F43EC067E070E082E090E083
:103440000E941F02892B51F40E944C0C6093910141
:103450007093920180939301909394016DE070E0DA
:1034600082E090E00E941F02892BC1F161E170E0CF
:1034700080E090E00E94120C40E050E0452B11F4F7
:103480000C943B100E9400000C943B108CE10E94B5
:1034900034048BE10E94340410924E0110924F01CB
:1034A000109250011092510110925301109252014A
:1034B0000C9406126AE070E082E090E00E941F0225
:1034C000892B09F0B9CF98E088E10FB6F894A89558
:1034D000809360000FBE90936000FFCF6FE070E0BC
:1034E00082E090E00E941F0221E0892B09F020E099
:1034F000209300016EE070E082E090E00E941F02E5
:1035000021E0892B09F020E020930101AFCF20E0DA
:1035100030E0A901C501B4010E94092029813A8146
:103520004B815C810E94981D4B015C0120E030E0E2
:1035300040E05FE3C301B2010E9409206B017C01FE
:1035400029813A814B815C81BDCB20E030E0A9012B
:1035500069817A818B819C810E94761E87FF92CE41
:103560007FCEEF92FF920F931F93CF93DF93CDB750
:10357000DEB7C659D1090FB6F894DEBF0FBECDBF76
:10358000109252021092510288EE93E0A0E0B0E057
:103590008093530290935402A0935502B093560225
:1035A0008FE291E09093500280934F028FEF9FEF54
:1035B00090935C0280935B0282E090E090932C02F7
:1035C00080932B0284E090E090932E0280932D0252
:1035D00086E090E09093300280932F0287E090E0A5
:1035E000909332028093310288E090E0909334020D
:1035F000809333028AE090E0909336028093350204
:103600008BE090E090933802809337028CE090E05A
:1036100090933A028093390282E190E090933C02C9
:1036200080933B0283E190E090933E0280933D02C1
:1036300084E190E09093400280933F0261E082E059
:103640000E94D60B61E080912D020E94D60B61E0B2
:1036500080912F020E94D60B61E0809131020E947E
:10366000D60B61E0809133020E94D60B60E080911E
:1036700033020E94A60B61E0809135020E94D60BB6
:1036800061E0809137020E94D60B61E0809139029F
:103690000E94D60B1092F6011092F5011092F901DA
:1036A0001092FE011092FD018FEF93E090930002C3
:1036B0008093FF0110920202109201029093040283
:1036C0008093030210920602109205029093080262
:1036D0008093070210920A021092090290930C0242
:1036E00080930B0210920E0210920D029093100222
:1036F00080930F0210921202109211029093140202
:1037000080931302109216021092150290931802E1
:103710008093170210921A021092190290931C02C1
:1037200080931B0210921E0210921D0290932002A1
:1037300080931F0210922202109221029093240281
:103740008093230210922602109225029093280261
:103750008093270273E07093290224E32093F801F9
:103760001092FA018FE38093FB011092FC0165E057
:10377000698391E09A8389E08B83A4E0AC83F1EACA
:10378000FD839E8335E83F83788769878A8739E19F
:103790003B879C8739E23D872E8735E13F87188A32
:1037A00035E2398B9A8B55E75B8B9C8B45E94D8BCA
:1037B0002E8B35E53F8B188E35E6398F1A8E31E822
:1037C0003B8FE2E0EC8F5D8F9E8F4F8FA8A339A3D4
:1037D0007AA36BA39CA38DA39EA366E16FA398A776
:1037E00090E899A796E29AA79FEF9BA79FE79CA7CF
:1037F0005DA790E19EA74FA796E098ABF9AB1AAAF8
:103800008BAB90E39CAB8DAB91E39EAB8FAB92E324
:1038100098AF89AF93E39AAF8BAF2CAF8DAF85E3B1
:103820008EAF3FAF2196EFAF219780EC22968FAFFE
:10383000229723968FAF239782E490E00E94FE2187
:103840007C0182E4FE013196D70101900D928A95A8
:10385000E1F787E090E00E94FE218C01DC011196E7
:103860001C921E921396FC92EE92129782E490E0C4
:1038700015969C938E93149716961C920E94A20CF8
:10388000FC01A385B485109719F41487038709C038
:103890008D919C911197009711F0DC01F9CF0D9358
:1038A0001C9325853685D80114968D919C9115978A
:1038B000820F931F968785879091F801892F8695AF
:1038C00086958695977009F08F5F8093F901109126
:1038D000F901812F90E00E94FE219093F6018093E0
:1038E000F501145F81E09091FA01911101C080E02F
:1038F000810F80932A021092DC011092DB0110925A
:10390000DE011092DD011092E0011092DF011092B1
:10391000E2011092E1011092E4011092E301109291
:10392000E6011092E5011092E8011092E701109271
:10393000EA011092E9011092EC011092EB01109251
:10394000EE011092ED011092F0011092EF018FEF55
:103950009FEF9093F2018093F1019093F401809393
:10396000F30180E090E02091F90130E082179307A5
:103970004CF4E091F501F091F601E80FF91F108287
:103980000196F1CF80E090ECA3E4B4E48093CF0102
:103990009093D001A093D101B093D20180E090E048
:1039A000A7EDB3E48093D3019093D401A093D50104
:1039B000B093D60180E090EAA7E1B4E48093D70108
:1039C0009093D801A093D901B093DA0180E090E8F8
:1039D000A7E4B4E48093C3019093C401A093C5010C
:1039E000B093C60180E090ECA0E0B4E48093C701FE
:1039F0009093C801A093C901B093CA0180E090E2FE
:103A0000A4E2B4E48093CB019093CC01A093CD01C8
:103A1000B093CE0180E090E0A0EFB2E48093B701D4
:103A20009093B801A093B901B093BA0180E090E0FF
:103A3000A0E4B3E48093BB019093BC01A093BD01CB
:103A4000B093BE0180E090E0ACE1B3E48093BF01AD
:103A50009093C001A093C101B093C201CA56DF4F39
:103A60000FB6F894DEBF0FBECDBFDF91CF911F918F
:103A70000F91FF90EF900895052E97FB1EF4009490
:103A80000E94531D57FD07D00E94661D07FC03D0FE
:103A90004EF40C94531D50954095309521953F4F11
:103AA0004F4F5F4F089590958095709561957F4F2A
:103AB0008F4F9F4F08950E94881DA59F900DB49F22
:103AC000900DA49F800D911D11240895A1E21A2E3E
:103AD000AA1BBB1BFD010DC0AA1FBB1FEE1FFF1FB2
:103AE000A217B307E407F50720F0A21BB30BE40B02
:103AF000F50B661F771F881F991F1A9469F7609549
:103B00007095809590959B01AC01BD01CF01089502
:103B1000A29FB001B39FC001A39F700D811D11240E
:103B2000911DB29F700D811D1124911D0895505853
:103B3000BB27AA270E94AF1D0C94C21F0E94B41F6E
:103B400038F00E94BB1F20F039F49F3F19F426F48F
:103B50000C948A1F0EF4E095E7FB0C94841FE92F68
:103B60000E94D31F58F3BA1762077307840795079B
:103B700020F079F4A6F50C94F51F0EF4E0950B2EC9
:103B8000BA2FA02D0B01B90190010C01CA01A001AF
:103B90001124FF27591B99F0593F50F4503E68F10A
:103BA0001A16F040A22F232F342F4427585FF3CF4B
:103BB000469537952795A795F0405395C9F77EF41C
:103BC0001F16BA0B620B730B840BBAF09150A1F065
:103BD000FF0FBB1F661F771F881FC2F70EC0BA0FEB
:103BE000621F731F841F48F4879577956795B79573
:103BF000F7959E3F08F0B0CF9395880F08F099276E
:103C0000EE0F9795879508950E94B41F60F080E8A5
:103C100091E009F49EEF0E94BB1F28F040E851E0BC
:103C200071F45EEF0CC00C948A1F0C94F51FE92F01
:103C3000E0780E94D31F40F3092E052AB1F326171E
:103C400037074807590738F00E2E07F8E02569F0C6
:103C5000E025E0640AC0EF6307F8009407FADB018F
:103C6000B9019D01DC01CA01AD01EF930E94921ED2
:103C70000E94C21F0E94471E5F91552339F02BED11
:103C80003FE049E450FD49EC0C94981D0895DF9302
:103C9000DD27B92FBF7740E85FE316161706480700
:103CA0005B0718F4D92F0E9401209F938F937F9375
:103CB0006F930E94C620EAECF0E00E948D1F0E94E4
:103CC000C21F2F913F914F915F910E941C20DD23D5
:103CD00051F09058A2EA2AED3FE049EC5FE3D0783A
:103CE0005D270E94AF1DDF910C94C21F0E94601FD0
:103CF00008F481E008950E948F1E0C94C21F0E9458
:103D0000BB1F58F00E94B41F40F029F45F3F29F018
:103D10000C94841F51110C94F61F0C948A1F0E945E
:103D2000D31F68F39923B1F3552391F3951B550BDA
:103D3000BB27AA2762177307840738F09F5F5F4F7E
:103D4000220F331F441FAA1FA9F335D00E2E3AF0BD
:103D5000E0E832D091505040E695001CCAF72BD0D5
:103D6000FE2F29D0660F771F881FBB1F2617370726
:103D70004807AB07B0E809F0BB0B802DBF01FF2758
:103D800093585F4F3AF09E3F510578F00C94841F92
:103D90000C94F61F5F3FE4F3983ED4F38695779535
:103DA0006795B795F7959F5FC9F7880F911D969511
:103DB000879597F90895E1E0660F771F881FBB1F6D
:103DC000621773078407BA0720F0621B730B840B1A
:103DD000BA0BEE1F88F7E09508950E94F41E6894D0
:103DE000B1110C94F61F08950E94DB1F88F09F57B5
:103DF00098F0B92F9927B751B0F0E1F0660F771F0F
:103E0000881F991F1AF0BA95C9F714C0B13091F004
:103E10000E94F51FB1E008950C94F51F672F782FCD
:103E20008827B85F39F0B93FCCF3869577956795C9
:103E3000B395D9F73EF490958095709561957F4F35
:103E40008F4F9F4F0895E89409C097FB3EF49095DB
:103E50008095709561957F4F8F4F9F4F9923A9F063
:103E6000F92F96E9BB279395F695879577956795F2
:103E7000B795F111F8CFFAF4BB0F11F460FF1BC036
:103E80006F5F7F4F8F4F9F4F16C0882311F096E9C9
:103E900011C0772321F09EE8872F762F05C0662377
:103EA00071F096E8862F70E060E02AF09A95660F30
:103EB000771F881FDAF7880F9695879597F90895E9
:103EC000990F0008550FAA0BE0E8FEEF161617062B
:103ED000E807F907C0F012161306E407F50798F093
:103EE000621B730B840B950B39F40A2661F0232BAC
:103EF000242B252B21F408950A2609F4A140A69528
:103F00008FEF811D811D089597F99F6780E870E00C
:103F100060E008959FEF80EC0895DF93CF931F93A7
:103F20000F93FF92EF92DF927B018C01689406C0A1
:103F3000DA2EEF010E941C20FE01E894A591259144
:103F4000359145915591A6F3EF010E94AF1DFE01F9
:103F50009701A801DA9469F7DF90EF90FF900F9135
:103F60001F91CF91DF91089500240A941616170629
:103F700018060906089500240A941216130614065A
:103F800005060895092E0394000C11F4882352F0BD
:103F9000BB0F40F4BF2B11F460FF04C06F5F7F4F75
:103FA0008F4F9F4F089557FD9058440F551F59F05C
:103FB0005F3F71F04795880F97FB991F61F09F3F16
:103FC00079F087950895121613061406551FF2CF3F
:103FD0004695F1DF08C0161617061806991FF1CF8F
:103FE00086957105610508940895E894BB276627B6
:103FF0007727CB0197F908950E94601F08F48FEF8F
:1040000008959B01AC0160E070E080E89FE30C94B0
:104010007B1E0E941C200C94C21F0E94B41F38F00B
:104020000E94BB1F20F0952311F00C94841F0C9468
:104030008A1F11240C94F61F0E94D31F70F3959FC2
:10404000C1F3950F50E0551F629FF001729FBB278F
:10405000F00DB11D639FAA27F00DB11DAA1F649F2B
:104060006627B00DA11D661F829F2227B00DA11DDE
:10407000621F739FB00DA11D621F839FA00D611D64
:10408000221F749F3327A00D611D231F849F600D85
:10409000211D822F762F6A2F11249F5750409AF0AE
:1040A000F1F088234AF0EE0FFF1FBB1F661F771F3A
:1040B000881F91505040A9F79E3F510580F00C9405
:1040C000841F0C94F61F5F3FE4F3983ED4F386956B
:1040D00077956795B795F795E7959F5FC1F7FE2BA5
:1040E000880F911D9695879597F90895FA01EE0F1F
:1040F000FF1F309621053105A1F16115710561F4AD
:104100008038BFE39B0749F168949038810561F0DE
:104110008038BFEF9B0741F099234AF5FF3FE10547
:104120003105210519F1E8940894E795D901AA23EE
:1041300029F4AB2FBE2FF85FD0F310C0FF5F70F4EF
:10414000A695E0F7F73950F019F0FF3A38F49F7769
:104150009F930DD00F9007FC9058089546F00C9453
:104160008A1F60E070E080E89FE308954FE79F7743
:104170005F934F933F932F930E9446212F913F913E
:104180004F915F910E9409200C94D2209B01AC01B9
:104190000C94092029F416F00C94841F0C94F51F3C
:1041A0000C948A1F0E94DB1FA8F39638A0F707F82B
:1041B0000F92E8942BE33AEA48EB5FE70E941F2056
:1041C0000F920F920F924DB75EB70F920E948E2101
:1041D000E7EFF0E00E948D1F4F915F91EF91FF910B
:1041E000E595EE1FFF1F49F0FE57E0684427EE0FEC
:1041F000441FFA95E1F74195550B0E9408210F9055
:1042000007FE0C94012008950C94841F0C94C22185
:104210000E94DB1FD8F39923C9F3940F511DA3F318
:104220009150504094F059F0882332F0660F771F78
:10423000881F91505040C1F79E3F51052CF7880FC1
:10424000911D9695879597F908955F3FACF0983E3C
:104250009CF0BB27869577956795B79508F4B16074
:104260009395C1F7BB0F58F711F460FFE8CF6F5F6C
:104270007F4F8F4F9F4FE3CF0C94F61F16F00C9497
:10428000C2210C948A1F68940C94841F0E94DB1F27
:10429000A8F39923C1F3AEF3DF93CF931F930F934A
:1042A000FF92C92FDD2788232AF02197660F771FF9
:1042B000881FDAF720E030E040E85FEB9FE38839C1
:1042C00020F0803E38F021968F770E94981DEFE114
:1042D000F1E004C00E94981DECE4F1E00E948D1F03
:1042E0008B01BE01EC01FB2E6F5771097595771F8D
:1042F000880B990B0E94251F28E132E741E35FE319
:104300000E941C20AF2D9801AE01FF900F911F91CC
:10431000CF91DF910E94AF1D0C94C21FFA01DC0106
:10432000AA0FBB1F9B01AC01BF5728F422273327DC
:104330004427507820C0B75190F4AB2F0024469505
:1043400037952795011CA395D2F3002071F0220F19
:10435000331F441FB395DAF30ED00C94971D6130D0
:104360007105A0E88A07B94630F49B01AC016627C5
:10437000772788279078309621F0208331834283F5
:10438000538308959F3F31F0915020F4879577959E
:104390006795B795880F911D9695879597F908951C
:1043A00097FB072E16F4009407D077FD09D00E94E2
:1043B000EA2107FC05D03EF4909581959F4F089522
:1043C000709561957F4F0895EE0FFF1F0590F49152
:1043D000E02D0994AA1BBB1B51E107C0AA1FBB1FFC
:1043E000A617B70710F0A61BB70B881F991F5A9581
:1043F000A9F780959095BC01CD010895CF93DF93E7
:104400008230910510F482E090E0E091D902F091C1
:10441000DA0220E030E0C0E0D0E0309711F14081D6
:10442000518148175907C0F04817590761F4828134
:104430009381209719F09B838A832BC09093DA0293
:104440008093D90226C02115310519F04217530770
:1044500018F49A01BE01DF01EF010280F381E02D23
:10446000DCCF2115310509F1281B390B243031052A
:1044700090F412968D919C9113976115710521F01E
:10448000FB019383828304C09093DA028093D90264
:10449000FD01329644C0FD01E20FF31F8193919319
:1044A000225031092D933C933AC02091D70230918C
:1044B000D802232B41F42091170130911801309339
:1044C000D8022093D70220911501309116012115B1
:1044D000310541F42DB73EB74091190150911A01B1
:1044E000241B350BE091D702F091D802E217F307B5
:1044F000A0F42E1B3F0B2817390778F0AC014E5F54
:104500005F4F2417350748F04E0F5F1F5093D802B6
:104510004093D7028193919302C0E0E0F0E0CF0195
:10452000DF91CF9108950F931F93CF93DF9300975F
:1045300009F48CC0FC013297138212820091D902D7
:104540001091DA020115110581F420813181820F69
:10455000931F2091D7023091D8022817390779F597
:10456000F093D802E093D70271C0D80140E050E048
:10457000AE17BF0750F412962D913C911397AD01E1
:104580002115310509F1D901F3CF9D01DA013383FA
:10459000228360817181860F971F8217930769F4C8
:1045A000EC0128813981260F371F2E5F3F4F318361
:1045B00020838A819B8193838283452B29F4F09306
:1045C000DA02E093D90242C01396FC93EE9312975D
:1045D000ED01499159919E01240F351FE217F30710
:1045E00071F480819181840F951F029611969C939E
:1045F0008E938281938113969C938E931297E0E021
:10460000F0E0D80112968D919C911397009719F0C4
:10461000F8018C01F6CF8D919C9198012E5F3F4F50
:10462000820F931F2091D7023091D80228173907A3
:1046300069F4309729F41092DA021092D90202C07C
:10464000138212821093D8020093D702DF91CF9188
:104650001F910F91089581E090E0F8940C94392314
:10466000FB01DC0102C001900D9241505040D8F78F
:064670000895F894FFCF4D
:10467600010100C18081000000FFFFFFFF00E10093
:1046860000000000000000DB02800000FF010001C6
:104696000000FFFF0000010001FF00000000001BFA
:1046A600069C06B20631067E063C065A0600000047
:0A46B60000A60A350BF20ACD0A0037
:00000001FF
