:100000000C9445010C946D010C946D010C946D01E0
:100010000C946D010C946D010C946D010C946D01A8
:100020000C946D010C946D010C9490060C945B077C
:100030000C946D010C946D010C946D010C946D0188
:100040000C946D010C946D010C946D010C946D0178
:100050000C946D010C946D010C946D010C943B0C8F
:100060000C946D010C946D010C946D010C946D0158
:100070000C946D010C946D010C946D010C946D0148
:100080000C946D010C946D010C946D010C946D0138
:100090000C946D010C946D010C946D010C946D0128
:1000A0000C946D010C946D010C946D01E209E5094D
:1000B000D409D809DE09060A060A060AE909ED0983
:1000C000F109F709FB09060A010A084AD73B3BCEAA
:1000D000016E84BCBFFDC12F3D6C74319ABD568347
:1000E0003DDA3D00C77F11BED9E4BB4C3E916BAAFF
:1000F000AABE000000803F07634236B79BD8A71A0C
:1001000039685618AEBAAB558C1D3CB7CC5763BD99
:100110006DEDFD753EF6177231BF000000803F089F
:10012000000000BE922449123EABAAAA2ABECDCC42
:10013000CC4C3E00000080BEABAAAAAA3E00000044
:1001400000BF000000803F0000000000084178D39D
:10015000BB4387D1133D190E3CC3BD4282AD2B3E3C
:1001600068EC8276BED98FE1A93E4C80EFFFBE01DC
:10017000C4FF7F3F000000000000080B00020202E5
:100180000100090400000102020000052400100122
:1001900005240101010424020605240600010705C7
:1001A000810310004009040100020A000000070555
:1001B0000202400000070583024000000403090416
:1001C00012010002EF0201404123368000010102CA
:1001D000030141726475696E6F204C4C43004861A5
:1001E0007276657374655220436F6E74726F6C2003
:1001F0004465636B00070605040100080A0B0C0D3B
:100200000900000000240027002A002D0030000013
:10021000000000250028002B002E00310000000007
:10022000002300260029002C002F000404040404ED
:100230000304050202020204030202020206060689
:100240000606060404020202040404080201104027
:10025000804010204080408008020401804020102F
:100260000201108010204040200000000200090F11
:100270000000030401000C0000000000000000006A
:100280000000000000000000081B11241FBECFEF7B
:10029000DAE0DEBFCDBF11E0A0E0B1E0E4E6F7E4D4
:1002A00002C005900D92AC35B107D9F723E0ACE55B
:1002B000B1E001C01D92A533B207E1F711E0C5E43A
:1002C000D1E004C02197FE010E945B22C434D10713
:1002D000C9F70E942C0F0C94B0230C940000CF920D
:1002E000DF92EF92FF920F931F93CF93DF93D90189
:1002F000E801421753071CF0FA01690102C06A01C4
:10030000F901882309F43FC09C2D8D2DC616D70610
:1003100014F4962F872F292F382FE217F3070CF4A8
:100320009F01A417B50734F4CF01821B930B9C01E6
:100330002C0D3D1D0D2C000CEE08FF08C901330FDC
:10034000AA0BBB0B9C01AD012C193D094E095F099D
:10035000AEEFBFEF0E94181F8F01FF0F220B330B70
:10036000A90198012C193D094E095F090E94F91E47
:10037000DA01C9018F5F9F47A109B1098883998379
:1003800082E090E002C080E090E0DF91CF911F9189
:100390000F91FF90EF90DF90CF900895CF92DF9272
:1003A000EF92FF920F931F93CF93DF93D901E80150
:1003B000421753071CF0FA01690102C06A01F901F2
:1003C000882309F43FC09C2D8D2DC616D70614F442
:1003D000962F872F292F382FE217F3070CF49F0150
:1003E000A417B50734F4CF01821B930B9C012C0D8D
:1003F0003D1D0D2C000CEE08FF08C901330FAA0BA0
:10040000BB0B9C01AD012C193D094E095F09AEEFF4
:10041000BFEF0E94181F8F01FF0F220B330BA901A2
:1004200098012C193D094E095F090E94F91EDA0155
:10043000C9018F5F9F47A109B1098883998382E031
:1004400090E002C080E090E0DF91CF911F910F918A
:10045000FF90EF90DF90CF9008950F931F93CF936D
:100460008C01C62F60E08091DD020E94890B023072
:10047000110531F10330110509F440C001301105B7
:1004800009F05EC06C2F61708091D5020E94890BCB
:10049000C1FB662760F98091D7020E94890BC2FBDD
:1004A000662760F98091D9020E94890BC3FB6627F9
:1004B00060F98091DB020E94890B8091E5023BC0CC
:1004C0006C2F61708091D5020E94890BC1FB662759
:1004D00060F98091D7020E94890BC2FB662760F900
:1004E0008091D9020E94890BC3FB662760F9809135
:1004F000DB020E94890B8091E7021DC06C2F6170A6
:100500008091D5020E94890BC1FB662760F980911A
:10051000D7020E94890BC2FB662760F98091D9023D
:100520000E94890BC3FB662760F98091DB020E9461
:10053000890B8091E902CF911F910F910C94600B70
:1005400080E090E0CF911F910F9108957F928F925C
:100550009F92AF92BF92CF92DF92EF92FF920F9352
:100560001F93CF93DF93CDB7DEB7ADB6BEB6809104
:10057000D4022DB73EB7281B31090FB6F8943EBF01
:100580000FBE2DBF8DB79EB701966C01E090A30200
:10059000F12C80919F029091A002D601FC019F0155
:1005A000281B390B2E153F051CF421912D93F7CFF5
:1005B0008091A402882371F180919B0290919C020A
:1005C00097FD0AC068E671E00E9447226DE270E084
:1005D0000E944722262F01C028E080919D02909121
:1005E0009E0297FD0AC068E671E00E9447226DE214
:1005F00070E00E944722962F01C098E0F601EE0DB0
:10060000FF1D30E1939FC0011124822B8083C7011D
:1006100001967C0186010E0D1F1D2091A9023091CB
:10062000AA024091A7025091A802609185027091A0
:1006300086028091A50281700E94CE01E80EF91E0B
:1006400086010E0D1F1D2091AD023091AE0240912A
:10065000AB025091AC026091870270918802809148
:10066000A502869581700E94CE01E80EF91E8601D2
:100670000E0D1F1D2091B1023091B2024091AF02C8
:100680005091B0026091890270918A028091A50216
:1006900082FB882780F90E94CE01E80EF91E8601B0
:1006A0000E0D1F1D2091B5023091B6024091B3028C
:1006B0005091B40260918B0270918C028091A502DE
:1006C00083FB882780F90E94CE01E80EF91E86017F
:1006D0000E0D1F1D2091B9023091BA024091B70250
:1006E0005091B80260918D0270918E028091A502A6
:1006F000829581700E94CE01E80EF91E86010E0DD2
:100700001F1D2091BD023091BE024091BB0250914D
:10071000BC0260918F02709190028091A50285FBCE
:10072000882780F90E94CE01E80EF91E86010E0D81
:100730001F1D2091C1023091C2024091BF02509111
:10074000C00260919302709194028091A602817020
:100750000E946F01E80EF91E86010E0D1F1D2091EB
:10076000C5023091C6024091C3025091C40260910B
:100770009102709192028091A602869581700E94EA
:100780006F01E80EF91E86010E0D1F1D2091C90292
:100790003091CA024091C7025091C80260919502FF
:1007A000709196028091A60282FB882780F90E94B0
:1007B0006F01E80EF91E86010E0D1F1D2091CD025E
:1007C0003091CE024091CB025091CC0260919702C1
:1007D000709198028091A60283FB882780F90E947D
:1007E0006F018E0D9F1D8601080F191F2091D102E8
:1007F0003091D2024091CF025091D0026091990283
:1008000070919A028091A602829581700E946F0178
:100810001091D4027090D3020E94850C7C01412F6C
:1008200050E04A019FEF891A990AEDB7FEB7E8191F
:10083000F9090FB6F894FEBF0FBEEDBF0DB71EB796
:100840000F5F1F4F7182B601C80101960E94A72356
:10085000F7018381A401B80180640E94710E0FB674
:10086000F894BEBE0FBEADBEDF91CF911F910F9128
:10087000FF90EF90DF90CF90BF90AF909F908F90C0
:100880007F9008959091A202891700F5982F969570
:1008900096959695E0919F02F091A002E90FF11DC7
:1008A000282F277081E090E0A0E0B0E004C0880F1E
:1008B000991FAA1FBB1F2A95D2F780959081892383
:1008C00080838091A10281110C94A60208959091D9
:1008D000A2028917F8F4982F969596959695E0912F
:1008E0009F02F091A002E90FF11D282F277081E0EF
:1008F00090E0A0E0B0E004C0880F991FAA1FBB1FC2
:100900002A95D2F72081822B80838091A1028111C8
:100910000C94A60208954F925F926F927F928F92ED
:100920009F92AF92BF92CF92DF92EF92FF920F937E
:100930001F93CF93DF9300D000D0CDB7DEB74983AC
:100940005A836B837C8348015901BC01990F880B42
:10095000990B0E94BA1DA50194010E94321F9B01B0
:10096000AC010E94331F2B013C01A5019401C7017A
:10097000B6010E94321F9B01AC01C301B2010E946B
:10098000112020E030E040E85FE30E94321F6B015D
:100990007C0120E030E0A9010E94E020181624F03C
:1009A000C701B601905802C0C701B60129813A813A
:1009B0004B815C810E94ED204B015C0120E030E026
:1009C000A901C701B6010E94E02018166CF020E0D2
:1009D00030E0A901C701B6010E94B31D87FD09C01F
:1009E00020E030E0A90109C020E030E040E85FE30A
:1009F00004C020E030E040E85FEBC501B4010E9494
:100A0000191E6B017C0120E030E040E85FEB0E94A2
:100A1000B31D87FD14C020E030E040E85FE3C7016C
:100A2000B6010E94E02018160CF120E030E0A90188
:100A3000C701B6010E94E02018165CF006C0C12C68
:100A4000D12C90E8E92E9FEBF92EC701B601905802
:100A500002C0C701B60120E030E0A9010E94B31D29
:100A600087FF0AC0C12CD12C760106C0C12CD12C25
:100A700080E8E82E8FE3F82EC701B6010F900F90A3
:100A80000F900F90DF91CF911F910F91FF90EF90FA
:100A9000DF90CF90BF90AF909F908F907F906F909E
:100AA0005F904F900895CF92DF92EF92FF920F9355
:100AB0001F93CF93DF931F92CDB7DEB7182F062F6A
:100AC000E42E862F880F8E5F99830E94320E83E07A
:100AD0000E94320EF12EC12E9981D92E8C2D8F19A4
:100AE000801798F4F601E7FE02C0849101C080816E
:100AF0000E94320E182F80E00E94320E8123FFEFF9
:100B0000CF1ADF0A8111EACF01C081E00F90DF9197
:100B1000CF911F910F91FF90EF90DF90CF900895AC
:100B2000611102C00C9442040C946704CF93DF93CC
:100B3000EC01CF3F8FEFD80761F1BE010D2E000C05
:100B4000880B990B0E94BA1D20E030E044EB53E47F
:100B50000E94B31D87FF02C0C859DE4FBE010D2E93
:100B6000000C880B990B0E94BA1D20E030E044EB8A
:100B700053E40E94E020181614F4C856D140CE0168
:100B80006DE270E00E9447227093020360930103BC
:100B900004C0D0930203C0930103C0910103D0911C
:100BA000020361E0209709F060E080E20E94900576
:100BB00061E0C130D10509F060E081E20E9490055A
:100BC00061E0C230D10509F060E082E20E94900548
:100BD00061E0C330D10509F060E083E20E94900536
:100BE00061E0C430D10509F060E084E20E94900524
:100BF00061E0C530D10509F060E085E20E94900512
:100C000061E0C630D10509F060E086E20E949005FF
:100C100061E0279709F060E087E2DF91CF910C94C3
:100C200090051F93CF93DF93182F60E08091DD0232
:100C30000E94890B612F61708091D5020E94890BFF
:100C400011FB662760F98091D7020E94890B12FB85
:100C5000662760F98091D9020E94890B13FB6627F1
:100C600060F98091DB020E94890BE091E902E23198
:100C700008F0E251F0E0EB50FE4FE49180917B00F0
:100C8000E3FB992790F9C92F90E0D92F95E0CC0F7D
:100C9000DD1F9A95E1F78F7DC82BC0937B00E7702D
:100CA000E064E0937C0080917A00806480937A0015
:100CB00080917A0086FDFCCF8091780020917900A8
:100CC00090E0922BDF91CF911F910895FC018091CC
:100CD0000003811103C08FEF9FEF08959FB7F89431
:100CE00082E08093E9002091F20030E012161306B2
:100CF00014F421E030E02115310559F0289884E6FC
:100D00008093FF028091F10080838091F20088231C
:100D100019F09FBFC90108958BE68093E800F9CFD1
:100D20001F920F920FB60F9211248F939F93809171
:100D3000E1009091E100937F9093E10083FF0FC069
:100D40001092E90091E09093EB001092EC0092E396
:100D50009093ED001092000398E09093F00082FFD2
:100D600020C093E09093E9009091F200992319F04C
:100D70009AE39093E8009091FE02992339F09091C4
:100D8000FE0291509093FE02992389F19091FF0207
:100D9000992339F09091FF0291509093FF0299238B
:100DA00041F184FF10C08091E2008E7E81608093CB
:100DB000E2008091E1008F7E8093E1008091FD024E
:100DC0008E7E806111C080FF16C08091E2008E7E11
:100DD00080618093E2008091E1008E7E8093E1004B
:100DE0008091FD028E7E81608093FD0204C05D9A39
:100DF000CDCF289AD6CF9F918F910F900FBE0F9095
:100E00001F901895DF92EF92FF920F931F93CF934D
:100E1000DF93D82E8A017B01E40EF51EEB01CE157F
:100E2000DF0571F0D7FE03C0FE01849101C0888107
:100E30000E94320E21968111F2CF8FEF9FEF01C0F9
:100E4000C801DF91CF911F910F91FF90EF90DF903C
:100E500008950F931F93CF93DF931F92CDB7DEB703
:100E600082E0898342E450E06AE771E080E80E9412
:100E700002070E94180FDC0112960D911C91139726
:100E80000115110569F0D801ED91FC910280F38103
:100E9000E02DBE016F5F7F4FC801099597FF07C026
:100EA00089810F90DF91CF911F910F910895F801E3
:100EB00000851185E5CF1F920F920FB60F92112476
:100EC000CF92DF92EF92FF920F931F932F933F9356
:100ED0004F935F936F937F938F939F93AF93BF9342
:100EE000EF93FF93CF93DF93CDB7DEB76C97DEBF61
:100EF000CDBF1092E9008091E80083FFEDC168E06A
:100F0000CE0145960E940B0F82EF8093E8008D89F9
:100F100087FF05C09091E80090FFFCCF03C09EEFD3
:100F20009093E800982F907609F0C6C09E892F898B
:100F3000188D91110CC0803829F48091FC028093A7
:100F4000F10002C01092F1001092F10048C1422F4E
:100F500050E0512B913051F4811141C14130510584
:100F600009F03DC18091FC028D7F0BC0933061F48C
:100F7000811135C14130510509F031C18091FC0228
:100F800082608093FC022BC1953041F48091E8008F
:100F900080FFFCCF20682093E30021C1963009F048
:100FA0005FC0EB8CFC8C1092E9001092FA02109258
:100FB000F902123091F51092F8021092F7020E9495
:100FC000290799E0BE016F5F7F4FDB01E92F1D927A
:100FD000EA95E9F799831A8391E09E8390EA9887CE
:100FE0009AEF99872091F9023091FA02275F3F4FDB
:100FF0003C832B838D831092E9001092FA021092A9
:10100000F902F092F802E092F70249E050E080E045
:101010000E9402070E942907E2C0F092F802E092C3
:10102000F7020E94180FDC011296ED90FC901397C6
:10103000E114F10409F4C0C0D701ED91FC910480E2
:10104000F581E02DBE016B5E7F4FC70109950097CA
:1010500019F00CF0C4C0C7C0F701E084F184E8CFF8
:10106000973009F4C0C0983021F481E08093F100FA
:10107000B6C0993009F0B3C0837009F0B4C0E3E0A2
:10108000F1E081E021E036E39081992361F08093E3
:10109000E9002093EB0091919093EC003093ED00E8
:1010A0008F5F873089F78EE78093EA001092EA001D
:1010B0008F898093000393C08B8D9C8D1092E900E3
:1010C0001092FA021092F9029093F8028093F702BC
:1010D000898D811156C08E899D89913A59F481324A
:1010E00009F081C047E050E06DE071E080E00E94CF
:1010F000020775C0913209F076C0833289F4888D79
:1011000090E0982F88272F89822BA0E0B0E0809371
:10111000090190930A01A0930B01B0930C015FC0E9
:10112000803269F48091E80082FFFCCF67E08DE0B7
:1011300091E00E940B0F8BEF8093E80006C0823293
:1011400009F04DC08F89809314018091FB028823A0
:1011500019F0EEEFFAE002C0E0E0F8E080910D0156
:1011600090910E01A0910F01B0911001803B94402D
:10117000A105B10509F07BC08091140180FF93C0E7
:1011800076C00E94180FDC0112960D911C911397E6
:101190000115110541F1D801ED91FC910190F0810B
:1011A000E02DBE016B5E7F4FC8010995811117C00C
:1011B000F80100851185ECCF113009F44EC01330D1
:1011C00091F48F89882309F445C0823081F440E886
:1011D00066E18EED91E00E945305882321F08EEFA9
:1011E0008093E80079C081E28093EB0075C0813084
:1011F00029F440E86BE082ED91E0EDCF833099F780
:101200000E94180FDC011296ED90FC9013978E014E
:101210000F5F1F4F6801E114F10479F0D701ED91E0
:10122000FC910680F781E02DB801C7010995080FF0
:10123000111DF701E084F184EECFD8011C92F60174
:1012400001900020E9F73197BF016C197D0940E05A
:10125000C601C1CF6CEB71E002C060EC71E06115BA
:10126000710509F2FB01449150E080E840CF0FB6D0
:10127000F894A89580916000886180936000109236
:1012800060000FBEA895EE3F2AE0F20739F080918A
:10129000FE0A9091FF0A91838083A1CF1092FF0AEA
:1012A0001092FE0A9CCFEE3F8AE0F80731F0808171
:1012B00091819093FF0A8093FE0A87E797E79183D5
:1012C00080839BE088E10FB6F894A8958093600036
:1012D0000FBE9093600083CF6C960FB6F894DEBF7C
:1012E0000FBECDBFDF91CF91FF91EF91BF91AF9135
:1012F0009F918F917F916F915F914F913F912F912E
:101300001F910F91FF90EF90DF90CF900F900FBE45
:101310000F901F901895CF93DF931F92CDB7DEB734
:101320006983DC01ED91FC910280F381E02D41E0C5
:1013300050E0BE016F5F7F4F09950F90DF91CF9115
:10134000089583E08093E9008091F200882319F0EA
:101350008AE38093E8000895FC018485958597FDD4
:101360000BC09FB7F89482E08093E9008091F2006F
:101370009FBF90E0019608959FB7F89482E0809314
:10138000E9008091F2009FBF90E00895089580E009
:1013900090E0089590E0FC013197EF30F105B0F551
:1013A000EA5AFF4F0C945B22809180008F7703C034
:1013B000809180008F7D80938000089580918000CF
:1013C000877FF9CF84B58F7702C084B58F7D84BDC8
:1013D0000895809190008F7707C0809190008F7D55
:1013E00003C080919000877F809390000895809142
:1013F000C0008F7703C08091C0008F7D8093C000B4
:1014000008958091C200877F8093C20008953FB7FE
:10141000F8948091210390912203A0912303B0912D
:10142000240326B5A89B05C02F3F19F00196A11DE6
:10143000B11D3FBFBA2FA92F982F8827820F911D6A
:10144000A11DB11DBC01CD0142E0660F771F881FB1
:10145000991F4A95D1F70895DC01FB0112968C91F2
:10146000129790E02481358182179307D1F49181FE
:101470008081813A31F481E0913091F0933089F4A8
:1014800011C0813271F49B3021F482811F968C93BC
:1014900005C09A3031F4828150968C9381E0089592
:1014A000089580E00895DC01FB0188E4808389E4ED
:1014B000818384E482831D969C911D979F709F5B1E
:1014C00093831D968D919C911E9724E09695879508
:1014D0002A95E1F78F708F5B848385E00895FC0186
:1014E00082818F5BFB01808381E00895CF93DF933E
:1014F000EC0180911401882331F083E00E94710E89
:101500001816190634F081E090E09B838A8380E00E
:1015100090E0DF91CF91089583E00E94600E90E00B
:101520000895CF93DF931F92CDB7DEB7FC0184857A
:10153000958597FD05C02FEF3FEF358724870BC0BA
:10154000CE0101960E946606019719F4898190E008
:1015500002C08FEF9FEF0F90DF91CF9108950F930F
:101560001F93CF93DF931F92CDB7DEB78C01FC01A1
:101570008485958597FF0EC0CE0101960E94660670
:10158000019719F4298130E002C02FEF3FEFF801F5
:1015900035872487F801848595850F90DF91CF9159
:1015A0001F910F9108950E94A223EF92FF920F9333
:1015B0001F93CF93DF93FB012081213869F52381AD
:1015C000223251F5DC0112962C9130E04481558194
:1015D0004217530709F58C01FC01C385D485E12C22
:1015E000F12C209799F04C815D816A817B818E81FD
:1015F000811180E80E9402078F3FFFEF9F0779F07B
:10160000E80EF91E0990D881C02DEBCF81E0D801FA
:101610001F968C93C70105C080E090E002C08FEF59
:101620009FEFDF91CF911F910F91FF90EF90089561
:10163000CF93DF93CDB7DEB769970FB6F894DEBFCF
:101640000FBECDBFFC01DB018C918F5F8C93BE017F
:101650006F5F7F4F89E1DB011D928A95E9F729E0F1
:10166000298384E08A8391E09D8383E08E832A87A7
:1016700021E22B879C879D879F8722E2288B27E08A
:101680002B8B25E02C8B8E8B20E430E0388F2F8B3A
:10169000998F82818B8395858685998B8A8B8381AF
:1016A00080688D8B49E150E080E00E9402076996D6
:1016B0000FB6F894DEBF0FBECDBFDF91CF91089576
:1016C000CF93DF93282F30E0F901E759FD4F849144
:1016D000F901E65BFD4FD491F901E55DFD4FC49141
:1016E000CC2391F081110E94CA09EC2FF0E0EE0F9B
:1016F000FF1FE35EFD4FA591B491EC91ED2381E0D6
:1017000090E021F480E002C080E090E0DF91CF9192
:1017100008951F93CF93DF93282F30E0F901E75905
:10172000FD4F8491F901E65BFD4FD491F901E55D30
:10173000FD4FC491CC23C9F0162F81110E94CA0914
:10174000EC2FF0E0EE0FFF1FE15FFD4FA591B4918C
:101750008FB7F894111105C09C91ED2FE095E92306
:1017600002C0EC91ED2BEC938FBFDF91CF911F91D5
:101770000895CF93DF9390E0FC01E65BFD4F249149
:10178000FC01E55DFD4F8491882361F190E0880FB5
:10179000991FFC01EF5FFD4FC591D491FC01E15F02
:1017A000FD4FA591B491611109C09FB7F89488814C
:1017B000209582238883EC912E230BC0623061F444
:1017C0009FB7F8943881822F809583238883EC918A
:1017D0002E2B2C939FBF06C08FB7F894E8812E2B39
:1017E00028838FBFDF91CF9108958F929F92AF9200
:1017F000BF92CF92DF92EF92FF926B017C010E9429
:10180000070A4B015C01C114D104E104F104F1F0B9
:101810000E94070ADC01CB0188199909AA09BB09B2
:10182000883E9340A105B10570F321E0C21AD108AA
:10183000E108F10888EE880E83E0981EA11CB11C17
:10184000C114D104E104F10419F7DDCFFF90EF904A
:10185000DF90CF90BF90AF909F908F9008952FB75B
:10186000F89460911D0370911E0380911F03909165
:1018700020032FBF08951F920F920FB60F921124CD
:101880002F933F938F939F93AF93BF9380911D03AB
:1018900090911E03A0911F03B091200330911C036F
:1018A00023E0230F2D3720F40196A11DB11D05C0A3
:1018B00026E8230F0296A11DB11D20931C038093DF
:1018C0001D0390931E03A0931F03B09320038091E8
:1018D000210390912203A0912303B0912403019648
:1018E000A11DB11D8093210390932203A093230394
:1018F000B0932403BF91AF919F918F913F912F910E
:101900000F900FBE0F901F901895809114038111B6
:101910006BC081E080930703809308032DE033E0E0
:1019200030930A032093090310920C0310920B03C7
:1019300021E431E0309304032093030310920F035A
:1019400010920E0310921103109210038093120351
:101950008093130381EC80930D030E94180FFC0108
:1019600021818091070390E0820F911D089724F058
:1019700081E08093140338C0A281B381109729F4C9
:1019800083E093E0938382830EC018968D919C919F
:101990001997009711F0DC01F8CF83E093E01996D6
:1019A0009C938E9318978081809305038181809307
:1019B0000603908180910803890F808380E09091D5
:1019C00007038917A8F6A0910903B0910A03A80F8D
:1019D000B11D9C91A181B0E0AE5FBE4F9C939181FF
:1019E0009F5F91838F5FEBCF83E093E008954F92E9
:1019F0005F926F927F928F929F92AF92BF92CF929F
:101A0000DF92EF92FF920F931F93CF93DF93CDB7A7
:101A1000DEB728970FB6F894DEBF0FBECDBF49835F
:101A20005A836B837C83280139018D829E82AF8229
:101A3000B886BC01990F880B990B0E94BA1D4B0107
:101A40005C01A70196010E94B31D882309F4BBC065
:101A5000A7019601C501B4010E94B31D87FF1CC0F8
:101A6000A3019201C501B4010E94321F4B015C0128
:101A7000A3019201C701B6010E94321F9B01AC0174
:101A8000C501B4010E94112020E030E040E85FE38E
:101A90000E94321F4B015C01A7019601C501B401F0
:101AA0000E94E0201816ECF4A7019601C501B401CC
:101AB0000E94321F4B015C01A70196016D817E815E
:101AC0008F8198850E94321F9B01AC01C501B40132
:101AD0000E94112020E030E0A9010E94331F4B0139
:101AE0005C0120E030E0A901C501B4010E94E020C2
:101AF000181624F0C501B401905802C0C501B40104
:101B000029813A814B815C810E94ED206B017C012F
:101B100020E030E0A901C501B4010E94E0201816C0
:101B20006CF020E030E0A901C501B4010E94B31DB2
:101B300087FD09C020E030E0A90109C020E030E0C5
:101B400040E85FE304C020E030E040E85FEBC7011D
:101B5000B6010E94191E6B017C0120E030E040E8D4
:101B60005FEB0E94B31D87FD14C020E030E040E829
:101B70005FE3C701B6010E94E0201816A4F020E040
:101B800030E0A901C701B6010E94E02018168CF0D0
:101B900006C0C12CD12C90E8E92E9FEBF92EC7018D
:101BA000B601905808C0C12CD12C80E8E82E8FE3F4
:101BB000F82EC701B6012B8D3C8D4D8D5E8D0E9498
:101BC000B31D87FF05C050E040E030E020E004C0D6
:101BD0005C2D4D2D3E2D2F2D652F742F832F922F91
:101BE00028960FB6F894DEBF0FBECDBFDF91CF9120
:101BF0001F910F91FF90EF90DF90CF90BF90AF902B
:101C00009F908F907F906F905F904F900895CF92AC
:101C1000DF92EF92FF920F931F93CF93DF936C01AC
:101C20007A018B01C0E0D0E0CE15DF0589F0D80144
:101C30006D918D01D601ED91FC910190F081E02D27
:101C4000C6010995892B11F47E0102C02196ECCFC3
:101C5000C701DF91CF911F910F91FF90EF90DF901F
:101C6000CF9008954091F9025091FA022091F70225
:101C70003091F80242175307B4F49091E800957040
:101C8000E1F39091E80092FD19C08093F1008091FA
:101C9000F9029091FA0201968F739927892B19F412
:101CA0008EEF8093E8008091F9029091FA020196FC
:101CB0009093FA028093F90281E0089580E00895FC
:101CC0002FB7F89487708093E9009091E800892FEE
:101CD000807295FF04C09091F20080E4891B2FBFB1
:101CE00008957F928F929F92AF92BF92CF92DF9290
:101CF000EF92FF920F931F93CF93DF93C82E8B0128
:101D00007A0180910003811103C08FEF9FEF75C0AE
:101D10008091FD0280FF05C08091E0008260809389
:101D2000E000CE2DDF2DD12C8AEF882E8C2D8770F0
:101D3000B82E8C2D8072A82E8C2D8074982E9AE34C
:101D4000792E209709F452C08C2D0E94600E282F06
:101D500081110AC08A948820C1F261E070E080E0BD
:101D600090E00E94F50BEDCF90E0C817D9070CF476
:101D70002C2F3FB7F894B092E9008091E80085FFDE
:101D800033C0822F90E0C81BD90BAA2029F0215024
:101D9000A8F01092F100FBCFF801C7FE07C0215058
:101DA00058F044914093F1003196F9CF215020F042
:101DB00041914093F100FACF080F191FDD2019F06F
:101DC0007092E8000AC08091E80085FD08C070921A
:101DD000E800DD24D394209739F0D12C05C020975A
:101DE00019F491107092E8003FBFABCFD110ACCF87
:101DF0005D9884E68093FE02C701DF91CF911F9129
:101E00000F91FF90EF90DF90CF90BF90AF909F9099
:101E10008F907F900895615030F02091F100FC0187
:101E200020830196F8CF289884E68093FF020895D6
:101E30008091290381110DC082E08093250384E005
:101E400080932603109228031092270381E0809349
:101E5000290385E293E00895CF93DF93CDB7DEB7F2
:101E6000E2970FB6F894DEBF0FBECDBF789484B56D
:101E7000826084BD84B5816084BD85B5826085BD86
:101E800085B5816085BD80916E00816080936E0014
:101E90001092810080918100826080938100809106
:101EA00081008160809381008091800081608093B7
:101EB00080008091910082608093910080919100D8
:101EC0008160809391008091900081608093900068
:101ED0008091C10084608093C1008091C1008260C4
:101EE0008093C1008091C10081608093C100809186
:101EF000C30081608093C3008091C00082608093A2
:101F0000C0008091C20081608093C20080917A00FD
:101F1000846080937A0080917A00826080937A0056
:101F200080917A00816080937A0080917A00806845
:101F300080937A00109200031092FC021092FD022E
:101F40008091D70081608093D70080EA8093D80089
:101F500089B5806189BD89B5826089BD09B400FEFB
:101F6000FDCF61E070E080E090E00E94F50B809191
:101F7000D8008F7C80618093D8008091E000807FC2
:101F80008093E0008091E1008E7E8093E1008DE0FF
:101F90008093E200559A209AEEEFFFE785919491A5
:101FA0008B3F9C4D19F481E08093FB0210925D02FF
:101FB00010925E0210925F021092600210921B0259
:101FC00010921C0210921D0210921E020E942F0CF1
:101FD0006B017C014B015C0138EB830E3BE0931EEF
:101FE000A11CB11C0E942F0C6C157D058E059F0550
:101FF00028F086169706A806B906A0F789EC91E0A6
:1020000090935C0280935B025BE1E52EF12C1091D2
:1020100014016AE070E080E090E00E94F50B11117D
:102020000BC041E0E41AF10839F064E670E080E0AA
:1020300090E00E94F50BEBCFE0915B02F0915C0227
:102040008FEF9FEF958784870E942F0C60931B0270
:1020500070931C0280931D0290931E0280915B027C
:1020600090915C02DC01ED91FC910280F381E02D06
:1020700041E150E069E471E009950E942F0C6B0189
:102080007C014B015C01BAE08B0E911CA11CB11CC0
:102090000E942F0C6C157D058E059F0528F0861675
:1020A0009706A806B906A0F711E010932F0262E088
:1020B0008091E5020E94B90B60E08091DF020E94EE
:1020C000890B10925E0162E08091E7020E94B90BD9
:1020D00060E08091E1020E94890B10925D0162E054
:1020E0008091E9020E94B90B60E08091E3020E94B6
:1020F000890B10925C011093A1020E94A60220E0BD
:1021000030EC3093A8022093A70280E090E49093F3
:10211000AA028093A9023093AC022093AB02909361
:10212000AE028093AD023093B0022093AF02909341
:10213000B2028093B1023093B4022093B302909321
:10214000B6028093B5023093B8022093B702909301
:10215000BA028093B9023093BC022093BB029093E1
:10216000BE028093BD0282EB9FE8A0E7BFE38093AD
:102170008F0190939001A0939101B093920183E419
:102180009DE1AFEABEEB80938B0190938C01A0930D
:102190008D01B0938E0163E070E081E090E00E94D9
:1021A0002D0261E0892B09F060E080E00E9490053B
:1021B00067E070E081E090E00E942D0261E0892BF1
:1021C00009F060E081E00E9490056AE070E081E043
:1021D00090E00E942D0261E0892B09F060E082E02E
:1021E0000E9490056BE070E081E090E00E942D027B
:1021F00061E0892B09F060E083E00E9490056DE0CA
:1022000070E081E090E00E942D0261E0892B09F0EE
:1022100060E084E00E94900562E070E081E090E080
:102220000E942D0261E0892B09F060E085E00E94A8
:10223000900566E070E081E090E00E942D0261E090
:10224000892B09F060E086E00E94900569E070E06B
:1022500081E090E00E942D0261E0892B09F060E0AE
:1022600087E00E9490056CE070E081E090E00E94C1
:102270002D0261E0892B09F060E088E00E94900562
:102280006EE070E081E090E00E942D0261E0892B19
:1022900009F060E089E00E94900561E070E081E073
:1022A00090E00E942D0261E0892B09F060E08AE055
:1022B0000E94900560E070E081E090E00E942D02B5
:1022C00061E0892B09F060E08BE00E94900565E0F9
:1022D00070E081E090E00E942D0261E0892B09F01E
:1022E00060E08CE00E94900564E070E081E090E0A6
:1022F0000E942D0261E0892B09F060E08DE00E94D0
:10230000900566E070E082E090E00E942D0261E0BE
:10231000892B09F060E08EE00E94900568E070E093
:1023200081E090E00E942D0261E0892B09F060E0DD
:102330008FE00E9490056FE070E081E090E00E94E5
:102340002D0261E0892B09F060E080E10E94900598
:1023500060E070E082E090E00E942D0261E0892B55
:1023600009F060E081E10E94900562E070E082E0A7
:1023700090E00E942D0261E0892B09F060E082E18B
:102380000E94900561E070E082E090E00E942D02E2
:1023900061E0892B09F060E083E10E9490056CE028
:1023A00070E082E090E00E942D0261E0892B09F04C
:1023B00060E084E10E94900563E070E082E090E0DC
:1023C0000E942D0261E0892B09F060E085E10E9406
:1023D000900564E070E082E090E00E942D0261E0F0
:1023E000892B09F060E086E10E94900565E070E0CD
:1023F00082E090E00E942D0261E0892B09F060E00C
:1024000087E10E9490056AE070E082E090E00E941F
:102410002D0261E0892B09F060E088E10E949005BF
:102420006BE070E082E090E00E942D0261E0892B79
:1024300009F060E089E10E94900567E070E082E0C9
:1024400090E00E942D0261E0892B09F060E08AE1B2
:102450000E94900569E070E082E090E00E942D0209
:10246000182F68E070E082E090E00E942D02880F53
:10247000991FE82FE12BE37090915F01990F990F5D
:10248000E92BE0935F01EF70F0E0E55EFE4F208105
:102490002223B1F18091640190916501AC014F5FFD
:1024A0005F4F4330510560F5820F911D27FD9A95CE
:1024B00090936501809364019C0197FF04C02227DB
:1024C0003327281B390B22303105D4F01816190692
:1024D00014F48BE103C0892B19F08CE10E9467048E
:1024E0000E942F0CDC01CB018C599F4FAF4FBF4F87
:1024F0008093600190936101A0936201B0936301A6
:10250000C0906001D0906101E0906201F0906301A1
:102510001C141D041E041F044CF40E942F0CC6162C
:10252000D706E806F90610F40C94B11A809101015F
:102530008823E9F16EE070E082E090E00E942D02D5
:102540002091C80130E082179307E1F06EE070E05F
:1025500082E090E00E942D0221E0892B09F420E026
:102560002093C8010E942F0CDC01CB018C599F4F96
:10257000AF4FBF4F8093C4019093C501A093C60194
:10258000B093C701C090C401D090C501E090C601CE
:10259000F090C7010E942F0C21E06C157D058E057F
:1025A0009F0508F020E0622F8DE10E9490056EE00B
:1025B00070E082E090E00E942D02682F88E20E9485
:1025C0009005809100018823E9F16FE070E082E0DE
:1025D00090E00E942D022091C30130E08217930702
:1025E000E1F06FE070E082E090E00E942D0221E0D7
:1025F000892B09F420E02093C3010E942F0CDC01F9
:10260000CB018C599F4FAF4FBF4F8093BF01909329
:10261000C001A093C101B093C201C090BF01D0908E
:10262000C001E090C101F090C2010E942F0C21E096
:102630006C157D058E059F0508F020E0622F8EE168
:102640000E9490056FE070E082E090E00E942D0211
:1026500061E0892B09F060E089E20E9490056DE05D
:1026600070E082E090E00E942D0261E0892B09F089
:1026700060E08FE10E94900580E090E00E941106EA
:102680009AAB89ABBC01990F880B990B0E94BA1DBC
:102690002B013C01CB01D3018093BB019093BC0182
:1026A000A093BD01B093BE0181E090E00E941106AD
:1026B0009A878987BC01990F880B990B0E94BA1DD4
:1026C0004B015C01CB01D5018093B7019093B80118
:1026D000A093B901B093BA0183E090E00E94110683
:1026E0009A8B898BBC01990F880B990B0E94BA1D9C
:1026F0006B017C01CB01D7018093B3019093B401AE
:10270000A093B501B093B60187E090E00E94110656
:102710009E8B8D8BBC01990F880B990B0E94BA1D63
:102720006093AF017093B0018093B1019093B201B7
:102730008EE090E00E9411069A8F898FBC01990F5C
:10274000880B990B0E94BA1D6093AB017093AC018A
:102750008093AD019093AE018FE090E00E9411064E
:102760009C8F8B8FBC01990F880B990B0E94BA1D0F
:102770006093A7017093A8018093A9019093AA0187
:102780000E942F0C2091A3013091A4014091A5013A
:102790005091A601DC01CB01821B930BA40BB50B5E
:1027A000883E9340A105B10508F0B3C02DEC3CEC88
:1027B0004CE45FE360918102709182028091830218
:1027C000909184020E94191E69837A838B839C8373
:1027D0002DEC3CEC4CE45EE3B201C3010E94191EF7
:1027E0009B01AC0169817A818B819C810E94331F9E
:1027F0002B013C01609381027093820280938302DB
:10280000909384022DEC3CEC4CE45FE36091750204
:102810007091760280917702909178020E94191E41
:1028200069837A838B839C832DEC3CEC4CE45EE3E0
:10283000B401C5010E94191E9B01AC0169817A8116
:102840008B819C810E94331F4B015C016093750258
:102850007093760280937702909378022DEC3CEC93
:102860004CE45FE36091690270916A0280916B02AF
:1028700090916C020E94191E69837A838B839C83DA
:102880002DEC3CEC4CE45EE3B601C7010E94191E3E
:102890009B01AC0169817A818B819C810E94331FED
:1028A0006093690270936A0280936B0290936C024A
:1028B0004092790250927A0260927B0270927C027E
:1028C00040927D0250927E0260927F02709280025E
:1028D0008092710290927202A0927302B09274027E
:1028E00080926D0290926E02A0926F02B09270027E
:1028F000609365027093660280936702909368020A
:102900006093610270936202809363029093640209
:1029100018C62DA73EA74FA758AB0E942F0C2DA578
:102920003EA54FA558A9DC01CB01821B930BA40B3C
:10293000B50B80319742A105B10508F0A8C02090E1
:10294000790230907A0200917B0210917C02920110
:10295000A301B101C8010E94E020181614F0120171
:102960008301C101D8018093790290937A02A093E8
:102970007B02B0937C0220907D0230907E02009119
:102980007F02109180029201A301B101C8010E944F
:10299000B31D87FD02C012018301C101D8018093DC
:1029A0007D0290937E02A0937F02B093800260909C
:1029B0006D0270906E0200916F021091700294018E
:1029C000A501B301C8010E94E020181614F03401DB
:1029D0008501C301D80180936D0290936E02A0938C
:1029E0006F02B09370026090710270907202009159
:1029F0007302109174029401A501B301C8010E94F1
:102A0000B31D87FD02C034018501C301D801809345
:102A1000710290937202A0937302B0937402A0901B
:102A20006502B090660200916702109168029601FB
:102A3000A701B501C8010E94B31D87FD02C0560160
:102A40008701C501D8018093650290936602A09327
:102A50006702B0936802A0906102B0906202009198
:102A60006302109164029601A701B501C8010E949A
:102A7000E020181614F056018701C501D801809393
:102A8000610290936202A0936302B093640280910A
:102A9000790290917A02A0917B02B0917C028D83A1
:102AA0009E83AF83B887209181023091820240914A
:102AB0008302509184022D873E874F87588B8091E7
:102AC0007D0290917E02A0917F02B09180028D8F55
:102AD0009E8FAF8FB8A31F921F921F921F928D805F
:102AE0009E80AF80B884CD84DE84EF84F8880D8D1D
:102AF0001E8D2F8D38A140E050E060E87FE389A96A
:102B00009AA90E94F70C0F900F900F900F902B0135
:102B10003C0160939F017093A0018093A101909369
:102B2000A20120916D0230916E0240916F0250918E
:102B3000700229A33AA34BA35CA3809175029091E4
:102B40007602A0917702B09178028DA39EA3AFA3E5
:102B5000B8A7209171023091720240917302509196
:102B6000740229A73AA74BA75CA71F921F921F9236
:102B70001F9289A09AA0ABA0BCA0CDA0DEA0EFA020
:102B8000F8A409A51AA52BA53CA540E050E060E8F3
:102B90007FE389859A850E94F70C0F900F900F9024
:102BA0000F9069837A838B839C8360939B017093DE
:102BB0009C0180939D0190939E011F921F921F92F2
:102BC0001F928D809E80AF80B884CD84DE84EF8498
:102BD000F8880D8D1E8D2F8D38A140E050E060ECFF
:102BE00070E489A99AA90E94F70C0F900F900F909A
:102BF0000F906D837E838F83988760939701709386
:102C000098018093990190939A011F921F921F92AD
:102C10001F9289A09AA0ABA0BCA0CDA0DEA0EFA07F
:102C2000F8A409A51AA52BA53CA540E050E060EC4E
:102C300070E489859A850E94F70C0F900F900F9091
:102C40000F904B015C01609393017093940180930A
:102C500095019093960120E030E0A901C301B201F3
:102C60000E94E02018165CF420E030E040E85FE3CA
:102C7000C301B2010E94B31D87FF1BC00AC020E040
:102C800030E040E85FEBC301B2010E94E02018167B
:102C900084F420E030E0A901C301B2010E94E020E9
:102CA0007301620118165CF0F7FAF094F7F8F094EB
:102CB00006C0C12CD12C30E8E32E3FE3F32EA70150
:102CC000960160E070E080E89FE30E94321F2D8152
:102CD0003E814F8158850E94191E69877A878B87AC
:102CE0009C87A3019201C701B6010E94191E9B0196
:102CF000AC0169857A858B859C850E94331F698725
:102D00007A878B879C8720E030E0A90169817A81EE
:102D10008B819C810E94E02018168CF420E030E02A
:102D200040E85FE369817A818B819C810E94B31DB9
:102D300087FF44C4C980DA80EB80FC801BC020E0A0
:102D400030E040E85FEB69817A818B819C810E9451
:102D5000E02018164CF4C980DA80EB80FC80F7FA8A
:102D6000F094F7F8F09406C0C12CD12C20E8E22EA4
:102D70002FE3F22EA701960160E070E080E89FE368
:102D80000E94321FA50194010E94191E4B015C0193
:102D900029813A814B815C81C701B6010E94191ECD
:102DA0009B01AC01C501B4010E94331F4B015C01C2
:102DB00020E030E040E05FE3C301B2010E94191E51
:102DC0006B017C0120E030E0A90169817A818B816F
:102DD0009C810E94E02029813A814B815C811816F8
:102DE0000CF05058C701B6010E94191E9B01AC019E
:102DF00069857A858B859C850E94331F6D837E83D0
:102E00008F8398876093BB017093BC018093BD0151
:102E10009093BE0120E030E040E05FE369817A8179
:102E20008B819C810E94191E6B017C0120E030E0A7
:102E3000A901C301B2010E94E020181624F077FA1C
:102E4000709477F87094A3019201C701B6010E94B3
:102E5000191E9B01AC01C501B4010E94331F6D878F
:102E60007E878F87988B6093B7017093B8018093AA
:102E7000B9019093BA018090610290906202A09093
:102E80006302B0906402C0906902D0906A02E09040
:102E90006B02F0906C020091650210916602209125
:102EA0006702309168024DE34F935CE45F936CECF2
:102EB0006F938DEC8F9340E050E060E870E4898977
:102EC0009A890E94F70C0F900F900F900F909B0122
:102ED000AC01505829873A874B875C872093B30110
:102EE0003093B4014093B5015093B601C12C80ECEE
:102EF000D82E88E4E82E84E4F82E00E010E02AE8DA
:102F000033E440E050E060EC7FE38D899E890E94CD
:102F10008B0469837A838B839C836093AF01709366
:102F2000B0018093B1019093B201C12C90ECD92EE5
:102F30009FE7E92E94E4F92E00E010E020E931E467
:102F400040E050E060E87FE3898D9A8D0E948B0419
:102F5000698B7A8B8B8B9C8B6093AB017093AC01EC
:102F60008093AD019093AE0100E010E020E931E4E0
:102F700040E050E060E87FE38B8D9C8D0E948B04E5
:102F80006D8B7E8B8F8B988F6093A7017093A801B8
:102F90008093A9019093AA0180908F019090900155
:102FA000A0909101B090920140908B0150908C01C3
:102FB00060908D0170908E01A50194016D817E81DC
:102FC0008F8198850E94191E6B017C01A3019201DB
:102FD0006D857E858F8598890E94191E9B01AC01A5
:102FE000C701B6010E94331F6B017C01609387010A
:102FF000709388018093890190938A016D817E810D
:103000008F8198859058A30192010E94191E2B016F
:103010003C01A50194016D857E858F8598890E946C
:10302000191E9B01AC01C301B2010E94331F4B0169
:103030005C01609383017093840180938501909378
:10304000860120E030E040E05FE360917F01709115
:10305000800180918101909182010E94191E2B01B3
:103060003C0120E030E040E05FE3C701B6010E9490
:10307000191E9B01AC01C301B2010E94331F2B0139
:103080003C0160937F017093800180938101909354
:10309000820120E030E040E05FE360917B017091CD
:1030A0007C0180917D0190917E010E94191E6B012F
:1030B0007C0120E030E040E05FE3C501B4010E9404
:1030C000191E9B01AC01C701B6010E94331F6B01A1
:1030D0007C0160937B0170937C0180937D019093D0
:1030E0007E0120E030E040E05FE360917701709185
:1030F00078018091790190917A010E94191E4B010B
:103100005C0120E030E040E05FE369857A858B85F3
:103110009C850E94191E9B01AC01C501B4010E944F
:10312000331F4B015C0160937701709378018093AA
:10313000790190937A0120E030E040E856E4C30141
:10314000B2010E94191E0E94832070938602609330
:1031500085028091A10281110E94A60220E030E048
:1031600040E856E4C701B6010E94191E0E94832060
:1031700070938802609387028091A10281110E945E
:10318000A60220E030E040E856E4C501B4010E9408
:10319000191E0E94832070938A0260938902809195
:1031A000A10281110E94A60220E030E040E05FE32E
:1031B0006091730170917401809175019091760115
:1031C0000E94191E4B015C0120E030E040E856E40B
:1031D00069897A898B899C890E94191E20E030E0D8
:1031E00040E05FE30E94191E9B01AC01C501B401E0
:1031F0000E94331F4B015C01609373017093740153
:10320000809375019093760120E030E040E05FE329
:1032100060916F01709170018091710190917201C4
:103220000E94191E6D837E838F83988720E030E093
:1032300040E856E46D897E898F89988D0E94191E19
:1032400020E030E040E05FE30E94191E9B01AC01EA
:103250006D817E818F8198850E94331F6D837E836F
:103260008F83988760936F017093700180937101D1
:1032700090937201C501B4010E94832070938C0267
:1032800060938B028091A10281110E94A6026D8140
:103290007E818F8198850E94832070938E02609337
:1032A0008D028091A10281110E94A60220E030E0EF
:1032B00040E856E469817A818B819C810E94191EC5
:1032C0000E9483207093900260938F028091A102EC
:1032D00081110E94A60220E030E0A90169817A8173
:1032E0008B819C810E94E0201816BCF480916E01B5
:1032F000811182C131E030936E010E942F0CDC01FC
:10330000CB018C599F4FAF4FBF4F80936A01909371
:103310006B01A0936C01B0936D0120E030E0A90136
:1033200069817A818B819C810E94B31D87FF16C0C1
:1033300080916E01882391F010926E010E942F0CF3
:10334000DC01CB018C599F4FAF4FBF4F80936A0177
:1033500090936B01A0936C01B0936D0180906A0112
:1033600090906B01A0906C01B0906D010E942F0CA9
:1033700021E0681579058A059B0508F020E0622F99
:103380008AE20E94900526E636E646E65FEB698112
:103390007A818B819C810E94B31D682F661F6627EE
:1033A000661F8BE20E94900511E026E636E646E6AF
:1033B0005FE369817A818B819C810E94E0201816ED
:1033C0000CF010E0612F8CE20E9490052DEC3CEC9B
:1033D0004CE45FEB69857A858B859C850E94B31DE3
:1033E000682F661F6627661F81E30E94900511E023
:1033F0002DEC3CEC4CE45FE369857A858B859C85FC
:103400000E94E02018160CF010E0612F82E30E9469
:10341000900520E030E0A901C301B2010E94E02044
:1034200018165CF420E030E040E05FE3C301B20135
:103430000E94E02018164CF10AC020E030E040E085
:103440005FEBC301B2010E94B31D87FD1EC020E0E7
:1034500030E0A901C701B6010E94E02018165CF413
:1034600020E030E040E05FE3C701B6010E94E020C9
:1034700018165CF028C020E030E040E05FEBC701A8
:10348000B6010E94B31D87FF1EC0A3019201C701B0
:10349000B6010E94B21F21EE3EE245E652E40E94D0
:1034A000191E20E030E041EE52E40E94331F609389
:1034B00066017093670180936801909369010E948F
:1034C0008320CB0102C08FEF9FEF0E9496056BE037
:1034D00070E081E090E00E942D02892B91F56DE073
:1034E00070E081E090E00E942D02892B51F56CE0A4
:1034F00070E081E090E00E942D02892B11F56EE0D2
:1035000070E081E090E00E942D02892BD1F467E009
:1035100070E082E090E00E942D02892B51F40E941D
:103520002F0C6093A3017093A4018093A501909345
:10353000A6016DE070E082E090E00E942D02892BF0
:1035400021F161E170E080E090E00E94F50B40E045
:1035500050E0452B11F40C94CB100E9400000C9409
:10356000CB108CE10E9442048BE10E944204109235
:103570006001109261011092620110926301109239
:103580006501109264010C9496126FE070E082E085
:1035900090E00E942D0221E0892B09F020E0209389
:1035A00000016EE070E082E090E00E942D0221E0D8
:1035B000892B09F020E020930101C3CF20E030E007
:1035C000A901C501B4010E94191E29813A814B81CC
:1035D0005C810E94331F4B015C0120E030E040E041
:1035E0005FE3C301B2010E94191E6B017C012981B6
:1035F0003A814B815C81F6CB20E030E0A901698102
:103600007A818B819C810E94B31D87FFA7CE94CEC7
:10361000EF92FF920F931F93CF93DF93CDB7DEB757
:10362000C659D1090FB6F894DEBF0FBECDBF1092B8
:10363000CC011092CB0188EE93E0A0E0B0E0809343
:10364000CD019093CE01A093CF01B093D0018FE232
:1036500091E09093CA018093C9018FEF9FEF9093FF
:10366000D6018093D50110921F0210922002109271
:103670002102109222021092230210922402109230
:103680002502109226021092270210922802109210
:10369000290210922A0210922B0210922C021092F0
:1036A0002D0210922E0282E090E09093D602809339
:1036B000D50284E090E09093D8028093D70286E010
:1036C00090E09093DA028093D90287E090E09093A3
:1036D000DC028093DB0288E090E09093DE0280932E
:1036E000DD028AE090E09093E0028093DF028BE0BD
:1036F00090E09093E2028093E1028CE090E090935E
:10370000E4028093E30282E190E09093E6028093EA
:10371000E50283E190E09093E8028093E70284E180
:1037200090E09093EA028093E90261E082E00E94D7
:10373000B90B61E08091D7020E94B90B61E08091E2
:10374000D9020E94B90B61E08091DB020E94B90BA3
:1037500061E08091DD020E94B90B60E08091DD02A2
:103760000E94890B61E08091DF020E94B90B61E049
:103770008091E1020E94B90B61E08091E3020E9416
:10378000B90B1092A00210929F021092A302109205
:10379000A8021092A7028FEF93E09093AA02809361
:1037A000A9021092AC021092AB029093AE028093E9
:1037B000AD021092B0021092AF029093B2028093C9
:1037C000B1021092B4021092B3029093B6028093A9
:1037D000B5021092B8021092B7029093BA02809389
:1037E000B9021092BC021092BB029093BE02809369
:1037F000BD021092C0021092BF029093C202809349
:10380000C1021092C4021092C3029093C602809328
:10381000C5021092C8021092C7029093CA02809308
:10382000C9021092CC021092CB029093CE028093E8
:10383000CD021092D0021092CF029093D2028093C8
:10384000D10273E07093D30224E32093A20210927A
:10385000A4028FE38093A5021092A60265E069831B
:1038600091E09A8389E08B83A4E0AC83F1EAFD8345
:103870009E8335E83F83788769878A8739E13B876C
:103880009C8739E23D872E8735E13F87188A35E2EC
:10389000398B9A8B55E75B8B9C8B45E94D8B2E8B37
:1038A00035E53F8B188E35E6398F1A8E31E83B8F20
:1038B000E2E0EC8F5D8F9E8F4F8FA8A339A37AA390
:1038C0006BA39CA38DA39EA366E16FA398A790E82A
:1038D00099A796E29AA79FEF9BA79FE79CA75DA752
:1038E00090E19EA74FA796E098ABF9AB1AAA8BABD5
:1038F00090E39CAB8DAB91E39EAB8FAB92E398AF23
:1039000089AF93E39AAF8BAF2CAF8DAF85E38EAFCA
:103910003FAF2196EFAF219780EC22968FAF229791
:1039200023968FAF239782E490E00E9475227C015A
:1039300082E4FE013196D70101900D928A95E1F75C
:1039400087E090E00E9475228C01DC0111961C92A8
:103950001E921396FC92EE92129782E490E01596D6
:103960009C938E93149716961C920E94850CFC01D2
:10397000A385B485109719F41487038709C08D9126
:103980009C911197009711F0DC01F9CF0D931C93D6
:1039900025853685D80114968D919C911597820FB7
:1039A000931F968785879091A202892F8695869589
:1039B0008695977009F08F5F8093A3021091A30200
:1039C000812F90E00E9475229093A00280939F0225
:1039D000145F81E09091A402911101C080E0810FF9
:1039E0008093D4021092860210928502109288026F
:1039F0001092870210928A021092890210928C0211
:103A000010928B0210928E0210928D0210929002F0
:103A100010928F02109292021092910210929402D0
:103A200010929302109296021092950210929802B0
:103A30001092970210929A02109299028FEF9FEFC4
:103A400090939C0280939B0290939E0280939D0290
:103A500080E090E02091A30230E0821793074CF4BD
:103A6000E0919F02F091A002E80FF91F10820196E9
:103A7000F1CF80E090ECA3E4B4E4809379029093DA
:103A80007A02A0937B02B0937C0280E090E0A7EDE5
:103A9000B3E480937D0290937E02A0937F02B09363
:103AA000800280E090EAA7E1B4E4809381029093E1
:103AB0008202A0938302B093840280E090E8A7E49E
:103AC000B4E480936D0290936E02A0936F02B09362
:103AD000700280E090ECA0E0B4E4809371029093D7
:103AE0007202A0937302B093740280E090E2A4E2A9
:103AF000B4E48093750290937602A0937702B0931A
:103B0000780280E090E0A0EFB2E4809361029093AD
:103B10006202A0936302B093640280E090E0A0E4AC
:103B2000B3E48093650290936602A0936702B0931A
:103B3000680280E090E0ACE1B3E480936902909386
:103B40006A02A0936B02B0936C02CA56DF4F0FB6A5
:103B5000F894DEBF0FBECDBFDF91CF911F910F91C3
:103B6000FF90EF9008950E94F51D08F481E00895FC
:103B7000E89409C097FB3EF4909580957095619507
:103B80007F4F8F4F9F4F9923A9F0F92F96E9BB27BD
:103B90009395F695879577956795B795F111F8CF39
:103BA000FAF4BB0F11F460FF1BC06F5F7F4F8F4FA4
:103BB0009F4F16C0882311F096E911C0772321F09A
:103BC0009EE8872F762F05C0662371F096E8862F32
:103BD00070E060E02AF09A95660F771F881FDAF789
:103BE000880F9695879597F90895990F0008550FB6
:103BF000AA0BE0E8FEEF16161706E807F907C0F073
:103C000012161306E407F50798F0621B730B840B7A
:103C1000950B39F40A2661F0232B242B252B21F454
:103C200008950A2609F4A140A6958FEF811D811DF4
:103C300008950E942C1E0C949D1E0E948F1E38F029
:103C40000E94961E20F0952311F00C94861E0C9471
:103C50008C1E11240C94D11E0E94AE1E70F3959FF1
:103C6000C1F3950F50E0551F629FF001729FBB2773
:103C7000F00DB11D639FAA27F00DB11DAA1F649F0F
:103C80006627B00DA11D661F829F2227B00DA11DC2
:103C9000621F739FB00DA11D621F839FA00D611D48
:103CA000221F749F3327A00D611D231F849F600D69
:103CB000211D822F762F6A2F11249F5750409AF092
:103CC000F1F088234AF0EE0FFF1FBB1F661F771F1E
:103CD000881F91505040A9F79E3F510580F00C94E9
:103CE000861E0C94D11E5F3FE4F3983ED4F3869574
:103CF00077956795B795F795E7959F5FC1F7FE2B89
:103D0000880F911D9695879597F9089597F99F6764
:103D100080E870E060E008959FEF80EC0895002453
:103D20000A941616170618060906089500240A9420
:103D300012161306140605060895092E0394000CA6
:103D400011F4882352F0BB0F40F4BF2B11F460FF35
:103D500004C06F5F7F4F8F4F9F4F089557FD90585E
:103D6000440F551F59F05F3F71F04795880F97FB3F
:103D7000991F61F09F3F79F08795089512161306F9
:103D80001406551FF2CF4695F1DF08C01616170628
:103D90001806991FF1CF869571056105089408955D
:103DA000E894BB2766277727CB0197F90895A1E20E
:103DB0001A2EAA1BBB1BFD010DC0AA1FBB1FEE1FA5
:103DC000FF1FA217B307E407F50720F0A21BB30BF0
:103DD000E40BF50B661F771F881F991F1A9469F76C
:103DE00060957095809590959B01AC01BD01CF01C8
:103DF0000895052E97FB1EF400940E94101F57FD96
:103E000007D00E94D71E07FC03D04EF40C94101F5D
:103E100050954095309521953F4F4F4F5F4F0895F6
:103E200090958095709561957F4F8F4F9F4F089526
:103E30000E94231FA59F900DB49F900DA49F800DFD
:103E4000911D11240895A29FB001B39FC001A39FAB
:103E5000700D811D1124911DB29F700D811D1124C3
:103E6000911D08955058BB27AA270E944A1F0C9401
:103E70009D1E0E948F1E38F00E94961E20F039F47D
:103E80009F3F19F426F40C948C1E0EF4E095E7FB8A
:103E90000C94861EE92F0E94AE1E58F3BA176207D3
:103EA00073078407950720F079F4A6F50C94D01ECB
:103EB0000EF4E0950B2EBA2FA02D0B01B901900145
:103EC0000C01CA01A0011124FF27591B99F0593F89
:103ED00050F4503E68F11A16F040A22F232F342FD1
:103EE0004427585FF3CF469537952795A795F0401F
:103EF0005395C9F77EF41F16BA0B620B730B840B34
:103F0000BAF09150A1F0FF0FBB1F661F771F881FEB
:103F1000C2F70EC0BA0F621F731F841F48F4879543
:103F200077956795B795F7959E3F08F0B0CF939535
:103F3000880F08F09927EE0F9795879508950E94AE
:103F40008F1E60F080E891E009F49EEF0E94961EBB
:103F500028F040E851E071F45EEF0CC00C948C1E28
:103F60000C94D01EE92FE0780E94AE1E40F3092E7B
:103F7000052AB1F3261737074807590738F00E2EE0
:103F800007F8E02569F0E025E0640AC0EF6307F870
:103F9000009407FADB01B9019D01DC01CA01AD0102
:103FA000EF930E9428200E949D1E0E94E21F5F91B5
:103FB000552339F02BED3FE049E450FD49EC0C94DA
:103FC000331F0895DF93DD27B92FBF7740E85FE304
:103FD0001616170648075B0718F4D92F0E94E5202C
:103FE0009F938F937F936F930E943D21EAECF0E0C3
:103FF0000E94B9200E949D1E2F913F914F915F9189
:104000000E942C1EDD2351F09058A2EA2AED3FE0D9
:1040100049EC5FE3D0785D270E944A1FDF910C9442
:104020009D1E0E9425200C949D1E0E94961E58F0F5
:104030000E948F1E40F029F45F3F29F00C94861EE9
:1040400051110C94D11E0C948C1E0E94AE1E68F36C
:104050009923B1F3552391F3951B550BBB27AA2741
:1040600062177307840738F09F5F5F4F220F331F7B
:10407000441FAA1FA9F335D00E2E3AF0E0E832D043
:1040800091505040E695001CCAF72BD0FE2F29D046
:10409000660F771F881FBB1F261737074807AB0718
:1040A000B0E809F0BB0B802DBF01FF2793585F4F8D
:1040B0003AF09E3F510578F00C94861E0C94D11E68
:1040C0005F3FE4F3983ED4F3869577956795B7956F
:1040D000F7959F5FC9F7880F911D9695879597F97A
:1040E0000895E1E0660F771F881FBB1F62177307F3
:1040F0008407BA0720F0621B730B840BBA0BEE1F08
:1041000088F7E09508950E948A206894B1110C9474
:10411000D11E08950E94B61E88F09F5798F0B92FBF
:104120009927B751B0F0E1F0660F771F881F991FEC
:104130001AF0BA95C9F714C0B13091F00E94D01EA0
:10414000B1E008950C94D01E672F782F8827B85FB0
:1041500039F0B93FCCF3869577956795B395D9F744
:104160003EF490958095709561957F4F8F4F9F4F4E
:104170000895DF93CF931F930F93FF92EF92DF92F7
:104180007B018C01689406C0DA2EEF010E942C1E80
:10419000FE01E894A5912591359145915591A6F39D
:1041A000EF010E944A1FFE019701A801DA9469F706
:1041B000DF90EF90FF900F911F91CF91DF910895C5
:1041C0000E94F51D08F48FEF08959B01AC0160E09B
:1041D00070E080E89FE30C941120FA01EE0FFF1FBE
:1041E000309621053105A1F16115710561F4803822
:1041F000BFE39B0749F168949038810561F08038EE
:10420000BFEF9B0741F099234AF5FF3FE1053105D8
:10421000210519F1E8940894E795D901AA2329F416
:10422000AB2FBE2FF85FD0F310C0FF5F70F4A695E0
:10423000E0F7F73950F019F0FF3A38F49F779F9381
:104240000DD00F9007FC9058089546F00C948C1EEA
:1042500060E070E080E89FE308954FE79F775F9309
:104260004F933F932F930E94BD212F913F914F91E8
:104270005F910E94191E0C9449219B01AC010C9482
:10428000191E29F416F00C94861E0C94D01E0C9462
:104290008C1E0E94B61EA8F39638A0F707F80F925E
:1042A000E8942BE33AEA48EB5FE70E942F1E0F9257
:1042B0000F920F924DB75EB70F920E940522E7EF63
:1042C000F0E00E94B9204F915F91EF91FF91E59549
:1042D000EE1FFF1F49F0FE57E0684427EE0F441F12
:1042E000FA95E1F74195550B0E947F210F9007FE4B
:1042F0000C94E52008950C94861E0C9439220E949B
:10430000B61ED8F39923C9F3940F511DA3F391500E
:10431000504094F059F0882332F0660F771F881FC1
:1043200091505040C1F79E3F51052CF7880F911DC9
:104330009695879597F908955F3FACF0983E9CF06D
:10434000BB27869577956795B79508F4B1609395E7
:10435000C1F7BB0F58F711F460FFE8CF6F5F7F4FD5
:104360008F4F9F4FE3CF0C94D11E16F00C9439223F
:104370000C948C1E68940C94861E0E94B61EA8F3A2
:104380009923C1F3AEF3DF93CF931F930F93FF9263
:10439000C92FDD2788232AF02197660F771F881FF2
:1043A000DAF720E030E040E85FEB9FE3883920F067
:1043B000803E38F021968F770E94331FEFE1F1E0C5
:1043C00004C00E94331FECE4F1E00E94B9208B018D
:1043D000BE01EC01FB2E6F5771097595771F880B95
:1043E000990B0E94BA1D28E132E741E35FE30E9486
:1043F0002C1EAF2D9801AE01FF900F911F91CF9110
:10440000DF910E944A1F0C949D1EFA01DC01AA0F45
:10441000BB1F9B01AC01BF5728F422273327442739
:10442000507820C0B75190F4AB2F002446953795B3
:104430002795011CA395D2F3002071F0220F331FA2
:10444000441FB395DAF30ED00C94321F613071051E
:10445000A0E88A07B94630F49B01AC0166277727AC
:1044600088279078309621F02083318342835383CC
:1044700008959F3F31F0915020F487957795679587
:10448000B795880F911D9695879597F9089597FB95
:10449000072E16F4009407D077FD09D00E94612200
:1044A00007FC05D03EF4909581959F4F0895709537
:1044B00061957F4F0895EE0FFF1F0590F491E02D59
:1044C0000994AA1BBB1B51E107C0AA1FBB1FA6175B
:1044D000B70710F0A61BB70B881F991F5A95A9F7AD
:1044E00080959095BC01CD010895CF93DF938230E4
:1044F000910510F482E090E0E0913303F0913403F1
:1045000020E030E0C0E0D0E0309711F140815181EF
:1045100048175907C0F04817590761F48281938101
:10452000209719F09B838A832BC090933403809348
:10453000330326C02115310519F04217530718F42B
:104540009A01BE01DF01EF010280F381E02DDCCF93
:104550002115310509F1281B390B2430310590F460
:1045600012968D919C9113976115710521F0FB01B5
:104570009383828304C09093340380933303FD01BB
:10458000329644C0FD01E20FF31F819391932250B4
:1045900031092D933C933AC020913103309132037D
:1045A000232B41F4209117013091180130933203ED
:1045B0002093310320911501309116012115310509
:1045C00041F42DB73EB74091190150911A01241BB7
:1045D000350BE0913103F0913203E217F307A0F4B9
:1045E0002E1B3F0B2817390778F0AC014E5F5F4F49
:1045F0002417350748F04E0F5F1F50933203409346
:1046000031038193919302C0E0E0F0E0CF01DF91AC
:10461000CF9108950F931F93CF93DF93009709F4E1
:104620008CC0FC01329713821282009133031091E7
:1046300034030115110581F420813181820F931F0C
:1046400020913103309132032817390779F5F0931F
:104650003203E093310371C0D80140E050E0AE175F
:10466000BF0750F412962D913C911397AD0121157F
:10467000310509F1D901F3CF9D01DA01338322839A
:1046800060817181860F971F8217930769F4EC018F
:1046900028813981260F371F2E5F3F4F31832083BA
:1046A0008A819B8193838283452B29F4F093340381
:1046B000E093330342C01396FC93EE931297ED01FF
:1046C000499159919E01240F351FE217F30771F4A8
:1046D00080819181840F951F029611969C938E93F1
:1046E0008281938113969C938E931297E0E0F0E081
:1046F000D80112968D919C911397009719F0F801AB
:104700008C01F6CF8D919C9198012E5F3F4F820FC7
:10471000931F20913103309132032817390769F430
:10472000309729F4109234031092330302C013829D
:1047300012821093320300933103DF91CF911F91C6
:104740000F91089581E090E0F8940C94B023FB0160
:10475000DC0102C001900D9241505040D8F70895FD
:04476000F894FFCFFB
:10476400010100C18081000000FFFFFFFF00E100A4
:10477400000000000000003503800000FF0100017C
:104784000000FFFF0000010001FF00000000008B9B
:1047940009760A8C0AA109AC09910AAF0A00000043
:1047A400002C0A180BD50A530A564D4450565F3153
:0C47B4007C315F564D4450560D0A000049
:00000001FF
