:100000000C949A010C94C2010C94C2010C94C2018C
:100010000C94C2010C94C2010C94C2010C94C20154
:100020000C94C2010C94C2010C946E080C94360A14
:100030000C94C2010C94C2010C94C2010C94C20134
:100040000C94C2010C94C2010C94C2010C94C20124
:100050000C94C2010C94C2010C94C2010C9464056E
:100060000C94C2010C94C2010C94C2010C94C20104
:100070000C94C2010C94C2010C94C2010C94C201F4
:100080000C94C2010C94C2010C94C2010C94C201E4
:100090000C94C2010C94C2010C94C2010C94C201D4
:1000A0000C94C2010C94C2010C94C20117021A02F2
:1000B00009020D0213023B023B023B021E02220216
:1000C00026022C0230023B023602084AD73B3BCEC6
:1000D000016E84BCBFFDC12F3D6C74319ABD568347
:1000E0003DDA3D00C77F11BED9E4BB4C3E916BAAFF
:1000F000AABE000000803F07634236B79BD8A71A0C
:1001000039685618AEBAAB558C1D3CB7CC5763BD99
:100110006DEDFD753EF6177231BF000000803F089F
:10012000000000BE922449123EABAAAA2ABECDCC42
:10013000CC4C3E00000080BEABAAAAAA3E00000044
:1001400000BF000000803F0000000000084178D39D
:10015000BB4387D1133D190E3CC3BD4282AD2B3E3C
:1001600068EC8276BED98FE1A93E4C80EFFFBE01DC
:10017000C4FF7F3F000000000000000000000000FE
:1001800000002A2B280000000000000000000000F2
:10019000000000000000000000002C9EB4A0A1A2FE
:1001A000A434A6A7A5AE362D3738271E1F2021223E
:1001B00023242526B333B62EB7B89F848586878837
:1001C000898A8B8C8D8E8F90919293949596979827
:1001D000999A9B9C9D2F3130A3AD350405060708E5
:1001E000090A0B0C0D0E0F10111213141516171807
:1001F000191A1B1C1DAFB1B0B5000000000024008F
:1002000027002A002D0030000000000025002800F3
:100210002B002E00310000000000230026002900E2
:100220002C002F000404040404030405020202024B
:10023000040302020202060606060606040402027F
:100240000204040408020110408040102040804055
:10025000800802040180402010020110801020401C
:1002600040200000000200090F0000030401000C00
:10027000000000000000000000000000000000007E
:1002800000080B0002020201000904000001020242
:1002900000000524001001052401010104240206C8
:1002A0000524060001070581031000400904010030
:1002B000020A000000070502024000000705830251
:1002C0004000000403090412010002EF0201404152
:1002D00023368000010102030141726475696E6F6B
:1002E000204C4C430041726475696E6F204C656F01
:1002F0006E6172646F00070605040100080A0B0CAA
:100300000D0905010906A1018502050719E029E784
:100310001500250175019508810295017508810375
:1003200095067508150025730507190029738100C6
:10033000C000861E11241FBECFEFDAE0DEBFCDBFA6
:1003400011E0A0E0B1E0E6EEFEE402C005900D92FF
:10035000A639B107D9F723E0A6E9B1E001C01D92A3
:10036000AB38B207E1F711E0CAE9D1E004C0219748
:10037000FE010E942826C939D107C9F70E947A11C7
:100380000C9471270C940000CF93DF931F92CDB78C
:10039000DEB76983DC01ED91FC910280F381E02DF1
:1003A00041E050E0BE016F5F7F4F09950F90DF91F4
:1003B000CF91089583E08093E9008091F200882333
:1003C00019F08AE38093E8000895FC0184859585FF
:1003D00097FD0BC09FB7F89482E08093E90080916D
:1003E000F2009FBF90E0019608959FB7F89482E0D5
:1003F0008093E9008091F2009FBF90E0089590E023
:10040000FC013197EF30F105B0F5EA5AFF4F0C943B
:100410002826809180008F7703C0809180008F7D97
:1004200080938000089580918000877FF9CF84B504
:100430008F7702C084B58F7D84BD08958091900030
:100440008F7707C0809190008F7D03C080919000CE
:10045000877F8093900008958091C0008F7703C0BC
:100460008091C0008F7D8093C00008958091C2006C
:10047000877F8093C20008953FB7F89480910C0263
:1004800090910D02A0910E02B0910F0226B5A89B8B
:1004900005C02F3F19F00196A11DB11D3FBFBA2F16
:1004A000A92F982F8827820F911DA11DB11DBC0176
:1004B000CD0142E0660F771F881F991F4A95D1F73B
:1004C0000895DC01FB0191818081813A31F481E062
:1004D000913091F0933089F411C0813271F49B30E6
:1004E00021F482811F968C9305C09A3031F4828169
:1004F00050968C9381E00895089580E00895FC0162
:10050000228130E0FB01448155812417350711F425
:100510000C94610280E00895DC01FB0188E4808393
:1005200089E4818384E482831D969C911D979F704A
:100530009F5B93831D968D919C911E9724E09695C9
:1005400087952A95E1F78F708F5B848385E0089506
:10055000CF92DF92EF92FF920F931F93CF93DF938F
:100560006C01EB017B01E40EF51E00E010E0CE15FE
:10057000DF0581F069916D30D1F3D601ED91FC91E9
:100580000190F081E02DC6010995892B19F00F5FCC
:100590001F4FEDCFC801DF91CF911F910F91FF90B9
:1005A000EF90DF90CF900895089580E090E0089557
:1005B000FC01228130E0FB0144815581241735077D
:1005C00011F40C94610280E00895FC0182818F5B3C
:1005D000FB01808381E00895CF93DF93EC0180914C
:1005E0001401882331F083E00E94180918161906B7
:1005F00034F081E090E09B838A8380E090E0DF919B
:10060000CF91089583E00E94070990E008950F9329
:100610001F93CF93DF931F92CDB7DEB78C01FC0100
:100620008485958597FF0EC0CE0101960E94120F1A
:10063000019719F4898190E002C08FEF9FEFF801D4
:1006400095878487F801848595850F90DF91CF91F8
:100650001F910F910895CF93DF931F92CDB7DEB70F
:10066000FC018485958597FD05C02FEF3FEF358709
:1006700024870BC0CE0101960E94120F019719F436
:10068000898190E002C08FEF9FEF0F90DF91CF91B3
:1006900008950E946327EF92FF920F931F93CF93C9
:1006A000DF93FB012081213851F52381223239F576
:1006B000DC0112962C9130E044815581421753079A
:1006C000F1F4EC010B851C85E12CF12C01151105D1
:1006D00091F0F801448155816281738180E80E9424
:1006E000E0088F3FFFEF9F0769F0E80EF91ED80181
:1006F0000D911C91EBCF81E08F87C70105C080E091
:1007000090E002C08FEF9FEFDF91CF911F910F918B
:10071000FF90EF900895CF93DF93CDB7DEB7699741
:100720000FB6F894DEBF0FBECDBFFC01DB018C918C
:100730008F5F8C93BE016F5F7F4F89E1DB011D925C
:100740008A95E9F729E0298384E08A8391E09D83F3
:1007500083E08E832A8721E22B879C879D879F8752
:1007600022E2288B27E02B8B25E02C8B8E8B20E43C
:1007700030E0388F2F8B998F82818B83958586858A
:10078000998B8A8B838180688D8B49E150E080E072
:100790000E94E00869960FB6F894DEBF0FBECDBF89
:1007A000DF91CF910895EF92FF920F931F93CF9314
:1007B000DF93FB012081213869F52381223251F535
:1007C000DC0112962C9130E0448155814217530789
:1007D00009F58C01FC01C385D485E12CF12C20970F
:1007E00099F04C815D816A817B818E81811180E8E5
:1007F0000E94E0088F3FFFEF9F0779F0E80EF91E97
:100800000990D881C02DEBCF81E0D8011F968C9341
:10081000C70105C080E090E002C08FEF9FEFDF913D
:10082000CF911F910F91FF90EF900895CF93DF9399
:10083000CDB7DEB769970FB6F894DEBF0FBECDBF58
:10084000FC01DB018C918F5F8C93BE016F5F7F4F4A
:1008500089E1DB011D928A95E9F729E0298384E08B
:100860008A8391E09D8383E08E832A8721E22B8710
:100870009C879D879F8722E2288B27E02B8B25E092
:100880002C8B8E8B20E430E0388F2F8B998F8281D8
:100890008B8395858685998B8A8B838180688D8BE8
:1008A00049E150E080E00E94E00869960FB6F894B4
:1008B000DEBF0FBECDBFDF91CF9108950F931F9381
:1008C000CF93DF931F92CDB7DEB78B018091CF021C
:1008D000811105C00E94420D81E08093CF0282E029
:1008E000898341E050E0BE016F5F7F4F8091C1027C
:1008F0000E94180997FD08C08091C10248E050E0AD
:10090000B80180640E9418090F90DF91CF911F9168
:100910000F910895CF93DF93282F30E0F901EE591E
:10092000FD4F8491F901ED5BFD4FD491F901EC5D30
:10093000FD4FC491CC2391F081110E94FF01EC2F57
:10094000F0E0EE0FFF1FEA5EFD4FA591B491EC9130
:10095000ED2381E090E021F480E002C080E090E0AF
:10096000DF91CF9108951F93CF93DF93282F30E02D
:10097000F901EE59FD4F8491F901ED5BFD4FD491E2
:10098000F901EC5DFD4FC491CC23C1F0162F81110C
:100990000E94FF01EC2FF0E0EE0FFF1FE85FFD4F1C
:1009A000A591B4919FB7F894111104C08C91D09582
:1009B000D82302C0EC91DE2BDC939FBFDF91CF9157
:1009C0001F910895CF93DF9390E0FC01ED5BFD4F05
:1009D0002491FC01EC5DFD4F8491882361F190E04E
:1009E000880F991FFC01E650FE4FC591D491FC0180
:1009F000E85FFD4FA591B491611109C09FB7F894CC
:100A00008881209582238883EC912E230BC062304D
:100A100061F49FB7F8948881322F309583238883BF
:100A2000EC912E2B2C939FBF06C08FB7F894E881D2
:100A30002E2B28838FBFDF91CF9108958F929F92A5
:100A4000AF92BF92CF92DF92EF92FF926B017C0147
:100A50000E943C024B015C01C114D104E104F10489
:100A6000F1F00E943C02DC01CB0188199909AA0926
:100A7000BB09883E9340A105B10570F321E0C21A7D
:100A8000D108E108F10888EE880E83E0981EA11CC9
:100A9000B11CC114D104E104F10419F7DDCFFF90BA
:100AA000EF90DF90CF90BF90AF909F908F90089580
:100AB0002FB7F894609108027091090280910A02A0
:100AC00090910B022FBF08951F920F920FB60F92B5
:100AD00011242F933F938F939F93AF93BF93809154
:100AE000080290910902A0910A02B0910B02309184
:100AF000070223E0230F2D3720F40196A11DB11D1D
:100B000005C026E8230F0296A11DB11D2093070200
:100B10008093080290930902A0930A02B0930B02FB
:100B200080910C0290910D02A0910E02B0910F02E3
:100B30000196A11DB11D80930C0290930D02A0930C
:100B40000E02B0930F02BF91AF919F918F913F9191
:100B50002F910F900FBE0F901F901895DC016838F1
:100B600010F0685825C0E62FF0E067FF12C0E0588B
:100B7000F10981E090E001C0880FEA95EAF78095DD
:100B800014969C911497892314968C93149760E083
:100B90000FC0E658FE4F64916623F9F067FF08C066
:100BA00014968C9114978D7F14968C9314976F776D
:100BB000FD0186E0662321F09681691301C016824B
:100BC000815031968111F6CFCD01BD016C5F7F4F11
:100BD0000E945E0481E090E0089580E090E0089536
:100BE000DC01683810F068582DC0E62FF0E067FF90
:100BF00011C0E058F10981E090E001C0880FEA954A
:100C0000EAF714969C911497892B14968C93149759
:100C100060E018C0E658FE4F6491611109C081E0A0
:100C200090E013969C938E93129780E090E0089545
:100C300067FF08C014968C911497826014968C9369
:100C400014976F7716968C911697681751F117962F
:100C50008C911797681729F118968C911897681737
:100C600001F119968C9119976817D9F01A968C9101
:100C70001A976817B1F01B968C911B97681789F02B
:100C8000FD01369680E090E02191211105C0FD0123
:100C9000E80FF91F668305C0019686309105A1F71C
:100CA000BECFCD01BD016C5F7F4F0E945E0481E02D
:100CB00090E00895EF92FF921F93CF93DF93EC01A2
:100CC000162F0E94F0057C01612FCE010E94AE0517
:100CD000C7019927DF91CF911F91FF90EF90089561
:100CE0008091FF01811137C081E08093F2018093F0
:100CF000F30128EF31E03093F5012093F4011092D5
:100D0000F7011092F6012FE231E03093EF012093CA
:100D1000EE011092FA011092F9011092FC0110926A
:100D2000FB018093FD018093FE0181EC8093F8012B
:100D30000E94F009FC0141812091F20130E0240F72
:100D4000311D2830310524F46EEE71E00E94B109A6
:100D500081E08093FF018EEE91E00895CF93C82F3C
:100D600080939A0190939B010E945805609396018D
:100D70007093970180939801909399016C2F87ED60
:100D800092E0CF910C94F0054F925F926F927F9218
:100D90008F929F92AF92BF92CF92DF92EF92FF928B
:100DA0000F931F93CF93DF93CDB7DEB728970FB67E
:100DB000F894DEBF0FBECDBF49835A836B837C831B
:100DC000280139018D829E82AF82B886BC01990FBD
:100DD000880B990B0E9487214B015C01A7019601AA
:100DE0000E948021882309F4C0C0A7019601C50193
:100DF000B4010E94802187FF1CC0A3019201C5019C
:100E0000B4010E94FF224B015C01A3019201C701C2
:100E1000B6010E94FF229B01AC01C501B4010E94F2
:100E2000DE2320E030E040E85FE30E94FF224B0138
:100E30005C01A7019601C501B4010E94AD241816FA
:100E4000ECF4A7019601C501B4010E94FF224B01F9
:100E50005C01A70196016D817E818F8198850E943A
:100E6000FF229B01AC01C501B4010E94DE2320E0FA
:100E700030E0A9010E9400234B015C0120E030E03A
:100E8000A901C501B4010E94AD24181624F0C501C2
:100E9000B401905802C0C501B40129813A814B8147
:100EA0005C810E94BA246B017C0120E030E0A90142
:100EB000C501B4010E94AD2418166CF020E030E0AA
:100EC000A901C501B4010E94802187FD09C060E02D
:100ED00070E0CB0109C060E070E080E89FE304C0EF
:100EE00060E070E080E89FEBA70196010E94E62198
:100EF0006B017C0120E030E040E85FEB0E94802144
:100F000087FD14C020E030E040E85FE3C701B60190
:100F10000E94AD241816A4F020E030E0A901C7011A
:100F2000B6010E94AD2418168CF006C0C12CD12C3D
:100F300090E8E92E9FEBF92EC701B601905808C042
:100F4000C12CD12C80E8E82E8FE3F82EC701B60122
:100F50002B8D3C8D4D8D5E8D0E94802187FD05C0BF
:100F60005C2D4D2D3E2D2F2D04C050E040E030E093
:100F700020E0652F742F832F922F28960FB6F894B8
:100F8000DEBF0FBECDBFDF91CF911F910F91FF90BC
:100F9000EF90DF90CF90BF90AF909F908F907F9019
:100FA0006F905F904F9008954091200250912102E0
:100FB00020911E0230911F0242175307B4F4909102
:100FC000E8009570E1F39091E80092FD19C08093DC
:100FD000F100809120029091210201968F73992750
:100FE000892B19F48EEF8093E80080912002909174
:100FF00021020196909321028093200281E00895BE
:1010000080E00895DF92EF92FF920F931F93CF93AA
:10101000DF93D82EF92EE42E062F10E0C80101969A
:10102000880F0E94D40783E00E94D407CD2DDF2DC6
:101030000C0F1D1FC017D10789F0E7FE03C0FE018A
:10104000849101C088810E94D407F82E80E00E941C
:10105000D4078F2121968111EDCF01C081E0DF916E
:10106000CF911F910F91FF90EF90DF900895615005
:1010700030F02091F100FC0120830196F8CF2898F0
:1010800084E6809324020895CF92DF92EF92FF923C
:101090000F931F93CF93DF936C017A018B01C0E014
:1010A000D0E0CE15DF0581F0D8016D918D01D6011C
:1010B000ED91FC910190F081E02DC6010995892BFD
:1010C00011F02196EECF7E01C701DF91CF911F91E4
:1010D0000F91FF90EF90DF90CF9008951F920F92A5
:1010E0000FB60F9211248F939F938091E1009091FE
:1010F000E100937F9093E10083FF0FC01092E9001D
:1011000091E09093EB001092EC0092E39093ED004D
:101110001092250298E09093F00082FF20C093E0A7
:101120009093E9009091F200992319F09AE390933B
:10113000E80090912302992339F090912302915075
:1011400090932302992389F190912402992339F0F5
:1011500090912402915090932402992341F184FFAD
:1011600010C08091E2008E7E81608093E2008091C9
:10117000E1008F7E8093E100809111028E7E80617C
:1011800011C080FF16C08091E2008E7E8061809346
:10119000E2008091E1008E7E8093E1008091110257
:1011A0008E7E81608093110204C05D9ACDCF289A13
:1011B000D6CF9F918F910F900FBE0F901F901895D3
:1011C000DF92EF92FF920F931F93CF93DF93D82E6E
:1011D0008A017B01E40EF51EEB01CE15DF0571F0EF
:1011E000D7FE03C0FE01849101C088810E94D4070C
:1011F00021968111F2CF8FEF9FEF01C0C801DF91DF
:10120000CF911F910F91FF90EF90DF9008952FB72E
:10121000F89487708093E9009091E800892F80729C
:1012200095FF04C09091F20080E4891B2FBF0895C0
:101230007F928F929F92AF92BF92CF92DF92EF9266
:10124000FF920F931F93CF93DF93C82E8B017A01E8
:1012500080912502811103C08FEF9FEF74C08091B0
:10126000110280FF05C08091E00082608093E00061
:10127000CE2DDF2DD12C8AEFB82E8C2D8770982E95
:101280008C2D8072882E8C2D8074782E9AE3A92E56
:10129000209719F4DD2009F451C08C2D0E94070914
:1012A00081110AC0BA94BB20B9F261E070E080E01D
:1012B00090E00E941E05ECCF282F30E0C217D30724
:1012C0000CF48C2F9FB7F8949092E9002091E800DD
:1012D00025FF32C0282F30E0C21BD30B882029F015
:1012E0008150A0F01092F100FBCFF801C7FE0AC0B8
:1012F000815050F044914093F1003196F9CF4191E3
:101300004093F1008150D8F7020F131FDD2019F030
:10131000A092E8000AC08091E80085FD08C0A09274
:10132000E800DD24D394209739F0D12C05C0209714
:1013300019F47110A092E8009FBFAACF5D9884E6CF
:1013400080932302C701DF91CF911F910F91FF90EE
:10135000EF90DF90CF90BF90AF909F908F907F9055
:101360000895CF93DF93FC01DB01C281D3812097E5
:1013700019F47383628308C088859985009711F0FA
:10138000EC01FACFB987A887808112968C931297C7
:10139000818113968C931397908115968C91159754
:1013A000890F808380E014969C9114978917A0F48C
:1013B0009181C92FD0E0AE014E5F5E4F16962D9100
:1013C0003C911797280F311DE9012881EA012883F4
:1013D0009F5F91838F5FE7CF81E0DF91CF91089589
:1013E0008091160281110DC082E08093120284E088
:1013F00080931302109215021092140281E08093E0
:10140000160282E192E008950F931F93CF93DF932A
:101410001F92CDB7DEB782E0898342E450E061E8F5
:1014200072E080E80E94E0080E94F009DC01129658
:101430000D911C9113970115110589F0D801ED91BB
:10144000FC910280F381E02DBE016F5F7F4FC801E8
:10145000099597FD04C0F80100851185ECCF8981BD
:101460000F90DF91CF911F910F9108951F920F92CE
:101470000FB60F921124CF92DF92EF92FF920F934B
:101480001F932F933F934F935F936F937F938F930C
:101490009F93AF93BF93EF93FF93CF93DF93CDB71A
:1014A000DEB76C97DEBFCDBF1092E9008091E800F7
:1014B00083FFFBC168E0CE0145960E94370882EFAA
:1014C0008093E8008D8987FF05C09091E80090FF28
:1014D000FCCF03C09EEF9093E800982F907609F020
:1014E000C6C09E894F89588D2F89F88C91110CC0E8
:1014F000803829F4809110028093F10002C010928C
:10150000F1001092F10045C1913051F4811141C1B7
:101510004130510509F03DC1809110028D7F0BC013
:10152000933061F4811135C14130510509F031C169
:10153000809110028260809310022BC1953049F493
:101540008091E80080FFFCCF822F80688093E300C9
:1015500020C1963009F05EC00B8D1C8D22E01092E8
:10156000E9001092210210922002F21232C0109271
:101570001F0210921E020E94040A99E0BE016F5FD2
:101580007F4FDB01E92F1D92EA95E9F79983FA82F3
:1015900091E09E8390EA98879AEF998720912002A4
:1015A00030912102275F3F4F3C832B838D83109224
:1015B000E900109221021092200210931F02009362
:1015C0001E0249E050E080E00E94E0080E94040A08
:1015D000E0C010931F0200931E020E94F009DC017C
:1015E00012960D911C9113970115110509F4BBC0BA
:1015F000D801ED91FC910480F581E02DBE016B5E78
:101600007F4FC8010995009709F0C7C0F801008510
:101610001185EACF973009F445C1983021F481E073
:101620008093F100B6C0993009F0B3C0837009F01F
:1016300039C1E3E0F1E081E031E096E3208121115E
:1016400009C08EE78093EA001092EA008F898093A8
:1016500025029FC08093E9003093EB0021912093F5
:10166000EC009093ED008F5F873041F7EACF8B8DD0
:101670009C8D1092E900109221021092200290930A
:101680001F0280931E02898D811153C08E899D890E
:10169000913A49F4813209F005C147E050E06DE02C
:1016A00071E080E0BBC0913209F0FCC0833269F484
:1016B0008F89988DA0E0B0E08093090190930A0192
:1016C000A0930B01B0930C0164C0803269F4809147
:1016D000E80082FFFCCF67E08DE091E00E943708D0
:1016E0008BEF8093E80055C0823209F052C08F8999
:1016F00080931401EEEFFFE7859194918B3F9C4D11
:1017000019F0E0E0F8E002C0EEEFFAE080910D01A0
:1017100090910E01A0910F01B0911001803B944077
:10172000A105B10509F09EC08091140180FF79C028
:1017300099C00E94F009FC01028113810115110575
:1017400009F4B0C0D801ED91FC910190F081E02D39
:10175000BE016B5E7F4FC801099581111AC0F80167
:1017600000851185EBCFF1E0FF1609F44EC0F3E0E0
:10177000FF1298C08F89882309F44AC0823089F407
:1017800040E860E185EE92E00E940208882309F4B7
:1017900089C08EEF8093E80088C018161906CCF334
:1017A00081C0813029F440E86BE089ED92E0ECCF14
:1017B000833009F077C00E94F009DC011296ED90A9
:1017C000FC9013978E010F5F1F4F6801E114F10425
:1017D00079F0D701ED91FC910680F781E02DB801F9
:1017E000C7010995080F111DF701E084F184EECFC0
:1017F000D8011C92F60101900020E9F73197BF0152
:101800006C197D0940E0C601BFCF67EC72E002C0F1
:1018100063EC72E0FB01449150E080E80E94E00834
:10182000B8CFEE3F2AE0F20751F0808191818737EF
:10183000A7E79A0721F09093FF0A8093FE0A87E7B3
:1018400097E79183808380916000809322029BE0E0
:1018500088E10FB6F894A895809360000FBE90932E
:10186000600097CF808191818737974709F091CFAA
:10187000A895809160008861809360008091220229
:1018800080936000EE3FBAE0FB0739F08091FE0ADA
:101890009091FF0A918380837CCF1092FF0A10926F
:1018A000FE0A77CF81E28093EB006C960FB6F89436
:1018B000DEBF0FBECDBFDF91CF91FF91EF91BF9102
:1018C000AF919F918F917F916F915F914F913F91D8
:1018D0002F911F910F91FF90EF90DF90CF900F907D
:1018E0000FBE0F901F901895CF92DF92EF92FF924C
:1018F0000F931F93CF93DF93D901E801421753074A
:101900001CF0FA01690102C06A01F9018823B1F1F2
:10191000CB016C157D050CF4C6019F018E179F0746
:101920000CF49C01A417B50734F4CF01821B930B70
:101930009C012C0D3D1D0D2C000CEE08FF08C9016B
:10194000330FAA0BBB0B9C01AD012C193D094E09AD
:101950005F09AFEFBFE70E94E5228F01FF0F220B67
:10196000330BA90198012C193D094E095F090E940A
:10197000C6222883398382E090E002C080E090E0B4
:10198000DF91CF911F910F91FF90EF90DF90CF905B
:1019900008950F931F93CF938C01C62F60E0809121
:1019A0005F030E94B3040230110531F103301105C9
:1019B00009F440C00130110509F05EC06C2F617060
:1019C000809157030E94B304C1FB662760F98091A0
:1019D00059030E94B304C2FB662760F980915B0340
:1019E0000E94B304C3FB662760F980915D030E94E7
:1019F000B304809167033BC06C2F617080915703E3
:101A00000E94B304C1FB662760F9809159030E94CC
:101A1000B304C2FB662760F980915B030E94B304A4
:101A2000C3FB662760F980915D030E94B304809137
:101A300069031DC06C2F6170809157030E94B3042D
:101A4000C1FB662760F9809159030E94B304C2FB71
:101A5000662760F980915B030E94B304C3FB66278D
:101A600060F980915D030E94B30480916B03CF9174
:101A70001F910F910C948A0480E090E0CF911F9108
:101A80000F91089581E08093C2028093C30228ECF5
:101A900032E03093C5022093C4021092C702109224
:101AA000C6022BE331E03093BF022093BE021092B6
:101AB000CA021092C9021092CC021092CB028093FB
:101AC000CD028093CE0281EC8093C8020E94F0097F
:101AD000FC0141812091C20230E0240F311D2830E9
:101AE000310524F46EEB72E00C94B10908957F92F5
:101AF0008F929F92AF92BF92CF92DF92EF92FF921E
:101B00000F931F93CF93DF93CDB7DEB7ADB6BEB6BD
:101B1000809156032DB73EB7281B31090FB6F894B4
:101B20003EBF0FBE2DBF8DB79EB701966C01E090F2
:101B30002503F12C8091210390912203D601FC0111
:101B40009F01281B390B2E153F051CF421912D9365
:101B5000F7CF80912603882369F180911D0390912E
:101B60001E0397FD0AC068E671E00E9414266DE22C
:101B700070E00E941426262F01C028E080911F03E8
:101B80009091200397FD09C068E671E00E94142639
:101B90006DE270E00E94142601C068E0F601EE0DCF
:101BA000FF1D30E1639FC0011124822B8083C70198
:101BB00001967C0186010E0D1F1D20912B03309193
:101BC0002C034091290350912A03609107037091DF
:101BD00008038091270381700E94740CE80EF91E9F
:101BE00086010E0D1F1D20912F033091300340916F
:101BF0002D0350912E036091090370910A03809187
:101C00002703869581700E94740CE80EF91E8601E8
:101C10000E0D1F1D20913303309134034091310389
:101C20005091320360910B0370910C038091270354
:101C300082FB882780F90E94740CE80EF91E860149
:101C40000E0D1F1D2091370330913803409135034D
:101C50005091360360910D0370910E03809127031C
:101C600083FB882780F90E94740CE80EF91E860118
:101C70000E0D1F1D20913B0330913C034091390311
:101C800050913A0360910F037091100380912703E4
:101C9000829581700E94740CE80EF91E86010E0D6B
:101CA0001F1D20913F033091400340913D0350910F
:101CB0003E0360911103709112038091270385FB0D
:101CC000882780F90E94740CE80EF91E86010E0D1B
:101CD0001F1D2091430330914403409141035091D3
:101CE000420360911503709116038091280381705F
:101CF0000E94740CE80EF91E86010E0D1F1D209126
:101D00004703309148034091450350914603609149
:101D100013037091140380912803869581700E94AB
:101D2000740CE80EF91E86010E0D1F1D20914B0349
:101D300030914C034091490350914A03609117033D
:101D4000709118038091280382FB882780F90E94F4
:101D5000740CE80EF91E86010E0D1F1D20914F0315
:101D60003091500340914D0350914E0360911903FF
:101D700070911A038091280383FB882780F90E94C1
:101D8000740C8E0D9F1D8601080F191F209153039F
:101D900030915403409151035091520360911B03C1
:101DA00070911C0380912803829581700E94740CAD
:101DB00010915603709055030E9470064C01412FFC
:101DC00050E07A019FEFE91AF90AEDB7FEB7EE1974
:101DD000FF090FB6F894FEBF0FBEEDBF0DB71EB7DB
:101DE0000F5F1F4F7182B601C80101960E946827DC
:101DF000F4018381A701B80180640E9418090FB61D
:101E0000F894BEBE0FBEADBEDF91CF911F910F9172
:101E1000FF90EF90DF90CF90BF90AF909F908F900A
:101E20007F90089520912502211103C08FEF9FEF2D
:101E300008955FB7F89422E02093E9002091F20022
:101E400030E01216130614F421E030E0422FFC01BA
:101E500084E6415038F02898809324029091F10054
:101E60009193F7CF2115310521F08091F20088235D
:101E700019F05FBFC90108958BE68093E800F9CFA0
:101E8000009769F0FC0101900020E9F73197AF015C
:101E9000481B590BBC0188E292E00C94EC0280E0F4
:101EA00090E008958F929F92AF92BF920F931F93ED
:101EB000CF93DF93CDB7DEB7A1970FB6F894DEBF0F
:101EC0000FBECDBF19A2423008F44AE08E010F5D6B
:101ED0001F4F842E912CA12CB12CA50194010E949E
:101EE000A422E62FB901CA0101501109EA3014F405
:101EF000E05D01C0E95CD801EC93232B242B252B5A
:101F000061F7C8010E94400FA1960FB6F894DEBF9A
:101F10000FBECDBFDF91CF911F910F91BF90AF90BA
:101F20009F908F90089590912403891700F5982F22
:101F3000969596959695E0912103F0912203E90FED
:101F4000F11D282F277081E090E0A0E0B0E004C0F0
:101F5000880F991FAA1FBB1F2A95D2F780959081E1
:101F6000892380838091230381110C94770D089538
:101F7000909124038917F8F4982F96959695969545
:101F8000E0912103F0912203E90FF11D282F277022
:101F900081E090E0A0E0B0E004C0880F991FAA1F84
:101FA000BB1F2A95D2F72081822B80838091230347
:101FB00081110C94770D08954F925F926F927F92EA
:101FC0008F929F92AF92BF92CF92DF92EF92FF9249
:101FD0000F931F93CF93DF9300D000D0CDB7DEB720
:101FE00049835A836B837C8348015901BC01990F53
:101FF000880B990B0E948721A50194010E94FF2262
:102000009B01AC010E9400232B013C01A50194011E
:10201000C701B6010E94FF229B01AC01C301B201BE
:102020000E94DE2320E030E040E85FE30E94FF22D0
:102030006B017C0120E030E0A9010E94AD2418165C
:1020400024F0C701B601905802C0C701B60129812A
:102050003A814B815C810E94BA244B015C0120E0F3
:1020600030E0A901C701B6010E94AD2418166CF03A
:1020700020E030E0A901C701B6010E94802187FD60
:1020800009C020E030E0A90109C020E030E040E8CC
:102090005FE304C020E030E040E85FEBC501B4013D
:1020A0000E94E6216B017C0120E030E040E85FEB1C
:1020B0000E94802187FD14C020E030E040E85FE30B
:1020C000C701B6010E94AD2418160CF120E030E0E3
:1020D000A901C701B6010E94AD2418165CF006C024
:1020E000C12CD12C90E8E92E9FEBF92EC701B60147
:1020F000905802C0C701B60120E030E0A9010E945B
:10210000802187FF0AC0C12CD12C760106C0C12CCA
:10211000D12C80E8E82E8FE3F82EC701B6010F908E
:102120000F900F900F90DF91CF911F910F91FF9023
:10213000EF90DF90CF90BF90AF909F908F907F9067
:102140006F905F904F900895611102C00C94930FAF
:102150000C94B80FCF93DF93EC01CF3F8FEFD807EC
:1021600061F1BE010D2E000C880B990B0E94872196
:1021700020E030E044EB53E40E94802187FF02C05E
:10218000C859DE4FBE010D2E000C880B990B0E9422
:10219000872120E030E044EB53E40E94AD24181680
:1021A00014F4C856D140CE016DE270E00E941426AE
:1021B000709327026093260204C0D0932702C09335
:1021C0002602C0912602D091270261E0209709F0F3
:1021D00060E080E20E94A41061E0C130D10509F006
:1021E00060E081E20E94A41061E0C230D10509F0F4
:1021F00060E082E20E94A41061E0C330D10509F0E2
:1022000060E083E20E94A41061E0C430D10509F0CF
:1022100060E084E20E94A41061E0C530D10509F0BD
:1022200060E085E20E94A41061E0C630D10509F0AB
:1022300060E086E20E94A41061E0279709F060E068
:1022400087E2DF91CF910C94A4101F93CF93DF937B
:10225000182F60E080915F030E94B304612F6170CA
:10226000809157030E94B30411FB662760F98091A7
:1022700059030E94B30412FB662760F980915B0347
:102280000E94B30413FB662760F980915D030E94EE
:10229000B304E0916B03E23108F0E251F0E0EA5060
:1022A000FD4FE49180917B00E3FB992790F9C92FC2
:1022B00090E0D92F95E0CC0FDD1F9A95E1F78F7D47
:1022C000C82BC0937B00E770E064E0937C008091B2
:1022D0007A00806480937A0080917A0086FDFCCF3A
:1022E000809178002091790090E0922BDF91CF913E
:1022F0001F910895CF93DF93CDB7DEB7AE970FB69A
:10230000F894DEBF0FBECDBF789484B5826084BDE3
:1023100084B5816084BD85B5826085BD85B58160E9
:1023200085BD80916E00816080936E001092810067
:102330008091810082608093810080918100816022
:1023400080938100809180008160809380008091E3
:1023500091008260809391008091910081608093D0
:102360009100809190008160809390008091C100E5
:1023700084608093C1008091C10082608093C1001D
:102380008091C10081608093C1008091C300816011
:102390008093C3008091C00082608093C0008091D0
:1023A000C20081608093C20080917A008460809333
:1023B0007A0080917A00826080937A0080917A001E
:1023C000816080937A0080917A00806880937A009F
:1023D0001092250210921002109211028091D700E3
:1023E00081608093D70080EA8093D80089B58061AE
:1023F00089BD89B5826089BD09B400FEFDCF61E069
:1024000070E080E090E00E941E058091D8008F7CF3
:1024100080618093D8008091E000807F8093E0000D
:102420008091E1008E7E8093E1008DE08093E20058
:10243000559A209A1092BA021092BB021092BC02D6
:102440001092BD0210927A0210927B0210927C02CE
:1024500010927D020E9458056B017C014B015C01CA
:1024600028EB820E2BE0921EA11CB11C0E94580585
:102470006C157D058E059F0528F086169706A80623
:10248000B906A0F768EE73E080E090E00E941E05B8
:102490008FEF9FEF90933502809334020E9458058E
:1024A00060937A0270937B0280937C0290937D020A
:1024B0008DE691E00E94400F0E9458056B017C015F
:1024C0004B015C013AE0830E911CA11CB11C0E94DF
:1024D00058056C157D058E059F0528F08616970614
:1024E000A806B906A0F741E040938E0262E0809111
:1024F00067030E94E20460E0809161030E94B304DC
:1025000062E0809169030E94E20460E080916303CD
:102510000E94B30462E080916B030E94E20460E0D9
:10252000809165030E94B30410922A03109229033C
:102530008FEF93E090932C0380932B0310922E0344
:1025400010922D039093300380932F031092320347
:102550001092310390933403809333031092360327
:1025600010923503909338038093370310923A0307
:102570001092390390933C0380933B0310923E03E7
:1025800010923D039093400380933F0351E050939A
:1025900023030E94770D82EB9FE8A0E7BFE38093BF
:1025A000C0019093C101A093C201B093C30183E421
:1025B0009DE1AFEABEEB8093BC019093BD01A09377
:1025C000BE01B093BF010E945805672B682B692B91
:1025D00041F40E945805623071058105910508F4A7
:1025E000E8C00E9458050091EA011091EB0120918A
:1025F000EC013091ED01601771078207930740F4F9
:102600006093EA017093EB018093EC019093ED01EC
:102610000091EA011091EB012091EC013091ED0164
:102620006B017C01C01AD10AE20AF30A9701860104
:102630000A3F11052105310508F4BBC06093EA018A
:102640007093EB018093EC019093ED0124EF31E066
:1026500040E050E020938602309387024093880246
:102660005093890210928A0210928B0210928C026F
:1026700010928D0280917E0290917F02A091800243
:10268000B09181028093820290938302A09384028E
:10269000B09385020E94580560937E0270937F027A
:1026A00080938002909381020E94580560937A0281
:1026B00070937B0280937C0290937D020E94580568
:1026C0006B017C018EE791E00E94400F4AE061E0DF
:1026D00070E080E090E00E94520F85E891E00E9457
:1026E000400F4AE0C701B6010E94520F87E891E00F
:1026F0000E94400F80917E0290917F02A091800203
:10270000B0918102A7019601281B390B4A0B5B0B84
:10271000CA01B9014AE00E94520F87E891E00E9485
:10272000400F80917E0290917F02A0918002B09133
:1027300081020091820210918302209184023091E3
:102740008502BC01CD01601B710B820B930B4AE02B
:102750000E94520F89E891E00E94400F0E945805A4
:102760004AE00E94520F8BE891E00E94400F82E9FC
:1027700091E00E94400F0E9458054B015C016B01E3
:102780007C0132E0C30ED11CE11CF11C0E945805F3
:10279000681579058A059B0510F00C94281E0E9487
:1027A000580560937E0270937F028093800290931D
:1027B000810263E070E081E090E00E94C90C61E07A
:1027C000892B09F060E080E00E94A41067E070E0CF
:1027D00081E090E00E94C90C61E0892B09F060E083
:1027E00081E00E94A4106AE070E081E090E00E9425
:1027F000C90C61E0892B09F060E082E00E94A4101E
:102800006BE070E081E090E00E94C90C61E0892BF0
:1028100009F060E083E00E94A4106DE070E081E0C8
:1028200090E00E94C90C61E0892B09F060E084E02F
:102830000E94A41062E070E081E090E00E94C90C68
:1028400061E0892B09F060E085E00E94A41066E059
:1028500070E081E090E00E94C90C61E0892B09F0F2
:1028600060E086E00E94A41069E070E081E090E002
:102870000E94C90C61E0892B09F060E087E00E94AA
:10288000A4106CE070E081E090E00E94C90C61E06F
:10289000892B09F060E088E00E94A4106EE070E0EF
:1028A00081E090E00E94C90C61E0892B09F060E0B2
:1028B00089E00E94A41061E070E081E090E00E9455
:1028C000C90C61E0892B09F060E08AE00E94A41045
:1028D00060E070E081E090E00E94C90C61E0892B2B
:1028E00009F060E08BE00E94A41065E070E081E0F8
:1028F00090E00E94C90C61E0892B09F060E08CE057
:102900000E94A41064E070E081E090E00E94C90C95
:1029100061E0892B09F060E08DE00E94A41066E080
:1029200070E082E090E00E94C90C61E0892B09F020
:1029300060E08EE00E94A41068E070E081E090E02A
:102940000E94C90C61E0892B09F060E08FE00E94D1
:10295000A4106FE070E081E090E00E94C90C61E09B
:10296000892B09F060E080E10E94A41060E070E033
:1029700082E090E00E94C90C61E0892B09F060E0E0
:1029800081E10E94A41062E070E082E090E00E9489
:10299000C90C61E0892B09F060E082E10E94A4107B
:1029A00061E070E082E090E00E94C90C61E0892B58
:1029B00009F060E083E10E94A4106CE070E082E026
:1029C00090E00E94C90C61E0892B09F060E084E18D
:1029D0000E94A41063E070E082E090E00E94C90CC5
:1029E00061E0892B09F060E085E10E94A41064E0B9
:1029F00070E082E090E00E94C90C61E0892B09F050
:102A000060E086E10E94A41065E070E082E090E062
:102A10000E94C90C61E0892B09F060E087E10E9407
:102A2000A4106AE070E082E090E00E94C90C61E0CE
:102A3000892B09F060E088E10E94A4106BE070E04F
:102A400082E090E00E94C90C61E0892B09F060E00F
:102A500089E10E94A41067E070E082E090E00E94AB
:102A6000C90C61E0892B09F060E08AE10E94A410A2
:102A700069E070E082E090E00E94C90C898368E020
:102A800070E082E090E00E94C90C880F991FE981F4
:102A9000E82BE37090919C01990F990FE92BE0933B
:102AA0009C01EF70F0E0E55EFE4F20812223B1F142
:102AB0008091A1019091A201AC014F5F5F4F433023
:102AC000510560F5820F911D27FD9A959093A20103
:102AD0008093A1019C0197FF04C022273327281B64
:102AE000390B22303105D4F01816190614F48BE195
:102AF00003C0892B19F08CE10E94B80F0E94580581
:102B0000DC01CB018C599F4FAF4FBF4F80939D018C
:102B100090939E01A0939F01B093A001C0909D014E
:102B2000D0909E01E0909F01F090A001C114D104CB
:102B3000E104F10449F00E945805C616D706E806DC
:102B4000F90610F40C94311E809101018823E9F1FB
:102B50006EE070E082E090E00E94C90C2091E901F3
:102B600030E082179307E1F06EE070E082E090E0E1
:102B70000E94C90C21E0892B09F420E02093E9018F
:102B80000E945805DC01CB018C599F4FAF4FBF4FBE
:102B90008093E5019093E601A093E701B093E801EB
:102BA0000E94580521E0C090E501D090E601E09038
:102BB000E701F090E8016C157D058E059F0508F092
:102BC00020E0622F8DE10E94A4106EE070E082E0B0
:102BD00090E00E94C90C682F88E20E94A4108091A6
:102BE0000001882309F44CC06FE070E082E090E0BF
:102BF0000E94C90C2091E40130E08217930759F13B
:102C00006FE070E082E090E00E94C90C9A838983B3
:102C100081E0C980DA80CD2809F480E08093E40166
:102C20000E945805DC01CB018C599F4FAF4FBF4F1D
:102C30008093E0019093E101A093E201B093E3015E
:102C4000E980FA80EF2819F080EF90E002C081EF70
:102C500090E00E94AE060E94580521E0C090E0017D
:102C6000D090E101E090E201F090E3016C157D0568
:102C70008E059F0508F020E0622F8EE10E94A410CF
:102C80006FE070E082E090E00E94C90C61E0892B67
:102C900009F060E089E20E94A4106DE070E082E03B
:102CA00090E00E94C90C892B49F48FE10E94B80F73
:102CB00062EF87ED92E00E94F00508C062EF87EDB9
:102CC00092E00E94AE058FE10E94930F80E090E0B9
:102CD0000E9425111C01BC01990F880B990B0E94C1
:102CE0008721562E672E782E892E862F962DA72D7A
:102CF000B82D8093DC019093DD01A093DE01B093A9
:102D0000DF0181E090E00E9425119A878987BC014C
:102D1000990F880B990B0E948721962EA72EB82E0B
:102D2000C92E862F9A2DAB2DBC2D8093D801909360
:102D3000D901A093DA01B093DB0183E090E00E9417
:102D400025119A8B898BBC01990F880B990B0E94D6
:102D50008721D62EE72EF82E9D83862F9E2DAF2D10
:102D6000BD818093D4019093D501A093D601B093F7
:102D7000D70187E090E00E9425119E8B8D8BBC01CE
:102D8000990F880B990B0E9487216093D001709353
:102D9000D1018093D2019093D3018EE090E00E9404
:102DA00025119A8F898FBC01990F880B990B0E946E
:102DB00087216093CC017093CD018093CE019093D5
:102DC000CF018FE090E00E9425119E8F8D8FBC0176
:102DD000990F880B990B0E9487216093C80170930B
:102DE000C9018093CA019093CB010E94580520919C
:102DF000C4013091C5014091C6015091C70129839A
:102E00003A834B835C83DC01CB01821B930BA40BC5
:102E1000B50B883E9340A105B10508F0B9C02DEC73
:102E20003CEC4CE45FE360910303709104038091F8
:102E30000503909106030E94E62169837A838B83C0
:102E40009C832DEC3CEC4CE45EE3652D762D872DC8
:102E5000982D0E94E6219B01AC0169817A818B81CA
:102E60009C810E9400232B013C016093030370931B
:102E7000040380930503909306032DEC3CEC4CE493
:102E80005FE36091F7027091F8028091F9029091EE
:102E9000FA020E94E62169837A838B839C832DEC5E
:102EA0003CEC4CE45EE3692D7A2D8B2D9C2D0E9429
:102EB000E6219B01AC0169817A818B819C810E9412
:102EC00000234B015C016093F7027093F80280933A
:102ED000F9029093FA022DEC3CEC4CE45FE3609134
:102EE000EB027091EC028091ED029091EE020E9453
:102EF000E62169837A838B839C832DEC3CEC4CE444
:102F00005EE36D2D7E2D8F2D9D810E94E6219B011C
:102F1000AC0169817A818B819C810E94002360933E
:102F2000EB027093EC028093ED029093EE024092DC
:102F3000FB025092FC026092FD027092FE024092EF
:102F4000FF0250920003609201037092020380928C
:102F5000F3029092F402A092F502B092F6028092EF
:102F6000EF029092F002A092F102B092F20260930E
:102F7000E7027093E8028093E9029093EA0260937B
:102F8000E3027093E4028093E5029093E6024EC65A
:102F90000E945805DC01CB0129813A814B815C817B
:102FA000821B930BA40BB50B80319742A105B10591
:102FB00008F0D9C04090FB020091FC021091FD0284
:102FC0004091FE024983242D302F412F5981652DD8
:102FD000762D872D982D0E94802187FD03C0452CDA
:102FE00083018982842D902FA12FB9818093FB02C8
:102FF0009093FC02A093FD02B093FE020091FF02A9
:1030000010910003509101035983409002039801ED
:10301000452F542D652D762D872D982D0E94AD249A
:10302000181624F0052D162D7982482CC801A98187
:10303000B42D8093FF0290930003A0930103B093FB
:1030400002038090EF020091F0021091F102809152
:10305000F2028983282D302F412F582F692D7A2D88
:103060008B2D9C2D0E94802187FD03C0892C85011A
:10307000C982882D902FA12FB9818093EF02909360
:10308000F002A093F102B093F2028090F30200915B
:10309000F4021091F5029091F6029983282D302FB9
:1030A000412F592F692D7A2D8B2D9C2D0E94AD24F7
:1030B00018161CF0892C8501C982882D902FA12F0C
:1030C000B9818093F3029093F402A093F502B09338
:1030D000F602C090E7020091E8021091E902A09187
:1030E000EA02A9832C2D302F412F5A2F6D2D7E2DD2
:1030F0008F2D9D810E94AD24181624F0CD2C8701C0
:10310000BD81B9838C2D902FA12FB9818093E702C7
:103110009093E802A093E902B093EA02C090E30220
:103120000091E4021091E5022091E60229832C2D02
:10313000302F412F59816D2D7E2D8F2D9D810E9425
:10314000802187FD04C0CD2C8701DD80D9828C2DA4
:10315000902FA12FB9818093E3029093E402A09372
:10316000E502B093E6022091FB023091FC0240910F
:10317000FD025091FE022D833E834F83588780913C
:10318000030390910403A0910503B09106038D877A
:103190009E87AF87B88BC090FF02D0900003E0906D
:1031A0000103F0900203CF8ED8A2E9A2FAA21F92E7
:1031B0001F921F921F928D809E80AF80B884CD8415
:1031C000DE84EF84F8880F8D18A129A13AA140E090
:1031D00050E060E87FE3C1010E94C4060F900F90A9
:1031E0000F900F902B013C012091EF023091F002E3
:1031F0004091F1025091F2022BA33CA34DA35EA398
:103200008091F7029091F802A091F902B091FA0230
:103210008FA398A7A9A7BAA7C090F302D090F402F1
:10322000E090F502F090F602CBA6DCA6EDA6FEA695
:103230001F921F921F921F928BA09CA0ADA0BEA0B8
:10324000CFA0D8A4E9A4FAA40BA51CA52DA53EA542
:1032500040E050E060E87FE389859A850E94C406DB
:103260000F900F900F900F9069837A838B839C83CC
:103270001F921F921F921F928D809E80AF80B884F4
:10328000CD84DE84EF84F8880F8D18A129A13AA19E
:1032900040E050E060EC70E4C1010E94C4060F9071
:1032A0000F900F900F906D837E838F8398871F926E
:1032B0001F921F921F928BA09CA0ADA0BEA0CFA07A
:1032C000D8A4E9A4FAA40BA51CA52DA53EA540E011
:1032D00050E060EC70E489859A850E94C4060F90E6
:1032E0000F900F900F9069877A878B879C8720E0DB
:1032F00030E0A901C301B2010E94AD2418165CF4AC
:1033000020E030E040E85FE3C301B2010E94802189
:1033100087FF1BC00AC020E030E040E85FEBC3013C
:10332000B2010E94AD24181684F420E030E0A90117
:10333000C301B2010E94AD247301620118165CF052
:10334000F7FAF094F7F8F09406C0C12CD12C40E8BD
:10335000E42E4FE3F42EA701960160E070E080E8D0
:103360009FE30E94FF222D813E814F8158850E945C
:10337000E6214B015C01A7019601C301B2010E9445
:10338000E6219B01AC01C501B4010E9400236D83BD
:103390007E838F83988720E030E0A90169817A815C
:1033A0008B819C810E94AD2418166CF420E030E0E3
:1033B00040E85FE369817A818B819C810E94802152
:1033C00087FF21C00CC020E030E040E85FEB69815E
:1033D0007A818B819C810E94AD241816A4F420E090
:1033E00030E0A90169817A818B819C810E94AD24A2
:1033F000C980DA80EB80FC8018165CF0F7FAF09454
:10340000F7F8F09406C0C12CD12C30E8E32E3FE34E
:10341000F32EA701960160E070E080E89FE30E9430
:10342000FF2229853A854B855C850E94E6214B0168
:103430005C01A701960169817A818B819C810E9440
:10344000E6219B01AC01C501B4010E9400236B0180
:103450007C0120E030E040E05FE3C301B2010E9464
:10346000E6214B015C0120E030E0A90169817A810D
:103470008B819C810E94AD2429813A814B815C81A2
:1034800018160CF05058C501B4010E94E6212D8198
:103490003E814F8158850E9400236D837E838F83F8
:1034A00098876093DC017093DD018093DE01909337
:1034B000DF0120E030E040E05FE369817A818B81C9
:1034C0009C810E94E6214B015C0120E030E0A901D3
:1034D000C301B2010E94AD24181624F077FA70944B
:1034E00077F87094A3019201C501B4010E94E6210E
:1034F000A70196010E9400236D877E878F87988B96
:103500006093D8017093D9018093DA019093DB0125
:103510008090E3029090E402A090E502B090E60271
:10352000C090EB02D090EC02E090ED02F090EE0241
:103530000091E7021091E8022091E9023091EA023D
:103540004DE34F935CE45F938CEC8F939DEC9F93E2
:1035500040E050E060E870E489899A890E94C406DE
:103560000F900F900F900F909B01AC01505829873E
:103570003A874B875C872093D4013093D5014093E1
:10358000D6015093D701C12C90ECD92E98E4E92EA6
:1035900094E4F92E00E010E02AE833E440E050E043
:1035A00060EC7FE38D899E890E94DC0F2B013C013A
:1035B0006093D0017093D1018093D2019093D30195
:1035C000C12C20ECD22E2FE7E22E24E4F22E00E0D4
:1035D00010E020E931E440E050E060E87FE3898DCD
:1035E0009A8D0E94DC0F698B7A8B8B8B9C8B6093FE
:1035F000CC017093CD018093CE019093CF0100E078
:1036000010E020E931E440E050E060E87FE38D8D98
:103610009E8D0E94DC0F6D8B7E8B8F8B988F6093BD
:10362000C8017093C9018093CA019093CB01C090E7
:10363000C001D090C101E090C201F090C301C98ED9
:10364000DA8EEB8EFC8EC090BC01D090BD01E09074
:10365000BE01F090BF01298D3A8D4B8D5C8D6D813F
:103660007E818F8198850E94E6214B015C01A70134
:1036700096016D857E858F8598890E94E6219B0144
:10368000AC01C501B4010E94002320E030E040E01D
:103690005FE30E94E6214B015C0120E030E040E066
:1036A0005FE36091B8017091B9018091BA01909186
:1036B000BB010E94E6219B01AC01C501B4010E943F
:1036C000002369837A838B839C836093B801709312
:1036D000B9018093BA019093BB016D817E818F8186
:1036E00098859058A70196010E94E6216B017C0104
:1036F000298D3A8D4B8D5C8D6D857E858F85988962
:103700000E94E6219B01AC01C701B6010E94002383
:1037100020E030E040E05FE30E94E6216B017C01A5
:1037200020E030E040E05FE36091B4017091B501CA
:103730008091B6019091B7010E94E6219B01AC01F6
:10374000C701B6010E9400236B017C016093B401A4
:103750007093B5018093B6019093B70120E030E0FB
:1037600040E05FE36091B0017091B1018091B201DE
:103770009091B3010E94E6214B015C0120E030E012
:1037800040E05FE369857A858B859C850E94E62110
:103790009B01AC01C501B4010E9400234B015C01F7
:1037A0006093B0017093B1018093B2019093B30123
:1037B00020E030E040E054E469817A818B819C8193
:1037C0000E94E62120E030E040E054E40E94002323
:1037D0000E94502470930803609307038091230391
:1037E00081110E94770D20E030E040E054E4C701F1
:1037F000B6010E94E62120E030E040E054E40E945F
:1038000000230E94502470930A036093090380915F
:10381000230381110E94770D20E030E040E054E462
:10382000C501B4010E94E62120E030E040E054E40C
:103830000E9400230E94502470930C0360930B039A
:103840008091230381110E94770D20E030E040E059
:1038500054E4C301B2010E94E62120E030E040E0E0
:1038600054E40E9400230E9450247093120360933A
:1038700011038091230381110E94770D20E030E035
:1038800040E05FE36091AC017091AD018091AE01C9
:103890009091AF010E94E6214B015C0120E030E0F5
:1038A00040E054E469897A898B899C890E94E621E9
:1038B00020E030E040E054E40E94002320E030E0CB
:1038C00040E05FE30E94E6219B01AC01C501B40129
:1038D0000E9400236D837E838F8398876093AC0161
:1038E0007093AD018093AE019093AF0120E030E082
:1038F00040E05FE36091A8017091A9018091AA0165
:103900009091AB010E94E6214B015C0120E030E088
:1039100040E054E46D897E898F89988D0E94E6216C
:1039200020E030E040E054E40E94002320E030E05A
:1039300040E05FE30E94E6219B01AC01C501B401B8
:103940000E9400234B015C016093A8017093A901C0
:103950008093AA019093AB016D817E818F819885C0
:103960000E94502470930E0360930D0380912303F3
:1039700081110E94770DC501B4010E9450247093FB
:10398000100360930F038091230381110E94770D30
:1039900020E030E0A901C301B2010E94AD24181655
:1039A000BCF48091A7018111A7C121E02093A70158
:1039B0000E945805DC01CB018C599F4FAF4FBF4F80
:1039C0008093A3019093A401A093A501B093A601B5
:1039D00020E030E0A901C301B2010E94802187FFED
:1039E00016C08091A701882391F01092A7010E9430
:1039F0005805DC01CB018C599F4FAF4FBF4F8093CF
:103A0000A3019093A401A093A501B093A601809077
:103A1000A3019090A401A090A501B090A6010E94DE
:103A2000580521E0681579058A059B0508F020E016
:103A3000622F8AE20E94A41026E636E646E65FEB95
:103A4000C301B2010E948021682F661F6627661F8E
:103A50008BE20E94A41031E03D8326E636E646E67E
:103A60005FE3C301B2010E94AD2418160CF01D8261
:103A70006D818CE20E94A4102DEC3CEC4CE45FEBD9
:103A800069857A858B859C850E948021682F661FB9
:103A90006627661F81E30E94A41041E04D832DEC50
:103AA0003CEC4CE45FE369857A858B859C850E94BC
:103AB000AD2418160CF01D826D8182E30E94A410C3
:103AC00020E030E0A90169817A818B819C810E948C
:103AD000AD2418166CF420E030E040E05FE369812B
:103AE0007A818B819C810E94AD2418165CF10CC0F8
:103AF00020E030E040E05FEB69817A818B819C813E
:103B00000E94802187FD1EC020E030E0A901C7018E
:103B1000B6010E94AD2418165CF420E030E040E0CD
:103B20005FE3C701B6010E94AD2418165CF022C005
:103B300020E030E040E05FEBC701B6010E94802149
:103B400087FF18C029813A814B815C81C701B6018A
:103B50000E947F2321EE3EE245E652E40E94E621E8
:103B600020E030E041EE52E40E9400230E94502405
:103B7000CB0102C08FEF9FEF0E94AA106BE070E0B4
:103B800081E090E00E94C90C892BA1F56DE070E006
:103B900081E090E00E94C90C892B61F56CE070E037
:103BA00081E090E00E94C90C892B21F56EE070E065
:103BB00081E090E00E94C90C892BE1F466C067E0C7
:103BC00070E082E090E00E94C90C892B51F40E94C1
:103BD00058056093C4017093C5018093C60190930A
:103BE000C7016DE070E082E090E00E94C90C892B73
:103BF00009F45FC0C0909A01D0909B01DA82C9821B
:103C0000CD28A1F00E9458050091960110919701CE
:103C100020919801309199010C591F4F2F4F3F4F20
:103C2000061717072807390708F45CC061E170E040
:103C300080E090E00E941E0580E0E82E80E0F82EF3
:103C4000EF2811F40C94E3120E9400000C94E3128C
:103C5000C616D706E806F90610F00C94C6130C94A5
:103C6000CF138CE10E94930F8BE10E94930F10926F
:103C70009D0110929E0110929F011092A00110923E
:103C8000A2011092A1010C94A4156AE070E082E0F8
:103C900090E00E94C90C892B09F091CF98E088E14F
:103CA0000FB6F894A895809360000FBE90936000C3
:103CB000FFCF6FE070E082E090E00E94C90C21E04D
:103CC000892B09F020E0209300016EE070E082E093
:103CD00090E00E94C90C21E0892B09F020E020939C
:103CE000010188CF698187ED92E00E94AE051092B4
:103CF0009B0110929A019ACF20E030E0A901C30104
:103D0000B2010E94802187FF82CE6FCEEF92FF9298
:103D10000F931F93CF93DF93CDB7DEB7C659D10969
:103D20000FB6F894DEBF0FBECDBF10922B021092DB
:103D30002A0288EE93E0A0E0B0E080932C029093FA
:103D40002D02A0932E02B0932F0283E591E0909371
:103D50002902809328028FEF9FEF90933502809382
:103D6000340210927E0210927F0210928002109212
:103D700081021092820210928302109284021092A9
:103D80008502109286021092870210928802109289
:103D9000890210928A0210928B0210928C02109269
:103DA0008D021092DA021092D90285E691E090938A
:103DB000D8028093D70280917F03811113C01092A3
:103DC0007A031092790382E093E090937C038093CE
:103DD0007B038FE290E090937E0380937D0381E0EC
:103DE00080937F038091CF02811105C00E94420D14
:103DF00081E08093CF02E091C902F091CA0230972E
:103E000039F489E793E09093CA028093C9020AC00B
:103E100080819181009711F0FC01FACF89E793E04E
:103E2000918380832091CB023091CC0280917D03DD
:103E300090917E03820F931F9093CC028093CB02CC
:103E400082E090E0909358038093570384E090E0E1
:103E500090935A038093590386E090E090935C031B
:103E600080935B0387E090E090935E0380935D0313
:103E700088E090E09093600380935F038AE090E095
:103E800090936203809361038BE090E090936403CE
:103E9000809363038CE090E09093660380936503C6
:103EA00082E190E0909368038093670383E190E060
:103EB00090936A038093690384E190E090936C038C
:103EC00080936B0361E082E00E94E20461E08091F4
:103ED00059030E94E20461E080915B030E94E204C6
:103EE00061E080915D030E94E20461E080915F03E4
:103EF0000E94E20460E080915F030E94B30461E0ED
:103F0000809161030E94E20461E0809163030E945A
:103F1000E20461E0809165030E94E20410922203B2
:103F2000109221031092250310922A031092290364
:103F30008FEF93E090932C0380932B0310922E032A
:103F400010922D039093300380932F03109232032D
:103F5000109231039093340380933303109236030D
:103F600010923503909338038093370310923A03ED
:103F70001092390390933C0380933B0310923E03CD
:103F800010923D039093400380933F0310924203AD
:103F9000109241039093440380934303109246038D
:103FA00010924503909348038093470310924A036D
:103FB0001092490390934C0380934B0310924E034D
:103FC00010924D039093500380934F03109252032D
:103FD00010925103909354038093530373E07093B2
:103FE000550324E320932403109226038FE3809348
:103FF00027031092280365E0698391E09A8389E0A2
:104000008B83A4E0AC83F1EAFD839E8335E83F8394
:10401000788769878A8739E13B879C8739E23D87C2
:104020002E8735E13F87188A35E2398B9A8B55E721
:104030005B8B9C8B45E94D8B2E8B35E53F8B188E2A
:1040400035E6398F1A8E31E83B8FE2E0EC8F5D8FD9
:104050009E8F4F8FA8A339A37AA36BA39CA38DA394
:104060009EA366E16FA398A790E899A796E29AA706
:104070009FEF9BA79FE79CA75DA790E19EA74FA7F7
:1040800096E098ABF9AB1AAA8BAB90E39CAB8DABE7
:1040900091E39EAB8FAB92E398AF89AF93E39AAF76
:1040A0008BAF2CAF8DAF85E38EAF3FAF2196EFAFD7
:1040B000219780EC22968FAF229723968FAF23977C
:1040C00082E490E00E9442267C0182E4FE01319667
:1040D000D70101900D928A95E1F787E090E00E9468
:1040E00042268C01DC0111961C921E921396FC92C2
:1040F000EE92129782E490E015969C938E9314971B
:1041000016961C920E947006FC01A385B485109738
:1041100019F41487038709C08D919C91119700971A
:1041200011F0DC01F9CF0D931C9325853685D8015C
:1041300014968D919C911597820F931F9687858772
:1041400090912403892F869586958695977009F01E
:104150008F5F8093250310912503812F90E00E94AB
:104160004226909322038093210381E090912603BD
:10417000911101C080E0145F180F10935603109244
:1041800008031092070310920A0310920903109279
:104190000C0310920B0310920E0310920D03109259
:1041A000100310920F031092120310921103109239
:1041B0001403109213031092160310921503109219
:1041C00018031092170310921A03109219031092F9
:1041D0001C0310921B038FEF9FEF90931E0380939D
:1041E0001D039093200380931F0380E090E02091B3
:1041F000250330E0821793074CF4E0912103F091FE
:104200002203E80FF91F10820196F1CF80E090ECB5
:10421000A3E4B4E48093FB029093FC02A093FD021C
:10422000B093FE0280E090E0A7EDB3E48093FF023C
:1042300090930003A0930103B093020380E090EAFF
:10424000A7E1B4E48093030390930403A0930503D0
:10425000B093060380E090E8A7E4B4E48093EF0213
:104260009093F002A093F102B093F20280E090EC00
:10427000A0E0B4E48093F3029093F402A093F502DB
:10428000B093F60280E090E2A4E2B4E48093F702F7
:104290009093F802A093F902B093FA0280E090E0C4
:1042A000A0EFB2E48093E3029093E402A093E502CE
:1042B000B093E60280E090E0A0E4B3E48093E702EC
:1042C0009093E802A093E902B093EA0280E090E0C4
:1042D000ACE1B3E48093EB029093EC02A093ED0287
:1042E000B093EE02CA56DF4F0FB6F894DEBF0FBE92
:1042F000CDBFDF91CF911F910F91FF90EF90089567
:104300000E94C22108F481E00895E89409C097FB57
:104310003EF490958095709561957F4F8F4F9F4F9C
:104320009923A9F0F92F96E9BB279395F6958795E0
:1043300077956795B795F111F8CFFAF4BB0F11F4A3
:1043400060FF1BC06F5F7F4F8F4F9F4F16C088234A
:1043500011F096E911C0772321F09EE8872F762F80
:1043600005C0662371F096E8862F70E060E02AF0C1
:104370009A95660F771F881FDAF7880F96958795AD
:1043800097F90895990F0008550FAA0BE0E8FEEF82
:1043900016161706E807F907C0F012161306E40709
:1043A000F50798F0621B730B840B950B39F40A2602
:1043B00061F0232B242B252B21F408950A2609F4E0
:1043C000A140A6958FEF811D811D08950E94F921BE
:1043D0000C946A220E945C2238F00E94632220F032
:1043E000952311F00C9453220C94592211240C940F
:1043F0009E220E947B2270F3959FC1F3950F50E09F
:10440000551F629FF001729FBB27F00DB11D639F86
:10441000AA27F00DB11DAA1F649F6627B00DA11D2C
:10442000661F829F2227B00DA11D621F739FB00DD2
:10443000A11D621F839FA00D611D221F749F332742
:10444000A00D611D231F849F600D211D822F762FDB
:104450006A2F11249F5750409AF0F1F088234AF0B8
:10446000EE0FFF1FBB1F661F771F881F9150504024
:10447000A9F79E3F510580F00C9453220C949E2284
:104480005F3FE4F3983ED4F3869577956795B795AB
:10449000F795E7959F5FC1F7FE2B880F911D9695C5
:1044A000879597F9089597F99F6780E870E060E035
:1044B00008959FEF80EC089500240A9416161706BD
:1044C00018060906089500240A9412161306140605
:1044D00005060895092E0394000C11F4882352F068
:1044E000BB0F40F4BF2B11F460FF04C06F5F7F4F20
:1044F0008F4F9F4F089557FD9058440F551F59F007
:104500005F3F71F04795880F97FB991F61F09F3FC0
:1045100079F087950895121613061406551FF2CFE9
:104520004695F1DF08C0161617061806991FF1CF39
:1045300086957105610508940895E894BB27662760
:104540007727CB0197F90895A1E21A2EAA1BBB1B6E
:10455000FD010DC0AA1FBB1FEE1FFF1FA217B3074F
:10456000E407F50720F0A21BB30BE40BF50B661F65
:10457000771F881F991F1A9469F760957095809529
:1045800090959B01AC01BD01CF010895052E97FBCD
:104590001EF400940E94DD2257FD07D00E94A42241
:1045A00007FC03D04EF40C94DD22509540953095D5
:1045B00021953F4F4F4F5F4F08959095809570958F
:1045C00061957F4F8F4F9F4F08950E94F022A59FC6
:1045D000900DB49F900DA49F800D911D11240895FE
:1045E000A29FB001B39FC001A39F700D811D112434
:1045F000911DB29F700D811D1124911D0895505879
:10460000BB27AA270E9417230C946A220E945C22CF
:1046100038F00E94632220F039F49F3F19F426F409
:104620000C9459220EF4E095E7FB0C945322E92FE9
:104630000E947B2258F3BA17620773078407950715
:1046400020F079F4A6F50C949D220EF4E0950B2E43
:10465000BA2FA02D0B01B90190010C01CA01A001D4
:104660001124FF27591B99F0593F50F4503E68F12F
:104670001A16F040A22F232F342F4427585FF3CF70
:10468000469537952795A795F0405395C9F77EF441
:104690001F16BA0B620B730B840BBAF09150A1F08A
:1046A000FF0FBB1F661F771F881FC2F70EC0BA0F10
:1046B000621F731F841F48F4879577956795B79598
:1046C000F7959E3F08F0B0CF9395880F08F0992793
:1046D000EE0F9795879508950E945C2260F080E820
:1046E00091E009F49EEF0E94632228F040E851E037
:1046F00071F45EEF0CC00C9459220C949D22E92FAA
:10470000E0780E947B2240F3092E052AB1F3261798
:1047100037074807590738F00E2E07F8E02569F0EB
:10472000E025E0640AC0EF6307F8009407FADB01B4
:10473000B9019D01DC01CA01AD01EF930E94F5238F
:104740000E946A220E94AF235F91552339F02BED1E
:104750003FE049E450FD49EC0C9400230895DF93B9
:10476000DD27B92FBF7740E85FE316161706480725
:104770005B0718F4D92F0E94B2249F938F937F93E5
:104780006F930E940A25EAECF0E00E9486240E94C2
:104790006A222F913F914F915F910E94F921DD2371
:1047A00051F09058A2EA2AED3FE049EC5FE3D0785F
:1047B0005D270E941723DF910C946A220E94F22346
:1047C0000C946A220E94632258F00E945C2240F0FE
:1047D00029F45F3F29F00C94532251110C949E222E
:1047E0000C9459220E947B2268F39923B1F355233C
:1047F00091F3951B550BBB27AA27621773078407F4
:1048000038F09F5F5F4F220F331F441FAA1FA9F389
:1048100035D00E2E3AF0E0E832D091505040E69577
:10482000001CCAF72BD0FE2F29D0660F771F881FD8
:10483000BB1F261737074807AB07B0E809F0BB0BCB
:10484000802DBF01FF2793585F4F3AF09E3F5105DF
:1048500078F00C9453220C949E225F3FE4F3983E30
:10486000D4F3869577956795B795F7959F5FC9F7C8
:10487000880F911D9695879597F90895E1E0660F49
:10488000771F881FBB1F621773078407BA0720F0C2
:10489000621B730B840BBA0BEE1F88F7E09508952B
:1048A0000E9457246894B1110C949E2208950E948E
:1048B000832288F09F5798F0B92F9927B751B0F00D
:1048C000E1F0660F771F881F991F1AF0BA95C9F794
:1048D00014C0B13091F00E949D22B1E008950C9473
:1048E0009D22672F782F8827B85F39F0B93FCCF326
:1048F000869577956795B395D9F73EF49095809511
:10490000709561957F4F8F4F9F4F0895DF93CF93A1
:104910001F930F93FF92EF92DF927B018C016894BB
:1049200006C0DA2EEF010E94F921FE01E894A5915C
:104930002591359145915591A6F3EF010E941723DA
:10494000FE019701A801DA9469F7DF90EF90FF90DC
:104950000F911F91CF91DF9108950E94C22108F419
:104960008FEF08959B01AC0160E070E080E89FE369
:104970000C94DE23FA01EE0FFF1F3096210531055E
:10498000A1F16115710561F48038BFE39B0749F11E
:1049900068949038810561F08038BFEF9B0741F043
:1049A00099234AF5FF3FE1053105210519F1E89406
:1049B0000894E795D901AA2329F4AB2FBE2FF85FFD
:1049C000D0F310C0FF5F70F4A695E0F7F73950F010
:1049D00019F0FF3A38F49F779F930DD00F9007FCA2
:1049E0009058089546F00C94592260E070E080E8F9
:1049F0009FE308954FE79F775F934F933F932F93E4
:104A00000E948A252F913F914F915F910E94E6214C
:104A10000C9416259B01AC010C94E62129F416F0A8
:104A20000C9453220C949D220C9459220E948322B0
:104A3000A8F39638A0F707F80F92E8942BE33AEA28
:104A400048EB5FE70E94FC210F920F920F924DB747
:104A50005EB70F920E94D225E7EFF0E00E94862415
:104A60004F915F91EF91FF91E595EE1FFF1F49F088
:104A7000FE57E0684427EE0F441FFA95E1F7419591
:104A8000550B0E944C250F9007FE0C94B2240895FC
:104A90000C9453220C9406260E948322D8F3992367
:104AA000C9F3940F511DA3F39150504094F059F065
:104AB000882332F0660F771F881F91505040C1F74E
:104AC0009E3F51052CF7880F911D9695879597F974
:104AD00008955F3FACF0983E9CF0BB278695779594
:104AE0006795B79508F4B1609395C1F7BB0F58F778
:104AF00011F460FFE8CF6F5F7F4F8F4F9F4FE3CF81
:104B00000C949E2216F00C9406260C94592268945C
:104B10000C9453220E948322A8F39923C1F3AEF38D
:104B2000DF93CF931F930F93FF92C92FDD27882325
:104B30002AF02197660F771F881FDAF720E030E010
:104B400040E85FEB9FE3883920F0803E38F0219603
:104B50008F770E940023EFE1F1E004C00E94002360
:104B6000ECE4F1E00E9486248B01BE01EC01FB2EF7
:104B70006F5771097595771F880B990B0E948721D4
:104B800028E132E741E35FE30E94F921AF2D98016C
:104B9000AE01FF900F911F91CF91DF910E941723DB
:104BA0000C946A22FA01DC01AA0FBB1F9B01AC0125
:104BB000BF5728F4222733274427507820C0B75105
:104BC00090F4AB2F0024469537952795011CA395AB
:104BD000D2F3002071F0220F331F441FB395DAF394
:104BE0000ED00C94FF2261307105A0E88A07B94607
:104BF00030F49B01AC0166277727882790783096A0
:104C000021F0208331834283538308959F3F31F005
:104C1000915020F4879577956795B795880F911DEA
:104C20009695879597F9089597FB072E16F40094AB
:104C300007D077FD09D00E942E2607FC05D03EF450
:104C4000909581959F4F0895709561957F4F089538
:104C5000EE0FFF1F0590F491E02D0994AA1BBB1BDA
:104C600051E107C0AA1FBB1FA617B70710F0A61B6C
:104C7000B70B881F991F5A95A9F780959095BC018D
:104C8000CD0108950F931F93CF93DF938230910549
:104C900010F482E090E0E0918903F0918A0320E033
:104CA00030E0A0E0B0E0309719F1408151810281FD
:104CB000138148175907C8F08417950769F41097AE
:104CC00031F012960C93129713961C9327C0009301
:104CD000890310938A0322C02115310519F0421768
:104CE000530718F49A01BD01EF01DF01F801DBCF92
:104CF00021153105F9F0281B390B2430310580F4DA
:104D00008A819B816115710521F0FB019383828368
:104D100004C090938A0380938903FE01329644C0B5
:104D2000FE01E20FF31F81939193225031093983E1
:104D300028833AC02091870330918803232B41F4C4
:104D40002091170130911801309388032093870335
:104D500020911501309116012115310541F42DB72F
:104D60003EB74091190150911A01241B350BE09177
:104D70008703F0918803E217F307A0F42E1B3F0B83
:104D80002817390778F0AC014E5F5F4F24173507BD
:104D900048F04E0F5F1F5093880340938703819321
:104DA000919302C0E0E0F0E0CF01DF91CF911F913D
:104DB0000F910895CF93DF93009709F481C0FC0110
:104DC000329713821282A0918903B0918A031097BF
:104DD00081F420813181820F931F209187033091CC
:104DE00088032817390751F5F0938803E093870368
:104DF00067C0ED0120E030E0CE17DF0740F44A81C4
:104E00005B819E0141155105F1F0EA01F5CFD38395
:104E1000C28340815181840F951FC817D90759F467
:104E200088819981840F951F0296918380838A815E
:104E30009B81938382832115310529F4F0938A03A2
:104E4000E09389033DC0E901FB83EA8349915991CD
:104E5000C40FD51FEC17FD0761F480819181840F89
:104E6000951F0296E90199838883828193819B83B0
:104E70008A83E0E0F0E012968D919C911397009761
:104E800019F0FD01DC01F7CF8D919C9111979D01E7
:104E90002E5F3F4F820F931F20918703309188032D
:104EA0002817390769F4309729F410928A03109271
:104EB000890302C013821282B0938803A0938703F0
:104EC000DF91CF91089581E090E0F8940C947127E0
:104ED000FB01DC0102C001900D9241505040D8F717
:064EE0000895F894FFCFD5
:104EE600010100C18081000000FFFFFFFF00E1001B
:104EF600000000000000008B03800000FF0100019D
:104F06000000FFFF0000010001FF0000000000D8C4
:104F1600021604D3038C02000000007F028B034BB1
:104F2600038C0200000000490349034903E502001F
:104F3600000000C401EC020203DA01E5012B0307BD
:104F460003000000005A06A802D502D402564D44BA
:104F560050565F317C315F564D4450560A00564DCF
:104F66004450455F003A323A007C005F564D44504B
:064F760045000D0A0000D9
:00000001FF
